Archive member included to satisfy reference by file (symbol)

c:/program files (x86)/atmel/studio/7.0/toolchain/arm/arm-gnu-toolchain/bin/../lib/gcc/arm-none-eabi/6.3.1/../../../../arm-none-eabi/lib/thumb/v6-m\libm.a(lib_a-w_log.o)
                              src/main.o (log)
c:/program files (x86)/atmel/studio/7.0/toolchain/arm/arm-gnu-toolchain/bin/../lib/gcc/arm-none-eabi/6.3.1/../../../../arm-none-eabi/lib/thumb/v6-m\libm.a(lib_a-w_pow.o)
                              src/main.o (pow)
c:/program files (x86)/atmel/studio/7.0/toolchain/arm/arm-gnu-toolchain/bin/../lib/gcc/arm-none-eabi/6.3.1/../../../../arm-none-eabi/lib/thumb/v6-m\libm.a(lib_a-e_log.o)
                              c:/program files (x86)/atmel/studio/7.0/toolchain/arm/arm-gnu-toolchain/bin/../lib/gcc/arm-none-eabi/6.3.1/../../../../arm-none-eabi/lib/thumb/v6-m\libm.a(lib_a-w_log.o) (__ieee754_log)
c:/program files (x86)/atmel/studio/7.0/toolchain/arm/arm-gnu-toolchain/bin/../lib/gcc/arm-none-eabi/6.3.1/../../../../arm-none-eabi/lib/thumb/v6-m\libm.a(lib_a-e_pow.o)
                              c:/program files (x86)/atmel/studio/7.0/toolchain/arm/arm-gnu-toolchain/bin/../lib/gcc/arm-none-eabi/6.3.1/../../../../arm-none-eabi/lib/thumb/v6-m\libm.a(lib_a-w_pow.o) (__ieee754_pow)
c:/program files (x86)/atmel/studio/7.0/toolchain/arm/arm-gnu-toolchain/bin/../lib/gcc/arm-none-eabi/6.3.1/../../../../arm-none-eabi/lib/thumb/v6-m\libm.a(lib_a-e_sqrt.o)
                              c:/program files (x86)/atmel/studio/7.0/toolchain/arm/arm-gnu-toolchain/bin/../lib/gcc/arm-none-eabi/6.3.1/../../../../arm-none-eabi/lib/thumb/v6-m\libm.a(lib_a-e_pow.o) (__ieee754_sqrt)
c:/program files (x86)/atmel/studio/7.0/toolchain/arm/arm-gnu-toolchain/bin/../lib/gcc/arm-none-eabi/6.3.1/../../../../arm-none-eabi/lib/thumb/v6-m\libm.a(lib_a-s_fabs.o)
                              c:/program files (x86)/atmel/studio/7.0/toolchain/arm/arm-gnu-toolchain/bin/../lib/gcc/arm-none-eabi/6.3.1/../../../../arm-none-eabi/lib/thumb/v6-m\libm.a(lib_a-e_pow.o) (fabs)
c:/program files (x86)/atmel/studio/7.0/toolchain/arm/arm-gnu-toolchain/bin/../lib/gcc/arm-none-eabi/6.3.1/../../../../arm-none-eabi/lib/thumb/v6-m\libm.a(lib_a-s_finite.o)
                              c:/program files (x86)/atmel/studio/7.0/toolchain/arm/arm-gnu-toolchain/bin/../lib/gcc/arm-none-eabi/6.3.1/../../../../arm-none-eabi/lib/thumb/v6-m\libm.a(lib_a-w_pow.o) (finite)
c:/program files (x86)/atmel/studio/7.0/toolchain/arm/arm-gnu-toolchain/bin/../lib/gcc/arm-none-eabi/6.3.1/../../../../arm-none-eabi/lib/thumb/v6-m\libm.a(lib_a-s_lib_ver.o)
                              c:/program files (x86)/atmel/studio/7.0/toolchain/arm/arm-gnu-toolchain/bin/../lib/gcc/arm-none-eabi/6.3.1/../../../../arm-none-eabi/lib/thumb/v6-m\libm.a(lib_a-w_log.o) (__fdlib_version)
c:/program files (x86)/atmel/studio/7.0/toolchain/arm/arm-gnu-toolchain/bin/../lib/gcc/arm-none-eabi/6.3.1/../../../../arm-none-eabi/lib/thumb/v6-m\libm.a(lib_a-s_matherr.o)
                              c:/program files (x86)/atmel/studio/7.0/toolchain/arm/arm-gnu-toolchain/bin/../lib/gcc/arm-none-eabi/6.3.1/../../../../arm-none-eabi/lib/thumb/v6-m\libm.a(lib_a-w_log.o) (matherr)
c:/program files (x86)/atmel/studio/7.0/toolchain/arm/arm-gnu-toolchain/bin/../lib/gcc/arm-none-eabi/6.3.1/../../../../arm-none-eabi/lib/thumb/v6-m\libm.a(lib_a-s_nan.o)
                              c:/program files (x86)/atmel/studio/7.0/toolchain/arm/arm-gnu-toolchain/bin/../lib/gcc/arm-none-eabi/6.3.1/../../../../arm-none-eabi/lib/thumb/v6-m\libm.a(lib_a-w_log.o) (nan)
c:/program files (x86)/atmel/studio/7.0/toolchain/arm/arm-gnu-toolchain/bin/../lib/gcc/arm-none-eabi/6.3.1/../../../../arm-none-eabi/lib/thumb/v6-m\libm.a(lib_a-s_rint.o)
                              c:/program files (x86)/atmel/studio/7.0/toolchain/arm/arm-gnu-toolchain/bin/../lib/gcc/arm-none-eabi/6.3.1/../../../../arm-none-eabi/lib/thumb/v6-m\libm.a(lib_a-w_pow.o) (rint)
c:/program files (x86)/atmel/studio/7.0/toolchain/arm/arm-gnu-toolchain/bin/../lib/gcc/arm-none-eabi/6.3.1/../../../../arm-none-eabi/lib/thumb/v6-m\libm.a(lib_a-s_scalbn.o)
                              c:/program files (x86)/atmel/studio/7.0/toolchain/arm/arm-gnu-toolchain/bin/../lib/gcc/arm-none-eabi/6.3.1/../../../../arm-none-eabi/lib/thumb/v6-m\libm.a(lib_a-e_pow.o) (scalbn)
c:/program files (x86)/atmel/studio/7.0/toolchain/arm/arm-gnu-toolchain/bin/../lib/gcc/arm-none-eabi/6.3.1/../../../../arm-none-eabi/lib/thumb/v6-m\libm.a(lib_a-s_copysign.o)
                              c:/program files (x86)/atmel/studio/7.0/toolchain/arm/arm-gnu-toolchain/bin/../lib/gcc/arm-none-eabi/6.3.1/../../../../arm-none-eabi/lib/thumb/v6-m\libm.a(lib_a-s_scalbn.o) (copysign)
c:/program files (x86)/atmel/studio/7.0/toolchain/arm/arm-gnu-toolchain/bin/../lib/gcc/arm-none-eabi/6.3.1/thumb/v6-m\libgcc.a(_udivsi3.o)
                              src/uart_drivers.o (__aeabi_uidiv)
c:/program files (x86)/atmel/studio/7.0/toolchain/arm/arm-gnu-toolchain/bin/../lib/gcc/arm-none-eabi/6.3.1/thumb/v6-m\libgcc.a(_divsi3.o)
                              src/main.o (__aeabi_idiv)
c:/program files (x86)/atmel/studio/7.0/toolchain/arm/arm-gnu-toolchain/bin/../lib/gcc/arm-none-eabi/6.3.1/thumb/v6-m\libgcc.a(_dvmd_tls.o)
                              c:/program files (x86)/atmel/studio/7.0/toolchain/arm/arm-gnu-toolchain/bin/../lib/gcc/arm-none-eabi/6.3.1/thumb/v6-m\libgcc.a(_udivsi3.o) (__aeabi_idiv0)
c:/program files (x86)/atmel/studio/7.0/toolchain/arm/arm-gnu-toolchain/bin/../lib/gcc/arm-none-eabi/6.3.1/thumb/v6-m\libgcc.a(_arm_cmpdf2.o)
                              c:/program files (x86)/atmel/studio/7.0/toolchain/arm/arm-gnu-toolchain/bin/../lib/gcc/arm-none-eabi/6.3.1/../../../../arm-none-eabi/lib/thumb/v6-m\libm.a(lib_a-w_log.o) (__aeabi_dcmpeq)
c:/program files (x86)/atmel/studio/7.0/toolchain/arm/arm-gnu-toolchain/bin/../lib/gcc/arm-none-eabi/6.3.1/thumb/v6-m\libgcc.a(_muldi3.o)
                              src/ASF/sam0/drivers/sercom/sercom.o (__aeabi_lmul)
c:/program files (x86)/atmel/studio/7.0/toolchain/arm/arm-gnu-toolchain/bin/../lib/gcc/arm-none-eabi/6.3.1/thumb/v6-m\libgcc.a(mulsf3.o)
                              src/uart_drivers.o (__aeabi_fmul)
c:/program files (x86)/atmel/studio/7.0/toolchain/arm/arm-gnu-toolchain/bin/../lib/gcc/arm-none-eabi/6.3.1/thumb/v6-m\libgcc.a(subsf3.o)
                              src/uart_drivers.o (__aeabi_fsub)
c:/program files (x86)/atmel/studio/7.0/toolchain/arm/arm-gnu-toolchain/bin/../lib/gcc/arm-none-eabi/6.3.1/thumb/v6-m\libgcc.a(fixsfsi.o)
                              src/uart_drivers.o (__aeabi_f2iz)
c:/program files (x86)/atmel/studio/7.0/toolchain/arm/arm-gnu-toolchain/bin/../lib/gcc/arm-none-eabi/6.3.1/thumb/v6-m\libgcc.a(floatsisf.o)
                              src/main.o (__aeabi_i2f)
c:/program files (x86)/atmel/studio/7.0/toolchain/arm/arm-gnu-toolchain/bin/../lib/gcc/arm-none-eabi/6.3.1/thumb/v6-m\libgcc.a(adddf3.o)
                              src/main.o (__aeabi_dadd)
c:/program files (x86)/atmel/studio/7.0/toolchain/arm/arm-gnu-toolchain/bin/../lib/gcc/arm-none-eabi/6.3.1/thumb/v6-m\libgcc.a(divdf3.o)
                              src/main.o (__aeabi_ddiv)
c:/program files (x86)/atmel/studio/7.0/toolchain/arm/arm-gnu-toolchain/bin/../lib/gcc/arm-none-eabi/6.3.1/thumb/v6-m\libgcc.a(eqdf2.o)
                              c:/program files (x86)/atmel/studio/7.0/toolchain/arm/arm-gnu-toolchain/bin/../lib/gcc/arm-none-eabi/6.3.1/thumb/v6-m\libgcc.a(_arm_cmpdf2.o) (__eqdf2)
c:/program files (x86)/atmel/studio/7.0/toolchain/arm/arm-gnu-toolchain/bin/../lib/gcc/arm-none-eabi/6.3.1/thumb/v6-m\libgcc.a(gedf2.o)
                              c:/program files (x86)/atmel/studio/7.0/toolchain/arm/arm-gnu-toolchain/bin/../lib/gcc/arm-none-eabi/6.3.1/thumb/v6-m\libgcc.a(_arm_cmpdf2.o) (__gedf2)
c:/program files (x86)/atmel/studio/7.0/toolchain/arm/arm-gnu-toolchain/bin/../lib/gcc/arm-none-eabi/6.3.1/thumb/v6-m\libgcc.a(ledf2.o)
                              c:/program files (x86)/atmel/studio/7.0/toolchain/arm/arm-gnu-toolchain/bin/../lib/gcc/arm-none-eabi/6.3.1/thumb/v6-m\libgcc.a(_arm_cmpdf2.o) (__ledf2)
c:/program files (x86)/atmel/studio/7.0/toolchain/arm/arm-gnu-toolchain/bin/../lib/gcc/arm-none-eabi/6.3.1/thumb/v6-m\libgcc.a(muldf3.o)
                              src/main.o (__aeabi_dmul)
c:/program files (x86)/atmel/studio/7.0/toolchain/arm/arm-gnu-toolchain/bin/../lib/gcc/arm-none-eabi/6.3.1/thumb/v6-m\libgcc.a(subdf3.o)
                              src/main.o (__aeabi_dsub)
c:/program files (x86)/atmel/studio/7.0/toolchain/arm/arm-gnu-toolchain/bin/../lib/gcc/arm-none-eabi/6.3.1/thumb/v6-m\libgcc.a(unorddf2.o)
                              c:/program files (x86)/atmel/studio/7.0/toolchain/arm/arm-gnu-toolchain/bin/../lib/gcc/arm-none-eabi/6.3.1/../../../../arm-none-eabi/lib/thumb/v6-m\libm.a(lib_a-w_log.o) (__aeabi_dcmpun)
c:/program files (x86)/atmel/studio/7.0/toolchain/arm/arm-gnu-toolchain/bin/../lib/gcc/arm-none-eabi/6.3.1/thumb/v6-m\libgcc.a(floatsidf.o)
                              c:/program files (x86)/atmel/studio/7.0/toolchain/arm/arm-gnu-toolchain/bin/../lib/gcc/arm-none-eabi/6.3.1/../../../../arm-none-eabi/lib/thumb/v6-m\libm.a(lib_a-e_log.o) (__aeabi_i2d)
c:/program files (x86)/atmel/studio/7.0/toolchain/arm/arm-gnu-toolchain/bin/../lib/gcc/arm-none-eabi/6.3.1/thumb/v6-m\libgcc.a(extendsfdf2.o)
                              src/main.o (__aeabi_f2d)
c:/program files (x86)/atmel/studio/7.0/toolchain/arm/arm-gnu-toolchain/bin/../lib/gcc/arm-none-eabi/6.3.1/thumb/v6-m\libgcc.a(truncdfsf2.o)
                              src/main.o (__aeabi_d2f)
c:/program files (x86)/atmel/studio/7.0/toolchain/arm/arm-gnu-toolchain/bin/../lib/gcc/arm-none-eabi/6.3.1/thumb/v6-m\libgcc.a(_clzsi2.o)
                              c:/program files (x86)/atmel/studio/7.0/toolchain/arm/arm-gnu-toolchain/bin/../lib/gcc/arm-none-eabi/6.3.1/thumb/v6-m\libgcc.a(mulsf3.o) (__clzsi2)
c:/program files (x86)/atmel/studio/7.0/toolchain/arm/arm-gnu-toolchain/bin/../lib/gcc/arm-none-eabi/6.3.1/../../../../arm-none-eabi/lib/thumb/v6-m\libc_nano.a(lib_a-atoi.o)
                              src/Gsmlibrary.o (atoi)
c:/program files (x86)/atmel/studio/7.0/toolchain/arm/arm-gnu-toolchain/bin/../lib/gcc/arm-none-eabi/6.3.1/../../../../arm-none-eabi/lib/thumb/v6-m\libc_nano.a(lib_a-errno.o)
                              c:/program files (x86)/atmel/studio/7.0/toolchain/arm/arm-gnu-toolchain/bin/../lib/gcc/arm-none-eabi/6.3.1/../../../../arm-none-eabi/lib/thumb/v6-m\libm.a(lib_a-w_log.o) (__errno)
c:/program files (x86)/atmel/studio/7.0/toolchain/arm/arm-gnu-toolchain/bin/../lib/gcc/arm-none-eabi/6.3.1/../../../../arm-none-eabi/lib/thumb/v6-m\libc_nano.a(lib_a-exit.o)
                              c:/program files (x86)/atmel/studio/7.0/toolchain/arm/arm-gnu-toolchain/bin/../lib/gcc/arm-none-eabi/6.3.1/../../../../arm-none-eabi/lib/thumb/v6-m/crt0.o (exit)
c:/program files (x86)/atmel/studio/7.0/toolchain/arm/arm-gnu-toolchain/bin/../lib/gcc/arm-none-eabi/6.3.1/../../../../arm-none-eabi/lib/thumb/v6-m\libc_nano.a(lib_a-fread.o)
                              src/config/crc32_table.o (fread)
c:/program files (x86)/atmel/studio/7.0/toolchain/arm/arm-gnu-toolchain/bin/../lib/gcc/arm-none-eabi/6.3.1/../../../../arm-none-eabi/lib/thumb/v6-m\libc_nano.a(lib_a-fwrite.o)
                              src/config/crc32_table.o (fwrite)
c:/program files (x86)/atmel/studio/7.0/toolchain/arm/arm-gnu-toolchain/bin/../lib/gcc/arm-none-eabi/6.3.1/../../../../arm-none-eabi/lib/thumb/v6-m\libc_nano.a(lib_a-impure.o)
                              c:/program files (x86)/atmel/studio/7.0/toolchain/arm/arm-gnu-toolchain/bin/../lib/gcc/arm-none-eabi/6.3.1/../../../../arm-none-eabi/lib/thumb/v6-m\libc_nano.a(lib_a-exit.o) (_global_impure_ptr)
c:/program files (x86)/atmel/studio/7.0/toolchain/arm/arm-gnu-toolchain/bin/../lib/gcc/arm-none-eabi/6.3.1/../../../../arm-none-eabi/lib/thumb/v6-m\libc_nano.a(lib_a-init.o)
                              c:/program files (x86)/atmel/studio/7.0/toolchain/arm/arm-gnu-toolchain/bin/../lib/gcc/arm-none-eabi/6.3.1/../../../../arm-none-eabi/lib/thumb/v6-m/crt0.o (__libc_init_array)
c:/program files (x86)/atmel/studio/7.0/toolchain/arm/arm-gnu-toolchain/bin/../lib/gcc/arm-none-eabi/6.3.1/../../../../arm-none-eabi/lib/thumb/v6-m\libc_nano.a(lib_a-itoa.o)
                              src/Gsmlibrary.o (itoa)
c:/program files (x86)/atmel/studio/7.0/toolchain/arm/arm-gnu-toolchain/bin/../lib/gcc/arm-none-eabi/6.3.1/../../../../arm-none-eabi/lib/thumb/v6-m\libc_nano.a(lib_a-malloc.o)
                              src/ASF/thirdparty/freertos/freertos-7.4.2/Source/portable/MemMang/heap_3.o (malloc)
c:/program files (x86)/atmel/studio/7.0/toolchain/arm/arm-gnu-toolchain/bin/../lib/gcc/arm-none-eabi/6.3.1/../../../../arm-none-eabi/lib/thumb/v6-m\libc_nano.a(lib_a-memcpy-stub.o)
                              src/ASF/sam0/drivers/adc/adc_sam_d_r_h/adc.o (memcpy)
c:/program files (x86)/atmel/studio/7.0/toolchain/arm/arm-gnu-toolchain/bin/../lib/gcc/arm-none-eabi/6.3.1/../../../../arm-none-eabi/lib/thumb/v6-m\libc_nano.a(lib_a-memset.o)
                              c:/program files (x86)/atmel/studio/7.0/toolchain/arm/arm-gnu-toolchain/bin/../lib/gcc/arm-none-eabi/6.3.1/../../../../arm-none-eabi/lib/thumb/v6-m/crt0.o (memset)
c:/program files (x86)/atmel/studio/7.0/toolchain/arm/arm-gnu-toolchain/bin/../lib/gcc/arm-none-eabi/6.3.1/../../../../arm-none-eabi/lib/thumb/v6-m\libc_nano.a(lib_a-nano-freer.o)
                              c:/program files (x86)/atmel/studio/7.0/toolchain/arm/arm-gnu-toolchain/bin/../lib/gcc/arm-none-eabi/6.3.1/../../../../arm-none-eabi/lib/thumb/v6-m\libc_nano.a(lib_a-malloc.o) (_free_r)
c:/program files (x86)/atmel/studio/7.0/toolchain/arm/arm-gnu-toolchain/bin/../lib/gcc/arm-none-eabi/6.3.1/../../../../arm-none-eabi/lib/thumb/v6-m\libc_nano.a(lib_a-nano-mallocr.o)
                              c:/program files (x86)/atmel/studio/7.0/toolchain/arm/arm-gnu-toolchain/bin/../lib/gcc/arm-none-eabi/6.3.1/../../../../arm-none-eabi/lib/thumb/v6-m\libc_nano.a(lib_a-malloc.o) (_malloc_r)
c:/program files (x86)/atmel/studio/7.0/toolchain/arm/arm-gnu-toolchain/bin/../lib/gcc/arm-none-eabi/6.3.1/../../../../arm-none-eabi/lib/thumb/v6-m\libc_nano.a(lib_a-refill.o)
                              c:/program files (x86)/atmel/studio/7.0/toolchain/arm/arm-gnu-toolchain/bin/../lib/gcc/arm-none-eabi/6.3.1/../../../../arm-none-eabi/lib/thumb/v6-m\libc_nano.a(lib_a-fread.o) (__srefill_r)
c:/program files (x86)/atmel/studio/7.0/toolchain/arm/arm-gnu-toolchain/bin/../lib/gcc/arm-none-eabi/6.3.1/../../../../arm-none-eabi/lib/thumb/v6-m\libc_nano.a(lib_a-sbrkr.o)
                              c:/program files (x86)/atmel/studio/7.0/toolchain/arm/arm-gnu-toolchain/bin/../lib/gcc/arm-none-eabi/6.3.1/../../../../arm-none-eabi/lib/thumb/v6-m\libc_nano.a(lib_a-nano-mallocr.o) (_sbrk_r)
c:/program files (x86)/atmel/studio/7.0/toolchain/arm/arm-gnu-toolchain/bin/../lib/gcc/arm-none-eabi/6.3.1/../../../../arm-none-eabi/lib/thumb/v6-m\libc_nano.a(lib_a-sprintf.o)
                              src/config/jsmn.o (sprintf)
c:/program files (x86)/atmel/studio/7.0/toolchain/arm/arm-gnu-toolchain/bin/../lib/gcc/arm-none-eabi/6.3.1/../../../../arm-none-eabi/lib/thumb/v6-m\libc_nano.a(lib_a-strchr.o)
                              src/Gsmlibrary.o (strchr)
c:/program files (x86)/atmel/studio/7.0/toolchain/arm/arm-gnu-toolchain/bin/../lib/gcc/arm-none-eabi/6.3.1/../../../../arm-none-eabi/lib/thumb/v6-m\libc_nano.a(lib_a-strcmp.o)
                              src/Gsmlibrary.o (strcmp)
c:/program files (x86)/atmel/studio/7.0/toolchain/arm/arm-gnu-toolchain/bin/../lib/gcc/arm-none-eabi/6.3.1/../../../../arm-none-eabi/lib/thumb/v6-m\libc_nano.a(lib_a-strcpy.o)
                              src/Gsmlibrary.o (strcpy)
c:/program files (x86)/atmel/studio/7.0/toolchain/arm/arm-gnu-toolchain/bin/../lib/gcc/arm-none-eabi/6.3.1/../../../../arm-none-eabi/lib/thumb/v6-m\libc_nano.a(lib_a-strlen.o)
                              src/config/jsmn.o (strlen)
c:/program files (x86)/atmel/studio/7.0/toolchain/arm/arm-gnu-toolchain/bin/../lib/gcc/arm-none-eabi/6.3.1/../../../../arm-none-eabi/lib/thumb/v6-m\libc_nano.a(lib_a-strncmp.o)
                              src/config/jsmn.o (strncmp)
c:/program files (x86)/atmel/studio/7.0/toolchain/arm/arm-gnu-toolchain/bin/../lib/gcc/arm-none-eabi/6.3.1/../../../../arm-none-eabi/lib/thumb/v6-m\libc_nano.a(lib_a-strncpy.o)
                              src/ASF/thirdparty/freertos/freertos-7.4.2/Source/tasks.o (strncpy)
c:/program files (x86)/atmel/studio/7.0/toolchain/arm/arm-gnu-toolchain/bin/../lib/gcc/arm-none-eabi/6.3.1/../../../../arm-none-eabi/lib/thumb/v6-m\libc_nano.a(lib_a-strstr.o)
                              src/Gsmlibrary.o (strstr)
c:/program files (x86)/atmel/studio/7.0/toolchain/arm/arm-gnu-toolchain/bin/../lib/gcc/arm-none-eabi/6.3.1/../../../../arm-none-eabi/lib/thumb/v6-m\libc_nano.a(lib_a-strtok.o)
                              src/main.o (strtok)
c:/program files (x86)/atmel/studio/7.0/toolchain/arm/arm-gnu-toolchain/bin/../lib/gcc/arm-none-eabi/6.3.1/../../../../arm-none-eabi/lib/thumb/v6-m\libc_nano.a(lib_a-strtok_r.o)
                              c:/program files (x86)/atmel/studio/7.0/toolchain/arm/arm-gnu-toolchain/bin/../lib/gcc/arm-none-eabi/6.3.1/../../../../arm-none-eabi/lib/thumb/v6-m\libc_nano.a(lib_a-strtok.o) (__strtok_r)
c:/program files (x86)/atmel/studio/7.0/toolchain/arm/arm-gnu-toolchain/bin/../lib/gcc/arm-none-eabi/6.3.1/../../../../arm-none-eabi/lib/thumb/v6-m\libc_nano.a(lib_a-strtol.o)
                              c:/program files (x86)/atmel/studio/7.0/toolchain/arm/arm-gnu-toolchain/bin/../lib/gcc/arm-none-eabi/6.3.1/../../../../arm-none-eabi/lib/thumb/v6-m\libc_nano.a(lib_a-atoi.o) (_strtol_r)
c:/program files (x86)/atmel/studio/7.0/toolchain/arm/arm-gnu-toolchain/bin/../lib/gcc/arm-none-eabi/6.3.1/../../../../arm-none-eabi/lib/thumb/v6-m\libc_nano.a(lib_a-strupr.o)
                              src/main.o (strupr)
c:/program files (x86)/atmel/studio/7.0/toolchain/arm/arm-gnu-toolchain/bin/../lib/gcc/arm-none-eabi/6.3.1/../../../../arm-none-eabi/lib/thumb/v6-m\libc_nano.a(lib_a-utoa.o)
                              c:/program files (x86)/atmel/studio/7.0/toolchain/arm/arm-gnu-toolchain/bin/../lib/gcc/arm-none-eabi/6.3.1/../../../../arm-none-eabi/lib/thumb/v6-m\libc_nano.a(lib_a-itoa.o) (__utoa)
c:/program files (x86)/atmel/studio/7.0/toolchain/arm/arm-gnu-toolchain/bin/../lib/gcc/arm-none-eabi/6.3.1/../../../../arm-none-eabi/lib/thumb/v6-m\libc_nano.a(lib_a-wbuf.o)
                              c:/program files (x86)/atmel/studio/7.0/toolchain/arm/arm-gnu-toolchain/bin/../lib/gcc/arm-none-eabi/6.3.1/../../../../arm-none-eabi/lib/thumb/v6-m\libc_nano.a(lib_a-fwrite.o) (__swbuf_r)
c:/program files (x86)/atmel/studio/7.0/toolchain/arm/arm-gnu-toolchain/bin/../lib/gcc/arm-none-eabi/6.3.1/../../../../arm-none-eabi/lib/thumb/v6-m\libc_nano.a(lib_a-wsetup.o)
                              c:/program files (x86)/atmel/studio/7.0/toolchain/arm/arm-gnu-toolchain/bin/../lib/gcc/arm-none-eabi/6.3.1/../../../../arm-none-eabi/lib/thumb/v6-m\libc_nano.a(lib_a-fwrite.o) (__swsetup_r)
c:/program files (x86)/atmel/studio/7.0/toolchain/arm/arm-gnu-toolchain/bin/../lib/gcc/arm-none-eabi/6.3.1/../../../../arm-none-eabi/lib/thumb/v6-m\libc_nano.a(lib_a-fflush.o)
                              c:/program files (x86)/atmel/studio/7.0/toolchain/arm/arm-gnu-toolchain/bin/../lib/gcc/arm-none-eabi/6.3.1/../../../../arm-none-eabi/lib/thumb/v6-m\libc_nano.a(lib_a-refill.o) (__sflush_r)
c:/program files (x86)/atmel/studio/7.0/toolchain/arm/arm-gnu-toolchain/bin/../lib/gcc/arm-none-eabi/6.3.1/../../../../arm-none-eabi/lib/thumb/v6-m\libc_nano.a(lib_a-findfp.o)
                              c:/program files (x86)/atmel/studio/7.0/toolchain/arm/arm-gnu-toolchain/bin/../lib/gcc/arm-none-eabi/6.3.1/../../../../arm-none-eabi/lib/thumb/v6-m\libc_nano.a(lib_a-fread.o) (__sinit)
c:/program files (x86)/atmel/studio/7.0/toolchain/arm/arm-gnu-toolchain/bin/../lib/gcc/arm-none-eabi/6.3.1/../../../../arm-none-eabi/lib/thumb/v6-m\libc_nano.a(lib_a-fwalk.o)
                              c:/program files (x86)/atmel/studio/7.0/toolchain/arm/arm-gnu-toolchain/bin/../lib/gcc/arm-none-eabi/6.3.1/../../../../arm-none-eabi/lib/thumb/v6-m\libc_nano.a(lib_a-refill.o) (_fwalk)
c:/program files (x86)/atmel/studio/7.0/toolchain/arm/arm-gnu-toolchain/bin/../lib/gcc/arm-none-eabi/6.3.1/../../../../arm-none-eabi/lib/thumb/v6-m\libc_nano.a(lib_a-locale.o)
                              c:/program files (x86)/atmel/studio/7.0/toolchain/arm/arm-gnu-toolchain/bin/../lib/gcc/arm-none-eabi/6.3.1/../../../../arm-none-eabi/lib/thumb/v6-m\libc_nano.a(lib_a-strtol.o) (__locale_ctype_ptr_l)
c:/program files (x86)/atmel/studio/7.0/toolchain/arm/arm-gnu-toolchain/bin/../lib/gcc/arm-none-eabi/6.3.1/../../../../arm-none-eabi/lib/thumb/v6-m\libc_nano.a(lib_a-makebuf.o)
                              c:/program files (x86)/atmel/studio/7.0/toolchain/arm/arm-gnu-toolchain/bin/../lib/gcc/arm-none-eabi/6.3.1/../../../../arm-none-eabi/lib/thumb/v6-m\libc_nano.a(lib_a-refill.o) (__smakebuf_r)
c:/program files (x86)/atmel/studio/7.0/toolchain/arm/arm-gnu-toolchain/bin/../lib/gcc/arm-none-eabi/6.3.1/../../../../arm-none-eabi/lib/thumb/v6-m\libc_nano.a(lib_a-mbtowc_r.o)
                              c:/program files (x86)/atmel/studio/7.0/toolchain/arm/arm-gnu-toolchain/bin/../lib/gcc/arm-none-eabi/6.3.1/../../../../arm-none-eabi/lib/thumb/v6-m\libc_nano.a(lib_a-locale.o) (__ascii_mbtowc)
c:/program files (x86)/atmel/studio/7.0/toolchain/arm/arm-gnu-toolchain/bin/../lib/gcc/arm-none-eabi/6.3.1/../../../../arm-none-eabi/lib/thumb/v6-m\libc_nano.a(lib_a-mlock.o)
                              c:/program files (x86)/atmel/studio/7.0/toolchain/arm/arm-gnu-toolchain/bin/../lib/gcc/arm-none-eabi/6.3.1/../../../../arm-none-eabi/lib/thumb/v6-m\libc_nano.a(lib_a-nano-freer.o) (__malloc_lock)
c:/program files (x86)/atmel/studio/7.0/toolchain/arm/arm-gnu-toolchain/bin/../lib/gcc/arm-none-eabi/6.3.1/../../../../arm-none-eabi/lib/thumb/v6-m\libc_nano.a(lib_a-nano-svfprintf.o)
                              c:/program files (x86)/atmel/studio/7.0/toolchain/arm/arm-gnu-toolchain/bin/../lib/gcc/arm-none-eabi/6.3.1/../../../../arm-none-eabi/lib/thumb/v6-m\libc_nano.a(lib_a-sprintf.o) (_svfprintf_r)
c:/program files (x86)/atmel/studio/7.0/toolchain/arm/arm-gnu-toolchain/bin/../lib/gcc/arm-none-eabi/6.3.1/../../../../arm-none-eabi/lib/thumb/v6-m\libc_nano.a(lib_a-nano-vfprintf_i.o)
                              c:/program files (x86)/atmel/studio/7.0/toolchain/arm/arm-gnu-toolchain/bin/../lib/gcc/arm-none-eabi/6.3.1/../../../../arm-none-eabi/lib/thumb/v6-m\libc_nano.a(lib_a-nano-svfprintf.o) (_printf_i)
c:/program files (x86)/atmel/studio/7.0/toolchain/arm/arm-gnu-toolchain/bin/../lib/gcc/arm-none-eabi/6.3.1/../../../../arm-none-eabi/lib/thumb/v6-m\libc_nano.a(lib_a-reent.o)
                              c:/program files (x86)/atmel/studio/7.0/toolchain/arm/arm-gnu-toolchain/bin/../lib/gcc/arm-none-eabi/6.3.1/../../../../arm-none-eabi/lib/thumb/v6-m\libc_nano.a(lib_a-sbrkr.o) (errno)
c:/program files (x86)/atmel/studio/7.0/toolchain/arm/arm-gnu-toolchain/bin/../lib/gcc/arm-none-eabi/6.3.1/../../../../arm-none-eabi/lib/thumb/v6-m\libc_nano.a(lib_a-stdio.o)
                              c:/program files (x86)/atmel/studio/7.0/toolchain/arm/arm-gnu-toolchain/bin/../lib/gcc/arm-none-eabi/6.3.1/../../../../arm-none-eabi/lib/thumb/v6-m\libc_nano.a(lib_a-findfp.o) (__sread)
c:/program files (x86)/atmel/studio/7.0/toolchain/arm/arm-gnu-toolchain/bin/../lib/gcc/arm-none-eabi/6.3.1/../../../../arm-none-eabi/lib/thumb/v6-m\libc_nano.a(lib_a-wctomb_r.o)
                              c:/program files (x86)/atmel/studio/7.0/toolchain/arm/arm-gnu-toolchain/bin/../lib/gcc/arm-none-eabi/6.3.1/../../../../arm-none-eabi/lib/thumb/v6-m\libc_nano.a(lib_a-locale.o) (__ascii_wctomb)
c:/program files (x86)/atmel/studio/7.0/toolchain/arm/arm-gnu-toolchain/bin/../lib/gcc/arm-none-eabi/6.3.1/../../../../arm-none-eabi/lib/thumb/v6-m\libc_nano.a(lib_a-writer.o)
                              c:/program files (x86)/atmel/studio/7.0/toolchain/arm/arm-gnu-toolchain/bin/../lib/gcc/arm-none-eabi/6.3.1/../../../../arm-none-eabi/lib/thumb/v6-m\libc_nano.a(lib_a-stdio.o) (_write_r)
c:/program files (x86)/atmel/studio/7.0/toolchain/arm/arm-gnu-toolchain/bin/../lib/gcc/arm-none-eabi/6.3.1/../../../../arm-none-eabi/lib/thumb/v6-m\libc_nano.a(lib_a-closer.o)
                              c:/program files (x86)/atmel/studio/7.0/toolchain/arm/arm-gnu-toolchain/bin/../lib/gcc/arm-none-eabi/6.3.1/../../../../arm-none-eabi/lib/thumb/v6-m\libc_nano.a(lib_a-stdio.o) (_close_r)
c:/program files (x86)/atmel/studio/7.0/toolchain/arm/arm-gnu-toolchain/bin/../lib/gcc/arm-none-eabi/6.3.1/../../../../arm-none-eabi/lib/thumb/v6-m\libc_nano.a(lib_a-ctype_.o)
                              c:/program files (x86)/atmel/studio/7.0/toolchain/arm/arm-gnu-toolchain/bin/../lib/gcc/arm-none-eabi/6.3.1/../../../../arm-none-eabi/lib/thumb/v6-m\libc_nano.a(lib_a-locale.o) (_ctype_)
c:/program files (x86)/atmel/studio/7.0/toolchain/arm/arm-gnu-toolchain/bin/../lib/gcc/arm-none-eabi/6.3.1/../../../../arm-none-eabi/lib/thumb/v6-m\libc_nano.a(lib_a-fstatr.o)
                              c:/program files (x86)/atmel/studio/7.0/toolchain/arm/arm-gnu-toolchain/bin/../lib/gcc/arm-none-eabi/6.3.1/../../../../arm-none-eabi/lib/thumb/v6-m\libc_nano.a(lib_a-makebuf.o) (_fstat_r)
c:/program files (x86)/atmel/studio/7.0/toolchain/arm/arm-gnu-toolchain/bin/../lib/gcc/arm-none-eabi/6.3.1/../../../../arm-none-eabi/lib/thumb/v6-m\libc_nano.a(lib_a-isattyr.o)
                              c:/program files (x86)/atmel/studio/7.0/toolchain/arm/arm-gnu-toolchain/bin/../lib/gcc/arm-none-eabi/6.3.1/../../../../arm-none-eabi/lib/thumb/v6-m\libc_nano.a(lib_a-makebuf.o) (_isatty_r)
c:/program files (x86)/atmel/studio/7.0/toolchain/arm/arm-gnu-toolchain/bin/../lib/gcc/arm-none-eabi/6.3.1/../../../../arm-none-eabi/lib/thumb/v6-m\libc_nano.a(lib_a-lseekr.o)
                              c:/program files (x86)/atmel/studio/7.0/toolchain/arm/arm-gnu-toolchain/bin/../lib/gcc/arm-none-eabi/6.3.1/../../../../arm-none-eabi/lib/thumb/v6-m\libc_nano.a(lib_a-stdio.o) (_lseek_r)
c:/program files (x86)/atmel/studio/7.0/toolchain/arm/arm-gnu-toolchain/bin/../lib/gcc/arm-none-eabi/6.3.1/../../../../arm-none-eabi/lib/thumb/v6-m\libc_nano.a(lib_a-memchr-stub.o)
                              c:/program files (x86)/atmel/studio/7.0/toolchain/arm/arm-gnu-toolchain/bin/../lib/gcc/arm-none-eabi/6.3.1/../../../../arm-none-eabi/lib/thumb/v6-m\libc_nano.a(lib_a-nano-svfprintf.o) (memchr)
c:/program files (x86)/atmel/studio/7.0/toolchain/arm/arm-gnu-toolchain/bin/../lib/gcc/arm-none-eabi/6.3.1/../../../../arm-none-eabi/lib/thumb/v6-m\libc_nano.a(lib_a-memmove.o)
                              c:/program files (x86)/atmel/studio/7.0/toolchain/arm/arm-gnu-toolchain/bin/../lib/gcc/arm-none-eabi/6.3.1/../../../../arm-none-eabi/lib/thumb/v6-m\libc_nano.a(lib_a-nano-svfprintf.o) (memmove)
c:/program files (x86)/atmel/studio/7.0/toolchain/arm/arm-gnu-toolchain/bin/../lib/gcc/arm-none-eabi/6.3.1/../../../../arm-none-eabi/lib/thumb/v6-m\libc_nano.a(lib_a-nano-reallocr.o)
                              c:/program files (x86)/atmel/studio/7.0/toolchain/arm/arm-gnu-toolchain/bin/../lib/gcc/arm-none-eabi/6.3.1/../../../../arm-none-eabi/lib/thumb/v6-m\libc_nano.a(lib_a-nano-svfprintf.o) (_realloc_r)
c:/program files (x86)/atmel/studio/7.0/toolchain/arm/arm-gnu-toolchain/bin/../lib/gcc/arm-none-eabi/6.3.1/../../../../arm-none-eabi/lib/thumb/v6-m\libc_nano.a(lib_a-readr.o)
                              c:/program files (x86)/atmel/studio/7.0/toolchain/arm/arm-gnu-toolchain/bin/../lib/gcc/arm-none-eabi/6.3.1/../../../../arm-none-eabi/lib/thumb/v6-m\libc_nano.a(lib_a-stdio.o) (_read_r)
c:/program files (x86)/atmel/studio/7.0/toolchain/arm/arm-gnu-toolchain/bin/../lib/gcc/arm-none-eabi/6.3.1/../../../../arm-none-eabi/lib/thumb/v6-m\libc_nano.a(lib_a-nano-msizer.o)
                              c:/program files (x86)/atmel/studio/7.0/toolchain/arm/arm-gnu-toolchain/bin/../lib/gcc/arm-none-eabi/6.3.1/../../../../arm-none-eabi/lib/thumb/v6-m\libc_nano.a(lib_a-nano-reallocr.o) (_malloc_usable_size_r)

Allocating common symbols
Common symbol       size              file

_rtc_instance       0x4               src/ASF/sam0/drivers/rtc/rtc_sam_d_r_h/rtc_calendar.o
extint_event_conf7  0x20              src/main.o
rtc_instance        0x14              src/Gsmlibrary.o
adc_instance_7      0x20              src/adc_drivers.o
config_adc_0        0x30              src/adc_drivers.o
usart_instance      0x24              src/uart_drivers.o
wdt_early_warning_callback
                    0x4               src/ASF/sam0/drivers/wdt/wdt_callback.o
errno               0x4               c:/program files (x86)/atmel/studio/7.0/toolchain/arm/arm-gnu-toolchain/bin/../lib/gcc/arm-none-eabi/6.3.1/../../../../arm-none-eabi/lib/thumb/v6-m\libc_nano.a(lib_a-reent.o)
config_adc_17       0x30              src/adc_drivers.o
adc_instance_16     0x20              src/adc_drivers.o
adc_instance_4      0x20              src/adc_drivers.o
adc_instance_19     0x20              src/adc_drivers.o
config_adc_16       0x30              src/adc_drivers.o
config_adc_1        0x30              src/adc_drivers.o
adc_instance_1      0x20              src/adc_drivers.o
alarm               0xa               src/Gsmlibrary.o
extint_event_conf6  0x20              src/main.o
config_adc_18       0x30              src/adc_drivers.o
dummy_write         0x2               src/ASF/sam0/drivers/sercom/spi/spi_interrupt.o
config_adc_6        0x30              src/adc_drivers.o
_sercom_instances   0x10              src/ASF/sam0/drivers/sercom/sercom_interrupt.o
time_gsm            0xc               src/main.o
config_adc_7        0x30              src/adc_drivers.o
_extint_dev         0x40              src/ASF/sam0/drivers/extint/extint_sam_d_r_h/extint.o
adc_result_buffer   0x100             src/main.o
usart_instance_sim900
                    0x24              src/GsmPortSetup.o
config_adc_19       0x30              src/adc_drivers.o
adc_instance_18     0x20              src/adc_drivers.o
_current_channel    0x1               src/ASF/sam0/drivers/extint/extint_callback.o
adc_instance_17     0x20              src/adc_drivers.o
time                0x8               src/Gsmlibrary.o
extint_event_conf5  0x20              src/main.o
adc_instance_0      0x20              src/adc_drivers.o
adc_instance_6      0x20              src/adc_drivers.o
_adc_instances      0x4               src/ASF/sam0/drivers/adc/adc_sam_d_r_h/adc_callback.o
config_adc_5        0x30              src/adc_drivers.o
adc_instance_5      0x20              src/adc_drivers.o
TaskHandle_1        0x4               src/main.o
config_adc_4        0x30              src/adc_drivers.o
adc_instance        0x20              src/adc_drivers.o

Discarded input sections

 .text          0x00000000        0x0 c:/program files (x86)/atmel/studio/7.0/toolchain/arm/arm-gnu-toolchain/bin/../lib/gcc/arm-none-eabi/6.3.1/thumb/v6-m/crti.o
 .data          0x00000000        0x0 c:/program files (x86)/atmel/studio/7.0/toolchain/arm/arm-gnu-toolchain/bin/../lib/gcc/arm-none-eabi/6.3.1/thumb/v6-m/crti.o
 .bss           0x00000000        0x0 c:/program files (x86)/atmel/studio/7.0/toolchain/arm/arm-gnu-toolchain/bin/../lib/gcc/arm-none-eabi/6.3.1/thumb/v6-m/crti.o
 .data          0x00000000        0x4 c:/program files (x86)/atmel/studio/7.0/toolchain/arm/arm-gnu-toolchain/bin/../lib/gcc/arm-none-eabi/6.3.1/thumb/v6-m/crtbegin.o
 .text          0x00000000       0x78 c:/program files (x86)/atmel/studio/7.0/toolchain/arm/arm-gnu-toolchain/bin/../lib/gcc/arm-none-eabi/6.3.1/../../../../arm-none-eabi/lib/thumb/v6-m/crt0.o
 .data          0x00000000        0x0 c:/program files (x86)/atmel/studio/7.0/toolchain/arm/arm-gnu-toolchain/bin/../lib/gcc/arm-none-eabi/6.3.1/../../../../arm-none-eabi/lib/thumb/v6-m/crt0.o
 .bss           0x00000000        0x0 c:/program files (x86)/atmel/studio/7.0/toolchain/arm/arm-gnu-toolchain/bin/../lib/gcc/arm-none-eabi/6.3.1/../../../../arm-none-eabi/lib/thumb/v6-m/crt0.o
 .ARM.extab     0x00000000        0x0 c:/program files (x86)/atmel/studio/7.0/toolchain/arm/arm-gnu-toolchain/bin/../lib/gcc/arm-none-eabi/6.3.1/../../../../arm-none-eabi/lib/thumb/v6-m/crt0.o
 .ARM.exidx     0x00000000        0x8 c:/program files (x86)/atmel/studio/7.0/toolchain/arm/arm-gnu-toolchain/bin/../lib/gcc/arm-none-eabi/6.3.1/../../../../arm-none-eabi/lib/thumb/v6-m/crt0.o
 .ARM.attributes
                0x00000000       0x1b c:/program files (x86)/atmel/studio/7.0/toolchain/arm/arm-gnu-toolchain/bin/../lib/gcc/arm-none-eabi/6.3.1/../../../../arm-none-eabi/lib/thumb/v6-m/crt0.o
 .group         0x00000000        0x8 src/adc_drivers.o
 .group         0x00000000        0x8 src/adc_drivers.o
 .group         0x00000000        0x8 src/adc_drivers.o
 .group         0x00000000        0x8 src/adc_drivers.o
 .group         0x00000000        0x8 src/adc_drivers.o
 .group         0x00000000        0x8 src/adc_drivers.o
 .group         0x00000000        0x8 src/adc_drivers.o
Memory Configuration

Name             Origin             Length             Attributes
rom              0x00000000         0x00040000         xr
ram              0x20000000         0x00008000         xrw
*default*        0x00000000         0xffffffff

Linker script and memory map

LOAD c:/program files (x86)/atmel/studio/7.0/toolchain/arm/arm-gnu-toolchain/bin/../lib/gcc/arm-none-eabi/6.3.1/thumb/v6-m/crti.o
LOAD c:/program files (x86)/atmel/studio/7.0/toolchain/arm/arm-gnu-toolchain/bin/../lib/gcc/arm-none-eabi/6.3.1/thumb/v6-m/crtbegin.o
LOAD c:/program files (x86)/atmel/studio/7.0/toolchain/arm/arm-gnu-toolchain/bin/../lib/gcc/arm-none-eabi/6.3.1/../../../../arm-none-eabi/lib/thumb/v6-m/crt0.o
LOAD src/adc_drivers.o
LOAD src/ASF/sam0/drivers/adc/adc_sam_d_r_h/adc.o
LOAD src/ASF/sam0/drivers/adc/adc_sam_d_r_h/adc_callback.o
LOAD src/config/crc32_table.o
LOAD src/config/jsmn.o
LOAD src/Gsmlibrary.o
LOAD src/GsmPortSetup.o
LOAD src/main.o
LOAD src/samd20j.o
LOAD src/uart_drivers.o
LOAD src/ASF/sam0/drivers/extint/extint_callback.o
LOAD src/ASF/sam0/drivers/extint/extint_sam_d_r_h/extint.o
LOAD src/ASF/sam0/drivers/rtc/rtc_sam_d_r_h/rtc_calendar.o
LOAD src/ASF/sam0/drivers/rtc/rtc_sam_d_r_h/rtc_calendar_interrupt.o
LOAD src/ASF/sam0/drivers/sercom/usart/usart.o
LOAD src/ASF/sam0/drivers/sercom/usart/usart_interrupt.o
LOAD src/ASF/thirdparty/freertos/freertos-7.4.2/Source/portable/MemMang/heap_3.o
LOAD src/ASF/sam0/drivers/wdt/wdt.o
LOAD src/ASF/sam0/drivers/wdt/wdt_callback.o
LOAD src/ASF/sam0/drivers/sercom/spi/spi.o
LOAD src/ASF/sam0/drivers/sercom/spi/spi_interrupt.o
LOAD src/ASF/sam0/drivers/sercom/spi_master_vec/spi_master_vec.o
LOAD src/ASF/sam0/drivers/port/port.o
LOAD src/ASF/sam0/drivers/sercom/sercom.o
LOAD src/ASF/thirdparty/freertos/freertos-7.4.2/Source/croutine.o
LOAD src/ASF/thirdparty/freertos/freertos-7.4.2/Source/portable/GCC/ARM_CM0/port.o
LOAD src/ASF/thirdparty/freertos/freertos-7.4.2/Source/list.o
LOAD src/ASF/thirdparty/freertos/freertos-7.4.2/Source/queue.o
LOAD src/ASF/thirdparty/freertos/freertos-7.4.2/Source/tasks.o
LOAD src/ASF/thirdparty/freertos/freertos-7.4.2/Source/timers.o
LOAD src/ASF/sam0/drivers/sercom/sercom_interrupt.o
LOAD src/ASF/sam0/drivers/bod/bod_sam_d_r_h/bod.o
LOAD src/ASF/common2/services/delay/sam0/systick_counter.o
LOAD src/ASF/sam0/drivers/nvm/nvm.o
LOAD src/ASF/sam0/services/eeprom/emulator/main_array/eeprom.o
LOAD src/ASF/common2/boards/user_board/init.o
LOAD src/ASF/common/utils/interrupt/interrupt_sam_nvic.o
LOAD src/ASF/sam0/drivers/system/clock/clock_samd20/clock.o
LOAD src/ASF/sam0/drivers/system/clock/clock_samd20/gclk.o
LOAD src/ASF/sam0/drivers/system/interrupt/system_interrupt.o
LOAD src/ASF/sam0/drivers/system/pinmux/pinmux.o
LOAD src/ASF/sam0/drivers/system/system.o
LOAD src/ASF/sam0/utils/cmsis/samd20/source/gcc/startup_samd20.o
LOAD src/ASF/sam0/utils/cmsis/samd20/source/system_samd20.o
LOAD src/ASF/sam0/utils/syscalls/gcc/syscalls.o
START GROUP
LOAD ../src/ASF/thirdparty/CMSIS/Lib/GCC\libarm_cortexM0l_math.a
LOAD c:/program files (x86)/atmel/studio/7.0/toolchain/arm/arm-gnu-toolchain/bin/../lib/gcc/arm-none-eabi/6.3.1/../../../../arm-none-eabi/lib/thumb/v6-m\libm.a
END GROUP
START GROUP
LOAD c:/program files (x86)/atmel/studio/7.0/toolchain/arm/arm-gnu-toolchain/bin/../lib/gcc/arm-none-eabi/6.3.1/thumb/v6-m\libgcc.a
LOAD c:/program files (x86)/atmel/studio/7.0/toolchain/arm/arm-gnu-toolchain/bin/../lib/gcc/arm-none-eabi/6.3.1/../../../../arm-none-eabi/lib/thumb/v6-m\libc_nano.a
END GROUP
START GROUP
LOAD c:/program files (x86)/atmel/studio/7.0/toolchain/arm/arm-gnu-toolchain/bin/../lib/gcc/arm-none-eabi/6.3.1/thumb/v6-m\libgcc.a
LOAD c:/program files (x86)/atmel/studio/7.0/toolchain/arm/arm-gnu-toolchain/bin/../lib/gcc/arm-none-eabi/6.3.1/../../../../arm-none-eabi/lib/thumb/v6-m\libc_nano.a
END GROUP
LOAD c:/program files (x86)/atmel/studio/7.0/toolchain/arm/arm-gnu-toolchain/bin/../lib/gcc/arm-none-eabi/6.3.1/thumb/v6-m/crtend.o
LOAD c:/program files (x86)/atmel/studio/7.0/toolchain/arm/arm-gnu-toolchain/bin/../lib/gcc/arm-none-eabi/6.3.1/thumb/v6-m/crtn.o
                0x00002000                STACK_SIZE = DEFINED (STACK_SIZE)?STACK_SIZE:DEFINED (__stack_size__)?__stack_size__:0x2000

.text           0x00000000     0xed90
                0x00000000                . = ALIGN (0x4)
                0x00000000                _sfixed = .
 *(.vectors .vectors.*)
 .vectors       0x00000000       0xa4 src/ASF/sam0/utils/cmsis/samd20/source/gcc/startup_samd20.o
                0x00000000                exception_table
 *(.text .text.* .gnu.linkonce.t.*)
 .text          0x000000a4       0x60 c:/program files (x86)/atmel/studio/7.0/toolchain/arm/arm-gnu-toolchain/bin/../lib/gcc/arm-none-eabi/6.3.1/thumb/v6-m/crtbegin.o
 .text.adc_init_setup
                0x00000104      0x348 src/adc_drivers.o
                0x00000104                adc_init_setup
 .text.adc_read_value
                0x0000044c      0x420 src/adc_drivers.o
                0x0000044c                adc_read_value
 .text.adc_get_config_defaults
                0x0000086c       0x48 src/ASF/sam0/drivers/adc/adc_sam_d_r_h/adc.o
                0x0000086c                adc_get_config_defaults
 .text.adc_init
                0x000008b4      0x460 src/ASF/sam0/drivers/adc/adc_sam_d_r_h/adc.o
                0x000008b4                adc_init
 .text.ADC_Handler
                0x00000d14       0xc0 src/ASF/sam0/drivers/adc/adc_sam_d_r_h/adc_callback.o
                0x00000d14                ADC_Handler
 .text.Crc32_ComputeBuf
                0x00000dd4       0x2c src/config/crc32_table.o
                0x00000dd4                Crc32_ComputeBuf
 .text.gsmCheckPowerUp
                0x00000e00       0x58 src/Gsmlibrary.o
                0x00000e00                gsmCheckPowerUp
 .text.gsmPowerUpDown
                0x00000e58       0x78 src/Gsmlibrary.o
                0x00000e58                gsmPowerUpDown
 .text.getImei  0x00000ed0       0x78 src/Gsmlibrary.o
                0x00000ed0                getImei
 .text.getImsi  0x00000f48       0x78 src/Gsmlibrary.o
                0x00000f48                getImsi
 .text.getIPAddr
                0x00000fc0       0x14 src/Gsmlibrary.o
                0x00000fc0                getIPAddr
 .text.checkSIMStatus
                0x00000fd4       0x70 src/Gsmlibrary.o
                0x00000fd4                checkSIMStatus
 .text.GSM_init
                0x00001044       0x98 src/Gsmlibrary.o
                0x00001044                GSM_init
 .text.sendSmsWithDeviceID
                0x000010dc       0xc0 src/Gsmlibrary.o
                0x000010dc                sendSmsWithDeviceID
 .text.isSMSunread
                0x0000119c       0xcc src/Gsmlibrary.o
                0x0000119c                isSMSunread
 .text.readSMS  0x00001268      0x180 src/Gsmlibrary.o
                0x00001268                readSMS
 .text.deleteSMS
                0x000013e8       0x44 src/Gsmlibrary.o
                0x000013e8                deleteSMS
 .text.deleteAllSMS
                0x0000142c       0x5c src/Gsmlibrary.o
                0x0000142c                deleteAllSMS
 .text.getDateTime
                0x00001488       0xac src/Gsmlibrary.o
                0x00001488                getDateTime
 .text.getSIMRegistration
                0x00001534       0xe4 src/Gsmlibrary.o
                0x00001534                getSIMRegistration
 .text.getSignalStrength
                0x00001618       0xbc src/Gsmlibrary.o
                0x00001618                getSignalStrength
 .text.httpClose
                0x000016d4       0x3c src/Gsmlibrary.o
                0x000016d4                httpClose
 .text.getLocation
                0x00001710      0x144 src/Gsmlibrary.o
                0x00001710                getLocation
 .text.startGprsConnection
                0x00001854      0x110 src/Gsmlibrary.o
                0x00001854                startGprsConnection
 .text.startTCPconnection
                0x00001964       0x8c src/Gsmlibrary.o
                0x00001964                startTCPconnection
 .text.TCPclose
                0x000019f0       0x2c src/Gsmlibrary.o
                0x000019f0                TCPclose
 .text.program_memory
                0x00001a1c      0x108 src/Gsmlibrary.o
                0x00001a1c                program_memory
 .text.calculate_crc32b_from_flash
                0x00001b24      0x11c src/Gsmlibrary.o
                0x00001b24                calculate_crc32b_from_flash
 .text.search_char_in_binary
                0x00001c40       0xe0 src/Gsmlibrary.o
                0x00001c40                search_char_in_binary
 .text.startOTAUpdate
                0x00001d20      0x2b4 src/Gsmlibrary.o
                0x00001d20                startOTAUpdate
 .text.send_failure_sms
                0x00001fd4        0x2 src/Gsmlibrary.o
                0x00001fd4                send_failure_sms
 *fill*         0x00001fd6        0x2 
 .text.isSimRegistered
                0x00001fd8       0x64 src/Gsmlibrary.o
                0x00001fd8                isSimRegistered
 .text.extract_string_using_adds
                0x0000203c       0x40 src/Gsmlibrary.o
                0x0000203c                extract_string_using_adds
 .text.httpSend
                0x0000207c      0x198 src/Gsmlibrary.o
                0x0000207c                httpSend
 .text.sendHttpData
                0x00002214       0x94 src/Gsmlibrary.o
                0x00002214                sendHttpData
 .text.sendData
                0x000022a8      0x154 src/Gsmlibrary.o
                0x000022a8                sendData
 .text.isGprsConnectionStarted
                0x000023fc       0xa4 src/Gsmlibrary.o
                0x000023fc                isGprsConnectionStarted
 .text.httpInit
                0x000024a0       0xf4 src/Gsmlibrary.o
                0x000024a0                httpInit
 .text.tGsmPortInit
                0x00002594       0x9c src/GsmPortSetup.o
                0x00002594                tGsmPortInit
 .text.tGsmPortCheckDataAvailable
                0x00002630       0x18 src/GsmPortSetup.o
                0x00002630                tGsmPortCheckDataAvailable
 .text.tGsmPortCleanBuffer
                0x00002648       0x10 src/GsmPortSetup.o
                0x00002648                tGsmPortCleanBuffer
 .text.tGsmPortSendCmd
                0x00002658       0x28 src/GsmPortSetup.o
                0x00002658                tGsmPortSendCmd
 .text.tGsmPortReadchar
                0x00002680       0x20 src/GsmPortSetup.o
                0x00002680                tGsmPortReadchar
 .text.tGsmPortSendByte
                0x000026a0       0x1c src/GsmPortSetup.o
                0x000026a0                tGsmPortSendByte
 .text.tGsmPortSendEndMark
                0x000026bc       0x10 src/GsmPortSetup.o
                0x000026bc                tGsmPortSendEndMark
 .text.tGsmPortFlushSerial
                0x000026cc       0x28 src/GsmPortSetup.o
                0x000026cc                tGsmPortFlushSerial
 .text.tGsmPortReadData
                0x000026f4       0x9c src/GsmPortSetup.o
                0x000026f4                tGsmPortReadData
 .text.tGsmPortWaitForResponse
                0x00002790       0xb0 src/GsmPortSetup.o
                0x00002790                tGsmPortWaitForResponse
 .text.tGsmPortSendCmdAndCheckResp
                0x00002840       0x20 src/GsmPortSetup.o
                0x00002840                tGsmPortSendCmdAndCheckResp
 .text.tGsmPortReadDataVaringTime
                0x00002860       0x98 src/GsmPortSetup.o
                0x00002860                tGsmPortReadDataVaringTime
 .text.tRTCCallBackFunction
                0x000028f8        0xc src/main.o
                0x000028f8                tRTCCallBackFunction
 .text.main     0x00002904       0x58 src/main.o
                0x00002904                main
 .text.tEEPROMSetup
                0x0000295c       0x84 src/main.o
                0x0000295c                tEEPROMSetup
 .text.tWriteInitialConfig
                0x000029e0       0x20 src/main.o
                0x000029e0                tWriteInitialConfig
 .text.tRTCSetIntialAlarmTime
                0x00002a00       0xec src/main.o
                0x00002a00                tRTCSetIntialAlarmTime
 .text.tRTCSetAlarmTime
                0x00002aec       0x9c src/main.o
                0x00002aec                tRTCSetAlarmTime
 .text.tRTCCallbackConfiguration
                0x00002b88       0x28 src/main.o
                0x00002b88                tRTCCallbackConfiguration
 .text.tSimCardSetup
                0x00002bb0       0xdc src/main.o
                0x00002bb0                tSimCardSetup
 .text.tSmsServiceSetup
                0x00002c8c       0x5c src/main.o
                0x00002c8c                tSmsServiceSetup
 .text.tGsmTime
                0x00002ce8      0x110 src/main.o
                0x00002ce8                tGsmTime
 .text.tRTCInit
                0x00002df8       0x90 src/main.o
                0x00002df8                tRTCInit
 .text.tGsmHardwareInit
                0x00002e88       0xc8 src/main.o
                0x00002e88                tGsmHardwareInit
 .text.tButtonConfiguration
                0x00002f50       0x48 src/main.o
                0x00002f50                tButtonConfiguration
 .text.gsmPowerOnOff
                0x00002f98       0xbc src/main.o
                0x00002f98                gsmPowerOnOff
 .text.tInitHardware
                0x00003054       0xf0 src/main.o
                0x00003054                tInitHardware
 .text.tCheckGpsLatLonValidity
                0x00003144       0x24 src/main.o
                0x00003144                tCheckGpsLatLonValidity
 .text.tcheckNumberValid
                0x00003168       0x50 src/main.o
                0x00003168                tcheckNumberValid
 .text.tDeviceInfo
                0x000031b8       0x90 src/main.o
                0x000031b8                tDeviceInfo
 .text.configure_wdt
                0x00003248       0x2c src/main.o
                0x00003248                configure_wdt
 .text.updateToFlash
                0x00003274      0x12c src/main.o
                0x00003274                updateToFlash
 .text.checkForFirmwareUpdate
                0x000033a0      0x13c src/main.o
                0x000033a0                checkForFirmwareUpdate
 .text.checkOTAUpdate
                0x000034dc      0x10c src/main.o
                0x000034dc                checkOTAUpdate
 .text.tReadImei
                0x000035e8       0x40 src/main.o
                0x000035e8                tReadImei
 .text.tSendDataToCloud
                0x00003628      0x350 src/main.o
                0x00003628                tSendDataToCloud
 .text.tSendBootupData
                0x00003978       0xb0 src/main.o
                0x00003978                tSendBootupData
 .text.tSendLiveData
                0x00003a28       0xd4 src/main.o
                0x00003a28                tSendLiveData
 .text.tgsmClkSync
                0x00003afc      0x310 src/main.o
                0x00003afc                tgsmClkSync
 .text.complete_system_reset
                0x00003e0c       0x48 src/main.o
                0x00003e0c                complete_system_reset
 .text.tHandleSMS
                0x00003e54      0x210 src/main.o
                0x00003e54                tHandleSMS
 .text.tempReading
                0x00004064      0x234 src/main.o
                0x00004064                tempReading
 .text.avgTemperatureVoltageReadings
                0x00004298      0x13c src/main.o
                0x00004298                avgTemperatureVoltageReadings
 .text.main_task
                0x000043d4      0x358 src/main.o
                0x000043d4                main_task
 .text.EEPROM_write
                0x0000472c       0x24 src/samd20j.o
                0x0000472c                EEPROM_write
 .text.EEPROM_read_num
                0x00004750       0x2c src/samd20j.o
                0x00004750                EEPROM_read_num
 .text.EEPROM_read_char
                0x0000477c       0x18 src/samd20j.o
                0x0000477c                EEPROM_read_char
 .text.EEPROM_clear
                0x00004794       0x4c src/samd20j.o
                0x00004794                EEPROM_clear
 .text.wdt_reset
                0x000047e0       0x28 src/samd20j.o
                0x000047e0                wdt_reset
 .text.tRTCGetTimeStamp
                0x00004808       0x88 src/samd20j.o
                0x00004808                tRTCGetTimeStamp
 .text.debug_uart_init
                0x00004890       0x9c src/uart_drivers.o
                0x00004890                debug_uart_init
 .text.serial_write
                0x0000492c       0x20 src/uart_drivers.o
                0x0000492c                serial_write
 .text.serial_write_int
                0x0000494c       0x30 src/uart_drivers.o
                0x0000494c                serial_write_int
 .text.serial_write_hex
                0x0000497c       0x34 src/uart_drivers.o
                0x0000497c                serial_write_hex
 .text.serial_debug
                0x000049b0       0x40 src/uart_drivers.o
                0x000049b0                serial_debug
 .text.serial_debug_ln
                0x000049f0       0x1c src/uart_drivers.o
                0x000049f0                serial_debug_ln
 .text.serial_write_hex_ln
                0x00004a0c       0x1c src/uart_drivers.o
                0x00004a0c                serial_write_hex_ln
 .text.serial_write_int_ln
                0x00004a28       0x1c src/uart_drivers.o
                0x00004a28                serial_write_int_ln
 .text.serial_write_ln
                0x00004a44       0x14 src/uart_drivers.o
                0x00004a44                serial_write_ln
 .text.reverse1
                0x00004a58       0x28 src/uart_drivers.o
                0x00004a58                reverse1
 .text.itoa1    0x00004a80       0x58 src/uart_drivers.o
                0x00004a80                itoa1
 .text.reverse  0x00004ad8       0x1c src/uart_drivers.o
                0x00004ad8                reverse
 .text.intToStr
                0x00004af4       0x80 src/uart_drivers.o
                0x00004af4                intToStr
 .text.power    0x00004b74       0x12 src/uart_drivers.o
                0x00004b74                power
 *fill*         0x00004b86        0x2 
 .text.ftoa     0x00004b88       0x74 src/uart_drivers.o
                0x00004b88                ftoa
 .text.EIC_Handler
                0x00004bfc       0x54 src/ASF/sam0/drivers/extint/extint_callback.o
                0x00004bfc                EIC_Handler
 .text._extint_enable
                0x00004c50       0x18 src/ASF/sam0/drivers/extint/extint_sam_d_r_h/extint.o
 .text._system_extint_init
                0x00004c68       0x6c src/ASF/sam0/drivers/extint/extint_sam_d_r_h/extint.o
                0x00004c68                _system_extint_init
 .text.rtc_calendar_enable
                0x00004cd4       0x20 src/ASF/sam0/drivers/rtc/rtc_sam_d_r_h/rtc_calendar.o
                0x00004cd4                rtc_calendar_enable
 .text.rtc_calendar_disable
                0x00004cf4       0x2c src/ASF/sam0/drivers/rtc/rtc_sam_d_r_h/rtc_calendar.o
                0x00004cf4                rtc_calendar_disable
 .text.rtc_calendar_reset
                0x00004d20       0x28 src/ASF/sam0/drivers/rtc/rtc_sam_d_r_h/rtc_calendar.o
                0x00004d20                rtc_calendar_reset
 .text.rtc_calendar_time_to_register_value
                0x00004d48       0x3a src/ASF/sam0/drivers/rtc/rtc_sam_d_r_h/rtc_calendar.o
                0x00004d48                rtc_calendar_time_to_register_value
 .text.rtc_calendar_register_value_to_time
                0x00004d82       0x3e src/ASF/sam0/drivers/rtc/rtc_sam_d_r_h/rtc_calendar.o
                0x00004d82                rtc_calendar_register_value_to_time
 .text.rtc_calendar_set_time
                0x00004dc0       0x18 src/ASF/sam0/drivers/rtc/rtc_sam_d_r_h/rtc_calendar.o
                0x00004dc0                rtc_calendar_set_time
 .text.rtc_calendar_get_time
                0x00004dd8       0x48 src/ASF/sam0/drivers/rtc/rtc_sam_d_r_h/rtc_calendar.o
                0x00004dd8                rtc_calendar_get_time
 .text.rtc_calendar_set_alarm
                0x00004e20       0x30 src/ASF/sam0/drivers/rtc/rtc_sam_d_r_h/rtc_calendar.o
                0x00004e20                rtc_calendar_set_alarm
 .text.rtc_calendar_init
                0x00004e50       0x94 src/ASF/sam0/drivers/rtc/rtc_sam_d_r_h/rtc_calendar.o
                0x00004e50                rtc_calendar_init
 .text.rtc_calendar_register_callback
                0x00004ee4       0x1e src/ASF/sam0/drivers/rtc/rtc_sam_d_r_h/rtc_calendar_interrupt.o
                0x00004ee4                rtc_calendar_register_callback
 .text.rtc_calendar_enable_callback
                0x00004f02       0x26 src/ASF/sam0/drivers/rtc/rtc_sam_d_r_h/rtc_calendar_interrupt.o
                0x00004f02                rtc_calendar_enable_callback
 .text.RTC_Handler
                0x00004f28       0x44 src/ASF/sam0/drivers/rtc/rtc_sam_d_r_h/rtc_calendar_interrupt.o
                0x00004f28                RTC_Handler
 .text.usart_init
                0x00004f6c      0x254 src/ASF/sam0/drivers/sercom/usart/usart.o
                0x00004f6c                usart_init
 .text.usart_write_wait
                0x000051c0       0x2e src/ASF/sam0/drivers/sercom/usart/usart.o
                0x000051c0                usart_write_wait
 .text.usart_read_available
                0x000051ee       0x58 src/ASF/sam0/drivers/sercom/usart/usart.o
                0x000051ee                usart_read_available
 *fill*         0x00005246        0x2 
 .text.usart_write_buffer_wait
                0x00005248       0xc4 src/ASF/sam0/drivers/sercom/usart/usart.o
                0x00005248                usart_write_buffer_wait
 .text._usart_read_buffer
                0x0000530c       0x3c src/ASF/sam0/drivers/sercom/usart/usart_interrupt.o
                0x0000530c                _usart_read_buffer
 .text.usart_read_job
                0x00005348       0x10 src/ASF/sam0/drivers/sercom/usart/usart_interrupt.o
                0x00005348                usart_read_job
 .text._usart_interrupt_handler
                0x00005358      0x124 src/ASF/sam0/drivers/sercom/usart/usart_interrupt.o
                0x00005358                _usart_interrupt_handler
 .text.pvPortMalloc
                0x0000547c       0x24 src/ASF/thirdparty/freertos/freertos-7.4.2/Source/portable/MemMang/heap_3.o
                0x0000547c                pvPortMalloc
 .text.vPortFree
                0x000054a0       0x24 src/ASF/thirdparty/freertos/freertos-7.4.2/Source/portable/MemMang/heap_3.o
                0x000054a0                vPortFree
 .text.wdt_set_config
                0x000054c4      0x100 src/ASF/sam0/drivers/wdt/wdt.o
                0x000054c4                wdt_set_config
 .text.wdt_reset_count
                0x000055c4       0x18 src/ASF/sam0/drivers/wdt/wdt.o
                0x000055c4                wdt_reset_count
 .text.WDT_Handler
                0x000055dc       0x1c src/ASF/sam0/drivers/wdt/wdt_callback.o
                0x000055dc                WDT_Handler
 .text.port_pin_set_config
                0x000055f8       0x24 src/ASF/sam0/drivers/port/port.o
                0x000055f8                port_pin_set_config
 .text.long_division
                0x0000561c       0xba src/ASF/sam0/drivers/sercom/sercom.o
 .text._sercom_get_sync_baud_val
                0x000056d6       0x28 src/ASF/sam0/drivers/sercom/sercom.o
                0x000056d6                _sercom_get_sync_baud_val
 *fill*         0x000056fe        0x2 
 .text._sercom_get_async_baud_val
                0x00005700       0x94 src/ASF/sam0/drivers/sercom/sercom.o
                0x00005700                _sercom_get_async_baud_val
 .text.sercom_set_gclk_generator
                0x00005794       0x4c src/ASF/sam0/drivers/sercom/sercom.o
                0x00005794                sercom_set_gclk_generator
 .text._sercom_get_default_pad
                0x000057e0       0xfc src/ASF/sam0/drivers/sercom/sercom.o
                0x000057e0                _sercom_get_default_pad
 .text._sercom_get_sercom_inst_index
                0x000058dc       0x48 src/ASF/sam0/drivers/sercom/sercom.o
                0x000058dc                _sercom_get_sercom_inst_index
 .text.vPortStartFirstTask
                0x00005924       0x20 src/ASF/thirdparty/freertos/freertos-7.4.2/Source/portable/GCC/ARM_CM0/port.o
 .text.pxPortInitialiseStack
                0x00005944       0x16 src/ASF/thirdparty/freertos/freertos-7.4.2/Source/portable/GCC/ARM_CM0/port.o
                0x00005944                pxPortInitialiseStack
 *fill*         0x0000595a        0x2 
 .text.SVC_Handler
                0x0000595c       0x28 src/ASF/thirdparty/freertos/freertos-7.4.2/Source/portable/GCC/ARM_CM0/port.o
                0x0000595c                SVC_Handler
 .text.vPortYield
                0x00005984       0x18 src/ASF/thirdparty/freertos/freertos-7.4.2/Source/portable/GCC/ARM_CM0/port.o
                0x00005984                vPortYield
 .text.vPortEnterCritical
                0x0000599c       0x18 src/ASF/thirdparty/freertos/freertos-7.4.2/Source/portable/GCC/ARM_CM0/port.o
                0x0000599c                vPortEnterCritical
 .text.vPortExitCritical
                0x000059b4       0x14 src/ASF/thirdparty/freertos/freertos-7.4.2/Source/portable/GCC/ARM_CM0/port.o
                0x000059b4                vPortExitCritical
 .text.PendSV_Handler
                0x000059c8       0x44 src/ASF/thirdparty/freertos/freertos-7.4.2/Source/portable/GCC/ARM_CM0/port.o
                0x000059c8                PendSV_Handler
 .text.SysTick_Handler
                0x00005a0c       0x1c src/ASF/thirdparty/freertos/freertos-7.4.2/Source/portable/GCC/ARM_CM0/port.o
                0x00005a0c                SysTick_Handler
 .text.vPortSetupTimerInterrupt
                0x00005a28       0x24 src/ASF/thirdparty/freertos/freertos-7.4.2/Source/portable/GCC/ARM_CM0/port.o
                0x00005a28                vPortSetupTimerInterrupt
 .text.xPortStartScheduler
                0x00005a4c       0x3c src/ASF/thirdparty/freertos/freertos-7.4.2/Source/portable/GCC/ARM_CM0/port.o
                0x00005a4c                xPortStartScheduler
 .text.vListInitialise
                0x00005a88       0x16 src/ASF/thirdparty/freertos/freertos-7.4.2/Source/list.o
                0x00005a88                vListInitialise
 .text.vListInitialiseItem
                0x00005a9e        0x6 src/ASF/thirdparty/freertos/freertos-7.4.2/Source/list.o
                0x00005a9e                vListInitialiseItem
 .text.vListInsertEnd
                0x00005aa4       0x1c src/ASF/thirdparty/freertos/freertos-7.4.2/Source/list.o
                0x00005aa4                vListInsertEnd
 .text.vListInsert
                0x00005ac0       0x36 src/ASF/thirdparty/freertos/freertos-7.4.2/Source/list.o
                0x00005ac0                vListInsert
 .text.uxListRemove
                0x00005af6       0x28 src/ASF/thirdparty/freertos/freertos-7.4.2/Source/list.o
                0x00005af6                uxListRemove
 *fill*         0x00005b1e        0x2 
 .text.prvCopyDataToQueue
                0x00005b20       0x6c src/ASF/thirdparty/freertos/freertos-7.4.2/Source/queue.o
 .text.prvNotifyQueueSetContainer
                0x00005b8c       0x50 src/ASF/thirdparty/freertos/freertos-7.4.2/Source/queue.o
 .text.prvCopyDataFromQueue
                0x00005bdc       0x28 src/ASF/thirdparty/freertos/freertos-7.4.2/Source/queue.o
 .text.prvUnlockQueue
                0x00005c04       0xb0 src/ASF/thirdparty/freertos/freertos-7.4.2/Source/queue.o
 .text.xQueueGenericReset
                0x00005cb4       0x7c src/ASF/thirdparty/freertos/freertos-7.4.2/Source/queue.o
                0x00005cb4                xQueueGenericReset
 .text.xQueueGenericCreate
                0x00005d30       0x50 src/ASF/thirdparty/freertos/freertos-7.4.2/Source/queue.o
                0x00005d30                xQueueGenericCreate
 .text.xQueueGenericSend
                0x00005d80      0x14c src/ASF/thirdparty/freertos/freertos-7.4.2/Source/queue.o
                0x00005d80                xQueueGenericSend
 .text.xQueueGenericSendFromISR
                0x00005ecc       0x98 src/ASF/thirdparty/freertos/freertos-7.4.2/Source/queue.o
                0x00005ecc                xQueueGenericSendFromISR
 .text.xQueueGenericReceive
                0x00005f64      0x178 src/ASF/thirdparty/freertos/freertos-7.4.2/Source/queue.o
                0x00005f64                xQueueGenericReceive
 .text.vQueueWaitForMessageRestricted
                0x000060dc       0x50 src/ASF/thirdparty/freertos/freertos-7.4.2/Source/queue.o
                0x000060dc                vQueueWaitForMessageRestricted
 .text.prvAddCurrentTaskToDelayedList
                0x0000612c       0x58 src/ASF/thirdparty/freertos/freertos-7.4.2/Source/tasks.o
 .text.xTaskGenericCreate
                0x00006184      0x1fc src/ASF/thirdparty/freertos/freertos-7.4.2/Source/tasks.o
                0x00006184                xTaskGenericCreate
 .text.vTaskStartScheduler
                0x00006380       0x60 src/ASF/thirdparty/freertos/freertos-7.4.2/Source/tasks.o
                0x00006380                vTaskStartScheduler
 .text.vTaskSuspendAll
                0x000063e0       0x10 src/ASF/thirdparty/freertos/freertos-7.4.2/Source/tasks.o
                0x000063e0                vTaskSuspendAll
 .text.xTaskGetTickCount
                0x000063f0       0x20 src/ASF/thirdparty/freertos/freertos-7.4.2/Source/tasks.o
                0x000063f0                xTaskGetTickCount
 .text.xTaskGetTickCountFromISR
                0x00006410       0x10 src/ASF/thirdparty/freertos/freertos-7.4.2/Source/tasks.o
                0x00006410                xTaskGetTickCountFromISR
 .text.vTaskIncrementTick
                0x00006420      0x11c src/ASF/thirdparty/freertos/freertos-7.4.2/Source/tasks.o
                0x00006420                vTaskIncrementTick
 .text.xTaskResumeAll
                0x0000653c       0xf4 src/ASF/thirdparty/freertos/freertos-7.4.2/Source/tasks.o
                0x0000653c                xTaskResumeAll
 .text.prvIdleTask
                0x00006630       0x90 src/ASF/thirdparty/freertos/freertos-7.4.2/Source/tasks.o
 .text.vTaskSwitchContext
                0x000066c0       0xa8 src/ASF/thirdparty/freertos/freertos-7.4.2/Source/tasks.o
                0x000066c0                vTaskSwitchContext
 .text.vTaskPlaceOnEventList
                0x00006768       0x58 src/ASF/thirdparty/freertos/freertos-7.4.2/Source/tasks.o
                0x00006768                vTaskPlaceOnEventList
 .text.vTaskPlaceOnEventListRestricted
                0x000067c0       0x40 src/ASF/thirdparty/freertos/freertos-7.4.2/Source/tasks.o
                0x000067c0                vTaskPlaceOnEventListRestricted
 .text.xTaskRemoveFromEventList
                0x00006800       0x7c src/ASF/thirdparty/freertos/freertos-7.4.2/Source/tasks.o
                0x00006800                xTaskRemoveFromEventList
 .text.vTaskSetTimeOutState
                0x0000687c       0x20 src/ASF/thirdparty/freertos/freertos-7.4.2/Source/tasks.o
                0x0000687c                vTaskSetTimeOutState
 .text.xTaskCheckForTimeOut
                0x0000689c       0x78 src/ASF/thirdparty/freertos/freertos-7.4.2/Source/tasks.o
                0x0000689c                xTaskCheckForTimeOut
 .text.vTaskMissedYield
                0x00006914        0xc src/ASF/thirdparty/freertos/freertos-7.4.2/Source/tasks.o
                0x00006914                vTaskMissedYield
 .text.xTaskGetCurrentTaskHandle
                0x00006920        0xc src/ASF/thirdparty/freertos/freertos-7.4.2/Source/tasks.o
                0x00006920                xTaskGetCurrentTaskHandle
 .text.xTaskGetSchedulerState
                0x0000692c       0x20 src/ASF/thirdparty/freertos/freertos-7.4.2/Source/tasks.o
                0x0000692c                xTaskGetSchedulerState
 .text.vTaskPriorityInherit
                0x0000694c       0x7c src/ASF/thirdparty/freertos/freertos-7.4.2/Source/tasks.o
                0x0000694c                vTaskPriorityInherit
 .text.vTaskPriorityDisinherit
                0x000069c8       0x50 src/ASF/thirdparty/freertos/freertos-7.4.2/Source/tasks.o
                0x000069c8                vTaskPriorityDisinherit
 .text.prvInsertTimerInActiveList
                0x00006a18       0x48 src/ASF/thirdparty/freertos/freertos-7.4.2/Source/timers.o
 .text.prvCheckForValidListAndQueue
                0x00006a60       0x60 src/ASF/thirdparty/freertos/freertos-7.4.2/Source/timers.o
 .text.xTimerCreateTimerTask
                0x00006ac0       0x48 src/ASF/thirdparty/freertos/freertos-7.4.2/Source/timers.o
                0x00006ac0                xTimerCreateTimerTask
 .text.xTimerGenericCommand
                0x00006b08       0x64 src/ASF/thirdparty/freertos/freertos-7.4.2/Source/timers.o
                0x00006b08                xTimerGenericCommand
 .text.prvSampleTimeNow
                0x00006b6c       0xbc src/ASF/thirdparty/freertos/freertos-7.4.2/Source/timers.o
 .text.prvTimerTask
                0x00006c28      0x170 src/ASF/thirdparty/freertos/freertos-7.4.2/Source/timers.o
 .text._sercom_default_handler
                0x00006d98        0x2 src/ASF/sam0/drivers/sercom/sercom_interrupt.o
 *fill*         0x00006d9a        0x2 
 .text._sercom_set_handler
                0x00006d9c       0x40 src/ASF/sam0/drivers/sercom/sercom_interrupt.o
                0x00006d9c                _sercom_set_handler
 .text._sercom_get_interrupt_vector
                0x00006ddc       0x24 src/ASF/sam0/drivers/sercom/sercom_interrupt.o
                0x00006ddc                _sercom_get_interrupt_vector
 .text.SERCOM0_Handler
                0x00006e00       0x10 src/ASF/sam0/drivers/sercom/sercom_interrupt.o
                0x00006e00                SERCOM0_Handler
 .text.SERCOM1_Handler
                0x00006e10       0x10 src/ASF/sam0/drivers/sercom/sercom_interrupt.o
                0x00006e10                SERCOM1_Handler
 .text.SERCOM2_Handler
                0x00006e20       0x10 src/ASF/sam0/drivers/sercom/sercom_interrupt.o
                0x00006e20                SERCOM2_Handler
 .text.SERCOM3_Handler
                0x00006e30       0x10 src/ASF/sam0/drivers/sercom/sercom_interrupt.o
                0x00006e30                SERCOM3_Handler
 .text.bod_set_config
                0x00006e40       0x74 src/ASF/sam0/drivers/bod/bod_sam_d_r_h/bod.o
                0x00006e40                bod_set_config
 .text.delay_cycles_ms
                0x00006eb4       0x2c src/ASF/common2/services/delay/sam0/systick_counter.o
                0x00006eb4                delay_cycles_ms
 .text.nvm_set_config
                0x00006ee0       0x88 src/ASF/sam0/drivers/nvm/nvm.o
                0x00006ee0                nvm_set_config
 .text.nvm_execute_command
                0x00006f68       0xa0 src/ASF/sam0/drivers/nvm/nvm.o
                0x00006f68                nvm_execute_command
 .text.nvm_write_buffer
                0x00007008       0xa8 src/ASF/sam0/drivers/nvm/nvm.o
                0x00007008                nvm_write_buffer
 .text.nvm_read_buffer
                0x000070b0       0x6c src/ASF/sam0/drivers/nvm/nvm.o
                0x000070b0                nvm_read_buffer
 .text.nvm_erase_row
                0x0000711c       0x5c src/ASF/sam0/drivers/nvm/nvm.o
                0x0000711c                nvm_erase_row
 .text.nvm_get_parameters
                0x00007178       0x58 src/ASF/sam0/drivers/nvm/nvm.o
                0x00007178                nvm_get_parameters
 .text._eeprom_emulator_nvm_erase_row
                0x000071d0       0x1c src/ASF/sam0/services/eeprom/emulator/main_array/eeprom.o
 .text._eeprom_emulator_update_page_mapping
                0x000071ec      0x14c src/ASF/sam0/services/eeprom/emulator/main_array/eeprom.o
 .text._eeprom_emulator_nvm_read_page
                0x00007338       0x24 src/ASF/sam0/services/eeprom/emulator/main_array/eeprom.o
 .text._eeprom_emulator_nvm_fill_cache
                0x0000735c       0x24 src/ASF/sam0/services/eeprom/emulator/main_array/eeprom.o
 .text._eeprom_emulator_nvm_commit_cache
                0x00007380       0x20 src/ASF/sam0/services/eeprom/emulator/main_array/eeprom.o
 .text.eeprom_emulator_init
                0x000073a0       0xe4 src/ASF/sam0/services/eeprom/emulator/main_array/eeprom.o
                0x000073a0                eeprom_emulator_init
 .text.eeprom_emulator_erase_memory
                0x00007484       0xe0 src/ASF/sam0/services/eeprom/emulator/main_array/eeprom.o
                0x00007484                eeprom_emulator_erase_memory
 .text.eeprom_emulator_read_page
                0x00007564       0x68 src/ASF/sam0/services/eeprom/emulator/main_array/eeprom.o
                0x00007564                eeprom_emulator_read_page
 .text.eeprom_emulator_read_buffer
                0x000075cc       0xb0 src/ASF/sam0/services/eeprom/emulator/main_array/eeprom.o
                0x000075cc                eeprom_emulator_read_buffer
 .text.eeprom_emulator_commit_page_buffer
                0x0000767c       0x30 src/ASF/sam0/services/eeprom/emulator/main_array/eeprom.o
                0x0000767c                eeprom_emulator_commit_page_buffer
 .text.eeprom_emulator_write_page
                0x000076ac      0x194 src/ASF/sam0/services/eeprom/emulator/main_array/eeprom.o
                0x000076ac                eeprom_emulator_write_page
 .text.eeprom_emulator_write_buffer
                0x00007840       0xdc src/ASF/sam0/services/eeprom/emulator/main_array/eeprom.o
                0x00007840                eeprom_emulator_write_buffer
 .text.system_board_init
                0x0000791c        0x2 src/ASF/common2/boards/user_board/init.o
                0x0000791c                board_init
                0x0000791c                system_board_init
 *fill*         0x0000791e        0x2 
 .text.cpu_irq_enter_critical
                0x00007920       0x40 src/ASF/common/utils/interrupt/interrupt_sam_nvic.o
                0x00007920                cpu_irq_enter_critical
 .text.cpu_irq_leave_critical
                0x00007960       0x30 src/ASF/common/utils/interrupt/interrupt_sam_nvic.o
                0x00007960                cpu_irq_leave_critical
 .text.system_clock_source_get_hz
                0x00007990       0x7c src/ASF/sam0/drivers/system/clock/clock_samd20/clock.o
                0x00007990                system_clock_source_get_hz
 .text.system_clock_source_osc8m_set_config
                0x00007a0c       0x3c src/ASF/sam0/drivers/system/clock/clock_samd20/clock.o
                0x00007a0c                system_clock_source_osc8m_set_config
 .text.system_clock_source_osc32k_set_config
                0x00007a48       0x7c src/ASF/sam0/drivers/system/clock/clock_samd20/clock.o
                0x00007a48                system_clock_source_osc32k_set_config
 .text.system_clock_source_xosc_set_config
                0x00007ac4       0xc8 src/ASF/sam0/drivers/system/clock/clock_samd20/clock.o
                0x00007ac4                system_clock_source_xosc_set_config
 .text.system_clock_source_enable
                0x00007b8c       0x90 src/ASF/sam0/drivers/system/clock/clock_samd20/clock.o
                0x00007b8c                system_clock_source_enable
 .text.system_clock_init
                0x00007c1c      0x12c src/ASF/sam0/drivers/system/clock/clock_samd20/clock.o
                0x00007c1c                system_clock_init
 .text.system_gclk_init
                0x00007d48       0x24 src/ASF/sam0/drivers/system/clock/clock_samd20/gclk.o
                0x00007d48                system_gclk_init
 .text.system_gclk_gen_set_config
                0x00007d6c       0xb8 src/ASF/sam0/drivers/system/clock/clock_samd20/gclk.o
                0x00007d6c                system_gclk_gen_set_config
 .text.system_gclk_gen_enable
                0x00007e24       0x44 src/ASF/sam0/drivers/system/clock/clock_samd20/gclk.o
                0x00007e24                system_gclk_gen_enable
 .text.system_gclk_gen_get_hz
                0x00007e68       0x8c src/ASF/sam0/drivers/system/clock/clock_samd20/gclk.o
                0x00007e68                system_gclk_gen_get_hz
 .text.system_gclk_chan_enable
                0x00007ef4       0x30 src/ASF/sam0/drivers/system/clock/clock_samd20/gclk.o
                0x00007ef4                system_gclk_chan_enable
 .text.system_gclk_chan_disable
                0x00007f24       0x5c src/ASF/sam0/drivers/system/clock/clock_samd20/gclk.o
                0x00007f24                system_gclk_chan_disable
 .text.system_gclk_chan_set_config
                0x00007f80       0x1c src/ASF/sam0/drivers/system/clock/clock_samd20/gclk.o
                0x00007f80                system_gclk_chan_set_config
 .text.system_gclk_chan_lock
                0x00007f9c       0x30 src/ASF/sam0/drivers/system/clock/clock_samd20/gclk.o
                0x00007f9c                system_gclk_chan_lock
 .text.system_gclk_chan_get_hz
                0x00007fcc       0x34 src/ASF/sam0/drivers/system/clock/clock_samd20/gclk.o
                0x00007fcc                system_gclk_chan_get_hz
 .text._system_pinmux_config
                0x00008000       0xa8 src/ASF/sam0/drivers/system/pinmux/pinmux.o
 .text.system_pinmux_pin_set_config
                0x000080a8       0x30 src/ASF/sam0/drivers/system/pinmux/pinmux.o
                0x000080a8                system_pinmux_pin_set_config
 .text._system_dummy_init
                0x000080d8        0x2 src/ASF/sam0/drivers/system/system.o
                0x000080d8                _system_events_init
                0x000080d8                _system_dummy_init
                0x000080d8                _system_divas_init
 *fill*         0x000080da        0x2 
 .text.system_init
                0x000080dc       0x2c src/ASF/sam0/drivers/system/system.o
                0x000080dc                system_init
 .text.Dummy_Handler
                0x00008108        0x2 src/ASF/sam0/utils/cmsis/samd20/source/gcc/startup_samd20.o
                0x00008108                HardFault_Handler
                0x00008108                TC2_Handler
                0x00008108                AC_Handler
                0x00008108                NMI_Handler
                0x00008108                TC4_Handler
                0x00008108                TC1_Handler
                0x00008108                TC3_Handler
                0x00008108                Dummy_Handler
                0x00008108                PM_Handler
                0x00008108                EVSYS_Handler
                0x00008108                NVMCTRL_Handler
                0x00008108                DAC_Handler
                0x00008108                PTC_Handler
                0x00008108                TC0_Handler
                0x00008108                TC5_Handler
                0x00008108                SYSCTRL_Handler
 *fill*         0x0000810a        0x2 
 .text.Reset_Handler
                0x0000810c       0x98 src/ASF/sam0/utils/cmsis/samd20/source/gcc/startup_samd20.o
                0x0000810c                Reset_Handler
 .text._sbrk    0x000081a4       0x24 src/ASF/sam0/utils/syscalls/gcc/syscalls.o
                0x000081a4                _sbrk
 .text.log      0x000081c8      0x110 c:/program files (x86)/atmel/studio/7.0/toolchain/arm/arm-gnu-toolchain/bin/../lib/gcc/arm-none-eabi/6.3.1/../../../../arm-none-eabi/lib/thumb/v6-m\libm.a(lib_a-w_log.o)
                0x000081c8                log
 .text.pow      0x000082d8      0x358 c:/program files (x86)/atmel/studio/7.0/toolchain/arm/arm-gnu-toolchain/bin/../lib/gcc/arm-none-eabi/6.3.1/../../../../arm-none-eabi/lib/thumb/v6-m\libm.a(lib_a-w_pow.o)
                0x000082d8                pow
 .text.__ieee754_log
                0x00008630      0x404 c:/program files (x86)/atmel/studio/7.0/toolchain/arm/arm-gnu-toolchain/bin/../lib/gcc/arm-none-eabi/6.3.1/../../../../arm-none-eabi/lib/thumb/v6-m\libm.a(lib_a-e_log.o)
                0x00008630                __ieee754_log
 .text.__ieee754_pow
                0x00008a34      0xa6c c:/program files (x86)/atmel/studio/7.0/toolchain/arm/arm-gnu-toolchain/bin/../lib/gcc/arm-none-eabi/6.3.1/../../../../arm-none-eabi/lib/thumb/v6-m\libm.a(lib_a-e_pow.o)
                0x00008a34                __ieee754_pow
 .text.__ieee754_sqrt
                0x000094a0      0x1c0 c:/program files (x86)/atmel/studio/7.0/toolchain/arm/arm-gnu-toolchain/bin/../lib/gcc/arm-none-eabi/6.3.1/../../../../arm-none-eabi/lib/thumb/v6-m\libm.a(lib_a-e_sqrt.o)
                0x000094a0                __ieee754_sqrt
 .text.fabs     0x00009660        0x8 c:/program files (x86)/atmel/studio/7.0/toolchain/arm/arm-gnu-toolchain/bin/../lib/gcc/arm-none-eabi/6.3.1/../../../../arm-none-eabi/lib/thumb/v6-m\libm.a(lib_a-s_fabs.o)
                0x00009660                fabs
 .text.finite   0x00009668       0x14 c:/program files (x86)/atmel/studio/7.0/toolchain/arm/arm-gnu-toolchain/bin/../lib/gcc/arm-none-eabi/6.3.1/../../../../arm-none-eabi/lib/thumb/v6-m\libm.a(lib_a-s_finite.o)
                0x00009668                finite
 .text.matherr  0x0000967c        0x4 c:/program files (x86)/atmel/studio/7.0/toolchain/arm/arm-gnu-toolchain/bin/../lib/gcc/arm-none-eabi/6.3.1/../../../../arm-none-eabi/lib/thumb/v6-m\libm.a(lib_a-s_matherr.o)
                0x0000967c                matherr
 .text.nan      0x00009680        0xc c:/program files (x86)/atmel/studio/7.0/toolchain/arm/arm-gnu-toolchain/bin/../lib/gcc/arm-none-eabi/6.3.1/../../../../arm-none-eabi/lib/thumb/v6-m\libm.a(lib_a-s_nan.o)
                0x00009680                nan
 .text.rint     0x0000968c      0x144 c:/program files (x86)/atmel/studio/7.0/toolchain/arm/arm-gnu-toolchain/bin/../lib/gcc/arm-none-eabi/6.3.1/../../../../arm-none-eabi/lib/thumb/v6-m\libm.a(lib_a-s_rint.o)
                0x0000968c                rint
 .text.scalbn   0x000097d0       0xd0 c:/program files (x86)/atmel/studio/7.0/toolchain/arm/arm-gnu-toolchain/bin/../lib/gcc/arm-none-eabi/6.3.1/../../../../arm-none-eabi/lib/thumb/v6-m\libm.a(lib_a-s_scalbn.o)
                0x000097d0                scalbn
 .text.copysign
                0x000098a0       0x10 c:/program files (x86)/atmel/studio/7.0/toolchain/arm/arm-gnu-toolchain/bin/../lib/gcc/arm-none-eabi/6.3.1/../../../../arm-none-eabi/lib/thumb/v6-m\libm.a(lib_a-s_copysign.o)
                0x000098a0                copysign
 .text          0x000098b0      0x114 c:/program files (x86)/atmel/studio/7.0/toolchain/arm/arm-gnu-toolchain/bin/../lib/gcc/arm-none-eabi/6.3.1/thumb/v6-m\libgcc.a(_udivsi3.o)
                0x000098b0                __aeabi_uidiv
                0x000098b0                __udivsi3
                0x000099bc                __aeabi_uidivmod
 .text          0x000099c4      0x1d4 c:/program files (x86)/atmel/studio/7.0/toolchain/arm/arm-gnu-toolchain/bin/../lib/gcc/arm-none-eabi/6.3.1/thumb/v6-m\libgcc.a(_divsi3.o)
                0x000099c4                __divsi3
                0x000099c4                __aeabi_idiv
                0x00009b90                __aeabi_idivmod
 .text          0x00009b98        0x4 c:/program files (x86)/atmel/studio/7.0/toolchain/arm/arm-gnu-toolchain/bin/../lib/gcc/arm-none-eabi/6.3.1/thumb/v6-m\libgcc.a(_dvmd_tls.o)
                0x00009b98                __aeabi_idiv0
                0x00009b98                __aeabi_ldiv0
 .text          0x00009b9c       0x7c c:/program files (x86)/atmel/studio/7.0/toolchain/arm/arm-gnu-toolchain/bin/../lib/gcc/arm-none-eabi/6.3.1/thumb/v6-m\libgcc.a(_arm_cmpdf2.o)
                0x00009b9c                __aeabi_cdrcmple
                0x00009bac                __aeabi_cdcmple
                0x00009bac                __aeabi_cdcmpeq
                0x00009bbc                __aeabi_dcmpeq
                0x00009bc8                __aeabi_dcmplt
                0x00009bdc                __aeabi_dcmple
                0x00009bf0                __aeabi_dcmpgt
                0x00009c04                __aeabi_dcmpge
 .text          0x00009c18       0x54 c:/program files (x86)/atmel/studio/7.0/toolchain/arm/arm-gnu-toolchain/bin/../lib/gcc/arm-none-eabi/6.3.1/thumb/v6-m\libgcc.a(_muldi3.o)
                0x00009c18                __muldi3
                0x00009c18                __aeabi_lmul
 .text          0x00009c6c      0x240 c:/program files (x86)/atmel/studio/7.0/toolchain/arm/arm-gnu-toolchain/bin/../lib/gcc/arm-none-eabi/6.3.1/thumb/v6-m\libgcc.a(mulsf3.o)
                0x00009c6c                __aeabi_fmul
 .text          0x00009eac      0x338 c:/program files (x86)/atmel/studio/7.0/toolchain/arm/arm-gnu-toolchain/bin/../lib/gcc/arm-none-eabi/6.3.1/thumb/v6-m\libgcc.a(subsf3.o)
                0x00009eac                __aeabi_fsub
 .text          0x0000a1e4       0x40 c:/program files (x86)/atmel/studio/7.0/toolchain/arm/arm-gnu-toolchain/bin/../lib/gcc/arm-none-eabi/6.3.1/thumb/v6-m\libgcc.a(fixsfsi.o)
                0x0000a1e4                __aeabi_f2iz
 .text          0x0000a224       0xa0 c:/program files (x86)/atmel/studio/7.0/toolchain/arm/arm-gnu-toolchain/bin/../lib/gcc/arm-none-eabi/6.3.1/thumb/v6-m\libgcc.a(floatsisf.o)
                0x0000a224                __aeabi_i2f
 .text          0x0000a2c4      0x620 c:/program files (x86)/atmel/studio/7.0/toolchain/arm/arm-gnu-toolchain/bin/../lib/gcc/arm-none-eabi/6.3.1/thumb/v6-m\libgcc.a(adddf3.o)
                0x0000a2c4                __aeabi_dadd
 .text          0x0000a8e4      0x668 c:/program files (x86)/atmel/studio/7.0/toolchain/arm/arm-gnu-toolchain/bin/../lib/gcc/arm-none-eabi/6.3.1/thumb/v6-m\libgcc.a(divdf3.o)
                0x0000a8e4                __aeabi_ddiv
 .text          0x0000af4c       0x74 c:/program files (x86)/atmel/studio/7.0/toolchain/arm/arm-gnu-toolchain/bin/../lib/gcc/arm-none-eabi/6.3.1/thumb/v6-m\libgcc.a(eqdf2.o)
                0x0000af4c                __nedf2
                0x0000af4c                __eqdf2
 .text          0x0000afc0       0xc8 c:/program files (x86)/atmel/studio/7.0/toolchain/arm/arm-gnu-toolchain/bin/../lib/gcc/arm-none-eabi/6.3.1/thumb/v6-m\libgcc.a(gedf2.o)
                0x0000afc0                __gedf2
                0x0000afc0                __gtdf2
 .text          0x0000b088       0xc4 c:/program files (x86)/atmel/studio/7.0/toolchain/arm/arm-gnu-toolchain/bin/../lib/gcc/arm-none-eabi/6.3.1/thumb/v6-m\libgcc.a(ledf2.o)
                0x0000b088                __ledf2
                0x0000b088                __ltdf2
 .text          0x0000b14c      0x500 c:/program files (x86)/atmel/studio/7.0/toolchain/arm/arm-gnu-toolchain/bin/../lib/gcc/arm-none-eabi/6.3.1/thumb/v6-m\libgcc.a(muldf3.o)
                0x0000b14c                __aeabi_dmul
 .text          0x0000b64c      0x62c c:/program files (x86)/atmel/studio/7.0/toolchain/arm/arm-gnu-toolchain/bin/../lib/gcc/arm-none-eabi/6.3.1/thumb/v6-m\libgcc.a(subdf3.o)
                0x0000b64c                __aeabi_dsub
 .text          0x0000bc78       0x40 c:/program files (x86)/atmel/studio/7.0/toolchain/arm/arm-gnu-toolchain/bin/../lib/gcc/arm-none-eabi/6.3.1/thumb/v6-m\libgcc.a(unorddf2.o)
                0x0000bc78                __aeabi_dcmpun
 .text          0x0000bcb8       0x84 c:/program files (x86)/atmel/studio/7.0/toolchain/arm/arm-gnu-toolchain/bin/../lib/gcc/arm-none-eabi/6.3.1/thumb/v6-m\libgcc.a(floatsidf.o)
                0x0000bcb8                __aeabi_i2d
 .text          0x0000bd3c       0xa4 c:/program files (x86)/atmel/studio/7.0/toolchain/arm/arm-gnu-toolchain/bin/../lib/gcc/arm-none-eabi/6.3.1/thumb/v6-m\libgcc.a(extendsfdf2.o)
                0x0000bd3c                __aeabi_f2d
 .text          0x0000bde0      0x114 c:/program files (x86)/atmel/studio/7.0/toolchain/arm/arm-gnu-toolchain/bin/../lib/gcc/arm-none-eabi/6.3.1/thumb/v6-m\libgcc.a(truncdfsf2.o)
                0x0000bde0                __aeabi_d2f
 .text          0x0000bef4       0x3c c:/program files (x86)/atmel/studio/7.0/toolchain/arm/arm-gnu-toolchain/bin/../lib/gcc/arm-none-eabi/6.3.1/thumb/v6-m\libgcc.a(_clzsi2.o)
                0x0000bef4                __clzsi2
 .text.atoi     0x0000bf30        0xc c:/program files (x86)/atmel/studio/7.0/toolchain/arm/arm-gnu-toolchain/bin/../lib/gcc/arm-none-eabi/6.3.1/../../../../arm-none-eabi/lib/thumb/v6-m\libc_nano.a(lib_a-atoi.o)
                0x0000bf30                atoi
 .text.__errno  0x0000bf3c        0xc c:/program files (x86)/atmel/studio/7.0/toolchain/arm/arm-gnu-toolchain/bin/../lib/gcc/arm-none-eabi/6.3.1/../../../../arm-none-eabi/lib/thumb/v6-m\libc_nano.a(lib_a-errno.o)
                0x0000bf3c                __errno
 .text.__libc_init_array
                0x0000bf48       0x48 c:/program files (x86)/atmel/studio/7.0/toolchain/arm/arm-gnu-toolchain/bin/../lib/gcc/arm-none-eabi/6.3.1/../../../../arm-none-eabi/lib/thumb/v6-m\libc_nano.a(lib_a-init.o)
                0x0000bf48                __libc_init_array
 .text.__itoa   0x0000bf90       0x30 c:/program files (x86)/atmel/studio/7.0/toolchain/arm/arm-gnu-toolchain/bin/../lib/gcc/arm-none-eabi/6.3.1/../../../../arm-none-eabi/lib/thumb/v6-m\libc_nano.a(lib_a-itoa.o)
                0x0000bf90                __itoa
 .text.itoa     0x0000bfc0        0x8 c:/program files (x86)/atmel/studio/7.0/toolchain/arm/arm-gnu-toolchain/bin/../lib/gcc/arm-none-eabi/6.3.1/../../../../arm-none-eabi/lib/thumb/v6-m\libc_nano.a(lib_a-itoa.o)
                0x0000bfc0                itoa
 .text.malloc   0x0000bfc8       0x14 c:/program files (x86)/atmel/studio/7.0/toolchain/arm/arm-gnu-toolchain/bin/../lib/gcc/arm-none-eabi/6.3.1/../../../../arm-none-eabi/lib/thumb/v6-m\libc_nano.a(lib_a-malloc.o)
                0x0000bfc8                malloc
 .text.free     0x0000bfdc       0x14 c:/program files (x86)/atmel/studio/7.0/toolchain/arm/arm-gnu-toolchain/bin/../lib/gcc/arm-none-eabi/6.3.1/../../../../arm-none-eabi/lib/thumb/v6-m\libc_nano.a(lib_a-malloc.o)
                0x0000bfdc                free
 .text.memcpy   0x0000bff0       0x12 c:/program files (x86)/atmel/studio/7.0/toolchain/arm/arm-gnu-toolchain/bin/../lib/gcc/arm-none-eabi/6.3.1/../../../../arm-none-eabi/lib/thumb/v6-m\libc_nano.a(lib_a-memcpy-stub.o)
                0x0000bff0                memcpy
 .text.memset   0x0000c002       0x10 c:/program files (x86)/atmel/studio/7.0/toolchain/arm/arm-gnu-toolchain/bin/../lib/gcc/arm-none-eabi/6.3.1/../../../../arm-none-eabi/lib/thumb/v6-m\libc_nano.a(lib_a-memset.o)
                0x0000c002                memset
 *fill*         0x0000c012        0x2 
 .text._free_r  0x0000c014       0x94 c:/program files (x86)/atmel/studio/7.0/toolchain/arm/arm-gnu-toolchain/bin/../lib/gcc/arm-none-eabi/6.3.1/../../../../arm-none-eabi/lib/thumb/v6-m\libc_nano.a(lib_a-nano-freer.o)
                0x0000c014                _free_r
 .text._malloc_r
                0x0000c0a8       0xbc c:/program files (x86)/atmel/studio/7.0/toolchain/arm/arm-gnu-toolchain/bin/../lib/gcc/arm-none-eabi/6.3.1/../../../../arm-none-eabi/lib/thumb/v6-m\libc_nano.a(lib_a-nano-mallocr.o)
                0x0000c0a8                _malloc_r
 .text._sbrk_r  0x0000c164       0x24 c:/program files (x86)/atmel/studio/7.0/toolchain/arm/arm-gnu-toolchain/bin/../lib/gcc/arm-none-eabi/6.3.1/../../../../arm-none-eabi/lib/thumb/v6-m\libc_nano.a(lib_a-sbrkr.o)
                0x0000c164                _sbrk_r
 .text.sprintf  0x0000c188       0x44 c:/program files (x86)/atmel/studio/7.0/toolchain/arm/arm-gnu-toolchain/bin/../lib/gcc/arm-none-eabi/6.3.1/../../../../arm-none-eabi/lib/thumb/v6-m\libc_nano.a(lib_a-sprintf.o)
                0x0000c188                siprintf
                0x0000c188                sprintf
 .text.strchr   0x0000c1cc       0x1c c:/program files (x86)/atmel/studio/7.0/toolchain/arm/arm-gnu-toolchain/bin/../lib/gcc/arm-none-eabi/6.3.1/../../../../arm-none-eabi/lib/thumb/v6-m\libc_nano.a(lib_a-strchr.o)
                0x0000c1cc                strchr
 .text          0x0000c1e8       0x14 c:/program files (x86)/atmel/studio/7.0/toolchain/arm/arm-gnu-toolchain/bin/../lib/gcc/arm-none-eabi/6.3.1/../../../../arm-none-eabi/lib/thumb/v6-m\libc_nano.a(lib_a-strcmp.o)
                0x0000c1e8                strcmp
 .text.strcpy   0x0000c1fc       0x10 c:/program files (x86)/atmel/studio/7.0/toolchain/arm/arm-gnu-toolchain/bin/../lib/gcc/arm-none-eabi/6.3.1/../../../../arm-none-eabi/lib/thumb/v6-m\libc_nano.a(lib_a-strcpy.o)
                0x0000c1fc                strcpy
 .text          0x0000c20c        0xe c:/program files (x86)/atmel/studio/7.0/toolchain/arm/arm-gnu-toolchain/bin/../lib/gcc/arm-none-eabi/6.3.1/../../../../arm-none-eabi/lib/thumb/v6-m\libc_nano.a(lib_a-strlen.o)
                0x0000c20c                strlen
 .text.strncpy  0x0000c21a       0x2a c:/program files (x86)/atmel/studio/7.0/toolchain/arm/arm-gnu-toolchain/bin/../lib/gcc/arm-none-eabi/6.3.1/../../../../arm-none-eabi/lib/thumb/v6-m\libc_nano.a(lib_a-strncpy.o)
                0x0000c21a                strncpy
 .text.strstr   0x0000c244       0x30 c:/program files (x86)/atmel/studio/7.0/toolchain/arm/arm-gnu-toolchain/bin/../lib/gcc/arm-none-eabi/6.3.1/../../../../arm-none-eabi/lib/thumb/v6-m\libc_nano.a(lib_a-strstr.o)
                0x0000c244                strstr
 .text.strtok   0x0000c274       0x50 c:/program files (x86)/atmel/studio/7.0/toolchain/arm/arm-gnu-toolchain/bin/../lib/gcc/arm-none-eabi/6.3.1/../../../../arm-none-eabi/lib/thumb/v6-m\libc_nano.a(lib_a-strtok.o)
                0x0000c274                strtok
 .text.__strtok_r
                0x0000c2c4       0x5c c:/program files (x86)/atmel/studio/7.0/toolchain/arm/arm-gnu-toolchain/bin/../lib/gcc/arm-none-eabi/6.3.1/../../../../arm-none-eabi/lib/thumb/v6-m\libc_nano.a(lib_a-strtok_r.o)
                0x0000c2c4                __strtok_r
 .text._strtol_l.isra.0
                0x0000c320      0x10c c:/program files (x86)/atmel/studio/7.0/toolchain/arm/arm-gnu-toolchain/bin/../lib/gcc/arm-none-eabi/6.3.1/../../../../arm-none-eabi/lib/thumb/v6-m\libc_nano.a(lib_a-strtol.o)
 .text.strtol   0x0000c42c       0x28 c:/program files (x86)/atmel/studio/7.0/toolchain/arm/arm-gnu-toolchain/bin/../lib/gcc/arm-none-eabi/6.3.1/../../../../arm-none-eabi/lib/thumb/v6-m\libc_nano.a(lib_a-strtol.o)
                0x0000c42c                strtol
 .text.strupr   0x0000c454       0x28 c:/program files (x86)/atmel/studio/7.0/toolchain/arm/arm-gnu-toolchain/bin/../lib/gcc/arm-none-eabi/6.3.1/../../../../arm-none-eabi/lib/thumb/v6-m\libc_nano.a(lib_a-strupr.o)
                0x0000c454                strupr
 .text.__utoa   0x0000c47c       0x74 c:/program files (x86)/atmel/studio/7.0/toolchain/arm/arm-gnu-toolchain/bin/../lib/gcc/arm-none-eabi/6.3.1/../../../../arm-none-eabi/lib/thumb/v6-m\libc_nano.a(lib_a-utoa.o)
                0x0000c47c                __utoa
 .text.__locale_ctype_ptr_l
                0x0000c4f0        0x6 c:/program files (x86)/atmel/studio/7.0/toolchain/arm/arm-gnu-toolchain/bin/../lib/gcc/arm-none-eabi/6.3.1/../../../../arm-none-eabi/lib/thumb/v6-m\libc_nano.a(lib_a-locale.o)
                0x0000c4f0                __locale_ctype_ptr_l
 *fill*         0x0000c4f6        0x2 
 .text.__locale_ctype_ptr
                0x0000c4f8       0x1c c:/program files (x86)/atmel/studio/7.0/toolchain/arm/arm-gnu-toolchain/bin/../lib/gcc/arm-none-eabi/6.3.1/../../../../arm-none-eabi/lib/thumb/v6-m\libc_nano.a(lib_a-locale.o)
                0x0000c4f8                __locale_ctype_ptr
 .text.__ascii_mbtowc
                0x0000c514       0x24 c:/program files (x86)/atmel/studio/7.0/toolchain/arm/arm-gnu-toolchain/bin/../lib/gcc/arm-none-eabi/6.3.1/../../../../arm-none-eabi/lib/thumb/v6-m\libc_nano.a(lib_a-mbtowc_r.o)
                0x0000c514                __ascii_mbtowc
 .text.__malloc_lock
                0x0000c538        0x2 c:/program files (x86)/atmel/studio/7.0/toolchain/arm/arm-gnu-toolchain/bin/../lib/gcc/arm-none-eabi/6.3.1/../../../../arm-none-eabi/lib/thumb/v6-m\libc_nano.a(lib_a-mlock.o)
                0x0000c538                __malloc_lock
 .text.__malloc_unlock
                0x0000c53a        0x2 c:/program files (x86)/atmel/studio/7.0/toolchain/arm/arm-gnu-toolchain/bin/../lib/gcc/arm-none-eabi/6.3.1/../../../../arm-none-eabi/lib/thumb/v6-m\libc_nano.a(lib_a-mlock.o)
                0x0000c53a                __malloc_unlock
 .text.__ssputs_r
                0x0000c53c       0xc4 c:/program files (x86)/atmel/studio/7.0/toolchain/arm/arm-gnu-toolchain/bin/../lib/gcc/arm-none-eabi/6.3.1/../../../../arm-none-eabi/lib/thumb/v6-m\libc_nano.a(lib_a-nano-svfprintf.o)
                0x0000c53c                __ssputs_r
 .text._svfprintf_r
                0x0000c600      0x208 c:/program files (x86)/atmel/studio/7.0/toolchain/arm/arm-gnu-toolchain/bin/../lib/gcc/arm-none-eabi/6.3.1/../../../../arm-none-eabi/lib/thumb/v6-m\libc_nano.a(lib_a-nano-svfprintf.o)
                0x0000c600                _svfiprintf_r
                0x0000c600                _svfprintf_r
 .text._printf_common
                0x0000c808       0xda c:/program files (x86)/atmel/studio/7.0/toolchain/arm/arm-gnu-toolchain/bin/../lib/gcc/arm-none-eabi/6.3.1/../../../../arm-none-eabi/lib/thumb/v6-m\libc_nano.a(lib_a-nano-vfprintf_i.o)
                0x0000c808                _printf_common
 *fill*         0x0000c8e2        0x2 
 .text._printf_i
                0x0000c8e4      0x234 c:/program files (x86)/atmel/studio/7.0/toolchain/arm/arm-gnu-toolchain/bin/../lib/gcc/arm-none-eabi/6.3.1/../../../../arm-none-eabi/lib/thumb/v6-m\libc_nano.a(lib_a-nano-vfprintf_i.o)
                0x0000c8e4                _printf_i
 .text.__ascii_wctomb
                0x0000cb18       0x18 c:/program files (x86)/atmel/studio/7.0/toolchain/arm/arm-gnu-toolchain/bin/../lib/gcc/arm-none-eabi/6.3.1/../../../../arm-none-eabi/lib/thumb/v6-m\libc_nano.a(lib_a-wctomb_r.o)
                0x0000cb18                __ascii_wctomb
 .text.memchr   0x0000cb30       0x16 c:/program files (x86)/atmel/studio/7.0/toolchain/arm/arm-gnu-toolchain/bin/../lib/gcc/arm-none-eabi/6.3.1/../../../../arm-none-eabi/lib/thumb/v6-m\libc_nano.a(lib_a-memchr-stub.o)
                0x0000cb30                memchr
 .text.memmove  0x0000cb46       0x24 c:/program files (x86)/atmel/studio/7.0/toolchain/arm/arm-gnu-toolchain/bin/../lib/gcc/arm-none-eabi/6.3.1/../../../../arm-none-eabi/lib/thumb/v6-m\libc_nano.a(lib_a-memmove.o)
                0x0000cb46                memmove
 .text._realloc_r
                0x0000cb6a       0x4c c:/program files (x86)/atmel/studio/7.0/toolchain/arm/arm-gnu-toolchain/bin/../lib/gcc/arm-none-eabi/6.3.1/../../../../arm-none-eabi/lib/thumb/v6-m\libc_nano.a(lib_a-nano-reallocr.o)
                0x0000cb6a                _realloc_r
 .text._malloc_usable_size_r
                0x0000cbb6       0x10 c:/program files (x86)/atmel/studio/7.0/toolchain/arm/arm-gnu-toolchain/bin/../lib/gcc/arm-none-eabi/6.3.1/../../../../arm-none-eabi/lib/thumb/v6-m\libc_nano.a(lib_a-nano-msizer.o)
                0x0000cbb6                _malloc_usable_size_r
 *(.glue_7t)
 .glue_7t       0x0000cbc6        0x0 linker stubs
 *(.glue_7)
 .glue_7        0x0000cbc6        0x0 linker stubs
 *(.rodata .rodata* .gnu.linkonce.r.*)
 *fill*         0x0000cbc6        0x2 
 .rodata.adc_init_setup
                0x0000cbc8       0x50 src/adc_drivers.o
 .rodata.adc_read_value
                0x0000cc18       0x50 src/adc_drivers.o
 .rodata.adc_init_setup.str1.4
                0x0000cc68       0x16 src/adc_drivers.o
 *fill*         0x0000cc7e        0x2 
 .rodata.adc_init
                0x0000cc80       0xd4 src/ASF/sam0/drivers/adc/adc_sam_d_r_h/adc.o
 .rodata        0x0000cd54       0x50 src/ASF/sam0/drivers/adc/adc_sam_d_r_h/adc.o
 .rodata.crcTable.5543
                0x0000cda4      0x400 src/config/crc32_table.o
 .rodata.GSM_init.str1.4
                0x0000d1a4       0x7f src/Gsmlibrary.o
 *fill*         0x0000d223        0x1 
 .rodata.TCPclose.str1.4
                0x0000d224        0xe src/Gsmlibrary.o
 *fill*         0x0000d232        0x2 
 .rodata.calculate_crc32b_from_flash.str1.4
                0x0000d234       0x40 src/Gsmlibrary.o
 .rodata.checkSIMStatus.str1.4
                0x0000d274       0x19 src/Gsmlibrary.o
 *fill*         0x0000d28d        0x3 
 .rodata.close.str1.4
                0x0000d290       0x1c src/Gsmlibrary.o
 .rodata.connect.str1.4
                0x0000d2ac       0x34 src/Gsmlibrary.o
 .rodata.deleteAllSMS.str1.4
                0x0000d2e0       0x28 src/Gsmlibrary.o
 .rodata.deleteSMS.str1.4
                0x0000d308        0x9 src/Gsmlibrary.o
 *fill*         0x0000d311        0x3 
 .rodata.disconnect.str1.4
                0x0000d314        0xd src/Gsmlibrary.o
 *fill*         0x0000d321        0x3 
 .rodata.extract_string_using_adds.str1.4
                0x0000d324       0x20 src/Gsmlibrary.o
 .rodata.getDateTime.str1.4
                0x0000d344       0x13 src/Gsmlibrary.o
 *fill*         0x0000d357        0x1 
 .rodata.getImei.str1.4
                0x0000d358        0xf src/Gsmlibrary.o
 *fill*         0x0000d367        0x1 
 .rodata.getImsi.str1.4
                0x0000d368        0xa src/Gsmlibrary.o
 *fill*         0x0000d372        0x2 
 .rodata.getLocation.str1.4
                0x0000d374       0x68 src/Gsmlibrary.o
                                 0x6c (size before relaxing)
 .rodata.getSIMRegistration.str1.4
                0x0000d3dc       0x1f src/Gsmlibrary.o
 *fill*         0x0000d3fb        0x1 
 .rodata.getSignalStrength.str1.4
                0x0000d3fc       0x12 src/Gsmlibrary.o
 *fill*         0x0000d40e        0x2 
 .rodata.gsmCheckPowerUp.str1.4
                0x0000d410       0x38 src/Gsmlibrary.o
 .rodata.httpClose.str1.4
                0x0000d448       0x1f src/Gsmlibrary.o
 *fill*         0x0000d467        0x1 
 .rodata.httpInit.str1.4
                0x0000d468       0x48 src/Gsmlibrary.o
 .rodata.httpSend.str1.4
                0x0000d4b0       0xc6 src/Gsmlibrary.o
 *fill*         0x0000d576        0x2 
 .rodata.isGprsConnectionStarted.str1.4
                0x0000d578       0x15 src/Gsmlibrary.o
 *fill*         0x0000d58d        0x3 
 .rodata.isSMSunread.str1.4
                0x0000d590       0x23 src/Gsmlibrary.o
 *fill*         0x0000d5b3        0x1 
 .rodata.isSimRegistered.str1.4
                0x0000d5b4       0x62 src/Gsmlibrary.o
 *fill*         0x0000d616        0x2 
 .rodata.join.str1.4
                0x0000d618       0x23 src/Gsmlibrary.o
                                 0x2e (size before relaxing)
 *fill*         0x0000d63b        0x1 
 .rodata.program_memory.str1.4
                0x0000d63c       0x48 src/Gsmlibrary.o
 .rodata.readSMS.str1.4
                0x0000d684       0x2c src/Gsmlibrary.o
                                 0x30 (size before relaxing)
 .rodata.send.str1.4
                0x0000d6b0       0x16 src/Gsmlibrary.o
 *fill*         0x0000d6c6        0x2 
 .rodata.sendData.str1.4
                0x0000d6c8       0x57 src/Gsmlibrary.o
 *fill*         0x0000d71f        0x1 
 .rodata.sendHttpData.str1.4
                0x0000d720       0x37 src/Gsmlibrary.o
 *fill*         0x0000d757        0x1 
 .rodata.sendSmsWithDeviceID.str1.4
                0x0000d758       0x26 src/Gsmlibrary.o
                                 0x2c (size before relaxing)
 *fill*         0x0000d77e        0x2 
 .rodata.startGprsConnection.str1.4
                0x0000d780       0x22 src/Gsmlibrary.o
 *fill*         0x0000d7a2        0x2 
 .rodata.startOTAUpdate.str1.4
                0x0000d7a4       0xad src/Gsmlibrary.o
 *fill*         0x0000d851        0x3 
 .rodata.apiVersion
                0x0000d854        0x4 src/main.o
                0x0000d854                apiVersion
 .rodata.apn    0x0000d858       0x15 src/main.o
                0x0000d858                apn
 *fill*         0x0000d86d        0x3 
 .rodata.avgTemperatureVoltageReadings.str1.4
                0x0000d870       0x3b src/main.o
 *fill*         0x0000d8ab        0x1 
 .rodata.checkForFirmwareUpdate.str1.4
                0x0000d8ac       0xd2 src/main.o
 *fill*         0x0000d97e        0x2 
 .rodata.checkOTAUpdate.str1.4
                0x0000d980       0xbb src/main.o
 *fill*         0x0000da3b        0x1 
 .rodata.companyName
                0x0000da3c       0x21 src/main.o
                0x0000da3c                companyName
 *fill*         0x0000da5d        0x3 
 .rodata.complete_system_reset.str1.4
                0x0000da60       0x2d src/main.o
 *fill*         0x0000da8d        0x3 
 .rodata.firmware_update_check_url
                0x0000da90       0x2f src/main.o
                0x0000da90                firmware_update_check_url
 *fill*         0x0000dabf        0x1 
 .rodata.gatewayReceiveNumber
                0x0000dac0        0x7 src/main.o
                0x0000dac0                gatewayReceiveNumber
 *fill*         0x0000dac7        0x1 
 .rodata.gatewayReceiveNumber_1
                0x0000dac8        0x8 src/main.o
                0x0000dac8                gatewayReceiveNumber_1
 .rodata.gatewayReceiveNumber_2
                0x0000dad0        0xb src/main.o
                0x0000dad0                gatewayReceiveNumber_2
 *fill*         0x0000dadb        0x1 
 .rodata.gatewaySendNumber
                0x0000dadc        0xb src/main.o
                0x0000dadc                gatewaySendNumber
 *fill*         0x0000dae7        0x1 
 .rodata.gsmPowerOnOff.str1.4
                0x0000dae8       0xe4 src/main.o
 .rodata.hardwareVersion
                0x0000dbcc        0x4 src/main.o
                0x0000dbcc                hardwareVersion
 .rodata.main.str1.4
                0x0000dbd0        0xa src/main.o
 *fill*         0x0000dbda        0x2 
 .rodata.main_task.str1.4
                0x0000dbdc      0x1c0 src/main.o
 .rodata.ota_project_name
                0x0000dd9c       0x10 src/main.o
                0x0000dd9c                ota_project_name
 .rodata.ota_server
                0x0000ddac       0x15 src/main.o
                0x0000ddac                ota_server
 *fill*         0x0000ddc1        0x3 
 .rodata.projectName
                0x0000ddc4       0x22 src/main.o
                0x0000ddc4                projectName
 *fill*         0x0000dde6        0x2 
 .rodata.project_server
                0x0000dde8       0x15 src/main.o
                0x0000dde8                project_server
 *fill*         0x0000ddfd        0x3 
 .rodata.softwareVersion
                0x0000de00        0x4 src/main.o
                0x0000de00                softwareVersion
 .rodata.str1.4
                0x0000de04        0xb src/main.o
 *fill*         0x0000de0f        0x1 
 .rodata.tDeviceInfo.str1.4
                0x0000de10       0xc4 src/main.o
                                 0xc5 (size before relaxing)
 .rodata.tEEPROMSetup.str1.4
                0x0000ded4       0x48 src/main.o
 .rodata.tGsmHardwareInit.str1.4
                0x0000df1c       0xa6 src/main.o
 *fill*         0x0000dfc2        0x2 
 .rodata.tGsmTime.str1.4
                0x0000dfc4       0x1c src/main.o
 .rodata.tHandleSMS.str1.4
                0x0000dfe0      0x13e src/main.o
 *fill*         0x0000e11e        0x2 
 .rodata.tInitHardware.str1.4
                0x0000e120       0x8f src/main.o
                                 0x93 (size before relaxing)
 *fill*         0x0000e1af        0x1 
 .rodata.tRTCSetAlarmTime.str1.4
                0x0000e1b0        0xd src/main.o
 *fill*         0x0000e1bd        0x3 
 .rodata.tRTCSetIntialAlarmTime.str1.4
                0x0000e1c0       0x29 src/main.o
 *fill*         0x0000e1e9        0x3 
 .rodata.tSendBootupData.str1.4
                0x0000e1ec       0xb2 src/main.o
 *fill*         0x0000e29e        0x2 
 .rodata.tSendDataToCloud.str1.4
                0x0000e2a0      0x212 src/main.o
 *fill*         0x0000e4b2        0x2 
 .rodata.tSendLiveData.str1.4
                0x0000e4b4       0x57 src/main.o
 *fill*         0x0000e50b        0x1 
 .rodata.tSimCardSetup.str1.4
                0x0000e50c       0xe0 src/main.o
                                 0xe8 (size before relaxing)
 .rodata.tSmsServiceSetup.str1.4
                0x0000e5ec       0x48 src/main.o
                                 0x54 (size before relaxing)
 .rodata.tWriteInitialConfig.str1.4
                0x0000e634       0x26 src/main.o
 *fill*         0x0000e65a        0x2 
 .rodata.tcheckNumberValid.str1.4
                0x0000e65c       0x3e src/main.o
 *fill*         0x0000e69a        0x2 
 .rodata.tempReading.str1.4
                0x0000e69c       0x5b src/main.o
 *fill*         0x0000e6f7        0x1 
 .rodata.tgsmClkSync.str1.4
                0x0000e6f8      0x15e src/main.o
                                0x16a (size before relaxing)
 *fill*         0x0000e856        0x2 
 .rodata.updateToFlash.str1.4
                0x0000e858       0xa7 src/main.o
                                 0xab (size before relaxing)
 *fill*         0x0000e8ff        0x1 
 .rodata.tRTCGetTimeStamp.str1.4
                0x0000e900       0x48 src/samd20j.o
 .rodata.serial_debug_ln.str1.4
                0x0000e948       0x48 src/uart_drivers.o
                                  0x2 (size before relaxing)
 .rodata.serial_write_hex.str1.4
                0x0000e948        0x6 src/uart_drivers.o
 .rodata        0x0000e948       0x10 src/ASF/sam0/drivers/sercom/sercom.o
 .rodata.vTaskStartScheduler.str1.4
                0x0000e958        0x5 src/ASF/thirdparty/freertos/freertos-7.4.2/Source/tasks.o
 *fill*         0x0000e95d        0x3 
 .rodata.xTimerCreateTimerTask.str1.4
                0x0000e960        0x8 src/ASF/thirdparty/freertos/freertos-7.4.2/Source/timers.o
 .rodata.nvm_execute_command
                0x0000e968      0x118 src/ASF/sam0/drivers/nvm/nvm.o
 .rodata        0x0000ea80        0xc src/ASF/sam0/services/eeprom/emulator/main_array/eeprom.o
 .rodata.system_clock_source_get_hz
                0x0000ea8c       0x20 src/ASF/sam0/drivers/system/clock/clock_samd20/clock.o
 .rodata.system_clock_source_enable
                0x0000eaac       0x20 src/ASF/sam0/drivers/system/clock/clock_samd20/clock.o
 .rodata.log.str1.4
                0x0000eacc        0x4 c:/program files (x86)/atmel/studio/7.0/toolchain/arm/arm-gnu-toolchain/bin/../lib/gcc/arm-none-eabi/6.3.1/../../../../arm-none-eabi/lib/thumb/v6-m\libm.a(lib_a-w_log.o)
                                  0x5 (size before relaxing)
 .rodata.pow.str1.4
                0x0000ead0        0x4 c:/program files (x86)/atmel/studio/7.0/toolchain/arm/arm-gnu-toolchain/bin/../lib/gcc/arm-none-eabi/6.3.1/../../../../arm-none-eabi/lib/thumb/v6-m\libm.a(lib_a-w_pow.o)
 .rodata.__ieee754_pow.str1.4
                0x0000ead4        0x1 c:/program files (x86)/atmel/studio/7.0/toolchain/arm/arm-gnu-toolchain/bin/../lib/gcc/arm-none-eabi/6.3.1/../../../../arm-none-eabi/lib/thumb/v6-m\libm.a(lib_a-e_pow.o)
 *fill*         0x0000ead4        0x4 
 .rodata.TWO52  0x0000ead8       0x10 c:/program files (x86)/atmel/studio/7.0/toolchain/arm/arm-gnu-toolchain/bin/../lib/gcc/arm-none-eabi/6.3.1/../../../../arm-none-eabi/lib/thumb/v6-m\libm.a(lib_a-s_rint.o)
 .rodata        0x0000eae8       0x40 c:/program files (x86)/atmel/studio/7.0/toolchain/arm/arm-gnu-toolchain/bin/../lib/gcc/arm-none-eabi/6.3.1/thumb/v6-m\libgcc.a(mulsf3.o)
 .rodata        0x0000eb28       0x40 c:/program files (x86)/atmel/studio/7.0/toolchain/arm/arm-gnu-toolchain/bin/../lib/gcc/arm-none-eabi/6.3.1/thumb/v6-m\libgcc.a(divdf3.o)
 .rodata        0x0000eb68       0x40 c:/program files (x86)/atmel/studio/7.0/toolchain/arm/arm-gnu-toolchain/bin/../lib/gcc/arm-none-eabi/6.3.1/thumb/v6-m\libgcc.a(muldf3.o)
 .rodata.__utoa.str1.1
                0x0000eba8       0x25 c:/program files (x86)/atmel/studio/7.0/toolchain/arm/arm-gnu-toolchain/bin/../lib/gcc/arm-none-eabi/6.3.1/../../../../arm-none-eabi/lib/thumb/v6-m\libc_nano.a(lib_a-utoa.o)
 *fill*         0x0000ebcd        0x3 
 .rodata.__sf_fake_stderr
                0x0000ebd0       0x20 c:/program files (x86)/atmel/studio/7.0/toolchain/arm/arm-gnu-toolchain/bin/../lib/gcc/arm-none-eabi/6.3.1/../../../../arm-none-eabi/lib/thumb/v6-m\libc_nano.a(lib_a-findfp.o)
                0x0000ebd0                __sf_fake_stderr
 .rodata.__sf_fake_stdin
                0x0000ebf0       0x20 c:/program files (x86)/atmel/studio/7.0/toolchain/arm/arm-gnu-toolchain/bin/../lib/gcc/arm-none-eabi/6.3.1/../../../../arm-none-eabi/lib/thumb/v6-m\libc_nano.a(lib_a-findfp.o)
                0x0000ebf0                __sf_fake_stdin
 .rodata.__sf_fake_stdout
                0x0000ec10       0x20 c:/program files (x86)/atmel/studio/7.0/toolchain/arm/arm-gnu-toolchain/bin/../lib/gcc/arm-none-eabi/6.3.1/../../../../arm-none-eabi/lib/thumb/v6-m\libc_nano.a(lib_a-findfp.o)
                0x0000ec10                __sf_fake_stdout
 .rodata._setlocale_r.str1.1
                0x0000ec30        0x8 c:/program files (x86)/atmel/studio/7.0/toolchain/arm/arm-gnu-toolchain/bin/../lib/gcc/arm-none-eabi/6.3.1/../../../../arm-none-eabi/lib/thumb/v6-m\libc_nano.a(lib_a-locale.o)
                                  0x9 (size before relaxing)
 .rodata.str1.1
                0x0000ec38        0x2 c:/program files (x86)/atmel/studio/7.0/toolchain/arm/arm-gnu-toolchain/bin/../lib/gcc/arm-none-eabi/6.3.1/../../../../arm-none-eabi/lib/thumb/v6-m\libc_nano.a(lib_a-locale.o)
 .rodata._svfprintf_r.str1.1
                0x0000ec3a       0x11 c:/program files (x86)/atmel/studio/7.0/toolchain/arm/arm-gnu-toolchain/bin/../lib/gcc/arm-none-eabi/6.3.1/../../../../arm-none-eabi/lib/thumb/v6-m\libc_nano.a(lib_a-nano-svfprintf.o)
 .rodata._printf_i.str1.1
                0x0000ec4b       0x22 c:/program files (x86)/atmel/studio/7.0/toolchain/arm/arm-gnu-toolchain/bin/../lib/gcc/arm-none-eabi/6.3.1/../../../../arm-none-eabi/lib/thumb/v6-m\libc_nano.a(lib_a-nano-vfprintf_i.o)
 .rodata._ctype_
                0x0000ec6d      0x101 c:/program files (x86)/atmel/studio/7.0/toolchain/arm/arm-gnu-toolchain/bin/../lib/gcc/arm-none-eabi/6.3.1/../../../../arm-none-eabi/lib/thumb/v6-m\libc_nano.a(lib_a-ctype_.o)
                0x0000ec6d                _ctype_
 *(.ARM.extab* .gnu.linkonce.armextab.*)
                0x0000ed70                . = ALIGN (0x4)
 *fill*         0x0000ed6e        0x2 
 *(.init)
 .init          0x0000ed70        0x4 c:/program files (x86)/atmel/studio/7.0/toolchain/arm/arm-gnu-toolchain/bin/../lib/gcc/arm-none-eabi/6.3.1/thumb/v6-m/crti.o
                0x0000ed70                _init
 .init          0x0000ed74        0x8 c:/program files (x86)/atmel/studio/7.0/toolchain/arm/arm-gnu-toolchain/bin/../lib/gcc/arm-none-eabi/6.3.1/thumb/v6-m/crtn.o
                0x0000ed7c                . = ALIGN (0x4)
                0x0000ed7c                __preinit_array_start = .
 *(.preinit_array)
                0x0000ed7c                __preinit_array_end = .
                0x0000ed7c                . = ALIGN (0x4)
                0x0000ed7c                __init_array_start = .
 *(SORT(.init_array.*))
 *(.init_array)
 .init_array    0x0000ed7c        0x4 c:/program files (x86)/atmel/studio/7.0/toolchain/arm/arm-gnu-toolchain/bin/../lib/gcc/arm-none-eabi/6.3.1/thumb/v6-m/crtbegin.o
                0x0000ed80                __init_array_end = .
                0x0000ed80                . = ALIGN (0x4)
 *crtbegin.o(.ctors)
 *(EXCLUDE_FILE(*crtend.o) .ctors)
 *(SORT(.ctors.*))
 *crtend.o(.ctors)
                0x0000ed80                . = ALIGN (0x4)
 *(.fini)
 .fini          0x0000ed80        0x4 c:/program files (x86)/atmel/studio/7.0/toolchain/arm/arm-gnu-toolchain/bin/../lib/gcc/arm-none-eabi/6.3.1/thumb/v6-m/crti.o
                0x0000ed80                _fini
 .fini          0x0000ed84        0x8 c:/program files (x86)/atmel/studio/7.0/toolchain/arm/arm-gnu-toolchain/bin/../lib/gcc/arm-none-eabi/6.3.1/thumb/v6-m/crtn.o
                0x0000ed8c                . = ALIGN (0x4)
                0x0000ed8c                __fini_array_start = .
 *(.fini_array)
 .fini_array    0x0000ed8c        0x4 c:/program files (x86)/atmel/studio/7.0/toolchain/arm/arm-gnu-toolchain/bin/../lib/gcc/arm-none-eabi/6.3.1/thumb/v6-m/crtbegin.o
 *(SORT(.fini_array.*))
                0x0000ed90                __fini_array_end = .
 *crtbegin.o(.dtors)
 *(EXCLUDE_FILE(*crtend.o) .dtors)
 *(SORT(.dtors.*))
 *crtend.o(.dtors)
                0x0000ed90                . = ALIGN (0x4)
                0x0000ed90                _efixed = .
                [!provide]                PROVIDE (__exidx_start, .)

.vfp11_veneer   0x0000ed90        0x0
 .vfp11_veneer  0x0000ed90        0x0 linker stubs

.v4_bx          0x0000ed90        0x0
 .v4_bx         0x0000ed90        0x0 linker stubs

.iplt           0x0000ed90        0x0
 .iplt          0x0000ed90        0x0 c:/program files (x86)/atmel/studio/7.0/toolchain/arm/arm-gnu-toolchain/bin/../lib/gcc/arm-none-eabi/6.3.1/thumb/v6-m/crtbegin.o

.eh_frame       0x0000ed90        0x0
 .eh_frame      0x0000ed90        0x0 c:/program files (x86)/atmel/studio/7.0/toolchain/arm/arm-gnu-toolchain/bin/../lib/gcc/arm-none-eabi/6.3.1/thumb/v6-m/crtbegin.o

.rel.dyn        0x0000ed90        0x0
 .rel.iplt      0x0000ed90        0x0 c:/program files (x86)/atmel/studio/7.0/toolchain/arm/arm-gnu-toolchain/bin/../lib/gcc/arm-none-eabi/6.3.1/thumb/v6-m/crtbegin.o

.jcr            0x0000ed90        0x0
 .jcr           0x0000ed90        0x0 c:/program files (x86)/atmel/studio/7.0/toolchain/arm/arm-gnu-toolchain/bin/../lib/gcc/arm-none-eabi/6.3.1/thumb/v6-m/crtbegin.o

.igot.plt       0x0000ed90        0x0
 .igot.plt      0x0000ed90        0x0 c:/program files (x86)/atmel/studio/7.0/toolchain/arm/arm-gnu-toolchain/bin/../lib/gcc/arm-none-eabi/6.3.1/thumb/v6-m/crtbegin.o

.ARM.exidx
 *(.ARM.exidx* .gnu.linkonce.armexidx.*)
                [!provide]                PROVIDE (__exidx_end, .)
                0x0000ed90                . = ALIGN (0x4)
                0x0000ed90                _etext = .

.relocate       0x20000000      0x1e4 load address 0x0000ed90
                0x20000000                . = ALIGN (0x4)
                0x20000000                _srelocate = .
 *(.ramfunc .ramfunc.*)
 *(.data .data.*)
 .data.appAddress
                0x20000000        0x4 src/main.o
                0x20000000                appAddress
 .data.uxCriticalNesting
                0x20000004        0x4 src/ASF/thirdparty/freertos/freertos-7.4.2/Source/portable/GCC/ARM_CM0/port.o
 .data.xNextTaskUnblockTime
                0x20000008        0x4 src/ASF/thirdparty/freertos/freertos-7.4.2/Source/tasks.o
 .data.cycles_per_ms
                0x2000000c        0x4 src/ASF/common2/services/delay/sam0/systick_counter.o
 .data.g_interrupt_enabled
                0x20000010        0x1 src/ASF/common/utils/interrupt/interrupt_sam_nvic.o
                0x20000010                g_interrupt_enabled
 .data.__fdlib_version
                0x20000011        0x1 c:/program files (x86)/atmel/studio/7.0/toolchain/arm/arm-gnu-toolchain/bin/../lib/gcc/arm-none-eabi/6.3.1/../../../../arm-none-eabi/lib/thumb/v6-m\libm.a(lib_a-s_lib_ver.o)
                0x20000011                __fdlib_version
 *fill*         0x20000012        0x2 
 .data._impure_ptr
                0x20000014        0x4 c:/program files (x86)/atmel/studio/7.0/toolchain/arm/arm-gnu-toolchain/bin/../lib/gcc/arm-none-eabi/6.3.1/../../../../arm-none-eabi/lib/thumb/v6-m\libc_nano.a(lib_a-impure.o)
                0x20000014                _impure_ptr
 .data.impure_data
                0x20000018       0x60 c:/program files (x86)/atmel/studio/7.0/toolchain/arm/arm-gnu-toolchain/bin/../lib/gcc/arm-none-eabi/6.3.1/../../../../arm-none-eabi/lib/thumb/v6-m\libc_nano.a(lib_a-impure.o)
 .data.__global_locale
                0x20000078      0x16c c:/program files (x86)/atmel/studio/7.0/toolchain/arm/arm-gnu-toolchain/bin/../lib/gcc/arm-none-eabi/6.3.1/../../../../arm-none-eabi/lib/thumb/v6-m\libc_nano.a(lib_a-locale.o)
                0x20000078                __global_locale
                0x200001e4                . = ALIGN (0x4)
                0x200001e4                _erelocate = .

.bss            0x200001e8      0xa80 load address 0x0000ef78
                0x200001e8                . = ALIGN (0x4)
                0x200001e8                _sbss = .
                0x200001e8                _szero = .
 *(.bss .bss.*)
 .bss           0x200001e8       0x1c c:/program files (x86)/atmel/studio/7.0/toolchain/arm/arm-gnu-toolchain/bin/../lib/gcc/arm-none-eabi/6.3.1/thumb/v6-m/crtbegin.o
 .bss.ipAddr    0x20000204       0x20 src/Gsmlibrary.o
                0x20000204                ipAddr
 .bss.ip_string
                0x20000224       0x10 src/Gsmlibrary.o
                0x20000224                ip_string
 *fill*         0x20000234        0x4 
 .bss.AvgTempC  0x20000238        0x8 src/main.o
                0x20000238                AvgTempC
 .bss.AvgtempAdcVoltage
                0x20000240        0x8 src/main.o
                0x20000240                AvgtempAdcVoltage
 .bss.gImeiNo   0x20000248       0x10 src/main.o
                0x20000248                gImeiNo
 .bss.g_DeviceConfigFlag
                0x20000258        0x1 src/main.o
                0x20000258                g_DeviceConfigFlag
 .bss.g_IMEIvalidFlag
                0x20000259        0x1 src/main.o
                0x20000259                g_IMEIvalidFlag
 *fill*         0x2000025a        0x2 
 .bss.g_ImsiNo  0x2000025c       0x10 src/main.o
                0x2000025c                g_ImsiNo
 .bss.g_InitHardwareFlag
                0x2000026c        0x1 src/main.o
                0x2000026c                g_InitHardwareFlag
 .bss.g_RTCCallbackFlag
                0x2000026d        0x1 src/main.o
                0x2000026d                g_RTCCallbackFlag
 *fill*         0x2000026e        0x2 
 .bss.g_RtcBackUpTimer
                0x20000270        0x4 src/main.o
                0x20000270                g_RtcBackUpTimer
 .bss.g_SIMCardFlag
                0x20000274        0x1 src/main.o
                0x20000274                g_SIMCardFlag
 .bss.g_SMSServiceFlag
                0x20000275        0x1 src/main.o
                0x20000275                g_SMSServiceFlag
 .bss.g_SendBootupFlag
                0x20000276        0x1 src/main.o
                0x20000276                g_SendBootupFlag
 *fill*         0x20000277        0x1 
 .bss.g_bootupTimeInterval
                0x20000278        0x4 src/main.o
                0x20000278                g_bootupTimeInterval
 .bss.g_msgReadTimeInterval
                0x2000027c        0x4 src/main.o
                0x2000027c                g_msgReadTimeInterval
 .bss.g_resetCause
                0x20000280        0x4 src/main.o
                0x20000280                g_resetCause
 .bss.g_simErrorCode
                0x20000284        0x4 src/main.o
                0x20000284                g_simErrorCode
 .bss.g_tempSampleCounter
                0x20000288        0x1 src/main.o
                0x20000288                g_tempSampleCounter
 *fill*         0x20000289        0x3 
 .bss.latitude  0x2000028c        0xc src/main.o
                0x2000028c                latitude
 .bss.longitude
                0x20000298        0xc src/main.o
                0x20000298                longitude
 *fill*         0x200002a4        0x4 
 .bss.tempAdcVoltage
                0x200002a8        0x8 src/main.o
                0x200002a8                tempAdcVoltage
 .bss.tempAdcVoltageArrray
                0x200002b0       0xf0 src/main.o
                0x200002b0                tempAdcVoltageArrray
 .bss.tempC     0x200003a0        0x8 src/main.o
                0x200003a0                tempC
 .bss.tempCelArrray
                0x200003a8       0xf0 src/main.o
                0x200003a8                tempCelArrray
 .bss._sercom_config
                0x20000498        0x2 src/ASF/sam0/drivers/sercom/sercom.o
 *fill*         0x2000049a        0x2 
 .bss.pxCurrentTCB
                0x2000049c        0x4 src/ASF/thirdparty/freertos/freertos-7.4.2/Source/tasks.o
                0x2000049c                pxCurrentTCB
 .bss.pxDelayedTaskList
                0x200004a0        0x4 src/ASF/thirdparty/freertos/freertos-7.4.2/Source/tasks.o
 .bss.pxOverflowDelayedTaskList
                0x200004a4        0x4 src/ASF/thirdparty/freertos/freertos-7.4.2/Source/tasks.o
 .bss.pxReadyTasksLists
                0x200004a8       0x64 src/ASF/thirdparty/freertos/freertos-7.4.2/Source/tasks.o
 .bss.uxCurrentNumberOfTasks
                0x2000050c        0x4 src/ASF/thirdparty/freertos/freertos-7.4.2/Source/tasks.o
 .bss.uxMissedTicks
                0x20000510        0x4 src/ASF/thirdparty/freertos/freertos-7.4.2/Source/tasks.o
 .bss.uxSchedulerSuspended
                0x20000514        0x4 src/ASF/thirdparty/freertos/freertos-7.4.2/Source/tasks.o
 .bss.uxTaskNumber
                0x20000518        0x4 src/ASF/thirdparty/freertos/freertos-7.4.2/Source/tasks.o
 .bss.uxTasksDeleted
                0x2000051c        0x4 src/ASF/thirdparty/freertos/freertos-7.4.2/Source/tasks.o
 .bss.uxTopReadyPriority
                0x20000520        0x4 src/ASF/thirdparty/freertos/freertos-7.4.2/Source/tasks.o
 .bss.uxTopUsedPriority
                0x20000524        0x4 src/ASF/thirdparty/freertos/freertos-7.4.2/Source/tasks.o
 .bss.xDelayedTaskList1
                0x20000528       0x14 src/ASF/thirdparty/freertos/freertos-7.4.2/Source/tasks.o
 .bss.xDelayedTaskList2
                0x2000053c       0x14 src/ASF/thirdparty/freertos/freertos-7.4.2/Source/tasks.o
 .bss.xMissedYield
                0x20000550        0x4 src/ASF/thirdparty/freertos/freertos-7.4.2/Source/tasks.o
 .bss.xNumOfOverflows
                0x20000554        0x4 src/ASF/thirdparty/freertos/freertos-7.4.2/Source/tasks.o
 .bss.xPendingReadyList
                0x20000558       0x14 src/ASF/thirdparty/freertos/freertos-7.4.2/Source/tasks.o
 .bss.xSchedulerRunning
                0x2000056c        0x4 src/ASF/thirdparty/freertos/freertos-7.4.2/Source/tasks.o
 .bss.xSuspendedTaskList
                0x20000570       0x14 src/ASF/thirdparty/freertos/freertos-7.4.2/Source/tasks.o
 .bss.xTasksWaitingTermination
                0x20000584       0x14 src/ASF/thirdparty/freertos/freertos-7.4.2/Source/tasks.o
 .bss.xTickCount
                0x20000598        0x4 src/ASF/thirdparty/freertos/freertos-7.4.2/Source/tasks.o
 .bss.pxCurrentTimerList
                0x2000059c        0x4 src/ASF/thirdparty/freertos/freertos-7.4.2/Source/timers.o
 .bss.pxOverflowTimerList
                0x200005a0        0x4 src/ASF/thirdparty/freertos/freertos-7.4.2/Source/timers.o
 .bss.xActiveTimerList1
                0x200005a4       0x14 src/ASF/thirdparty/freertos/freertos-7.4.2/Source/timers.o
 .bss.xActiveTimerList2
                0x200005b8       0x14 src/ASF/thirdparty/freertos/freertos-7.4.2/Source/timers.o
 .bss.xLastTime.4562
                0x200005cc        0x4 src/ASF/thirdparty/freertos/freertos-7.4.2/Source/timers.o
 .bss.xTimerQueue
                0x200005d0        0x4 src/ASF/thirdparty/freertos/freertos-7.4.2/Source/timers.o
 .bss._handler_table_initialized
                0x200005d4        0x1 src/ASF/sam0/drivers/sercom/sercom_interrupt.o
 *fill*         0x200005d5        0x3 
 .bss._sercom_interrupt_handlers
                0x200005d8       0x10 src/ASF/sam0/drivers/sercom/sercom_interrupt.o
 .bss._nvm_dev  0x200005e8        0x6 src/ASF/sam0/drivers/nvm/nvm.o
 *fill*         0x200005ee        0x2 
 .bss._eeprom_instance
                0x200005f0       0xcc src/ASF/sam0/services/eeprom/emulator/main_array/eeprom.o
 .bss.cpu_irq_critical_section_counter
                0x200006bc        0x4 src/ASF/common/utils/interrupt/interrupt_sam_nvic.o
 .bss.cpu_irq_prev_interrupt_state
                0x200006c0        0x1 src/ASF/common/utils/interrupt/interrupt_sam_nvic.o
 *fill*         0x200006c1        0x3 
 .bss._system_clock_inst
                0x200006c4       0x14 src/ASF/sam0/drivers/system/clock/clock_samd20/clock.o
 .bss.heap.5296
                0x200006d8        0x4 src/ASF/sam0/utils/syscalls/gcc/syscalls.o
 .bss.__malloc_free_list
                0x200006dc        0x4 c:/program files (x86)/atmel/studio/7.0/toolchain/arm/arm-gnu-toolchain/bin/../lib/gcc/arm-none-eabi/6.3.1/../../../../arm-none-eabi/lib/thumb/v6-m\libc_nano.a(lib_a-nano-mallocr.o)
                0x200006dc                __malloc_free_list
 .bss.__malloc_sbrk_start
                0x200006e0        0x4 c:/program files (x86)/atmel/studio/7.0/toolchain/arm/arm-gnu-toolchain/bin/../lib/gcc/arm-none-eabi/6.3.1/../../../../arm-none-eabi/lib/thumb/v6-m\libc_nano.a(lib_a-nano-mallocr.o)
                0x200006e0                __malloc_sbrk_start
 *(COMMON)
 COMMON         0x200006e4      0x340 src/adc_drivers.o
                0x200006e4                adc_instance_7
                0x20000704                config_adc_0
                0x20000734                config_adc_17
                0x20000764                adc_instance_16
                0x20000784                adc_instance_4
                0x200007a4                adc_instance_19
                0x200007c4                config_adc_16
                0x200007f4                config_adc_1
                0x20000824                adc_instance_1
                0x20000844                config_adc_18
                0x20000874                config_adc_6
                0x200008a4                config_adc_7
                0x200008d4                config_adc_19
                0x20000904                adc_instance_18
                0x20000924                adc_instance_17
                0x20000944                adc_instance_0
                0x20000964                adc_instance_6
                0x20000984                config_adc_5
                0x200009b4                adc_instance_5
                0x200009d4                config_adc_4
                0x20000a04                adc_instance
 COMMON         0x20000a24        0x4 src/ASF/sam0/drivers/adc/adc_sam_d_r_h/adc_callback.o
                0x20000a24                _adc_instances
 COMMON         0x20000a28       0x28 src/Gsmlibrary.o
                0x20000a28                rtc_instance
                0x20000a3c                alarm
                0x20000a48                time
 COMMON         0x20000a50       0x24 src/GsmPortSetup.o
                0x20000a50                usart_instance_sim900
 COMMON         0x20000a74      0x170 src/main.o
                0x20000a74                extint_event_conf7
                0x20000a94                extint_event_conf6
                0x20000ab4                time_gsm
                0x20000ac0                adc_result_buffer
                0x20000bc0                extint_event_conf5
                0x20000be0                TaskHandle_1
 COMMON         0x20000be4       0x24 src/uart_drivers.o
                0x20000be4                usart_instance
 COMMON         0x20000c08        0x1 src/ASF/sam0/drivers/extint/extint_callback.o
                0x20000c08                _current_channel
 *fill*         0x20000c09        0x3 
 COMMON         0x20000c0c       0x40 src/ASF/sam0/drivers/extint/extint_sam_d_r_h/extint.o
                0x20000c0c                _extint_dev
 COMMON         0x20000c4c        0x4 src/ASF/sam0/drivers/rtc/rtc_sam_d_r_h/rtc_calendar.o
                0x20000c4c                _rtc_instance
 COMMON         0x20000c50        0x4 src/ASF/sam0/drivers/wdt/wdt_callback.o
                0x20000c50                wdt_early_warning_callback
 COMMON         0x20000c54       0x10 src/ASF/sam0/drivers/sercom/sercom_interrupt.o
                0x20000c54                _sercom_instances
 COMMON         0x20000c64        0x4 c:/program files (x86)/atmel/studio/7.0/toolchain/arm/arm-gnu-toolchain/bin/../lib/gcc/arm-none-eabi/6.3.1/../../../../arm-none-eabi/lib/thumb/v6-m\libc_nano.a(lib_a-reent.o)
                0x20000c64                errno
                0x20000c68                . = ALIGN (0x4)
                0x20000c68                _ebss = .
                0x20000c68                _ezero = .

.stack          0x20000c68     0x2000 load address 0x0000f9f8
                0x20000c68                . = ALIGN (0x8)
                0x20000c68                _sstack = .
                0x20002c68                . = (. + STACK_SIZE)
 *fill*         0x20000c68     0x2000 
                0x20002c68                . = ALIGN (0x8)
                0x20002c68                _estack = .
                0x20002c68                . = ALIGN (0x4)
                0x20002c68                _end = .
OUTPUT(gmr22_hwv3.2_swv1.2.elf elf32-littlearm)

.ARM.attributes
                0x00000000       0x28
 .ARM.attributes
                0x00000000       0x1e c:/program files (x86)/atmel/studio/7.0/toolchain/arm/arm-gnu-toolchain/bin/../lib/gcc/arm-none-eabi/6.3.1/thumb/v6-m/crti.o
 .ARM.attributes
                0x0000001e       0x2c c:/program files (x86)/atmel/studio/7.0/toolchain/arm/arm-gnu-toolchain/bin/../lib/gcc/arm-none-eabi/6.3.1/thumb/v6-m/crtbegin.o
 .ARM.attributes
                0x0000004a       0x32 src/adc_drivers.o
 .ARM.attributes
                0x0000007c       0x32 src/ASF/sam0/drivers/adc/adc_sam_d_r_h/adc.o
 .ARM.attributes
                0x000000ae       0x32 src/ASF/sam0/drivers/adc/adc_sam_d_r_h/adc_callback.o
 .ARM.attributes
                0x000000e0       0x32 src/config/crc32_table.o
 .ARM.attributes
                0x00000112       0x32 src/Gsmlibrary.o
 .ARM.attributes
                0x00000144       0x32 src/GsmPortSetup.o
 .ARM.attributes
                0x00000176       0x32 src/main.o
 .ARM.attributes
                0x000001a8       0x32 src/samd20j.o
 .ARM.attributes
                0x000001da       0x32 src/uart_drivers.o
 .ARM.attributes
                0x0000020c       0x32 src/ASF/sam0/drivers/extint/extint_callback.o
 .ARM.attributes
                0x0000023e       0x32 src/ASF/sam0/drivers/extint/extint_sam_d_r_h/extint.o
 .ARM.attributes
                0x00000270       0x32 src/ASF/sam0/drivers/rtc/rtc_sam_d_r_h/rtc_calendar.o
 .ARM.attributes
                0x000002a2       0x32 src/ASF/sam0/drivers/rtc/rtc_sam_d_r_h/rtc_calendar_interrupt.o
 .ARM.attributes
                0x000002d4       0x32 src/ASF/sam0/drivers/sercom/usart/usart.o
 .ARM.attributes
                0x00000306       0x32 src/ASF/sam0/drivers/sercom/usart/usart_interrupt.o
 .ARM.attributes
                0x00000338       0x32 src/ASF/thirdparty/freertos/freertos-7.4.2/Source/portable/MemMang/heap_3.o
 .ARM.attributes
                0x0000036a       0x32 src/ASF/sam0/drivers/wdt/wdt.o
 .ARM.attributes
                0x0000039c       0x32 src/ASF/sam0/drivers/wdt/wdt_callback.o
 .ARM.attributes
                0x000003ce       0x32 src/ASF/sam0/drivers/port/port.o
 .ARM.attributes
                0x00000400       0x32 src/ASF/sam0/drivers/sercom/sercom.o
 .ARM.attributes
                0x00000432       0x32 src/ASF/thirdparty/freertos/freertos-7.4.2/Source/portable/GCC/ARM_CM0/port.o
 .ARM.attributes
                0x00000464       0x32 src/ASF/thirdparty/freertos/freertos-7.4.2/Source/list.o
 .ARM.attributes
                0x00000496       0x32 src/ASF/thirdparty/freertos/freertos-7.4.2/Source/queue.o
 .ARM.attributes
                0x000004c8       0x32 src/ASF/thirdparty/freertos/freertos-7.4.2/Source/tasks.o
 .ARM.attributes
                0x000004fa       0x32 src/ASF/thirdparty/freertos/freertos-7.4.2/Source/timers.o
 .ARM.attributes
                0x0000052c       0x32 src/ASF/sam0/drivers/sercom/sercom_interrupt.o
 .ARM.attributes
                0x0000055e       0x32 src/ASF/sam0/drivers/bod/bod_sam_d_r_h/bod.o
 .ARM.attributes
                0x00000590       0x32 src/ASF/common2/services/delay/sam0/systick_counter.o
 .ARM.attributes
                0x000005c2       0x32 src/ASF/sam0/drivers/nvm/nvm.o
 .ARM.attributes
                0x000005f4       0x32 src/ASF/sam0/services/eeprom/emulator/main_array/eeprom.o
 .ARM.attributes
                0x00000626       0x32 src/ASF/common2/boards/user_board/init.o
 .ARM.attributes
                0x00000658       0x32 src/ASF/common/utils/interrupt/interrupt_sam_nvic.o
 .ARM.attributes
                0x0000068a       0x32 src/ASF/sam0/drivers/system/clock/clock_samd20/clock.o
 .ARM.attributes
                0x000006bc       0x32 src/ASF/sam0/drivers/system/clock/clock_samd20/gclk.o
 .ARM.attributes
                0x000006ee       0x32 src/ASF/sam0/drivers/system/pinmux/pinmux.o
 .ARM.attributes
                0x00000720       0x32 src/ASF/sam0/drivers/system/system.o
 .ARM.attributes
                0x00000752       0x32 src/ASF/sam0/utils/cmsis/samd20/source/gcc/startup_samd20.o
 .ARM.attributes
                0x00000784       0x32 src/ASF/sam0/utils/syscalls/gcc/syscalls.o
 .ARM.attributes
                0x000007b6       0x2c c:/program files (x86)/atmel/studio/7.0/toolchain/arm/arm-gnu-toolchain/bin/../lib/gcc/arm-none-eabi/6.3.1/../../../../arm-none-eabi/lib/thumb/v6-m\libm.a(lib_a-w_log.o)
 .ARM.attributes
                0x000007e2       0x2c c:/program files (x86)/atmel/studio/7.0/toolchain/arm/arm-gnu-toolchain/bin/../lib/gcc/arm-none-eabi/6.3.1/../../../../arm-none-eabi/lib/thumb/v6-m\libm.a(lib_a-w_pow.o)
 .ARM.attributes
                0x0000080e       0x2c c:/program files (x86)/atmel/studio/7.0/toolchain/arm/arm-gnu-toolchain/bin/../lib/gcc/arm-none-eabi/6.3.1/../../../../arm-none-eabi/lib/thumb/v6-m\libm.a(lib_a-e_log.o)
 .ARM.attributes
                0x0000083a       0x2c c:/program files (x86)/atmel/studio/7.0/toolchain/arm/arm-gnu-toolchain/bin/../lib/gcc/arm-none-eabi/6.3.1/../../../../arm-none-eabi/lib/thumb/v6-m\libm.a(lib_a-e_pow.o)
 .ARM.attributes
                0x00000866       0x2c c:/program files (x86)/atmel/studio/7.0/toolchain/arm/arm-gnu-toolchain/bin/../lib/gcc/arm-none-eabi/6.3.1/../../../../arm-none-eabi/lib/thumb/v6-m\libm.a(lib_a-e_sqrt.o)
 .ARM.attributes
                0x00000892       0x2c c:/program files (x86)/atmel/studio/7.0/toolchain/arm/arm-gnu-toolchain/bin/../lib/gcc/arm-none-eabi/6.3.1/../../../../arm-none-eabi/lib/thumb/v6-m\libm.a(lib_a-s_fabs.o)
 .ARM.attributes
                0x000008be       0x2c c:/program files (x86)/atmel/studio/7.0/toolchain/arm/arm-gnu-toolchain/bin/../lib/gcc/arm-none-eabi/6.3.1/../../../../arm-none-eabi/lib/thumb/v6-m\libm.a(lib_a-s_finite.o)
 .ARM.attributes
                0x000008ea       0x2c c:/program files (x86)/atmel/studio/7.0/toolchain/arm/arm-gnu-toolchain/bin/../lib/gcc/arm-none-eabi/6.3.1/../../../../arm-none-eabi/lib/thumb/v6-m\libm.a(lib_a-s_lib_ver.o)
 .ARM.attributes
                0x00000916       0x2c c:/program files (x86)/atmel/studio/7.0/toolchain/arm/arm-gnu-toolchain/bin/../lib/gcc/arm-none-eabi/6.3.1/../../../../arm-none-eabi/lib/thumb/v6-m\libm.a(lib_a-s_matherr.o)
 .ARM.attributes
                0x00000942       0x2c c:/program files (x86)/atmel/studio/7.0/toolchain/arm/arm-gnu-toolchain/bin/../lib/gcc/arm-none-eabi/6.3.1/../../../../arm-none-eabi/lib/thumb/v6-m\libm.a(lib_a-s_nan.o)
 .ARM.attributes
                0x0000096e       0x2c c:/program files (x86)/atmel/studio/7.0/toolchain/arm/arm-gnu-toolchain/bin/../lib/gcc/arm-none-eabi/6.3.1/../../../../arm-none-eabi/lib/thumb/v6-m\libm.a(lib_a-s_rint.o)
 .ARM.attributes
                0x0000099a       0x2c c:/program files (x86)/atmel/studio/7.0/toolchain/arm/arm-gnu-toolchain/bin/../lib/gcc/arm-none-eabi/6.3.1/../../../../arm-none-eabi/lib/thumb/v6-m\libm.a(lib_a-s_scalbn.o)
 .ARM.attributes
                0x000009c6       0x2c c:/program files (x86)/atmel/studio/7.0/toolchain/arm/arm-gnu-toolchain/bin/../lib/gcc/arm-none-eabi/6.3.1/../../../../arm-none-eabi/lib/thumb/v6-m\libm.a(lib_a-s_copysign.o)
 .ARM.attributes
                0x000009f2       0x1e c:/program files (x86)/atmel/studio/7.0/toolchain/arm/arm-gnu-toolchain/bin/../lib/gcc/arm-none-eabi/6.3.1/thumb/v6-m\libgcc.a(_udivsi3.o)
 .ARM.attributes
                0x00000a10       0x1e c:/program files (x86)/atmel/studio/7.0/toolchain/arm/arm-gnu-toolchain/bin/../lib/gcc/arm-none-eabi/6.3.1/thumb/v6-m\libgcc.a(_divsi3.o)
 .ARM.attributes
                0x00000a2e       0x1e c:/program files (x86)/atmel/studio/7.0/toolchain/arm/arm-gnu-toolchain/bin/../lib/gcc/arm-none-eabi/6.3.1/thumb/v6-m\libgcc.a(_dvmd_tls.o)
 .ARM.attributes
                0x00000a4c       0x1e c:/program files (x86)/atmel/studio/7.0/toolchain/arm/arm-gnu-toolchain/bin/../lib/gcc/arm-none-eabi/6.3.1/thumb/v6-m\libgcc.a(_arm_cmpdf2.o)
 .ARM.attributes
                0x00000a6a       0x2c c:/program files (x86)/atmel/studio/7.0/toolchain/arm/arm-gnu-toolchain/bin/../lib/gcc/arm-none-eabi/6.3.1/thumb/v6-m\libgcc.a(_muldi3.o)
 .ARM.attributes
                0x00000a96       0x2c c:/program files (x86)/atmel/studio/7.0/toolchain/arm/arm-gnu-toolchain/bin/../lib/gcc/arm-none-eabi/6.3.1/thumb/v6-m\libgcc.a(mulsf3.o)
 .ARM.attributes
                0x00000ac2       0x2c c:/program files (x86)/atmel/studio/7.0/toolchain/arm/arm-gnu-toolchain/bin/../lib/gcc/arm-none-eabi/6.3.1/thumb/v6-m\libgcc.a(subsf3.o)
 .ARM.attributes
                0x00000aee       0x2c c:/program files (x86)/atmel/studio/7.0/toolchain/arm/arm-gnu-toolchain/bin/../lib/gcc/arm-none-eabi/6.3.1/thumb/v6-m\libgcc.a(fixsfsi.o)
 .ARM.attributes
                0x00000b1a       0x2c c:/program files (x86)/atmel/studio/7.0/toolchain/arm/arm-gnu-toolchain/bin/../lib/gcc/arm-none-eabi/6.3.1/thumb/v6-m\libgcc.a(floatsisf.o)
 .ARM.attributes
                0x00000b46       0x2c c:/program files (x86)/atmel/studio/7.0/toolchain/arm/arm-gnu-toolchain/bin/../lib/gcc/arm-none-eabi/6.3.1/thumb/v6-m\libgcc.a(adddf3.o)
 .ARM.attributes
                0x00000b72       0x2c c:/program files (x86)/atmel/studio/7.0/toolchain/arm/arm-gnu-toolchain/bin/../lib/gcc/arm-none-eabi/6.3.1/thumb/v6-m\libgcc.a(divdf3.o)
 .ARM.attributes
                0x00000b9e       0x2c c:/program files (x86)/atmel/studio/7.0/toolchain/arm/arm-gnu-toolchain/bin/../lib/gcc/arm-none-eabi/6.3.1/thumb/v6-m\libgcc.a(eqdf2.o)
 .ARM.attributes
                0x00000bca       0x2c c:/program files (x86)/atmel/studio/7.0/toolchain/arm/arm-gnu-toolchain/bin/../lib/gcc/arm-none-eabi/6.3.1/thumb/v6-m\libgcc.a(gedf2.o)
 .ARM.attributes
                0x00000bf6       0x2c c:/program files (x86)/atmel/studio/7.0/toolchain/arm/arm-gnu-toolchain/bin/../lib/gcc/arm-none-eabi/6.3.1/thumb/v6-m\libgcc.a(ledf2.o)
 .ARM.attributes
                0x00000c22       0x2c c:/program files (x86)/atmel/studio/7.0/toolchain/arm/arm-gnu-toolchain/bin/../lib/gcc/arm-none-eabi/6.3.1/thumb/v6-m\libgcc.a(muldf3.o)
 .ARM.attributes
                0x00000c4e       0x2c c:/program files (x86)/atmel/studio/7.0/toolchain/arm/arm-gnu-toolchain/bin/../lib/gcc/arm-none-eabi/6.3.1/thumb/v6-m\libgcc.a(subdf3.o)
 .ARM.attributes
                0x00000c7a       0x2c c:/program files (x86)/atmel/studio/7.0/toolchain/arm/arm-gnu-toolchain/bin/../lib/gcc/arm-none-eabi/6.3.1/thumb/v6-m\libgcc.a(unorddf2.o)
 .ARM.attributes
                0x00000ca6       0x2c c:/program files (x86)/atmel/studio/7.0/toolchain/arm/arm-gnu-toolchain/bin/../lib/gcc/arm-none-eabi/6.3.1/thumb/v6-m\libgcc.a(floatsidf.o)
 .ARM.attributes
                0x00000cd2       0x2c c:/program files (x86)/atmel/studio/7.0/toolchain/arm/arm-gnu-toolchain/bin/../lib/gcc/arm-none-eabi/6.3.1/thumb/v6-m\libgcc.a(extendsfdf2.o)
 .ARM.attributes
                0x00000cfe       0x2c c:/program files (x86)/atmel/studio/7.0/toolchain/arm/arm-gnu-toolchain/bin/../lib/gcc/arm-none-eabi/6.3.1/thumb/v6-m\libgcc.a(truncdfsf2.o)
 .ARM.attributes
                0x00000d2a       0x1e c:/program files (x86)/atmel/studio/7.0/toolchain/arm/arm-gnu-toolchain/bin/../lib/gcc/arm-none-eabi/6.3.1/thumb/v6-m\libgcc.a(_clzsi2.o)
 .ARM.attributes
                0x00000d48       0x2c c:/program files (x86)/atmel/studio/7.0/toolchain/arm/arm-gnu-toolchain/bin/../lib/gcc/arm-none-eabi/6.3.1/../../../../arm-none-eabi/lib/thumb/v6-m\libc_nano.a(lib_a-atoi.o)
 .ARM.attributes
                0x00000d74       0x2c c:/program files (x86)/atmel/studio/7.0/toolchain/arm/arm-gnu-toolchain/bin/../lib/gcc/arm-none-eabi/6.3.1/../../../../arm-none-eabi/lib/thumb/v6-m\libc_nano.a(lib_a-errno.o)
 .ARM.attributes
                0x00000da0       0x2c c:/program files (x86)/atmel/studio/7.0/toolchain/arm/arm-gnu-toolchain/bin/../lib/gcc/arm-none-eabi/6.3.1/../../../../arm-none-eabi/lib/thumb/v6-m\libc_nano.a(lib_a-impure.o)
 .ARM.attributes
                0x00000dcc       0x2c c:/program files (x86)/atmel/studio/7.0/toolchain/arm/arm-gnu-toolchain/bin/../lib/gcc/arm-none-eabi/6.3.1/../../../../arm-none-eabi/lib/thumb/v6-m\libc_nano.a(lib_a-init.o)
 .ARM.attributes
                0x00000df8       0x2c c:/program files (x86)/atmel/studio/7.0/toolchain/arm/arm-gnu-toolchain/bin/../lib/gcc/arm-none-eabi/6.3.1/../../../../arm-none-eabi/lib/thumb/v6-m\libc_nano.a(lib_a-itoa.o)
 .ARM.attributes
                0x00000e24       0x2c c:/program files (x86)/atmel/studio/7.0/toolchain/arm/arm-gnu-toolchain/bin/../lib/gcc/arm-none-eabi/6.3.1/../../../../arm-none-eabi/lib/thumb/v6-m\libc_nano.a(lib_a-malloc.o)
 .ARM.attributes
                0x00000e50       0x2c c:/program files (x86)/atmel/studio/7.0/toolchain/arm/arm-gnu-toolchain/bin/../lib/gcc/arm-none-eabi/6.3.1/../../../../arm-none-eabi/lib/thumb/v6-m\libc_nano.a(lib_a-memcpy-stub.o)
 .ARM.attributes
                0x00000e7c       0x2c c:/program files (x86)/atmel/studio/7.0/toolchain/arm/arm-gnu-toolchain/bin/../lib/gcc/arm-none-eabi/6.3.1/../../../../arm-none-eabi/lib/thumb/v6-m\libc_nano.a(lib_a-memset.o)
 .ARM.attributes
                0x00000ea8       0x2c c:/program files (x86)/atmel/studio/7.0/toolchain/arm/arm-gnu-toolchain/bin/../lib/gcc/arm-none-eabi/6.3.1/../../../../arm-none-eabi/lib/thumb/v6-m\libc_nano.a(lib_a-nano-freer.o)
 .ARM.attributes
                0x00000ed4       0x2c c:/program files (x86)/atmel/studio/7.0/toolchain/arm/arm-gnu-toolchain/bin/../lib/gcc/arm-none-eabi/6.3.1/../../../../arm-none-eabi/lib/thumb/v6-m\libc_nano.a(lib_a-nano-mallocr.o)
 .ARM.attributes
                0x00000f00       0x2c c:/program files (x86)/atmel/studio/7.0/toolchain/arm/arm-gnu-toolchain/bin/../lib/gcc/arm-none-eabi/6.3.1/../../../../arm-none-eabi/lib/thumb/v6-m\libc_nano.a(lib_a-sbrkr.o)
 .ARM.attributes
                0x00000f2c       0x2c c:/program files (x86)/atmel/studio/7.0/toolchain/arm/arm-gnu-toolchain/bin/../lib/gcc/arm-none-eabi/6.3.1/../../../../arm-none-eabi/lib/thumb/v6-m\libc_nano.a(lib_a-sprintf.o)
 .ARM.attributes
                0x00000f58       0x2c c:/program files (x86)/atmel/studio/7.0/toolchain/arm/arm-gnu-toolchain/bin/../lib/gcc/arm-none-eabi/6.3.1/../../../../arm-none-eabi/lib/thumb/v6-m\libc_nano.a(lib_a-strchr.o)
 .ARM.attributes
                0x00000f84       0x1c c:/program files (x86)/atmel/studio/7.0/toolchain/arm/arm-gnu-toolchain/bin/../lib/gcc/arm-none-eabi/6.3.1/../../../../arm-none-eabi/lib/thumb/v6-m\libc_nano.a(lib_a-strcmp.o)
 .ARM.attributes
                0x00000fa0       0x2c c:/program files (x86)/atmel/studio/7.0/toolchain/arm/arm-gnu-toolchain/bin/../lib/gcc/arm-none-eabi/6.3.1/../../../../arm-none-eabi/lib/thumb/v6-m\libc_nano.a(lib_a-strcpy.o)
 .ARM.attributes
                0x00000fcc       0x1c c:/program files (x86)/atmel/studio/7.0/toolchain/arm/arm-gnu-toolchain/bin/../lib/gcc/arm-none-eabi/6.3.1/../../../../arm-none-eabi/lib/thumb/v6-m\libc_nano.a(lib_a-strlen.o)
 .ARM.attributes
                0x00000fe8       0x2c c:/program files (x86)/atmel/studio/7.0/toolchain/arm/arm-gnu-toolchain/bin/../lib/gcc/arm-none-eabi/6.3.1/../../../../arm-none-eabi/lib/thumb/v6-m\libc_nano.a(lib_a-strncpy.o)
 .ARM.attributes
                0x00001014       0x2c c:/program files (x86)/atmel/studio/7.0/toolchain/arm/arm-gnu-toolchain/bin/../lib/gcc/arm-none-eabi/6.3.1/../../../../arm-none-eabi/lib/thumb/v6-m\libc_nano.a(lib_a-strstr.o)
 .ARM.attributes
                0x00001040       0x2c c:/program files (x86)/atmel/studio/7.0/toolchain/arm/arm-gnu-toolchain/bin/../lib/gcc/arm-none-eabi/6.3.1/../../../../arm-none-eabi/lib/thumb/v6-m\libc_nano.a(lib_a-strtok.o)
 .ARM.attributes
                0x0000106c       0x2c c:/program files (x86)/atmel/studio/7.0/toolchain/arm/arm-gnu-toolchain/bin/../lib/gcc/arm-none-eabi/6.3.1/../../../../arm-none-eabi/lib/thumb/v6-m\libc_nano.a(lib_a-strtok_r.o)
 .ARM.attributes
                0x00001098       0x2c c:/program files (x86)/atmel/studio/7.0/toolchain/arm/arm-gnu-toolchain/bin/../lib/gcc/arm-none-eabi/6.3.1/../../../../arm-none-eabi/lib/thumb/v6-m\libc_nano.a(lib_a-strtol.o)
 .ARM.attributes
                0x000010c4       0x2c c:/program files (x86)/atmel/studio/7.0/toolchain/arm/arm-gnu-toolchain/bin/../lib/gcc/arm-none-eabi/6.3.1/../../../../arm-none-eabi/lib/thumb/v6-m\libc_nano.a(lib_a-strupr.o)
 .ARM.attributes
                0x000010f0       0x2c c:/program files (x86)/atmel/studio/7.0/toolchain/arm/arm-gnu-toolchain/bin/../lib/gcc/arm-none-eabi/6.3.1/../../../../arm-none-eabi/lib/thumb/v6-m\libc_nano.a(lib_a-utoa.o)
 .ARM.attributes
                0x0000111c       0x2c c:/program files (x86)/atmel/studio/7.0/toolchain/arm/arm-gnu-toolchain/bin/../lib/gcc/arm-none-eabi/6.3.1/../../../../arm-none-eabi/lib/thumb/v6-m\libc_nano.a(lib_a-findfp.o)
 .ARM.attributes
                0x00001148       0x2c c:/program files (x86)/atmel/studio/7.0/toolchain/arm/arm-gnu-toolchain/bin/../lib/gcc/arm-none-eabi/6.3.1/../../../../arm-none-eabi/lib/thumb/v6-m\libc_nano.a(lib_a-locale.o)
 .ARM.attributes
                0x00001174       0x2c c:/program files (x86)/atmel/studio/7.0/toolchain/arm/arm-gnu-toolchain/bin/../lib/gcc/arm-none-eabi/6.3.1/../../../../arm-none-eabi/lib/thumb/v6-m\libc_nano.a(lib_a-mbtowc_r.o)
 .ARM.attributes
                0x000011a0       0x2c c:/program files (x86)/atmel/studio/7.0/toolchain/arm/arm-gnu-toolchain/bin/../lib/gcc/arm-none-eabi/6.3.1/../../../../arm-none-eabi/lib/thumb/v6-m\libc_nano.a(lib_a-mlock.o)
 .ARM.attributes
                0x000011cc       0x2c c:/program files (x86)/atmel/studio/7.0/toolchain/arm/arm-gnu-toolchain/bin/../lib/gcc/arm-none-eabi/6.3.1/../../../../arm-none-eabi/lib/thumb/v6-m\libc_nano.a(lib_a-nano-svfprintf.o)
 .ARM.attributes
                0x000011f8       0x2c c:/program files (x86)/atmel/studio/7.0/toolchain/arm/arm-gnu-toolchain/bin/../lib/gcc/arm-none-eabi/6.3.1/../../../../arm-none-eabi/lib/thumb/v6-m\libc_nano.a(lib_a-nano-vfprintf_i.o)
 .ARM.attributes
                0x00001224       0x2c c:/program files (x86)/atmel/studio/7.0/toolchain/arm/arm-gnu-toolchain/bin/../lib/gcc/arm-none-eabi/6.3.1/../../../../arm-none-eabi/lib/thumb/v6-m\libc_nano.a(lib_a-reent.o)
 .ARM.attributes
                0x00001250       0x2c c:/program files (x86)/atmel/studio/7.0/toolchain/arm/arm-gnu-toolchain/bin/../lib/gcc/arm-none-eabi/6.3.1/../../../../arm-none-eabi/lib/thumb/v6-m\libc_nano.a(lib_a-wctomb_r.o)
 .ARM.attributes
                0x0000127c       0x2c c:/program files (x86)/atmel/studio/7.0/toolchain/arm/arm-gnu-toolchain/bin/../lib/gcc/arm-none-eabi/6.3.1/../../../../arm-none-eabi/lib/thumb/v6-m\libc_nano.a(lib_a-ctype_.o)
 .ARM.attributes
                0x000012a8       0x2c c:/program files (x86)/atmel/studio/7.0/toolchain/arm/arm-gnu-toolchain/bin/../lib/gcc/arm-none-eabi/6.3.1/../../../../arm-none-eabi/lib/thumb/v6-m\libc_nano.a(lib_a-memchr-stub.o)
 .ARM.attributes
                0x000012d4       0x2c c:/program files (x86)/atmel/studio/7.0/toolchain/arm/arm-gnu-toolchain/bin/../lib/gcc/arm-none-eabi/6.3.1/../../../../arm-none-eabi/lib/thumb/v6-m\libc_nano.a(lib_a-memmove.o)
 .ARM.attributes
                0x00001300       0x2c c:/program files (x86)/atmel/studio/7.0/toolchain/arm/arm-gnu-toolchain/bin/../lib/gcc/arm-none-eabi/6.3.1/../../../../arm-none-eabi/lib/thumb/v6-m\libc_nano.a(lib_a-nano-reallocr.o)
 .ARM.attributes
                0x0000132c       0x2c c:/program files (x86)/atmel/studio/7.0/toolchain/arm/arm-gnu-toolchain/bin/../lib/gcc/arm-none-eabi/6.3.1/../../../../arm-none-eabi/lib/thumb/v6-m\libc_nano.a(lib_a-nano-msizer.o)
 .ARM.attributes
                0x00001358       0x1e c:/program files (x86)/atmel/studio/7.0/toolchain/arm/arm-gnu-toolchain/bin/../lib/gcc/arm-none-eabi/6.3.1/thumb/v6-m/crtn.o

.comment        0x00000000       0x59
 .comment       0x00000000       0x59 src/adc_drivers.o
                                 0x5a (size before relaxing)
 .comment       0x00000059       0x5a src/ASF/sam0/drivers/adc/adc_sam_d_r_h/adc.o
 .comment       0x00000059       0x5a src/ASF/sam0/drivers/adc/adc_sam_d_r_h/adc_callback.o
 .comment       0x00000059       0x5a src/config/crc32_table.o
 .comment       0x00000059       0x5a src/Gsmlibrary.o
 .comment       0x00000059       0x5a src/GsmPortSetup.o
 .comment       0x00000059       0x5a src/main.o
 .comment       0x00000059       0x5a src/samd20j.o
 .comment       0x00000059       0x5a src/uart_drivers.o
 .comment       0x00000059       0x5a src/ASF/sam0/drivers/extint/extint_callback.o
 .comment       0x00000059       0x5a src/ASF/sam0/drivers/extint/extint_sam_d_r_h/extint.o
 .comment       0x00000059       0x5a src/ASF/sam0/drivers/rtc/rtc_sam_d_r_h/rtc_calendar.o
 .comment       0x00000059       0x5a src/ASF/sam0/drivers/rtc/rtc_sam_d_r_h/rtc_calendar_interrupt.o
 .comment       0x00000059       0x5a src/ASF/sam0/drivers/sercom/usart/usart.o
 .comment       0x00000059       0x5a src/ASF/sam0/drivers/sercom/usart/usart_interrupt.o
 .comment       0x00000059       0x5a src/ASF/thirdparty/freertos/freertos-7.4.2/Source/portable/MemMang/heap_3.o
 .comment       0x00000059       0x5a src/ASF/sam0/drivers/wdt/wdt.o
 .comment       0x00000059       0x5a src/ASF/sam0/drivers/wdt/wdt_callback.o
 .comment       0x00000059       0x5a src/ASF/sam0/drivers/port/port.o
 .comment       0x00000059       0x5a src/ASF/sam0/drivers/sercom/sercom.o
 .comment       0x00000059       0x5a src/ASF/thirdparty/freertos/freertos-7.4.2/Source/portable/GCC/ARM_CM0/port.o
 .comment       0x00000059       0x5a src/ASF/thirdparty/freertos/freertos-7.4.2/Source/list.o
 .comment       0x00000059       0x5a src/ASF/thirdparty/freertos/freertos-7.4.2/Source/queue.o
 .comment       0x00000059       0x5a src/ASF/thirdparty/freertos/freertos-7.4.2/Source/tasks.o
 .comment       0x00000059       0x5a src/ASF/thirdparty/freertos/freertos-7.4.2/Source/timers.o
 .comment       0x00000059       0x5a src/ASF/sam0/drivers/sercom/sercom_interrupt.o
 .comment       0x00000059       0x5a src/ASF/sam0/drivers/bod/bod_sam_d_r_h/bod.o
 .comment       0x00000059       0x5a src/ASF/common2/services/delay/sam0/systick_counter.o
 .comment       0x00000059       0x5a src/ASF/sam0/drivers/nvm/nvm.o
 .comment       0x00000059       0x5a src/ASF/sam0/services/eeprom/emulator/main_array/eeprom.o
 .comment       0x00000059       0x5a src/ASF/common2/boards/user_board/init.o
 .comment       0x00000059       0x5a src/ASF/common/utils/interrupt/interrupt_sam_nvic.o
 .comment       0x00000059       0x5a src/ASF/sam0/drivers/system/clock/clock_samd20/clock.o
 .comment       0x00000059       0x5a src/ASF/sam0/drivers/system/clock/clock_samd20/gclk.o
 .comment       0x00000059       0x5a src/ASF/sam0/drivers/system/pinmux/pinmux.o
 .comment       0x00000059       0x5a src/ASF/sam0/drivers/system/system.o
 .comment       0x00000059       0x5a src/ASF/sam0/utils/cmsis/samd20/source/gcc/startup_samd20.o
 .comment       0x00000059       0x5a src/ASF/sam0/utils/syscalls/gcc/syscalls.o

.debug_info     0x00000000    0x5842b
 .debug_info    0x00000000     0x3d06 src/adc_drivers.o
 .debug_info    0x00003d06     0x3a20 src/ASF/sam0/drivers/adc/adc_sam_d_r_h/adc.o
 .debug_info    0x00007726     0x1bdc src/ASF/sam0/drivers/adc/adc_sam_d_r_h/adc_callback.o
 .debug_info    0x00009302      0xb3b src/config/crc32_table.o
 .debug_info    0x00009e3d     0x7369 src/Gsmlibrary.o
 .debug_info    0x000111a6     0x3a87 src/GsmPortSetup.o
 .debug_info    0x00014c2d     0x9651 src/main.o
 .debug_info    0x0001e27e     0x31f6 src/samd20j.o
 .debug_info    0x00021474     0x3df5 src/uart_drivers.o
 .debug_info    0x00025269     0x3d05 src/ASF/sam0/drivers/extint/extint_callback.o
 .debug_info    0x00028f6e     0x29e4 src/ASF/sam0/drivers/extint/extint_sam_d_r_h/extint.o
 .debug_info    0x0002b952     0x35a1 src/ASF/sam0/drivers/rtc/rtc_sam_d_r_h/rtc_calendar.o
 .debug_info    0x0002eef3     0x2170 src/ASF/sam0/drivers/rtc/rtc_sam_d_r_h/rtc_calendar_interrupt.o
 .debug_info    0x00031063     0x434b src/ASF/sam0/drivers/sercom/usart/usart.o
 .debug_info    0x000353ae     0x2887 src/ASF/sam0/drivers/sercom/usart/usart_interrupt.o
 .debug_info    0x00037c35      0xa85 src/ASF/thirdparty/freertos/freertos-7.4.2/Source/portable/MemMang/heap_3.o
 .debug_info    0x000386ba     0x1a23 src/ASF/sam0/drivers/wdt/wdt.o
 .debug_info    0x0003a0dd     0x1254 src/ASF/sam0/drivers/wdt/wdt_callback.o
 .debug_info    0x0003b331     0x12b8 src/ASF/sam0/drivers/port/port.o
 .debug_info    0x0003c5e9     0x2650 src/ASF/sam0/drivers/sercom/sercom.o
 .debug_info    0x0003ec39      0x21e src/ASF/thirdparty/freertos/freertos-7.4.2/Source/portable/GCC/ARM_CM0/port.o
 .debug_info    0x0003ee57      0xbbd src/ASF/thirdparty/freertos/freertos-7.4.2/Source/list.o
 .debug_info    0x0003fa14     0x1c43 src/ASF/thirdparty/freertos/freertos-7.4.2/Source/queue.o
 .debug_info    0x00041657     0x1fcb src/ASF/thirdparty/freertos/freertos-7.4.2/Source/tasks.o
 .debug_info    0x00043622      0xc92 src/ASF/thirdparty/freertos/freertos-7.4.2/Source/timers.o
 .debug_info    0x000442b4     0x23e4 src/ASF/sam0/drivers/sercom/sercom_interrupt.o
 .debug_info    0x00046698     0x19ad src/ASF/sam0/drivers/bod/bod_sam_d_r_h/bod.o
 .debug_info    0x00048045      0xb8d src/ASF/common2/services/delay/sam0/systick_counter.o
 .debug_info    0x00048bd2     0x251f src/ASF/sam0/drivers/nvm/nvm.o
 .debug_info    0x0004b0f1     0x2030 src/ASF/sam0/services/eeprom/emulator/main_array/eeprom.o
 .debug_info    0x0004d121     0x1666 src/ASF/common2/boards/user_board/init.o
 .debug_info    0x0004e787      0xb07 src/ASF/common/utils/interrupt/interrupt_sam_nvic.o
 .debug_info    0x0004f28e     0x3e6b src/ASF/sam0/drivers/system/clock/clock_samd20/clock.o
 .debug_info    0x000530f9     0x1de8 src/ASF/sam0/drivers/system/clock/clock_samd20/gclk.o
 .debug_info    0x00054ee1     0x1376 src/ASF/sam0/drivers/system/pinmux/pinmux.o
 .debug_info    0x00056257      0xa73 src/ASF/sam0/drivers/system/system.o
 .debug_info    0x00056cca      0x9c9 src/ASF/sam0/utils/cmsis/samd20/source/gcc/startup_samd20.o
 .debug_info    0x00057693      0xd98 src/ASF/sam0/utils/syscalls/gcc/syscalls.o

.debug_abbrev   0x00000000     0x7f92
 .debug_abbrev  0x00000000      0x39c src/adc_drivers.o
 .debug_abbrev  0x0000039c      0x46d src/ASF/sam0/drivers/adc/adc_sam_d_r_h/adc.o
 .debug_abbrev  0x00000809      0x3b8 src/ASF/sam0/drivers/adc/adc_sam_d_r_h/adc_callback.o
 .debug_abbrev  0x00000bc1      0x245 src/config/crc32_table.o
 .debug_abbrev  0x00000e06      0x4fc src/Gsmlibrary.o
 .debug_abbrev  0x00001302      0x3f2 src/GsmPortSetup.o
 .debug_abbrev  0x000016f4      0x5e9 src/main.o
 .debug_abbrev  0x00001cdd      0x350 src/samd20j.o
 .debug_abbrev  0x0000202d      0x461 src/uart_drivers.o
 .debug_abbrev  0x0000248e      0x396 src/ASF/sam0/drivers/extint/extint_callback.o
 .debug_abbrev  0x00002824      0x4a7 src/ASF/sam0/drivers/extint/extint_sam_d_r_h/extint.o
 .debug_abbrev  0x00002ccb      0x4d6 src/ASF/sam0/drivers/rtc/rtc_sam_d_r_h/rtc_calendar.o
 .debug_abbrev  0x000031a1      0x325 src/ASF/sam0/drivers/rtc/rtc_sam_d_r_h/rtc_calendar_interrupt.o
 .debug_abbrev  0x000034c6      0x480 src/ASF/sam0/drivers/sercom/usart/usart.o
 .debug_abbrev  0x00003946      0x416 src/ASF/sam0/drivers/sercom/usart/usart_interrupt.o
 .debug_abbrev  0x00003d5c      0x224 src/ASF/thirdparty/freertos/freertos-7.4.2/Source/portable/MemMang/heap_3.o
 .debug_abbrev  0x00003f80      0x358 src/ASF/sam0/drivers/wdt/wdt.o
 .debug_abbrev  0x000042d8      0x309 src/ASF/sam0/drivers/wdt/wdt_callback.o
 .debug_abbrev  0x000045e1      0x298 src/ASF/sam0/drivers/port/port.o
 .debug_abbrev  0x00004879      0x378 src/ASF/sam0/drivers/sercom/sercom.o
 .debug_abbrev  0x00004bf1      0x131 src/ASF/thirdparty/freertos/freertos-7.4.2/Source/portable/GCC/ARM_CM0/port.o
 .debug_abbrev  0x00004d22      0x221 src/ASF/thirdparty/freertos/freertos-7.4.2/Source/list.o
 .debug_abbrev  0x00004f43      0x336 src/ASF/thirdparty/freertos/freertos-7.4.2/Source/queue.o
 .debug_abbrev  0x00005279      0x3a8 src/ASF/thirdparty/freertos/freertos-7.4.2/Source/tasks.o
 .debug_abbrev  0x00005621      0x29d src/ASF/thirdparty/freertos/freertos-7.4.2/Source/timers.o
 .debug_abbrev  0x000058be      0x2da src/ASF/sam0/drivers/sercom/sercom_interrupt.o
 .debug_abbrev  0x00005b98      0x253 src/ASF/sam0/drivers/bod/bod_sam_d_r_h/bod.o
 .debug_abbrev  0x00005deb      0x24b src/ASF/common2/services/delay/sam0/systick_counter.o
 .debug_abbrev  0x00006036      0x491 src/ASF/sam0/drivers/nvm/nvm.o
 .debug_abbrev  0x000064c7      0x4a1 src/ASF/sam0/services/eeprom/emulator/main_array/eeprom.o
 .debug_abbrev  0x00006968      0x21e src/ASF/common2/boards/user_board/init.o
 .debug_abbrev  0x00006b86      0x22c src/ASF/common/utils/interrupt/interrupt_sam_nvic.o
 .debug_abbrev  0x00006db2      0x4a1 src/ASF/sam0/drivers/system/clock/clock_samd20/clock.o
 .debug_abbrev  0x00007253      0x3f1 src/ASF/sam0/drivers/system/clock/clock_samd20/gclk.o
 .debug_abbrev  0x00007644      0x332 src/ASF/sam0/drivers/system/pinmux/pinmux.o
 .debug_abbrev  0x00007976      0x1e1 src/ASF/sam0/drivers/system/system.o
 .debug_abbrev  0x00007b57      0x1e4 src/ASF/sam0/utils/cmsis/samd20/source/gcc/startup_samd20.o
 .debug_abbrev  0x00007d3b      0x257 src/ASF/sam0/utils/syscalls/gcc/syscalls.o

.debug_loc      0x00000000    0x11946
 .debug_loc     0x00000000     0x1a31 src/adc_drivers.o
 .debug_loc     0x00001a31      0x93f src/ASF/sam0/drivers/adc/adc_sam_d_r_h/adc.o
 .debug_loc     0x00002370      0x34a src/ASF/sam0/drivers/adc/adc_sam_d_r_h/adc_callback.o
 .debug_loc     0x000026ba      0x1e9 src/config/crc32_table.o
 .debug_loc     0x000028a3     0x273e src/Gsmlibrary.o
 .debug_loc     0x00004fe1      0x87e src/GsmPortSetup.o
 .debug_loc     0x0000585f     0x14ec src/main.o
 .debug_loc     0x00006d4b      0x3ac src/samd20j.o
 .debug_loc     0x000070f7      0xc2e src/uart_drivers.o
 .debug_loc     0x00007d25      0x2ac src/ASF/sam0/drivers/extint/extint_callback.o
 .debug_loc     0x00007fd1      0x43d src/ASF/sam0/drivers/extint/extint_sam_d_r_h/extint.o
 .debug_loc     0x0000840e      0x967 src/ASF/sam0/drivers/rtc/rtc_sam_d_r_h/rtc_calendar.o
 .debug_loc     0x00008d75      0x269 src/ASF/sam0/drivers/rtc/rtc_sam_d_r_h/rtc_calendar_interrupt.o
 .debug_loc     0x00008fde      0xd3f src/ASF/sam0/drivers/sercom/usart/usart.o
 .debug_loc     0x00009d1d      0x6b6 src/ASF/sam0/drivers/sercom/usart/usart_interrupt.o
 .debug_loc     0x0000a3d3       0xc1 src/ASF/thirdparty/freertos/freertos-7.4.2/Source/portable/MemMang/heap_3.o
 .debug_loc     0x0000a494      0x10d src/ASF/sam0/drivers/wdt/wdt.o
 .debug_loc     0x0000a5a1       0xf3 src/ASF/sam0/drivers/wdt/wdt_callback.o
 .debug_loc     0x0000a694      0x13d src/ASF/sam0/drivers/port/port.o
 .debug_loc     0x0000a7d1      0x93e src/ASF/sam0/drivers/sercom/sercom.o
 .debug_loc     0x0000b10f       0xbd src/ASF/thirdparty/freertos/freertos-7.4.2/Source/portable/GCC/ARM_CM0/port.o
 .debug_loc     0x0000b1cc       0x9b src/ASF/thirdparty/freertos/freertos-7.4.2/Source/list.o
 .debug_loc     0x0000b267     0x139e src/ASF/thirdparty/freertos/freertos-7.4.2/Source/queue.o
 .debug_loc     0x0000c605     0x1014 src/ASF/thirdparty/freertos/freertos-7.4.2/Source/tasks.o
 .debug_loc     0x0000d619      0x8d9 src/ASF/thirdparty/freertos/freertos-7.4.2/Source/timers.o
 .debug_loc     0x0000def2      0x165 src/ASF/sam0/drivers/sercom/sercom_interrupt.o
 .debug_loc     0x0000e057       0xbe src/ASF/sam0/drivers/bod/bod_sam_d_r_h/bod.o
 .debug_loc     0x0000e115       0xe4 src/ASF/common2/services/delay/sam0/systick_counter.o
 .debug_loc     0x0000e1f9     0x10c4 src/ASF/sam0/drivers/nvm/nvm.o
 .debug_loc     0x0000f2bd      0xe3a src/ASF/sam0/services/eeprom/emulator/main_array/eeprom.o
 .debug_loc     0x000100f7      0xeda src/ASF/sam0/drivers/system/clock/clock_samd20/clock.o
 .debug_loc     0x00010fd1      0x504 src/ASF/sam0/drivers/system/clock/clock_samd20/gclk.o
 .debug_loc     0x000114d5      0x322 src/ASF/sam0/drivers/system/pinmux/pinmux.o
 .debug_loc     0x000117f7       0x20 src/ASF/sam0/drivers/system/system.o
 .debug_loc     0x00011817       0x40 src/ASF/sam0/utils/cmsis/samd20/source/gcc/startup_samd20.o
 .debug_loc     0x00011857       0xef src/ASF/sam0/utils/syscalls/gcc/syscalls.o

.debug_aranges  0x00000000      0xe98
 .debug_aranges
                0x00000000       0x28 src/adc_drivers.o
 .debug_aranges
                0x00000028       0x38 src/ASF/sam0/drivers/adc/adc_sam_d_r_h/adc.o
 .debug_aranges
                0x00000060       0x48 src/ASF/sam0/drivers/adc/adc_sam_d_r_h/adc_callback.o
 .debug_aranges
                0x000000a8       0x28 src/config/crc32_table.o
 .debug_aranges
                0x000000d0      0x160 src/Gsmlibrary.o
 .debug_aranges
                0x00000230       0x80 src/GsmPortSetup.o
 .debug_aranges
                0x000002b0      0x130 src/main.o
 .debug_aranges
                0x000003e0       0x48 src/samd20j.o
 .debug_aranges
                0x00000428       0xc0 src/uart_drivers.o
 .debug_aranges
                0x000004e8       0x48 src/ASF/sam0/drivers/extint/extint_callback.o
 .debug_aranges
                0x00000530       0x50 src/ASF/sam0/drivers/extint/extint_sam_d_r_h/extint.o
 .debug_aranges
                0x00000580       0x78 src/ASF/sam0/drivers/rtc/rtc_sam_d_r_h/rtc_calendar.o
 .debug_aranges
                0x000005f8       0x40 src/ASF/sam0/drivers/rtc/rtc_sam_d_r_h/rtc_calendar_interrupt.o
 .debug_aranges
                0x00000638       0x48 src/ASF/sam0/drivers/sercom/usart/usart.o
 .debug_aranges
                0x00000680       0x70 src/ASF/sam0/drivers/sercom/usart/usart_interrupt.o
 .debug_aranges
                0x000006f0       0x28 src/ASF/thirdparty/freertos/freertos-7.4.2/Source/portable/MemMang/heap_3.o
 .debug_aranges
                0x00000718       0x28 src/ASF/sam0/drivers/wdt/wdt.o
 .debug_aranges
                0x00000740       0x40 src/ASF/sam0/drivers/wdt/wdt_callback.o
 .debug_aranges
                0x00000780       0x28 src/ASF/sam0/drivers/port/port.o
 .debug_aranges
                0x000007a8       0x48 src/ASF/sam0/drivers/sercom/sercom.o
 .debug_aranges
                0x000007f0       0x70 src/ASF/thirdparty/freertos/freertos-7.4.2/Source/portable/GCC/ARM_CM0/port.o
 .debug_aranges
                0x00000860       0x40 src/ASF/thirdparty/freertos/freertos-7.4.2/Source/list.o
 .debug_aranges
                0x000008a0       0xe0 src/ASF/thirdparty/freertos/freertos-7.4.2/Source/queue.o
 .debug_aranges
                0x00000980      0x110 src/ASF/thirdparty/freertos/freertos-7.4.2/Source/tasks.o
 .debug_aranges
                0x00000a90       0x60 src/ASF/thirdparty/freertos/freertos-7.4.2/Source/timers.o
 .debug_aranges
                0x00000af0       0x50 src/ASF/sam0/drivers/sercom/sercom_interrupt.o
 .debug_aranges
                0x00000b40       0x20 src/ASF/sam0/drivers/bod/bod_sam_d_r_h/bod.o
 .debug_aranges
                0x00000b60       0x30 src/ASF/common2/services/delay/sam0/systick_counter.o
 .debug_aranges
                0x00000b90       0x68 src/ASF/sam0/drivers/nvm/nvm.o
 .debug_aranges
                0x00000bf8       0x80 src/ASF/sam0/services/eeprom/emulator/main_array/eeprom.o
 .debug_aranges
                0x00000c78       0x20 src/ASF/common2/boards/user_board/init.o
 .debug_aranges
                0x00000c98       0x28 src/ASF/common/utils/interrupt/interrupt_sam_nvic.o
 .debug_aranges
                0x00000cc0       0x70 src/ASF/sam0/drivers/system/clock/clock_samd20/clock.o
 .debug_aranges
                0x00000d30       0x80 src/ASF/sam0/drivers/system/clock/clock_samd20/gclk.o
 .debug_aranges
                0x00000db0       0x38 src/ASF/sam0/drivers/system/pinmux/pinmux.o
 .debug_aranges
                0x00000de8       0x28 src/ASF/sam0/drivers/system/system.o
 .debug_aranges
                0x00000e10       0x28 src/ASF/sam0/utils/cmsis/samd20/source/gcc/startup_samd20.o
 .debug_aranges
                0x00000e38       0x60 src/ASF/sam0/utils/syscalls/gcc/syscalls.o

.debug_ranges   0x00000000     0x14b0
 .debug_ranges  0x00000000       0xc0 src/adc_drivers.o
 .debug_ranges  0x000000c0       0xb8 src/ASF/sam0/drivers/adc/adc_sam_d_r_h/adc.o
 .debug_ranges  0x00000178       0x50 src/ASF/sam0/drivers/adc/adc_sam_d_r_h/adc_callback.o
 .debug_ranges  0x000001c8       0x18 src/config/crc32_table.o
 .debug_ranges  0x000001e0      0x248 src/Gsmlibrary.o
 .debug_ranges  0x00000428       0x88 src/GsmPortSetup.o
 .debug_ranges  0x000004b0      0x1b0 src/main.o
 .debug_ranges  0x00000660       0x50 src/samd20j.o
 .debug_ranges  0x000006b0       0xb0 src/uart_drivers.o
 .debug_ranges  0x00000760       0x90 src/ASF/sam0/drivers/extint/extint_callback.o
 .debug_ranges  0x000007f0       0x40 src/ASF/sam0/drivers/extint/extint_sam_d_r_h/extint.o
 .debug_ranges  0x00000830       0xb0 src/ASF/sam0/drivers/rtc/rtc_sam_d_r_h/rtc_calendar.o
 .debug_ranges  0x000008e0       0x48 src/ASF/sam0/drivers/rtc/rtc_sam_d_r_h/rtc_calendar_interrupt.o
 .debug_ranges  0x00000928      0x108 src/ASF/sam0/drivers/sercom/usart/usart.o
 .debug_ranges  0x00000a30       0x60 src/ASF/sam0/drivers/sercom/usart/usart_interrupt.o
 .debug_ranges  0x00000a90       0x18 src/ASF/thirdparty/freertos/freertos-7.4.2/Source/portable/MemMang/heap_3.o
 .debug_ranges  0x00000aa8       0x18 src/ASF/sam0/drivers/wdt/wdt.o
 .debug_ranges  0x00000ac0       0x30 src/ASF/sam0/drivers/wdt/wdt_callback.o
 .debug_ranges  0x00000af0       0x18 src/ASF/sam0/drivers/port/port.o
 .debug_ranges  0x00000b08       0x58 src/ASF/sam0/drivers/sercom/sercom.o
 .debug_ranges  0x00000b60       0x60 src/ASF/thirdparty/freertos/freertos-7.4.2/Source/portable/GCC/ARM_CM0/port.o
 .debug_ranges  0x00000bc0       0x30 src/ASF/thirdparty/freertos/freertos-7.4.2/Source/list.o
 .debug_ranges  0x00000bf0       0xd0 src/ASF/thirdparty/freertos/freertos-7.4.2/Source/queue.o
 .debug_ranges  0x00000cc0      0x1a0 src/ASF/thirdparty/freertos/freertos-7.4.2/Source/tasks.o
 .debug_ranges  0x00000e60       0xb0 src/ASF/thirdparty/freertos/freertos-7.4.2/Source/timers.o
 .debug_ranges  0x00000f10       0x40 src/ASF/sam0/drivers/sercom/sercom_interrupt.o
 .debug_ranges  0x00000f50       0x10 src/ASF/sam0/drivers/bod/bod_sam_d_r_h/bod.o
 .debug_ranges  0x00000f60       0x50 src/ASF/common2/services/delay/sam0/systick_counter.o
 .debug_ranges  0x00000fb0      0x118 src/ASF/sam0/drivers/nvm/nvm.o
 .debug_ranges  0x000010c8      0x230 src/ASF/sam0/services/eeprom/emulator/main_array/eeprom.o
 .debug_ranges  0x000012f8       0x10 src/ASF/common2/boards/user_board/init.o
 .debug_ranges  0x00001308       0x18 src/ASF/common/utils/interrupt/interrupt_sam_nvic.o
 .debug_ranges  0x00001320       0x60 src/ASF/sam0/drivers/system/clock/clock_samd20/clock.o
 .debug_ranges  0x00001380       0x88 src/ASF/sam0/drivers/system/clock/clock_samd20/gclk.o
 .debug_ranges  0x00001408       0x28 src/ASF/sam0/drivers/system/pinmux/pinmux.o
 .debug_ranges  0x00001430       0x18 src/ASF/sam0/drivers/system/system.o
 .debug_ranges  0x00001448       0x18 src/ASF/sam0/utils/cmsis/samd20/source/gcc/startup_samd20.o
 .debug_ranges  0x00001460       0x50 src/ASF/sam0/utils/syscalls/gcc/syscalls.o

.debug_macro    0x00000000    0x19913
 .debug_macro   0x00000000      0x768 src/adc_drivers.o
 .debug_macro   0x00000768      0x8da src/adc_drivers.o
 .debug_macro   0x00001042      0x16d src/adc_drivers.o
 .debug_macro   0x000011af      0x64b src/adc_drivers.o
 .debug_macro   0x000017fa       0x22 src/adc_drivers.o
 .debug_macro   0x0000181c       0x87 src/adc_drivers.o
 .debug_macro   0x000018a3       0x51 src/adc_drivers.o
 .debug_macro   0x000018f4       0xef src/adc_drivers.o
 .debug_macro   0x000019e3       0x6a src/adc_drivers.o
 .debug_macro   0x00001a4d      0x1df src/adc_drivers.o
 .debug_macro   0x00001c2c       0x10 src/adc_drivers.o
 .debug_macro   0x00001c3c       0x76 src/adc_drivers.o
 .debug_macro   0x00001cb2       0x16 src/adc_drivers.o
 .debug_macro   0x00001cc8      0x6e5 src/adc_drivers.o
 .debug_macro   0x000023ad      0xde2 src/adc_drivers.o
 .debug_macro   0x0000318f       0x22 src/adc_drivers.o
 .debug_macro   0x000031b1       0x40 src/adc_drivers.o
 .debug_macro   0x000031f1       0x3a src/adc_drivers.o
 .debug_macro   0x0000322b       0x1f src/adc_drivers.o
 .debug_macro   0x0000324a      0x250 src/adc_drivers.o
 .debug_macro   0x0000349a      0x682 src/adc_drivers.o
 .debug_macro   0x00003b1c      0x8c1 src/adc_drivers.o
 .debug_macro   0x000043dd      0x229 src/adc_drivers.o
 .debug_macro   0x00004606      0x5bf src/adc_drivers.o
 .debug_macro   0x00004bc5      0x9fb src/adc_drivers.o
 .debug_macro   0x000055c0      0x5b8 src/adc_drivers.o
 .debug_macro   0x00005b78      0x4b6 src/adc_drivers.o
 .debug_macro   0x0000602e      0x74c src/adc_drivers.o
 .debug_macro   0x0000677a       0x5e src/adc_drivers.o
 .debug_macro   0x000067d8      0x5e2 src/adc_drivers.o
 .debug_macro   0x00006dba      0x3b8 src/adc_drivers.o
 .debug_macro   0x00007172      0xc55 src/adc_drivers.o
 .debug_macro   0x00007dc7      0xd29 src/adc_drivers.o
 .debug_macro   0x00008af0      0x7b8 src/adc_drivers.o
 .debug_macro   0x000092a8      0x6c2 src/adc_drivers.o
 .debug_macro   0x0000996a      0x351 src/adc_drivers.o
 .debug_macro   0x00009cbb       0x7c src/adc_drivers.o
 .debug_macro   0x00009d37       0x9a src/adc_drivers.o
 .debug_macro   0x00009dd1       0x46 src/adc_drivers.o
 .debug_macro   0x00009e17       0xb2 src/adc_drivers.o
 .debug_macro   0x00009ec9       0x6a src/adc_drivers.o
 .debug_macro   0x00009f33      0x287 src/adc_drivers.o
 .debug_macro   0x0000a1ba       0x82 src/adc_drivers.o
 .debug_macro   0x0000a23c       0xb8 src/adc_drivers.o
 .debug_macro   0x0000a2f4       0x1c src/adc_drivers.o
 .debug_macro   0x0000a310       0x1c src/adc_drivers.o
 .debug_macro   0x0000a32c       0x1c src/adc_drivers.o
 .debug_macro   0x0000a348       0x82 src/adc_drivers.o
 .debug_macro   0x0000a3ca      0x164 src/adc_drivers.o
 .debug_macro   0x0000a52e       0xdc src/adc_drivers.o
 .debug_macro   0x0000a60a      0x104 src/adc_drivers.o
 .debug_macro   0x0000a70e      0x104 src/adc_drivers.o
 .debug_macro   0x0000a812      0x104 src/adc_drivers.o
 .debug_macro   0x0000a916      0x104 src/adc_drivers.o
 .debug_macro   0x0000aa1a       0xfa src/adc_drivers.o
 .debug_macro   0x0000ab14       0xbe src/adc_drivers.o
 .debug_macro   0x0000abd2       0xbe src/adc_drivers.o
 .debug_macro   0x0000ac90       0xbe src/adc_drivers.o
 .debug_macro   0x0000ad4e       0xbe src/adc_drivers.o
 .debug_macro   0x0000ae0c       0xbe src/adc_drivers.o
 .debug_macro   0x0000aeca       0xbe src/adc_drivers.o
 .debug_macro   0x0000af88       0x40 src/adc_drivers.o
 .debug_macro   0x0000afc8      0x2ab src/adc_drivers.o
 .debug_macro   0x0000b273      0xcf9 src/adc_drivers.o
 .debug_macro   0x0000bf6c       0x4a src/adc_drivers.o
 .debug_macro   0x0000bfb6       0x58 src/adc_drivers.o
 .debug_macro   0x0000c00e       0x35 src/adc_drivers.o
 .debug_macro   0x0000c043       0x9c src/adc_drivers.o
 .debug_macro   0x0000c0df       0x16 src/adc_drivers.o
 .debug_macro   0x0000c0f5       0x35 src/adc_drivers.o
 .debug_macro   0x0000c12a      0x353 src/adc_drivers.o
 .debug_macro   0x0000c47d       0x10 src/adc_drivers.o
 .debug_macro   0x0000c48d       0x58 src/adc_drivers.o
 .debug_macro   0x0000c4e5       0x1f src/adc_drivers.o
 .debug_macro   0x0000c504       0x43 src/adc_drivers.o
 .debug_macro   0x0000c547       0x20 src/adc_drivers.o
 .debug_macro   0x0000c567      0x187 src/adc_drivers.o
 .debug_macro   0x0000c6ee       0x10 src/adc_drivers.o
 .debug_macro   0x0000c6fe       0x1c src/adc_drivers.o
 .debug_macro   0x0000c71a       0x52 src/adc_drivers.o
 .debug_macro   0x0000c76c       0x40 src/adc_drivers.o
 .debug_macro   0x0000c7ac       0x10 src/adc_drivers.o
 .debug_macro   0x0000c7bc       0x40 src/adc_drivers.o
 .debug_macro   0x0000c7fc       0xd7 src/adc_drivers.o
 .debug_macro   0x0000c8d3       0x16 src/adc_drivers.o
 .debug_macro   0x0000c8e9      0x18b src/adc_drivers.o
 .debug_macro   0x0000ca74       0x16 src/adc_drivers.o
 .debug_macro   0x0000ca8a       0x16 src/adc_drivers.o
 .debug_macro   0x0000caa0       0x29 src/adc_drivers.o
 .debug_macro   0x0000cac9       0x51 src/adc_drivers.o
 .debug_macro   0x0000cb1a       0x3f src/adc_drivers.o
 .debug_macro   0x0000cb59      0x3df src/adc_drivers.o
 .debug_macro   0x0000cf38       0x11 src/adc_drivers.o
 .debug_macro   0x0000cf49       0x16 src/adc_drivers.o
 .debug_macro   0x0000cf5f       0x2e src/adc_drivers.o
 .debug_macro   0x0000cf8d       0x19 src/adc_drivers.o
 .debug_macro   0x0000cfa6       0x1c src/adc_drivers.o
 .debug_macro   0x0000cfc2       0x16 src/adc_drivers.o
 .debug_macro   0x0000cfd8       0x50 src/adc_drivers.o
 .debug_macro   0x0000d028       0x18 src/adc_drivers.o
 .debug_macro   0x0000d040       0x46 src/adc_drivers.o
 .debug_macro   0x0000d086      0x118 src/adc_drivers.o
 .debug_macro   0x0000d19e       0xb1 src/adc_drivers.o
 .debug_macro   0x0000d24f       0x12 src/adc_drivers.o
 .debug_macro   0x0000d261       0x1f src/adc_drivers.o
 .debug_macro   0x0000d280      0x1d9 src/adc_drivers.o
 .debug_macro   0x0000d459       0x16 src/adc_drivers.o
 .debug_macro   0x0000d46f       0x5e src/adc_drivers.o
 .debug_macro   0x0000d4cd       0x43 src/adc_drivers.o
 .debug_macro   0x0000d510       0x9c src/adc_drivers.o
 .debug_macro   0x0000d5ac       0x78 src/adc_drivers.o
 .debug_macro   0x0000d624       0x5d src/adc_drivers.o
 .debug_macro   0x0000d681       0x5b src/adc_drivers.o
 .debug_macro   0x0000d6dc      0x2c6 src/adc_drivers.o
 .debug_macro   0x0000d9a2       0x11 src/adc_drivers.o
 .debug_macro   0x0000d9b3       0x11 src/adc_drivers.o
 .debug_macro   0x0000d9c4      0x21a src/adc_drivers.o
 .debug_macro   0x0000dbde       0x7a src/adc_drivers.o
 .debug_macro   0x0000dc58       0x10 src/adc_drivers.o
 .debug_macro   0x0000dc68       0x16 src/adc_drivers.o
 .debug_macro   0x0000dc7e       0x16 src/adc_drivers.o
 .debug_macro   0x0000dc94       0x19 src/adc_drivers.o
 .debug_macro   0x0000dcad       0x34 src/adc_drivers.o
 .debug_macro   0x0000dce1       0x11 src/adc_drivers.o
 .debug_macro   0x0000dcf2       0x2e src/adc_drivers.o
 .debug_macro   0x0000dd20      0x502 src/ASF/sam0/drivers/adc/adc_sam_d_r_h/adc.o
 .debug_macro   0x0000e222      0x4ff src/ASF/sam0/drivers/adc/adc_sam_d_r_h/adc_callback.o
 .debug_macro   0x0000e721      0x1cd src/config/crc32_table.o
 .debug_macro   0x0000e8ee       0x52 src/config/crc32_table.o
 .debug_macro   0x0000e940       0x8d src/config/crc32_table.o
 .debug_macro   0x0000e9cd       0x57 src/config/crc32_table.o
 .debug_macro   0x0000ea24       0x97 src/config/crc32_table.o
 .debug_macro   0x0000eabb       0xf6 src/config/crc32_table.o
 .debug_macro   0x0000ebb1      0x7cd src/Gsmlibrary.o
 .debug_macro   0x0000f37e       0x10 src/Gsmlibrary.o
 .debug_macro   0x0000f38e       0x10 src/Gsmlibrary.o
 .debug_macro   0x0000f39e       0x88 src/Gsmlibrary.o
 .debug_macro   0x0000f426       0x2e src/Gsmlibrary.o
 .debug_macro   0x0000f454      0x10c src/Gsmlibrary.o
 .debug_macro   0x0000f560      0x768 src/GsmPortSetup.o
 .debug_macro   0x0000fcc8       0x28 src/GsmPortSetup.o
 .debug_macro   0x0000fcf0      0x833 src/main.o
 .debug_macro   0x00010523       0x16 src/main.o
 .debug_macro   0x00010539      0x1e1 src/main.o
 .debug_macro   0x0001071a       0x28 src/main.o
 .debug_macro   0x00010742      0x111 src/main.o
 .debug_macro   0x00010853       0x22 src/main.o
 .debug_macro   0x00010875       0x3c src/main.o
 .debug_macro   0x000108b1       0x2c src/main.o
 .debug_macro   0x000108dd       0x10 src/main.o
 .debug_macro   0x000108ed      0x13a src/main.o
 .debug_macro   0x00010a27      0x763 src/samd20j.o
 .debug_macro   0x0001118a      0x75e src/uart_drivers.o
 .debug_macro   0x000118e8      0x83f src/ASF/sam0/drivers/extint/extint_callback.o
 .debug_macro   0x00012127       0x12 src/ASF/sam0/drivers/extint/extint_callback.o
 .debug_macro   0x00012139      0x4fc src/ASF/sam0/drivers/extint/extint_sam_d_r_h/extint.o
 .debug_macro   0x00012635       0x16 src/ASF/sam0/drivers/extint/extint_sam_d_r_h/extint.o
 .debug_macro   0x0001264b      0x4cf src/ASF/sam0/drivers/rtc/rtc_sam_d_r_h/rtc_calendar.o
 .debug_macro   0x00012b1a      0x4d9 src/ASF/sam0/drivers/rtc/rtc_sam_d_r_h/rtc_calendar_interrupt.o
 .debug_macro   0x00012ff3      0x51b src/ASF/sam0/drivers/sercom/usart/usart.o
 .debug_macro   0x0001350e       0x19 src/ASF/sam0/drivers/sercom/usart/usart.o
 .debug_macro   0x00013527      0x51b src/ASF/sam0/drivers/sercom/usart/usart_interrupt.o
 .debug_macro   0x00013a42      0x19a src/ASF/thirdparty/freertos/freertos-7.4.2/Source/portable/MemMang/heap_3.o
 .debug_macro   0x00013bdc      0x10e src/ASF/thirdparty/freertos/freertos-7.4.2/Source/portable/MemMang/heap_3.o
 .debug_macro   0x00013cea       0x86 src/ASF/thirdparty/freertos/freertos-7.4.2/Source/portable/MemMang/heap_3.o
 .debug_macro   0x00013d70      0x112 src/ASF/thirdparty/freertos/freertos-7.4.2/Source/portable/MemMang/heap_3.o
 .debug_macro   0x00013e82       0x57 src/ASF/thirdparty/freertos/freertos-7.4.2/Source/portable/MemMang/heap_3.o
 .debug_macro   0x00013ed9      0x4db src/ASF/sam0/drivers/wdt/wdt.o
 .debug_macro   0x000143b4      0x4f4 src/ASF/sam0/drivers/wdt/wdt_callback.o
 .debug_macro   0x000148a8      0x498 src/ASF/sam0/drivers/port/port.o
 .debug_macro   0x00014d40      0x50a src/ASF/sam0/drivers/sercom/sercom.o
 .debug_macro   0x0001524a      0x122 src/ASF/thirdparty/freertos/freertos-7.4.2/Source/portable/GCC/ARM_CM0/port.o
 .debug_macro   0x0001536c      0x17f src/ASF/thirdparty/freertos/freertos-7.4.2/Source/list.o
 .debug_macro   0x000154eb      0x207 src/ASF/thirdparty/freertos/freertos-7.4.2/Source/queue.o
 .debug_macro   0x000156f2      0x2ee src/ASF/thirdparty/freertos/freertos-7.4.2/Source/tasks.o
 .debug_macro   0x000159e0      0x102 src/ASF/thirdparty/freertos/freertos-7.4.2/Source/timers.o
 .debug_macro   0x00015ae2      0x507 src/ASF/sam0/drivers/sercom/sercom_interrupt.o
 .debug_macro   0x00015fe9      0x490 src/ASF/sam0/drivers/bod/bod_sam_d_r_h/bod.o
 .debug_macro   0x00016479      0x4b8 src/ASF/common2/services/delay/sam0/systick_counter.o
 .debug_macro   0x00016931       0x16 src/ASF/common2/services/delay/sam0/systick_counter.o
 .debug_macro   0x00016947      0x518 src/ASF/sam0/drivers/nvm/nvm.o
 .debug_macro   0x00016e5f      0x4c2 src/ASF/sam0/services/eeprom/emulator/main_array/eeprom.o
 .debug_macro   0x00017321       0x4a src/ASF/sam0/services/eeprom/emulator/main_array/eeprom.o
 .debug_macro   0x0001736b      0x74e src/ASF/common2/boards/user_board/init.o
 .debug_macro   0x00017ab9      0x47c src/ASF/common/utils/interrupt/interrupt_sam_nvic.o
 .debug_macro   0x00017f35      0x591 src/ASF/sam0/drivers/system/clock/clock_samd20/clock.o
 .debug_macro   0x000184c6      0x4b3 src/ASF/sam0/drivers/system/clock/clock_samd20/gclk.o
 .debug_macro   0x00018979      0x48e src/ASF/sam0/drivers/system/pinmux/pinmux.o
 .debug_macro   0x00018e07      0x4c0 src/ASF/sam0/drivers/system/system.o
 .debug_macro   0x000192c7      0x263 src/ASF/sam0/utils/cmsis/samd20/source/gcc/startup_samd20.o
 .debug_macro   0x0001952a       0x3a src/ASF/sam0/utils/cmsis/samd20/source/gcc/startup_samd20.o
 .debug_macro   0x00019564      0x1d6 src/ASF/sam0/utils/syscalls/gcc/syscalls.o
 .debug_macro   0x0001973a       0x4c src/ASF/sam0/utils/syscalls/gcc/syscalls.o
 .debug_macro   0x00019786       0x16 src/ASF/sam0/utils/syscalls/gcc/syscalls.o
 .debug_macro   0x0001979c       0x10 src/ASF/sam0/utils/syscalls/gcc/syscalls.o
 .debug_macro   0x000197ac       0x10 src/ASF/sam0/utils/syscalls/gcc/syscalls.o
 .debug_macro   0x000197bc       0x35 src/ASF/sam0/utils/syscalls/gcc/syscalls.o
 .debug_macro   0x000197f1      0x122 src/ASF/sam0/utils/syscalls/gcc/syscalls.o

.debug_line     0x00000000    0x1aba9
 .debug_line    0x00000000     0x155c src/adc_drivers.o
 .debug_line    0x0000155c      0xcb6 src/ASF/sam0/drivers/adc/adc_sam_d_r_h/adc.o
 .debug_line    0x00002212      0xb63 src/ASF/sam0/drivers/adc/adc_sam_d_r_h/adc_callback.o
 .debug_line    0x00002d75      0x3b4 src/config/crc32_table.o
 .debug_line    0x00003129     0x16e1 src/Gsmlibrary.o
 .debug_line    0x0000480a     0x1178 src/GsmPortSetup.o
 .debug_line    0x00005982     0x176a src/main.o
 .debug_line    0x000070ec     0x105a src/samd20j.o
 .debug_line    0x00008146     0x1213 src/uart_drivers.o
 .debug_line    0x00009359     0x1165 src/ASF/sam0/drivers/extint/extint_callback.o
 .debug_line    0x0000a4be      0xb8f src/ASF/sam0/drivers/extint/extint_sam_d_r_h/extint.o
 .debug_line    0x0000b04d      0xbaa src/ASF/sam0/drivers/rtc/rtc_sam_d_r_h/rtc_calendar.o
 .debug_line    0x0000bbf7      0xa27 src/ASF/sam0/drivers/rtc/rtc_sam_d_r_h/rtc_calendar_interrupt.o
 .debug_line    0x0000c61e      0xc97 src/ASF/sam0/drivers/sercom/usart/usart.o
 .debug_line    0x0000d2b5      0xc09 src/ASF/sam0/drivers/sercom/usart/usart_interrupt.o
 .debug_line    0x0000debe      0x459 src/ASF/thirdparty/freertos/freertos-7.4.2/Source/portable/MemMang/heap_3.o
 .debug_line    0x0000e317      0xa23 src/ASF/sam0/drivers/wdt/wdt.o
 .debug_line    0x0000ed3a      0xa8b src/ASF/sam0/drivers/wdt/wdt_callback.o
 .debug_line    0x0000f7c5      0x864 src/ASF/sam0/drivers/port/port.o
 .debug_line    0x00010029      0xb14 src/ASF/sam0/drivers/sercom/sercom.o
 .debug_line    0x00010b3d      0x430 src/ASF/thirdparty/freertos/freertos-7.4.2/Source/portable/GCC/ARM_CM0/port.o
 .debug_line    0x00010f6d      0x470 src/ASF/thirdparty/freertos/freertos-7.4.2/Source/list.o
 .debug_line    0x000113dd      0x88d src/ASF/thirdparty/freertos/freertos-7.4.2/Source/queue.o
 .debug_line    0x00011c6a      0xa93 src/ASF/thirdparty/freertos/freertos-7.4.2/Source/tasks.o
 .debug_line    0x000126fd      0x4f0 src/ASF/thirdparty/freertos/freertos-7.4.2/Source/timers.o
 .debug_line    0x00012bed      0xaab src/ASF/sam0/drivers/sercom/sercom_interrupt.o
 .debug_line    0x00013698      0x85a src/ASF/sam0/drivers/bod/bod_sam_d_r_h/bod.o
 .debug_line    0x00013ef2      0x923 src/ASF/common2/services/delay/sam0/systick_counter.o
 .debug_line    0x00014815      0xd50 src/ASF/sam0/drivers/nvm/nvm.o
 .debug_line    0x00015565      0xb3a src/ASF/sam0/services/eeprom/emulator/main_array/eeprom.o
 .debug_line    0x0001609f      0xfa9 src/ASF/common2/boards/user_board/init.o
 .debug_line    0x00017048      0x838 src/ASF/common/utils/interrupt/interrupt_sam_nvic.o
 .debug_line    0x00017880      0xbb6 src/ASF/sam0/drivers/system/clock/clock_samd20/clock.o
 .debug_line    0x00018436      0xbd5 src/ASF/sam0/drivers/system/clock/clock_samd20/gclk.o
 .debug_line    0x0001900b      0x894 src/ASF/sam0/drivers/system/pinmux/pinmux.o
 .debug_line    0x0001989f      0x950 src/ASF/sam0/drivers/system/system.o
 .debug_line    0x0001a1ef      0x5b0 src/ASF/sam0/utils/cmsis/samd20/source/gcc/startup_samd20.o
 .debug_line    0x0001a79f      0x40a src/ASF/sam0/utils/syscalls/gcc/syscalls.o

.debug_str      0x00000000    0x64e36
 .debug_str     0x00000000    0x591b1 src/adc_drivers.o
                              0x5986c (size before relaxing)
 .debug_str     0x000591b1      0x7c7 src/ASF/sam0/drivers/adc/adc_sam_d_r_h/adc.o
                              0x53dc8 (size before relaxing)
 .debug_str     0x00059978      0x166 src/ASF/sam0/drivers/adc/adc_sam_d_r_h/adc_callback.o
                              0x52c6c (size before relaxing)
 .debug_str     0x00059ade       0x9e src/config/crc32_table.o
                               0x6dae (size before relaxing)
 .debug_str     0x00059b7c     0x15f2 src/Gsmlibrary.o
                              0x59f73 (size before relaxing)
 .debug_str     0x0005b16e      0xaf1 src/GsmPortSetup.o
                              0x5982d (size before relaxing)
 .debug_str     0x0005bc5f     0x2716 src/main.o
                              0x5cb94 (size before relaxing)
 .debug_str     0x0005e375       0x8d src/samd20j.o
                              0x59075 (size before relaxing)
 .debug_str     0x0005e402      0x155 src/uart_drivers.o
                              0x597aa (size before relaxing)
 .debug_str     0x0005e557      0x4bc src/ASF/sam0/drivers/extint/extint_callback.o
                              0x5b016 (size before relaxing)
 .debug_str     0x0005ea13      0x3f8 src/ASF/sam0/drivers/extint/extint_sam_d_r_h/extint.o
                              0x53654 (size before relaxing)
 .debug_str     0x0005ee0b      0x17f src/ASF/sam0/drivers/rtc/rtc_sam_d_r_h/rtc_calendar.o
                              0x54352 (size before relaxing)
 .debug_str     0x0005ef8a       0xb9 src/ASF/sam0/drivers/rtc/rtc_sam_d_r_h/rtc_calendar_interrupt.o
                              0x53753 (size before relaxing)
 .debug_str     0x0005f043      0x546 src/ASF/sam0/drivers/sercom/usart/usart.o
                              0x53d4f (size before relaxing)
 .debug_str     0x0005f589      0x1da src/ASF/sam0/drivers/sercom/usart/usart_interrupt.o
                              0x531f1 (size before relaxing)
 .debug_str     0x0005f763      0x103 src/ASF/thirdparty/freertos/freertos-7.4.2/Source/portable/MemMang/heap_3.o
                               0x83ee (size before relaxing)
 .debug_str     0x0005f866       0xfb src/ASF/sam0/drivers/wdt/wdt.o
                              0x52929 (size before relaxing)
 .debug_str     0x0005f961       0xec src/ASF/sam0/drivers/wdt/wdt_callback.o
                              0x52aa2 (size before relaxing)
 .debug_str     0x0005fa4d       0x59 src/ASF/sam0/drivers/port/port.o
                              0x52393 (size before relaxing)
 .debug_str     0x0005faa6      0x22a src/ASF/sam0/drivers/sercom/sercom.o
                              0x53327 (size before relaxing)
 .debug_str     0x0005fcd0      0x3c9 src/ASF/thirdparty/freertos/freertos-7.4.2/Source/portable/GCC/ARM_CM0/port.o
                               0x593e (size before relaxing)
 .debug_str     0x00060099      0x153 src/ASF/thirdparty/freertos/freertos-7.4.2/Source/list.o
                               0x811d (size before relaxing)
 .debug_str     0x000601ec      0x825 src/ASF/thirdparty/freertos/freertos-7.4.2/Source/queue.o
                               0x9552 (size before relaxing)
 .debug_str     0x00060a11      0xc48 src/ASF/thirdparty/freertos/freertos-7.4.2/Source/tasks.o
                               0xaa43 (size before relaxing)
 .debug_str     0x00061659      0x36d src/ASF/thirdparty/freertos/freertos-7.4.2/Source/timers.o
                               0x6965 (size before relaxing)
 .debug_str     0x000619c6      0x158 src/ASF/sam0/drivers/sercom/sercom_interrupt.o
                              0x530c8 (size before relaxing)
 .debug_str     0x00061b1e       0x30 src/ASF/sam0/drivers/bod/bod_sam_d_r_h/bod.o
                              0x52763 (size before relaxing)
 .debug_str     0x00061b4e       0xa1 src/ASF/common2/services/delay/sam0/systick_counter.o
                              0x52197 (size before relaxing)
 .debug_str     0x00061bef      0x9f4 src/ASF/sam0/drivers/nvm/nvm.o
                              0x53697 (size before relaxing)
 .debug_str     0x000625e3      0x445 src/ASF/sam0/services/eeprom/emulator/main_array/eeprom.o
                              0x52dd1 (size before relaxing)
 .debug_str     0x00062a28       0x3e src/ASF/common2/boards/user_board/init.o
                              0x5838a (size before relaxing)
 .debug_str     0x00062a66       0x66 src/ASF/common/utils/interrupt/interrupt_sam_nvic.o
                              0x51fa2 (size before relaxing)
 .debug_str     0x00062acc     0x15ee src/ASF/sam0/drivers/system/clock/clock_samd20/clock.o
                              0x55236 (size before relaxing)
 .debug_str     0x000640ba      0x1a1 src/ASF/sam0/drivers/system/clock/clock_samd20/gclk.o
                              0x52bd5 (size before relaxing)
 .debug_str     0x0006425b       0xf4 src/ASF/sam0/drivers/system/pinmux/pinmux.o
                              0x52399 (size before relaxing)
 .debug_str     0x0006434f       0x3b src/ASF/sam0/drivers/system/system.o
                              0x5203e (size before relaxing)
 .debug_str     0x0006438a      0x351 src/ASF/sam0/utils/cmsis/samd20/source/gcc/startup_samd20.o
                              0x3d2f1 (size before relaxing)
 .debug_str     0x000646db      0x75b src/ASF/sam0/utils/syscalls/gcc/syscalls.o
                               0x740f (size before relaxing)

.debug_frame    0x00000000     0x34e4
 .debug_frame   0x00000000       0x48 src/adc_drivers.o
 .debug_frame   0x00000048       0x90 src/ASF/sam0/drivers/adc/adc_sam_d_r_h/adc.o
 .debug_frame   0x000000d8       0x84 src/ASF/sam0/drivers/adc/adc_sam_d_r_h/adc_callback.o
 .debug_frame   0x0000015c       0x50 src/config/crc32_table.o
 .debug_frame   0x000001ac      0x510 src/Gsmlibrary.o
 .debug_frame   0x000006bc      0x19c src/GsmPortSetup.o
 .debug_frame   0x00000858      0x434 src/main.o
 .debug_frame   0x00000c8c       0xb8 src/samd20j.o
 .debug_frame   0x00000d44      0x264 src/uart_drivers.o
 .debug_frame   0x00000fa8       0x7c src/ASF/sam0/drivers/extint/extint_callback.o
 .debug_frame   0x00001024       0xb8 src/ASF/sam0/drivers/extint/extint_sam_d_r_h/extint.o
 .debug_frame   0x000010dc      0x138 src/ASF/sam0/drivers/rtc/rtc_sam_d_r_h/rtc_calendar.o
 .debug_frame   0x00001214       0x78 src/ASF/sam0/drivers/rtc/rtc_sam_d_r_h/rtc_calendar_interrupt.o
 .debug_frame   0x0000128c       0xbc src/ASF/sam0/drivers/sercom/usart/usart.o
 .debug_frame   0x00001348      0x110 src/ASF/sam0/drivers/sercom/usart/usart_interrupt.o
 .debug_frame   0x00001458       0x40 src/ASF/thirdparty/freertos/freertos-7.4.2/Source/portable/MemMang/heap_3.o
 .debug_frame   0x00001498       0x3c src/ASF/sam0/drivers/wdt/wdt.o
 .debug_frame   0x000014d4       0x68 src/ASF/sam0/drivers/wdt/wdt_callback.o
 .debug_frame   0x0000153c       0x44 src/ASF/sam0/drivers/port/port.o
 .debug_frame   0x00001580       0xbc src/ASF/sam0/drivers/sercom/sercom.o
 .debug_frame   0x0000163c       0xd8 src/ASF/thirdparty/freertos/freertos-7.4.2/Source/portable/GCC/ARM_CM0/port.o
 .debug_frame   0x00001714       0x68 src/ASF/thirdparty/freertos/freertos-7.4.2/Source/list.o
 .debug_frame   0x0000177c      0x2ac src/ASF/thirdparty/freertos/freertos-7.4.2/Source/queue.o
 .debug_frame   0x00001a28      0x320 src/ASF/thirdparty/freertos/freertos-7.4.2/Source/tasks.o
 .debug_frame   0x00001d48      0x114 src/ASF/thirdparty/freertos/freertos-7.4.2/Source/timers.o
 .debug_frame   0x00001e5c       0xb8 src/ASF/sam0/drivers/sercom/sercom_interrupt.o
 .debug_frame   0x00001f14       0x28 src/ASF/sam0/drivers/bod/bod_sam_d_r_h/bod.o
 .debug_frame   0x00001f3c       0x64 src/ASF/common2/services/delay/sam0/systick_counter.o
 .debug_frame   0x00001fa0      0x12c src/ASF/sam0/drivers/nvm/nvm.o
 .debug_frame   0x000020cc      0x1b8 src/ASF/sam0/services/eeprom/emulator/main_array/eeprom.o
 .debug_frame   0x00002284       0x20 src/ASF/common2/boards/user_board/init.o
 .debug_frame   0x000022a4       0x30 src/ASF/common/utils/interrupt/interrupt_sam_nvic.o
 .debug_frame   0x000022d4      0x138 src/ASF/sam0/drivers/system/clock/clock_samd20/clock.o
 .debug_frame   0x0000240c      0x148 src/ASF/sam0/drivers/system/clock/clock_samd20/gclk.o
 .debug_frame   0x00002554       0x74 src/ASF/sam0/drivers/system/pinmux/pinmux.o
 .debug_frame   0x000025c8       0x38 src/ASF/sam0/drivers/system/system.o
 .debug_frame   0x00002600       0x38 src/ASF/sam0/utils/cmsis/samd20/source/gcc/startup_samd20.o
 .debug_frame   0x00002638       0xa0 src/ASF/sam0/utils/syscalls/gcc/syscalls.o
 .debug_frame   0x000026d8       0x38 c:/program files (x86)/atmel/studio/7.0/toolchain/arm/arm-gnu-toolchain/bin/../lib/gcc/arm-none-eabi/6.3.1/../../../../arm-none-eabi/lib/thumb/v6-m\libm.a(lib_a-w_log.o)
 .debug_frame   0x00002710       0x3c c:/program files (x86)/atmel/studio/7.0/toolchain/arm/arm-gnu-toolchain/bin/../lib/gcc/arm-none-eabi/6.3.1/../../../../arm-none-eabi/lib/thumb/v6-m\libm.a(lib_a-w_pow.o)
 .debug_frame   0x0000274c       0x3c c:/program files (x86)/atmel/studio/7.0/toolchain/arm/arm-gnu-toolchain/bin/../lib/gcc/arm-none-eabi/6.3.1/../../../../arm-none-eabi/lib/thumb/v6-m\libm.a(lib_a-e_log.o)
 .debug_frame   0x00002788       0x3c c:/program files (x86)/atmel/studio/7.0/toolchain/arm/arm-gnu-toolchain/bin/../lib/gcc/arm-none-eabi/6.3.1/../../../../arm-none-eabi/lib/thumb/v6-m\libm.a(lib_a-e_pow.o)
 .debug_frame   0x000027c4       0x38 c:/program files (x86)/atmel/studio/7.0/toolchain/arm/arm-gnu-toolchain/bin/../lib/gcc/arm-none-eabi/6.3.1/../../../../arm-none-eabi/lib/thumb/v6-m\libm.a(lib_a-e_sqrt.o)
 .debug_frame   0x000027fc       0x20 c:/program files (x86)/atmel/studio/7.0/toolchain/arm/arm-gnu-toolchain/bin/../lib/gcc/arm-none-eabi/6.3.1/../../../../arm-none-eabi/lib/thumb/v6-m\libm.a(lib_a-s_fabs.o)
 .debug_frame   0x0000281c       0x20 c:/program files (x86)/atmel/studio/7.0/toolchain/arm/arm-gnu-toolchain/bin/../lib/gcc/arm-none-eabi/6.3.1/../../../../arm-none-eabi/lib/thumb/v6-m\libm.a(lib_a-s_finite.o)
 .debug_frame   0x0000283c       0x20 c:/program files (x86)/atmel/studio/7.0/toolchain/arm/arm-gnu-toolchain/bin/../lib/gcc/arm-none-eabi/6.3.1/../../../../arm-none-eabi/lib/thumb/v6-m\libm.a(lib_a-s_matherr.o)
 .debug_frame   0x0000285c       0x20 c:/program files (x86)/atmel/studio/7.0/toolchain/arm/arm-gnu-toolchain/bin/../lib/gcc/arm-none-eabi/6.3.1/../../../../arm-none-eabi/lib/thumb/v6-m\libm.a(lib_a-s_nan.o)
 .debug_frame   0x0000287c       0x38 c:/program files (x86)/atmel/studio/7.0/toolchain/arm/arm-gnu-toolchain/bin/../lib/gcc/arm-none-eabi/6.3.1/../../../../arm-none-eabi/lib/thumb/v6-m\libm.a(lib_a-s_rint.o)
 .debug_frame   0x000028b4       0x2c c:/program files (x86)/atmel/studio/7.0/toolchain/arm/arm-gnu-toolchain/bin/../lib/gcc/arm-none-eabi/6.3.1/../../../../arm-none-eabi/lib/thumb/v6-m\libm.a(lib_a-s_scalbn.o)
 .debug_frame   0x000028e0       0x2c c:/program files (x86)/atmel/studio/7.0/toolchain/arm/arm-gnu-toolchain/bin/../lib/gcc/arm-none-eabi/6.3.1/../../../../arm-none-eabi/lib/thumb/v6-m\libm.a(lib_a-s_copysign.o)
 .debug_frame   0x0000290c       0x20 c:/program files (x86)/atmel/studio/7.0/toolchain/arm/arm-gnu-toolchain/bin/../lib/gcc/arm-none-eabi/6.3.1/thumb/v6-m\libgcc.a(_udivsi3.o)
