S01A0000676D72395F687776332E325F737776312E312E73726563F5
S214009000682C00200D110100091101000911010052
S214009010000000000000000000000000000000004B
S2140090200000000000000000000000005DE90000F5
S2140090300000000000000000C9E900000DEA000082
S2140090400911010009110100DDE5000029DF00001B
S214009050FDDB0000091101000911010001FE0000FE
S21400906011FE000021FE000031FE0000000000009E
S214009070000000000911010009110100091101009A
S214009080091101000911010009110100000000008A
S21400909000000000159D00000911010009110100E3
S2140090A00911010010B5064C2378002B07D1054B9B
S2140090B0002B02D0044800E000BF0123237010BD3F
S2140090C0E801002000000000907D0100084B10B56C
S2140090D0002B03D00749084800E000BF0748036894
S2140090E0002B00D110BD064B002BFBD09847F9E7AC
S2140090F000000000EC010020907D0100907D010042
S2140091000000000070B5132800D965E18000B44B5C
S2140091101B589F46B34C2000B34B9847002323733D
S214009120B24D2200B2492800B24B98472A68537EB7
S2140091305BB2002BFBDB80218903AF4B19600F234A
S21400914093751376137802210B431370A74B1A6896
S214009150537E5BB2002BFBDB70BDA84C2000A24BFD
S214009160984701232B22A3540132A3542373A44D02
S21400917022009F4928009F4B98472A68537E5BB27F
S214009180002BFBDB802189039B4B19600F23937513
S2140091901376137802210B431370994B1A68537E8B
S2140091A05BB2002BFBDBD7E7964C20008E4B984734
S2140091B004232373944D22008D4928008D4B984735
S2140091C02A68537E5BB2002BFBDB802189038A4B27
S2140091D019600F2393751376137802210B431370CF
S2140091E0894B1A68537E5BB2002BFBDBB4E7874CD7
S2140091F020007D4B984705232373854D22007C492C
S21400920028007C4B98472A68537E5BB2002BFBDB1A
S21400921080218903784B19600F2393751376137892
S21400922002210B4313707A4B1A68537E5BB2002BF5
S214009230FBDB91E7774C20006B4B984706232373A4
S214009240754D22006A4928006A4B98472A68537E63
S2140092505BB2002BFBDB80218903674B19600F2371
S21400926093751376137802210B4313706A4B1A68B2
S214009270537E5BB2002BFBDB6EE7684C20005A4B3C
S214009280984707232373664D220059492800594BF7
S21400929098472A68537E5BB2002BFBDB802189034C
S2140092A0554B19600F2393751376137802210B43E1
S2140092B013705B4B1A68537E5BB2002BFBDB4BE7ED
S2140092C0584C2000484B984710232373564D2200D5
S2140092D047492800474B98472A68537E5BB2002BC5
S2140092E0FBDB80218903444B19600F2393751376AB
S2140092F0137802210B4313704B4B1A68537E5BB2F4
S214009300002BFBDB28E7494C2000374B98471123FE
S2140093102373474D220036492800364B98472A6863
S214009320537E5BB2002BFBDB80218903324B196036
S2140093300F2393751376137802210B4313703C4B5F
S2140093401A68537E5BB2002BFBDB05E7394C200026
S214009350254B984712232373374D220024492800B3
S214009360244B98472A68537E5BB2002BFBDB802198
S2140093708903214B19600F23937513761378022106
S2140093800B4313702C4B1A68537E5BB2002BFBDB2F
S214009390E2E62A4C2000144B984713232373284DEB
S2140093A0220013492800134B98472A68537E5BB265
S2140093B0002BFBDB802189030F4B19600F2393756D
S2140093C01376137802210B4313701D4B1A68537ED5
S2140093D05BB2002BFBDBBFE61A481B4B9847BBE68D
S2140093E0C85B0100040700206D98000044090020B7
S2140093F000400042B598000000E100E0F4070020BD
S21400940024080020D40900208407002084090020B6
S214009410B40900207408002064090020A408002075
S214009420E4060020C407002064070020340700205C
S214009430240900204408002004090020D408002045
S214009440A4070020685C010045DA000070B5132808
S21400945000D9FDE18000B34B1B589F46B24B1968FC
S2140094604B7E5BB2002BFBDB0B691F2293430B6129
S2140094704B7E5BB2002BFBDB4B7E5BB2002BFBDB39
S2140094800B7B022213430B734B7E5BB2002BFBDB82
S21400949001200425022401E010420AD10B7EDBB233
S2140094A002001A401D4200D022431C42F4D02A4338
S2140094B0F2E74B7E5BB2002BFBDB488B80B20123CE
S2140094C00B760A7ED2B21340540701D502242343FA
S2140094D0920701D5042213435B0700D4BCE10223A4
S2140094E00B76B9E1904B1A68537E5BB2002BFBDB20
S2140094F013691F218B431E390B431361537E5BB2E6
S214009500002BFBDB894B19684B7E5BB2002BFBDB29
S2140095100B7B022213430B734B7E5BB2002BFBDBF1
S21400952001200425022401E010420AD10B7EDBB2A2
S21400953002001A401D4200D022431C42F4D02A43A7
S214009540F2E74B7E5BB2002BFBDB488B80B201233D
S2140095500B760A7ED2B21340540701D50224234369
S214009560920701D5042213435B0700D474E102235B
S2140095700B7671E16C4B1A68537E5BB2002BFBDBFB
S21400958013691F218B431B390B431361537E5BB258
S214009590002BFBDB664B19684B7E5BB2002BFBDBBC
S2140095A00B7B022213430B734B7E5BB2002BFBDB61
S2140095B001200425022401E010420AD10B7EDBB212
S2140095C002001A401D4200D022431C42F4D02A4317
S2140095D0F2E74B7E5BB2002BFBDB488B80B20123AD
S2140095E00B760A7ED2B21340540701D502242343D9
S2140095F0920701D5042213435B0700D42CE1022313
S2140096000B7629E1484B1A68537E5BB2002BFBDBD6
S21400961013691F218B431A390B431361537E5BB2C8
S214009620002BFBDB434B19684B7E5BB2002BFBDB4E
S2140096300B7B022213430B734B7E5BB2002BFBDBD0
S21400964001200425022401E010420AD10B7EDBB281
S21400965002001A401D4200D022431C42F4D02A4386
S214009660F2E74B7E5BB2002BFBDB488B80B201231C
S2140096700B760A7ED2B21340540701D50224234348
S214009680920701D5042213435B0700D4E4E00223CB
S2140096900B76E1E0244B1A68537E5BB2002BFBDBB3
S2140096A013691F218B4319390B431361537E5BB239
S2140096B0002BFBDB204B19684B7E5BB2002BFBDBE1
S2140096C00B7B022213430B734B7E5BB2002BFBDB40
S2140096D001200425022401E010420AD10B7EDBB2F1
S2140096E002001A401D4200D022431C42F4D02A43F6
S2140096F0F2E74B7E5BB2002BFBDB488B80B201238C
S2140097000B760A7ED2B21340540701D502242343B7
S214009710920701D5042213435B0700D49CE0022382
S2140097200B7699E0185C010044090020240800200C
S21400973084070020B409002064090020474B1968FC
S2140097404B7E5BB2002BFBDB0B691F2293430D3A6B
S21400975013430B614B7E5BB2002BFBDB4B7E5BB295
S214009760002BFBDB0B7B022213430B734B7E5BB29F
S214009770002BFBDB01200425022401E010420AD165
S2140097800B7EDBB202001A401D4200D022431C4270
S214009790F4D02A43F2E74B7E5BB2002BFBDB488B10
S2140097A080B201230B760A7ED2B21340540701D54D
S2140097B002242343920701D5042213435B074BD5AB
S2140097C002230B7648E0264B19684B7E5BB2002BD3
S2140097D0FBDB0B691F2293430C3A13430B614B7E52
S2140097E05BB2002BFBDB4B7E5BB2002BFBDB0B7B09
S2140097F0022213430B734B7E5BB2002BFBDB012074
S2140098000425022401E010420AD10B7EDBB20200DE
S2140098101A401D4200D022431C42F4D02A43F2E7ED
S2140098204B7E5BB2002BFBDB488B80B201230B76B2
S2140098300A7ED2B21340540701D50224234392076E
S21400984001D5042213435B0706D502230B7603E0FB
S2140098500448054B9847002070BDC0460409002008
S214009860A4070020685C010045DA000000230370AE
S21400987002224270FE324280037103760362C361A5
S214009880F02212058260C0225201C2810374437422
S2140098908374C37403752A22835443758375063A0A
S2140098A083540022C3840385C2752B33C25401330C
S2140098B0C2547047F0B5DE4657464E464546E0B5BC
S2140098C097B0070016000160794A106A80235B0291
S2140098D0034313620B780520DB0706D517B03CBCA4
S2140098E090469946A246AB46F0BD0B7817309B07CC
S2140098F0F4D473783B71002B04D16E4A136C0421A8
S2140099000B4313640023BB60FB603B61BB76FB76B6
S2140099103B833B77684B1F602A23F35C002B05D103
S214009920337D002B02D101337B7701E000237B7768
S214009930624B1B681B041B0F98463B689B4633789C
S2140099406A461370694617205D4B984717205D4B93
S21400995098472C23F25C002A5AD0013BF55C337BF7
S214009960EB18DBB2D118C9B28B4227D25219D3B248
S2140099709946554B9A4633004E46B9461F0003E0BB
S2140099800135EDB2B54217D00F242C403B7BE418CE
S21400999050224E4902A8D047132CF1D8A40002AB9F
S2140099A0E05801A900234B70CB708B7001330B700D
S2140099B0C0B2474B9847E3E73E004F46F489502233
S2140099C0424902A8404B9847132C13D9737D9B003D
S2140099D0DBB25A461370B37DDB0172781343DBB2F9
S2140099E05A4653703379342B00D986E19B00394AA6
S2140099F0D3589F46A40002ABE05801A900234B7041
S214009A00CB708B7001330B70C0B2314B9847DDE7DB
S214009A10347B50222D4902A82B4B9847132C15D97E
S214009A20F4895022294902A8274B9847132CCDD8F1
S214009A30A40002ABE05801A900234B70CB708B70DA
S214009A4001330B70C0B2224B9847BFE7A40002ABAD
S214009A50E05801A900234B70CB708B7001330B705C
S214009A60C0B21B4B9847DBE704231024022136E0E4
S214009A70717C337C102432E04346022B00D8D8E0B9
S214009A800623102401212AE04346022B00D8D4E006
S214009A9008231024002122E00023302400211EE0A9
S214009AA00023202400211AE000230024002116E0D1
S214009AB00004004000080040240A0020182000414E
S214009AC0810F0100F50E0100F14F0100545D010009
S214009AD0A9100100805C0100022310240121090165
S214009AE070220A4013435A469370F37D17203F2B8B
S214009AF000D9F3E6D3703A68537E5BB2002BFBDBEB
S214009B00F37C728813432422B25CD2001343327D66
S214009B1092001343B27C5200134323435A46938069
S214009B20337E002B20D0102C00D1C8E000D888E06F
S214009B30202C00D1A5E0302C16D1F27C002A0AD0C9
S214009B40F26980321720FF2A00D9C7E6326A8032CF
S214009B50FF2A00D9C2E61720F269FF2A00DDBDE61B
S214009B60326AFF2A00DDB9E639684A7E52B2002A18
S214009B70FBDB5A4613723A68537E5BB2002BFBDB64
S214009B80B38B5A4693833A68537E5BB2002BFBDB5B
S214009B90338C5A4613842C23F35C002B05D0013BF0
S214009BA0DBB217200F2B00D998E62B22B15C1720CA
S214009BB00F2900D992E63868427E52B2002AFBDBB3
S214009BC0F289307B0243B068024309050A431B044E
S214009BD013435A4613612A23F35C13750F239375B8
S214009BE01533F35C002B12D0F38C454A17209342B2
S214009BF000D973E65A469384328D80231B01D3180E
S214009C003F499BB28B4200D968E65B46DA843D4BFF
S214009C101B685B01E022D20013403B4A51684901B1
S214009C201268D20E0A43D2B213435A461385002056
S214009C3054E606231024032151E7082310240421A8
S214009C404DE7002C90D1F27C002A0FD0F2698021DB
S214009C5009018C4662442A4917208A4200D93DE60B
S214009C60326A624426498A4200D937E6244A1720D7
S214009C70F169914200DD31E6316A914200DD2DE660
S214009C8072E7F27C002A0FD0F269802189008C46A8
S214009C9062441E4917208A4200D91FE6326A62448F
S214009CA01A498A4200D919E6184A1720F1699142E2
S214009CB000DD13E6316A914200DD0FE654E7F27CE0
S214009CC0002A0FD0F269802109028C4662441049AE
S214009CD017208A4200D901E6326A62440C498A4259
S214009CE000D9FBE50A4A1720F169914200DDF5E547
S214009CF0316A914200DDF1E536E71720EEE5C04611
S214009D00FF0F00002460800020608000FF0300003A
S214009D10FFFF000070B52E4B1C6823681D7EEDB259
S214009D20EA0705D5E27ED20702D5A27ED20716D470
S214009D306B0708D5042322681376E37E9B0702D5BB
S214009D40A37E9B073CD4AB0708D502232268137674
S214009D50E37E5B0702D5A37E5B0735D470BD012288
S214009D601A762268537E5BB2002BFBDB61698B1C84
S214009D706361538B9BB20B80238B013B9BB2238387
S214009D80002B11D0637F002BD2D02268537E5BB2AB
S214009D90002BFBDB137B02210B4313732268537EDD
S214009DA05BB2002BFBDBC3E7237F052BC0D1002370
S214009DB023770133226893752000A3689847B7E796
S214009DC02000E3689847BEE7236920009847C5E768
S214009DD0240A002070B5C343002A0DD00C008A1850
S214009DE0064EFF211D0A20785840084080008359FF
S214009DF06B4001349442F5D1D84370BDA45D010098
S214009E0010B50D480D4B984700220D490D480E4BD6
S214009E10984700280BD1002209490A480A4B984760
S214009E20041E04D109480A4B9847200010BD094873
S214009E30074B98470124F8E7106401002DD900006D
S214009E402C6401003464010041B800004464010041
S214009E5045DA00003C640100F8B5DE46474680B5AA
S214009E608B460127022922D01F23034001229A4055
S214009E709046C3090025002B03D14009C0010F4BB3
S214009E80C51801240E4E4346AB610E48B047434604
S214009E906B610D48B0470134E4B2BC42F3D95B466F
S214009EA0013B012B05D90CBC90469B46F8BD0F0024
S214009EB0DAE70648024B9847F5E7C04600440041FB
S214009EC0B5FE0000B80B000010270000307500003B
S214009ED010B58AB00400282200216846114B984726
S214009EE0114B984728216846104B98471048114B4D
S214009EF098470522282168460F4B98470F49684621
S214009F000F4B984700280AD00F226B46991C20005A
S214009F100C4B98470023E37301200AB010BD0020C5
S214009F20FBE7C04603500100CDB6000049B600006E
S214009F305863010059B60000F5B6000064630100DE
S214009F4045520100F14F010010B58AB004002822E6
S214009F5000216846114B9847114B984728216846C0
S214009F60104B98471048114B984705222821684601
S214009F700F4B98470F4968460F4B984700280AD062
S214009F800F226B46991C20000C4B98470023E37366
S214009F9001200AB010BD0020FBE7C04603500100B8
S214009FA0CDB6000049B600006863010059B600004F
S214009FB0F5B600006463010045520100F14F010050
S214009FC010B50249024B984710BDC0462402002037
S214009FD0FD510100F0B58BB0282200216846114BD8
S214009FE098470324104D114F114E2800B8472821DA
S214009FF06846B0470522282168460E4B98470E490A
S21400A00068460E4B984700280AD12D30FF300C4B7F
S21400A0109847013CE4B2002CE7D100200BB0F0BD1D
S21400A0200120FBE7035001007462010059B60000EE
S21400A03049B60000F5B600008062010045520100F6
S21400A040B5FE000010B5002218491948194B98476C
S21400A050002816D0002215491748164B98470028A6
S21400A06014D0002211491548124B9847002812D0E8
S21400A070134B9847002813D11248134B9847462095
S21400A08003E01248104B9847002010BD10480E4BB6
S21400A09098470020F9E70F480B4B98470020F4E755
S21400A0A00D48094B98470120EFE7C0462C64010095
S21400A0B03464010041B80000B0610100C8610100CD
S21400A0C0D59F0000E461010045DA0000A4610100AC
S21400A0D0B8610100D46101000462010030B5BDB072
S21400A0E004000D00F022002168461C4B9847002211
S21400A0F01B491C481C4B9847002801D13DB030BD79
S21400A100FA204000194B98472B00194A194968460F
S21400A110194DA847194B984719481A4DA8472000CB
S21400A120A8476846184B98470022184918480E4B0F
S21400A13098470028E2D0FA2080000C4CA0476846DA
S21400A140104B9847FA204000A047124B984705222C
S21400A15000210348104B9847D0E7C0460350010043
S21400A1602C6401005867010041B80000B5FE0000ED
S21400A170480200206467010089510100CDB6000046
S21400A1807067010059B6000045DA00007C670100E0
S21400A190F8750100BDB6000091B7000010B58EB08E
S21400A1A03222002101A8234B98472348234B984787
S21400A1B01E2101A8224B984705221E2101A8214BEB
S21400A1C09847214901A8214B9847002805D03220FE
S21400A1D01F4B984700200EB010BD052200211D48D9
S21400A1E01D4B98471448154B9847302101A8144B2F
S21400A1F0984705222F2101A8124B9847174901A816
S21400A200124B984700280FD03A2101A8144B9847C4
S21400A210041E0CD0052200210E480F4B9847601CE8
S21400A220104B984740B2D6E701204042D3E70120C2
S21400A2304042D0E7035001009065010059B6000087
S21400A24049B60000F5B600006463010045520100FF
S21400A250B5FE00002C64010091B70000AC6501005B
S21400A260CD510100314F0100F0B5B9B005000191A4
S21400A27017000293C822002106A84B4B98470023DC
S21400A2800593002249494A484A4B9847FA208000DD
S21400A290494B984749484A4CA0470A2205A9280036
S21400A2A0484B984705A8A0474748A047C82106A896
S21400A2B0464B98470522C82106A8454B984706A84E
S21400A2C0444B9847444906A8444B984703900028B7
S21400A2D065D02C21424CA0470600851C2221280070
S21400A2E0A047002819D0854251D22B00029900E0E1
S21400A2F013001A780A705A1C01318242F8D1F11CF8
S21400A300521A013202335B1AED180023029CA35442
S21400A3103448304EB0472000B0472C212800304D3E
S21400A320A84701302C21A8470600841C22212000C3
S21400A330A84700280DD084422BD23E9A217811706F
S21400A340013401328442F9D1A31B023B00223E991C
S21400A350CA541D490398214B9847002821D081787C
S21400A3600D2918D07B1E002B17DD019A1F00002335
S21400A37001331170C11889780D2902D00132BB4211
S21400A380F6D100220199CA54012039B0F0BD00224E
S21400A390BBE70023DAE70023F3E70023F1E700201A
S21400A3A0F3E70120F1E7C046035001002C640100EA
S21400A3B05867010041B80000B5FE00008466010041
S21400A3C059B60000C14F01002C75010049B60000C7
S21400A3D0F5B6000045DA000090660100455201001F
S21400A3E0CD5101009866010030B583B0050000230A
S21400A3F001930848084CA0470A2201A92800074BE9
S21400A400984701A8A047002205490648064B9847EA
S21400A41003B030BD0863010059B60000C14F01000B
S21400A4202C6401002C75010041B8000070B50400D2
S21400A4300D4B9847002C0ED0012C06D100240B4D56
S21400A4402000A8470134192CFAD103221421084809
S21400A450084B984770BD0848084B984707220021CC
S21400A4600748084B9847F0E7CDB60000E9A3000080
S21400A470F8620100F1D90000E062010059B6000060
S21400A4802C64010091B70000F0B58FB005003222B1
S21400A490002101A81E4B98471E4B98471E481F4B8D
S21400A4A09847322101A81E4B98470522322101A861
S21400A4B01C4B98471C4901A81C4B9847002820D0E5
S21400A4C022211B4FB8470600441C22212000B84713
S21400A4D0002C18D0002818D0844210D22300002266
S21400A4E0511C1C78AC540133CAB28342F8D1F643EF
S21400A4F0F318DBB20022EA5401200FB0F0BD0023AF
S21400A500F8E70020F9E70120F7E70120F5E7C04665
S21400A51003500100CDB600004463010059B60000A8
S21400A52049B60000F5B60000506301004552010030
S21400A530CD510100F0B5C64600B58AB007001E2210
S21400A540002102A8274B984700230193264B9847E3
S21400A550002226492648274B9847051E04D1280086
S21400A5600AB004BC9046F0BD1F4B98472248234BC8
S21400A57098471E2102A8224B984705221E2102A8B2
S21400A580204B9847204902A8204B9847002826D001
S21400A5902C211F4EB0478046441C0D212000B0479A
S21400A5A0002C15D0002813D0844216D223000600B3
S21400A5B0002201A8511C1C7884540133CAB2B3424D
S21400A5C0F8D14246D643F318DBB2002101AAD15493
S21400A5D001A8104B98473860C1E70023F5E700252F
S21400A5E0BDE7C04603500100CDB600002C64010054
S21400A5F0DC63010041B80000E863010059B60000C2
S21400A60049B60000F5B60000F463010045520100AB
S21400A610CD510100314F0100F0B58BB006001E226F
S21400A620002102A8214B984700230193204B98470E
S21400A6302048214B98471E2102A8204B9847052208
S21400A6401E2102A81E4B98471E4902A81E4B98477B
S21400A650002828D020211D4FB8470500441C2C2177
S21400A6602000B847002C13D0002811D0844218D2FE
S21400A6702300002201AF511C1C78BC540133CAB21F
S21400A6808342F8D1ED43EB18DBB2002101AAD15486
S21400A69001A80F4B984740007138306001200BB07E
S21400A6A0F0BD0023F1E70020F9E7C04603500100A3
S21400A6B0CDB60000FC63010059B6000049B60000A4
S21400A6C0F5B600000864010045520100CD510100B6
S21400A6D0314F0100F8B5094F002239000848094EED
S21400A6E0B047FA25ED002800074CA04700223900A5
S21400A6F00648B0472800A047F8BDC0462C640100B5
S21400A7004864010041B80000B5FE0000586401002E
S21400A710F0B59FB00700009101925A22002107A8C9
S21400A720394CA0471422002102A8A047374C00222B
S21400A73021003748374EB0473748384DA8473800CD
S21400A740A847002221003648B0470022210035489D
S21400A750B047354B98473548A8475A2107A8344B89
S21400A7609847344B19225A2107A8334CA04733493F
S21400A77007A8334B984700283ED02C21314CA047E1
S21400A78007002C2107A8A047002831D07C1C7B7826
S21400A7902C2B29D000220132511E02A8435401342A
S21400A7A023782C2BF7D1002302A98B540098264B34
S21400A7B0984762782C2A19D000230133591E02A824
S21400A7C04254E21852782C2AF7D1002202A9CA5421
S21400A7D001981D4B98471D4B9847FA2080001C4B4C
S21400A7E0984701201FB0F0BD0022DCE70023ECE70D
S21400A7F0164B98470020F5E7144B9847FA20800040
S21400A800134B98470020EDE7035001002C6401002D
S21400A8107463010041B800009463010059B600005B
S21400A82090630100AC630100CDB60000BC6301007C
S21400A83049B60000983A000061B80000D0630100F5
S21400A84045520100CD510100FD510100D5A6000082
S21400A850B5FE0000F0B589B005002022002168464C
S21400A8602C4B98472C4E30002C4CA0472800A04775
S21400A8702B48A04700222B492B482C4FB8473000C6
S21400A8802B4EB04728002B4DA847002225492A48C2
S21400A890B8472A48A0472A4C20212000294B984731
S21400A8A0294B052220212000284FB8472848A847D2
S21400A8B02848B0472000A84727492000274B98473C
S21400A8C00023002802D0180009B0F0BD24491C4817
S21400A8D00C30224B9847002819D0194B0C3398425D
S21400A8E013D9174B0C336A461978117001330132AD
S21400A8F08342F9D1124A9B1A0C3B00226946CA547D
S21400A90068460C4B98470123DDE70023F5E7002354
S21400A910D9E7C046035001001866010059B600008A
S21400A920806701002C640100F875010041B8000042
S21400A9302DD9000045DA00002466010030660100CB
S21400A9400402002049B600008813000061B8000029
S21400A9508C67010098670100F46901004552010008
S21400A9602C75010070B590B005000E003222002153
S21400A97003A8144CA0470822002101A8A0472800DD
S21400A980114B98471148124CA0472800A047114881
S21400A990A0470A2201A930000F4B984701A8A047FC
S21400A9A00E48A0470E4B0A22322103A80D4CA047A2
S21400A9B00D4903A80D4B9847431E9841C0B210B0EE
S21400A9C070BDC0460350010045DA0000AC620100CD
S21400A9D059B60000C0620100C14F01002C7501008D
S21400A9E01027000061B80000D8620100455201003F
S21400A9F010B5002204490548054CA0470022054929
S21400AA000548A04710BDC0469062010024620100C0
S21400AA1041B800002C64010014630100F0B5DE4666
S21400AA2057464E464546E0B583B0050088461600B4
S21400AA3000226B461A70334B5B68DB061B0F6946B9
S21400AA408B70CA700A714A7068462F4B9847002E62
S21400AA5011D0402E42D93200413A92B293099B4619
S21400AA602B0040335A469701DF192C00FF239A46E5
S21400AA70264B99460CE02648264B9847012319E0BA
S21400AA80611B414440222000C8474034BC4206D0E7
S21400AA9053462342F4D120001F4B9847F0E75B460D
S21400AAA0591C89013200403A9E01921B92B2012342
S21400AAB0002A07D1180003B03CBC90469946A2462F
S21400AAC0AB46F0BD41442000104B984701230028B8
S21400AAD0F0D012480F4B98470023EBE7FF232B429A
S21400AAE00CD0320041462800084B98470123002826
S21400AAF0E0D00B48074B98470023DBE72800064BBF
S21400AB009847EEE700400041E1FE00000900010022
S21400AB103C66010045DA00001D0101004C6601009C
S21400AB2068660100F0B5D6464F464646C0B5394C75
S21400AB30A54406008A469146FFA80430002202700B
S21400AB40354B5B68DB061B0F8370C2700271427068
S21400AB50324B984701204B46002B35D0402B4CD922
S21400AB604A46413A92B293099846330040334246E9
S21400AB7095015D1934002A4FA11B6944402220002C
S21400AB80B8474034AC42F7D14346591C89019B0173
S21400AB904A46403AD21A92B2002A22D0694420008D
S21400ABA01F4B9847002817D14A46694653461868EF
S21400ABB01C4B9847534618601B481C4B98475346F7
S21400ABC018681B4B984701208123DB009D441CBC62
S21400ABD090469946A246F0BD1648174B9847002067
S21400ABE0F2E74A466946534618680E4B984753465E
S21400ABF018600F4B98470120E6E74A466946300042
S21400AC00074B98470028CFD00C480B4B984700209E
S21400AC10DAE7C046F8FBFFFF00400041E1FE000017
S21400AC20B1000100D59D00006C6201002DD9000026
S21400AC300DDA00003462010045DA000050620100BF
S21400AC40F0B5DE4657464E464546E0B585B00600AA
S21400AC500D0001929946304B9847029083462F4B41
S21400AC601B1A9846002000234246002A3DDB0F9A16
S21400AC708021C9008C46624492460E9A039216E0E2
S21400AC80012B11D10E9B002B0AD1142806DC0123C0
S21400AC90029A944660444A46106029E0013303E075
S21400ACA001230E9A012A15D0013040451BDC5A4676
S21400ACB014188442E4DD295C3378994211D10300EC
S21400ACC0371A0133A342DDD0E95CFA5C9142F8D032
S21400ACD00023E9E7824519DD019B63451AD9039BEA
S21400ACE0E2E70023E0E7002B0CD1002249460A6089
S21400ACF05A1E9341D8B205B03CBC90469946A2462F
S21400AD00AB46F0BD0E9A002A01D1C1E70E9B4A461B
S21400AD101060EDE70E9BFAE70D5201003C040000C0
S21400AD20F0B5DE4657464E464546E0B58B4CA54444
S21400AD30834605918A4A0021FFA8B030894CA04777
S21400AD4014220021FFA89C30A04764220021FFA8FF
S21400AD503830A0470023FFAA343213605B46002B2E
S21400AD6000D1CBE088239B0204930023984600245E
S21400AD704BE0039BFFAA9C327B49FFA838307B4EF2
S21400AD80B146B04702221421FFA83830784EB047AB
S21400AD90FFA83830774B9847714F3900FFA8B0307E
S21400ADA0754B9A469847FA23DB000F223900FFA816
S21400ADB0B030724FB8478022D200002109A8694BF4
S21400ADC098470027079708976421FFA83830D04790
S21400ADD0039A6B49FFA83830C84702221421FFA8FF
S21400ADE03830B0470197009707AB2A00FFA9B0316B
S21400ADF0FFA83830634EB047002825D18023DB00FB
S21400AE009C466444A34500D879E05F4B9847FFA969
S21400AE109C3120005D4B9847022214215C48544B1D
S21400AE20984702220A2120005A4B98476421FFA81F
S21400AE303830514B98475B461D1B03958023DB003B
S21400AE409D4296D9039394E7079B019301230093B1
S21400AE5008AB2A00FFA9B0314F484A4DA847002842
S21400AE60CCD0079F089EB7422DDAF01B42464044DE
S21400AE70454609A9891ABA1AFFABB0339C46624404
S21400AE80535D4B5501358542FAD1F61BB3B2039399
S21400AE90022214214148364B984702220A21039881
S21400AEA03C4B984705273E4E039A09A90498B0479D
S21400AEB0002815D1013FFFB2002F08D0FA2040002D
S21400AEC0384B9847F0E7454600230393E0E72120F8
S21400AED0354B9D443CBC90469946A246AB46F0BDD9
S21400AEE0039F3A00FFA93431049E30002F4B984749
S21400AEF03300BC4663440493A8467FE7D8462C48F4
S21400AF002C4CA04758462C4DA8472C48A0474046F6
S21400AF10A8470A220021FFA82830124B9847FFAB0B
S21400AF2034331A682649FFA82830104B984725481E
S21400AF30A047059E3000244DA8472448A047FFA8F8
S21400AF402830A8473100FFA82830214B9847030037
S21400AF501E20002BBCD00430BAE7C04614F7FFFF13
S21400AF603C04000003500100B06701008951010055
S21400AF70B1D9000059B6000049B6000061B800001B
S21400AF80C867010041AC0000C5E5000081DA00009A
S21400AF90A4670100F1D90000DC670100E467010046
S21400AFA01DAA0000B5FE0000EC08000025AB00005E
S21400AFB0F46701002DD9000029DA000008680100B6
S21400AFC01C6801002468010045DA00003C680100A6
S21400AFD0E95101007047000000B583B000230193DB
S21400AFE001A8104B98470423019A9A43012A05D0DA
S21400AFF00D480E4B9847002003B000BD0C480B4B85
S21400B0009847019B012B07D00120052BF4D1094856
S21400B010064B98470120EFE70748044B9847012066
S21400B020EAE7C04635A500000066010045DA0000E4
S21400B030B4650100E4650100C865010070B500282C
S21400B04012D0002910D088420CD2030014001D78BC
S21400B0502570013301348B42F9D11B1A0021D154DB
S21400B060012070BD0023F9E70248034B98470020F3
S21400B070F7E7C0462463010045DA0000F0B59DB04E
S21400B08001900291170003935022002108A8474C14
S21400B090A0470522002106A8A0470522002104A8F3
S21400B0A0A047434B9847434C002221004248434E5A
S21400B0B0B047002221004248B0474248424DA847C8
S21400B0C00198A847002221004048B047012F31D000
S21400B0D03F483D4B9847502108A83E4B9847FA23D7
S21400B0E09B00229A53432322502108A83A4CA0479B
S21400B0F00522002106A82D4B9847384908A8384B4A
S21400B1009847002850D02C21364EB047441C2C219E
S21400B1102000B04706003449314B9847070006AA7E
S21400B12031002000314B9847002300282BD118000F
S21400B1301DB0F0BD2E48244FB8471E4D2A4E0022A3
S21400B140290030001D4CA0472A48B84702982A4BD1
S21400B15098470004000C0A2206A9284B984706AB1D
S21400B1601800B8472648B8472648B8470022264958
S21400B1703000A0470298B847002229001348A0478D
S21400B1802248B847A7E7701C04AA3900174B98470F
S21400B19000230028CBD004A81D4CA047039B1860B2
S21400B1A006A8A04783B2C2E70023C0E70350010009
S21400B1B0C5E500002C640100B064010041B8000041
S21400B1C0C0640100D864010059B60000F87501009B
S21400B1D06465010049B6000061B8000054650100CE
S21400B1E045520100CD5101002C7501003DB0000014
S21400B1F0EC640100186501000D520100C14F01000A
S21400B200286501002C6501003465010040650100D9
S21400B210314F0100F0B587B00390049105920327E3
S21400B220174E0D9B00930CAB059A04990398B047F4
S21400B2300400C82821D01348134B98472000134B0E
S21400B2409847012F07D0FA20C000114B9847013FBE
S21400B250002FE6D103E00F4B00209C4201D007B040
S21400B260F0BD0D480D4B98470D48094B98470221F5
S21400B2701B200C4B98470020F1E70120EFE7C04663
S21400B2807DB00000206701002DD9000029DA0000FB
S21400B290B5FE00005B0200004067010045DA0000D2
S21400B2A0B80B0000599E0000F0B53B4CA5440400C6
S21400B2B00D0001920023999396229200002103A884
S21400B2C0364B9847364B98472000364B9847200019
S21400B2D0354EB047354B98473548364FB84720006F
S21400B2E0B0470A2299A9344B984799A8B847002234
S21400B2F032493348334B9847002803D19B239B00A1
S21400B3009D44F0BD20002B4B9847FA2040002E4B62
S21400B31098472E4B98472E4B0F229621890003A85C
S21400B3202C4CA0472C482D4B984703A81D4B9847FC
S21400B3302B4903A82B4B9847002827D00A302221F8
S21400B340294FB847441C22212000B84701002A0094
S21400B3502000264B98470028D0D0254903A8214B2B
S21400B360984700280DD00A3022211F4DA847441CBC
S21400B37022212000A8470100019A20001B4B984775
S21400B380BCE71C48074B98470020B7E71A48054B10
S21400B39098470020B2E7C04694FDFFFF0350010027
S21400B3A0C5E5000045DA00000D52010029DA00006C
S21400B3B0B066010059B60000C14F01007C6701006D
S21400B3C02C75010041B80000B5FE0000BDB60000B7
S21400B3D01027000061B80000C86601002DD90000E3
S21400B3E0DC66010045520100CD5101003DB0000071
S21400B3F0E8660100F46601000C67010010B58AB02B
S21400B4001E22002102A81A4B984700230193194BCD
S21400B41098471948194B98471E2102A8184B984779
S21400B42005221E2102A8174B9847174902A8174B5A
S21400B4309847002819D03A21154B9847841C15497F
S21400B4402000124B9847010001AA2000124B984793
S21400B4500023002804D1581E8341D8B20AB010BD7C
S21400B46001A80E4B98470300F5E70023F3E7C04614
S21400B47003500100CDB600007865010059B6000003
S21400B48049B60000F5B6000084650100455201008B
S21400B490CD5101002C7501003DB00000314F010078
S21400B4A0F0B58BB00700282200216846284B984745
S21400B4B0284E002231002848284DA8472848294C05
S21400B4C0A0473800A047002231002748A84700229E
S21400B4D031002648A8472648A04728216846254B1D
S21400B4E09847052228216846234B984723496846F3
S21400B4F0234B98470023002802D018000BB0F0BD5D
S21400B500204968461E4B984700281AD022211E4E16
S21400B510B0470400451C22212800B047002D10D05B
S21400B520854212D2E54345190023184E01335A1EB0
S21400B530E15CB154AB42F9D1E44320180022134B2E
S21400B5401A54134B98470300D7E70020F6E7C04687
S21400B550035001002C6401006864010041B800003B
S21400B5609463010059B60000F87501008864010074
S21400B5709864010049B60000F5B60000F4690100C1
S21400B58045520100A8640100CD51010024020020AC
S21400B590FDB3000030B58DB08023DB05009300239B
S21400B5A00193FF2269460A818B72CB729622920122
S21400B5B0049201220A754A758B75CB7506930B7734
S21400B5C04B7780235B030393124B0893124B09932C
S21400B5D001235B420A930B93104D114C6A461149A6
S21400B5E02800A0470028F9D10C4D2C6820000E4BEF
S21400B5F098471F2318401E3B83400C4A13602A6856
S21400B600138A1BB2002BFBDB236802221343236042
S21400B6100DB030BD0200100002001100500A0020DC
S21400B6206DDF0000000C0042DDFD000000E100E0E0
S21400B63010B50348034B984743425841C0B210BD6B
S21400B640500A0020EFE1000010B50A000021014B6F
S21400B650984710BD0350010010B50400054B9847ED
S21400B66082B221000448054B9847431E9841C0B259
S21400B67010BDC0460D520100500A002049E20000ED
S21400B68010B582B06B469C1D21000348034B9847BB
S21400B690208802B010BDC046500A002049E30000D2
S21400B6A070B584B2034E044D21003000A847002830
S21400B6B0FAD170BD500A0020C1E1000010B51A2072
S21400B6C0014B984710BDC046A1B6000030B583B008
S21400B6D0054C064D03E06B46D91D0548A847A04714
S21400B6E00028F8D103B030BD31B6000049E30000B1
S21400B6F0500A0020F0B5DE4657464E464546E0B5B1
S21400B70083B001900F0014001D4B98478246FA2321
S21400B7109B0063439846002400251A4E184B994612
S21400B7209B460DE0184B98470090154B9847040031
S21400B7306B1C019A694609785155BB4216DA1D0002
S21400B740B0470028EED1BD420DDAC8475346C01AAE
S21400B75040450AD8D847001B0C4B9842F0D9002C1D
S21400B760EED02B0002E02B0000E02B000022019917
S21400B770CA5403B03CBC90469946A246AB46F0BDC0
S21400B78011F4000031B6000081B60000DC050000B0
S21400B790F0B5DE4657464E464546E0B583B083468E
S21400B7A001911400204B98478246204B98478146CB
S21400B7B0FA27BF006743002500261D4B98460FE07A
S21400B7C056451FD0194B98474B46C01AB8421FD84B
S21400B7D0164B9847401B174B984201D9002D20D195
S21400B7E0C047041EEED0144B984700900F4B984766
S21400B7F005005B469A5D6B461B7801369A42DFD0A1
S21400B8000026DDE7019B002B03D10C4B984700E098
S21400B8100024200003B03CBC90469946A246AB46A6
S21400B820F0BD0024F5E7C0460D52010011F40000FB
S21400B83031B60000DC05000081B60000CDB6000081
S21400B84070B50C001500044B98470522290020000F
S21400B850024B984770BDC04659B6000091B700002D
S21400B860F0B5DE4657464E464546E0B583B00190F5
S21400B8700F0014009B461D4B98478246FA239B00F8
S21400B8806343984600240025194E184B99460DE050
S21400B890184B98470090154B984704006B1C019A6C
S21400B8A0694609785155BB4216DA1D00B047002894
S21400B8B0EED1BD420DDAC8475346C01A40450AD8F5
S21400B8C00A4B9847001B8345F0D2002CEED02B0085
S21400B8D002E02B0000E02B0000220199CA5403B0BE
S21400B8E03CBC90469946A246AB46F0BD11F400001B
S21400B8F031B6000081B600000122014B1A70704775
S21400B9006D02002010B584B00C4B98470C4B98473E
S21400B9100C4B98470023039302930B4B0193012390
S21400B92000930023C822D20008490948094CA047C2
S21400B930094B9847002004B010BDC046DD1001003A
S21400B94091D8000095B50000E00B0020D06B0100F8
S21400B950D5D3000085F1000081F30000F0B583B078
S21400B9600325184E184FB0470400162826D0002886
S21400B97008D0B847134B9847041E03D0013DEDB2DC
S21400B980002DF0D100236A461380538008331371CC
S21400B990073B9371D3712F335371694600200B4BCD
S21400B9A098470B4A536B02210B43536309480A4BD3
S21400B9B0984760426041C0B203B0F0BD0748064BEE
S21400B9C09847DBE7A10301008504010041FE000063
S21400B9D000080040FC6E010045DA0000D46E01004D
S21400B9E010B50020034B98470348044B98470120A6
S21400B9F010BDC0462DA400003476010045DA0000D4
S21400BA0070B594B03222002107A82B4B984702ABA2
S21400BA10A02212011A8000229A70DA70FA21C90058
S21400BA20D9801A725A729A72DA7201201873587391
S21400BA30D98106211974214E214BD988F180597974
S21400BA407171197931719D785C7832700234E4B284
S21400BA503C2120001B4B984771703C2120001A4B5C
S21400BA6098472818C0B2172823D90022134B9A707B
S21400BA7002AD01232B71114C0822210004A8134BA0
S21400BA80984703232B74124E2A0012493000124B9B
S21400BA9098473000114B98476378A2782178009138
S21400BAA00F4907A80F4CA04707A80F4B984714B09C
S21400BAB070BDB070DCE7C046035001003C0A0020B1
S21400BAC0480A0020BD290100C5290100F14F0100E8
S21400BAD0280A00200014004051DE0000D5DC0000DB
S21400BAE0C0710100895101002DD9000030B591B018
S21400BAF03222002103A8194B98471948194B98473A
S21400BB00194D03232B7200232B706C780534E4B296
S21400BB103C212000154B984769703C212000144BAF
S21400BB209847AB781818C0B2172815D900220E4BC4
S21400BB309A700D4C002221000E480F4B98476378F0
S21400BB40A278217800910D4903A80D4CA04703A8C0
S21400BB500C4B984711B030BDA870EAE703500100BF
S21400BB60B071010045DA00003C0A0020BD29010042
S21400BB70C5290100280A002021DE0000C07101004E
S21400BB80895101002DD9000010B5054C0022054949
S21400BB902000054B984700212000044B984710BD15
S21400BBA0280A0020F9B80000E5DE000003DF0000E8
S21400BBB070B584B02348244DA84700222349244862
S21400BBC0244B9847002403940522002101A8224B09
S21400BBD0984703A8214B98472148224EB0470A228F
S21400BBE001A90398204B984701A8B0471F48A847CB
S21400BBF0009468461E4B98470423009A9A43012AED
S21400BC0004D01C48104B9847002011E01A480E4BF1
S21400BC109847009B012B0DD0052B0FD000220B4917
S21400BC2016480C4B9847FA20C000154B9847012041
S21400BC3004B070BD1348044B9847EFE71248024B18
S21400BC409847EBE70C75010045DA00002C6401000C
S21400BC502075010041B800000350010019A600003D
S21400BC60307501002DD90000C14F01004C75010050
S21400BC7035A50000C075010050750100E075010093
S21400BC80B5FE0000707501009875010070B50E4D88
S21400BC90002229000D480E4CA047002229000D481E
S21400BCA0A047002229000C48A047002229000B4884
S21400BCB0A047002229000A48A04700222900094878
S21400BCC0A047012070BDC0462C64010058670100E3
S21400BCD041B80000EC750100FC750100107601000B
S21400BCE02876010020750100F0B591B003220021EE
S21400BCF00FA83A4CA047032200210EA8A047032213
S21400BD0000210DA8A047032200210CA8A04703226B
S21400BD1000210BA8A047032200210AA8A04728223A
S21400BD2000216846A04768462D4B9847041E02D15E
S21400BD30200011B0F0BD2B482B4B984768462B4B84
S21400BD4098470FA86B461B7803706B465B7843706A
S21400BD5000278770264EB047264D28600EA86B46F3
S21400BD60DB7803706B461B7943708770B047287189
S21400BD700DA86B469B7903706B46DB794370877022
S21400BD80B04768710CA86B465B7A03706B469B7A6B
S21400BD9043708770B047A8710BA86B461B7B037077
S21400BDA06B465B7B43708770B047E8716B469B7B46
S21400BDB01A00303A092A0CD80AAA13700AA86B4649
S21400BDC0DB7B437000238370094B9847094B18723E
S21400BDD0AEE730220AAB1A70F0E7C0460350010007
S21400BDE089A40000C46F01002DD9000045DA0000C8
S21400BDF0314F0100B40A002010B51B4B00221A7008
S21400BE005A709A70DA7001321A715A71FA22D20098
S21400BE10DA80164B9847002813D1134B144ADA8061
S21400BE2001225A711A710B329A7000225A701A70D7
S21400BE30104B9847104B98470B491048104B9847A3
S21400BE4010BD094B0F4A1168FA20C00084466144B1
S21400BE50D980117959715179197191799970D1797F
S21400BE605970127A1A70E3E7480A0020E9BC00000D
S21400BE70E107000001BA000089BB0000280A002084
S21400BE80C1DD0000B40A0020F0B583B00325234EC0
S21400BE90B047041E0CD12248224B984701211B2094
S21400BEA0214B9847012D30D0013DEDB2002DEFD14A
S21400BEB01E4B9847040003271C4E1A4D002C01D039
S21400BEC0462C25D1B04704001948A847FA20C000E0
S21400BED0184B9847013FFFB2002FEFD12000164BBA
S21400BEE09847002301930A2201A92000134B984784
S21400BEF00122134B1A6001AA03218C204000114B2B
S21400BF0098471148074B98470024200003B0F0BD1F
S21400BF100E48044B98470124F7E7C046019E0000F0
S21400BF201C6F010045DA0000599E000045A0000085
S21400BF30446F0100B5FE000029DA0000C14F010081
S21400BF40840200202DD70000786F01009C6F01004E
S21400BF50F0B583B001AC012565700023A370257091
S21400BF60210012200A4FB8470A4E8023DB02736175
S21400BF70257021000420B847102373612570210026
S21400BF801B20B84780231B05736103B0F0BDC04675
S21400BF90F9E500000044004110B5040001001B2034
S21400BFA01E4B9847013C012C00D910BD00231C4AAB
S21400BFB013701C4A13701C4A13701C4B98470028B9
S21400BFC028D00122184B1A7019481A4B98471A4B5A
S21400BFD09847002817D00122114B1A701748154BA6
S21400BFE09847174B9847002806D001220D4B1A7029
S21400BFF01448104B9847D8E700220A4B1A7012488C
S21400C0000C4B9847D1E70022054B1A700F48094B96
S21400C0109847CAE70E48074B9847C6E7599E000060
S21400C02074020020750200206C02002089BE000009
S21400C030E86A010045DA0000B1BB0000106B0100A1
S21400C0408DBC0000386B0100606B0100846B010042
S21400C050A86B010030B583B0254B9847254B984711
S21400C0600023019301A987204000234B9847019B9A
S21400C070092B12D02148224B9847224A02218720BA
S21400C0804000214CA0478C256D00032128001F4B43
S21400C09098471F4A02212800A047002300936A46BB
S21400C0A003218C2040001B4B98471B481B4B98478E
S21400C0B068461B4B98471B4B984700201A4CA047D6
S21400C0C01220A04719480E4B9847194B1B68102B97
S21400C0D003D0184B984703B030BD174B984700283D
S21400C0E0F7D01648064B98470020154B9847F0E7C0
S21400C0F051BF00005DB9000051D70000207101005B
S21400C10045DA0000487101002DD7000095D70000E1
S21400C110486601007DD700004C7101002DD9000053
S21400C120314F010029DA0000059100006871010016
S21400C1308002002089BE0000019E00009071010070
S21400C14099BF000010B50C00064B9847030000206E
S21400C150052B06D92000034B9847052383428041D0
S21400C160404210BD0D520100F8B58C46914216DCD7
S21400C1700B00002509270026C45C303C3100A7428E
S21400C18071416D1801339A42F6DA6346D21A0132CB
S21400C190AA4206D00548064B98470020F8BD002561
S21400C1A0F3E70448024B98470120F7E77C76010046
S21400C1B045DA00005C76010070B51148114DA847BD
S21400C1C01148124CA0471248A8471248A0471248E8
S21400C1D0A8471248A0471248A8471248A047124846
S21400C1E0A8471248A0471248A847124B1868A0470D
S21400C1F01148A8471148124B98471248A04770BDEF
S21400C200106E01002DD90000C46D010045DA000053
S21400C2102C6E01003C6A0100486E0100006E0100B1
S21400C220646E0100CC6B0100806E01005468010052
S21400C2309C6E010000000020B86E01005C13000038
S21400C24029DA0000F462010000B583B000236A46D4
S21400C2501370012269464A7003328A700832CA7027
S21400C2600B714B716846024B984703B000BDC04641
S21400C270C5E40000F0B587B0029003910624334D64
S21400C280334E2800B047002811D13248324B984729
S21400C290013C002C04D0FA20C000304B9847F0E751
S21400C2A02F482D4B98470A34200007B0F0BD2D4884
S21400C2B0294B98470023059304262B4D2B4F192313
S21400C2C0009305AB002229000298B8470400C8284E
S21400C2D00BD02748204B9847012EE5D0FA20C00007
S21400C2E01E4B9847013E002EE9D1059B214A9446F5
S21400C2F06344214A934219D82048174B9847204850
S21400C300204B98470598204B984704251F4E0399C5
S21400C3100598B04704001E280FD01D480E4B9847BE
S21400C320012D10D0013D002DF1D1BDE7194B9847E6
S21400C3301948094B98471F24B6E7164B98471748E5
S21400C340054B9847B0E7134B9847ADE75868010090
S21400C350A1B400005878010045DA0000B5FE0000E0
S21400C360687801007C780100B87601007DB0000096
S21400C37090780100FFAFFFFFFE3F0100A4780100A8
S21400C380B47801002DD9000029DA000021AD0000A4
S21400C390EC780100D5A60000C0780100D078010036
S21400C3A0F0B5B9B0049005910527324C324E334DA6
S21400C3B02000B047002810D1A8473148314B984795
S21400C3C0013F002F04D0FA20C0002F4B9847EFE71C
S21400C3D02E4B9847002039B0F0BD284B98472C4884
S21400C3E0284B984705242B4D2B4E50212800B0474C
S21400C3F000280BD12948234B9847204B9847013CEF
S21400C400002CF2D1214B98470020E4E724481D4B2E
S21400C4109847C822002106A8224B9847224B039330
S21400C420224B0293224B0193224B0093224B234A2A
S21400C430234906A8234CA047104B9847059A049911
S21400C44006A8214B984700280DD020480D4CA04741
S21400C4500498A0471E481F4B98470598A0470B4BCB
S21400C46098470120B7E71C48064B9847074B984764
S21400C4700020B0E75868010055A80000C5E5000098
S21400C480AC68010045DA0000B5FE0000F1A9000026
S21400C490C4680100AC6D010065A90000E0680100F9
S21400C4A0F86801000350010028230000006E010018
S21400C4B0CC6B01009C6D010048020020906A0100D0
S21400C4C01069010089510100A9B2000054690100F9
S21400C4D0746901002DD900004069010010B5D6B07E
S21400C4E09622520000210BA82D4CA0470A220021BC
S21400C4F008A8A04708A90BA82A4B9847002801D1EE
S21400C50056B010BD1E2200216846254B984708A944
S21400C5100BA8254B98470A2821D01E282DD1234A40
S21400C52002211938224B9847002810D0214C2100B0
S21400C5302148224B98472000214CA047FA20800033
S21400C540204B98472048A047204B9847D8E72049DB
S21400C55019481A4B98471F48194B9847D0E71E4C66
S21400C56021001548154B98471C4A02210520104B00
S21400C57098472000124B9847C2E7020018496846C1
S21400C580184B984769460C480C4B9847134A0221AB
S21400C5900520074B98476846094B9847B0E7C046C2
S21400C5A003500100A1C3000075C2000080690100AD
S21400C5B02DD7000084690100DC6A0100DDA00000C0
S21400C5C045DA0000B5FE000098690100E1D70000DA
S21400C5D0B4690100D4690100FC69010048710100DA
S21400C5E0206A010089510100F8B5050004240B4FAC
S21400C5F00B4E2800B8470E2200212800B04700281E
S21400C60007D1013C002CF4D10022064B1A70002002
S21400C610F8BD0122034B1A700120F9E7D19E0000F5
S21400C62069C1000059020020F0B5DE4657464E4666
S21400C6304546E0B5A04CA544079010220021B6A8B8
S21400C6409E4CA0479622520000216BA8A0470025CA
S21400C6506A952822002160A8A0475F95984B9847C6
S21400C6606AA8984B9847984B1B78002B04D197489C
S21400C670974B9847041E1AD0964B9847002820D10F
S21400C6800325954E954F3000B847041E1CD194489C
S21400C690944B9847FA208000934B9847884B9847CE
S21400C6A0013D002DEFD10A210798904B98472000B6
S21400C6B0BB239B009D443CBC90469946A246AB4695
S21400C6C0F0BD8B4B9847DBE78A48864CA0478A48E4
S21400C6D08A4B9847B6A88A4B9847B6A8A0477822B0
S21400C6E0002141A8754B9847079B012B00D186E097
S21400C6F0002B3FD0032B00D0D8E060AE01213000E5
S21400C700804B9847804A81496BA8814DA8476BA803
S21400C710744CA04700230F930FAA03218C204000DF
S21400C7207C4B98477C4B1F680FA87C4B984701961C
S21400C73000903B00654A7A4941A8A84741A8A0470F
S21400C7406BA8A0470A2301935FAB00930323012243
S21400C75041A96BA8734CA047041E05D07248614BD4
S21400C7609847634B9847A2E770485E4B9847604BE4
S21400C77098479CE76E486F4B98476F485F4B9847C3
S21400C7806B48584CA04760AF012138005D4B984776
S21400C790C82200210FA8494DA8475B4A67496BA8E5
S21400C7A05B4EB0476BA8A047C82200210FA8A84739
S21400C7B00497634B0393634B0293634B0193634B62
S21400C7C000935B4B414A62490FA8B0476148A047B7
S21400C7D00FA8A0470A2301935FAB00930123012211
S21400C7E00FA96BA84F4CA047041E05D05A483D4BD6
S21400C7F098473F4B98475AE73D4B984757E760AFF7
S21400C800012138003F4B9847C82200210FA82B4C27
S21400C810A0473D4A51496BA83D4EB0476BA8314DE5
S21400C820A8470A22002109A8A0470A2200210CA82E
S21400C830A04709AB98464A4B9B464A4B186859682E
S21400C840D84702224146484B9A4698470CAB994631
S21400C850464B18685968D84702224946D047C8222E
S21400C86000210FA8A0474B4602934346019300972A
S21400C8706A9B164A3E490FA8B0473648A8470FA8F5
S21400C880A8470A2301935FAB0093012301220FA957
S21400C8906BA8244CA047041E05D02F48114B984780
S21400C8A0134B984703E7124B984700E731480D4B68
S21400C8B098470024FBE6C04614FDFFFF0350010026
S21400C8C0C5E5000019A60000590200204802002015
S21400C8D0E9C50000FDB3000058680100A1B40000DF
S21400C8E0A072010045DA0000B5FE0000D5AF0000DA
S21400C8F0D5A60000B0720100C47201002DD9000058
S21400C900C19F000009D80000E86D0100D472010044
S21400C910895101007DD7000080020020314F0100C0
S21400C920F472010015B200002C7301004073010080
S21400C9305C020020499F0000507301005C730100F8
S21400C940006E0100CC6B0100980200208C020020D3
S21400C95074730100E4730100F473010004740100B1
S21400C960E14D01004002002089DB00003802002073
S21400C9701C74010098740100F8B503241B4E1C4D6E
S21400C9801C4F3200290038001B4B98473100280006
S21400C9901A4B984700280ED1012C04D0013CE4B273
S21400C9A0002CEED107E01648164B9847164B104A57
S21400C9B013600E4A13601548124CA0471448154DD4
S21400C9C0A8470A48A0471448A8470948A047002097
S21400C9D0124B9847002804D111480A4B984701206B
S21400C9E0F8BD1048074B9847F9E7C0468C02002070
S21400C9F0980200205868010011A7000045C10000F9
S21400CA00EC71010045DA0000302E30001072010093
S21400CA10247201002DD900004072010029C60000D2
S21400CA20807201005C72010010B582B00023019391
S21400CA3001A8254B98470198042302009A43012A2F
S21400CA4011D0224B1B68002B0DD10093002816D165
S21400CA500A22694647301E4B98476A4603218C20B7
S21400CA6040001C4B98471C4B9847002812D01B4B85
S21400CA70984700280ED00122194B1A700DE00A22A2
S21400CA806946134B98476A4603218C204000114B99
S21400CA909847E8E70220134B9847104B9847041E28
S21400CAA008D00120104B9847041E09D10F48104BA0
S21400CAB0984702E00F480E4B9847200002B010BD82
S21400CAC00D480B4B9847F8E735A500008402002078
S21400CAD0C14F01002DD70000019E0000D9AF000015
S21400CAE06C02002099BF000029C60000EC7401000B
S21400CAF045DA0000B4740100CC740100F0B5C646F7
S21400CB0000B596B0282200210CA89E4CA0479E484F
S21400CB109E4B984728210CA89D4B98470522282114
S21400CB200CA89C4B98470A22002109A8A04722215E
S21400CB300CA8994CA04705002C210CA8A047002D56
S21400CB4014D0002812D06B1C984200D109E10022B4
S21400CB5009AE511C1C78B4540133CAB28342F8D1D2
S21400CB60ED43EB18DBB2002109AAD15403221421AD
S21400CB7009A88A4B98478A4909A88A4B9847011EF4
S21400CB8012D00023884F864D864E5C1CE4B25800B7
S21400CB90C01806AB9C466044B84729000020B04742
S21400CBA0010023000028F0D18048814DA84706A840
S21400CBB0804CA0478048A8471B206844A0477F4871
S21400CBC0A8471E206844A04706A87D4B9847FA232E
S21400CBD0DB009C4660441033984200DDC3E0794891
S21400CBE06A4EB04728210CA8694DA847052228217F
S21400CBF00CA8684CA0476448B04728210CA8A84752
S21400CC00052228210CA8A0476F48694B98469847EC
S21400CC100CA8684FB8476D48B04728210CA8A8470D
S21400CC20052228210CA8A0476948C0470CA8B84789
S21400CC306848B04728210CA8A847052228210CA838
S21400CC40A0476548C0470CA8B84701211B20634B86
S21400CC5098470324624DA84700280DD16148554BDC
S21400CC60984701211B205D4B9847FA20C0005E4B79
S21400CC709847013C002CEED15C485B4B98474248F5
S21400CC80424B984728210CA8414B9847052228215B
S21400CC900CA8404B98474C48454B98470CA8454B2A
S21400CCA098470A22002103A8364B984722210CA851
S21400CCB0394CA04705002C210CA8A047002D13D006
S21400CCC0002811D06B1C984255D0002203AE511C90
S21400CCD01C78B4540133CAB29842F8D1ED43EB182D
S21400CCE0DBB2002103AAD15403A8324B98472C4943
S21400CCF003A82C4B9847011E10D000232A4F284D1E
S21400CD00284E5C1CE4B25800C0186844B847290096
S21400CD100020B047010023000028F2D12348244D0C
S21400CD20A8476846234CA0473148A8476B46D81CFE
S21400CD30A0473048A8476B46981DA0476846204B3A
S21400CD409847FA23DB009C4660441033984214DC74
S21400CD502948184B9847294929482A4B98470020C4
S21400CD6005E00023FFE62848124B9847012016B03E
S21400CD7004BC9046F0BD0023B3E723480D4B98470C
S21400CD800120F4E7035001004463010059B6000097
S21400CD9049B60000F5B60000CD510100F1D90000FB
S21400CDA0F876010075520100FD510100FC76010085
S21400CDB02DD9000045DA000018770100347701000D
S21400CDC0314F0100787701008477010090770100E9
S21400CDD0A0770100AC770100BC770100599E0000E7
S21400CDE0019E0000C8770100B5FE00008813000011
S21400CDF0E8770100047801002078010044780100FB
S21400CE00DC6A0100DDA000005077010010B50A487A
S21400CE100A4CA04700211B20094B98470948A04709
S21400CE20FA20C000084B9847BFF34F8F074A084BBD
S21400CE30DA60BFF34F8FFEE7606A010045DA000054
S21400CE40599E0000786A0100B5FE00000400FA054D
S21400CE5000ED00E071B5FFB00500C82200214EA825
S21400CE605A4CA0471522002148A8A0473FAE2322CF
S21400CE7000213000A047009648ABC8224EA92800E3
S21400CE80534CA0474EA8534B98475348534EB04771
S21400CE904EA8534CA0475348B04748A8A047280080
S21400CEA0514B98476420514B984751494EA8514BD7
S21400CEB09847002844D0C82200210DA8434B984725
S21400CEC00023059305A84C4B98474C48434B98477E
S21400CED04B4B02934B4B0193059B00934A4B4B4A9B
S21400CEE04B490DA84B4CA0474B483D4CA0470DA8BE
S21400CEF0A0474A4948A83F4B9847002812D04848C0
S21400CF00374B98470DA94748474B9847102148A8E4
S21400CF10464B98474648324B98474648304B9847CA
S21400CF207FB071BD444948A8324B98470028E6D1E7
S21400CF3042482B4B98470DA948A83B4B9847E5E736
S21400CF40364948A82B4B9847002823D0C8220021F2
S21400CF500DA81E4CA0471E22002105A8A0470121AF
S21400CF6005A8374B984737494EA8224B98470028C4
S21400CF701DD105AB48AA34490DA8264CA0470DA9DB
S21400CF802848294B98473148154B98473048174B47
S21400CF909847C2E7284948A8164B98470028D5D195
S21400CFA02C4948A8134B98470028CFD1B5E705ABC6
S21400CFB048AA29490DA8174CA0470DA919481A4B8D
S21400CFC098472648064B9847254B9847035001003C
S21400CFD069A2000055540100E06F01002DD9000041
S21400CFE045DA0000F86F0100E9A30000B5FE000076
S21400CFF0087001004552010019A6000010700100DB
S21400D000E86D010058680100980200208C0200209C
S21400D01024700100895101004C700100C06A0100B3
S21400D0205C700100DC6A0100DDA0000049B600006B
S21400D030907001000C710100C86A01007470010054
S21400D04009D80000A8700100E0700100FC70010023
S21400D050B80B0000D06A0100B0700100C870010073
S21400D0600DCE0000F0B5DE4657464E464546E0B5C6
S21400D07093B01E2200210AA85F4B98471E24002565
S21400D0805E4E1220B0472D18013CE4B2002CF8D1B9
S21400D0900A22002107A8584B98471E212800584B03
S21400D0A09847584B9847584B9847584B9846584A75
S21400D0B0584BC047584C20606160584B9A4698477A
S21400D0C0022207A9564FB8475648574B9B469847E3
S21400D0D007A8564B99469847656824680022544B23
S21400D0E020002900C0470090019122002B004848EC
S21400D0F05049514CA04702000B00504D0098019932
S21400D100A84700900191D04706220AA9B8474C4884
S21400D110D8470AAB1800C84700224A4B0098019926
S21400D120A84700900191484EB0470290039100989E
S21400D1300199B0470490059100980199B0470022E4
S21400D140424B434CA04700900191424A424B029802
S21400D1500399C047414E424A424BB0470290039162
S21400D1600498059902000B00C0473F4A3F4BC04752
S21400D17002000B0002980399B047029003913C4AC4
S21400D1803C4B00980199C04702000B000298039997
S21400D190B04702000B0000203749A84704000D00E6
S21400D1A0D04706220AA9B847194A344B200029005E
S21400D1B0214CA047324C20606160D04706220AA965
S21400D1C0B8473048D8470AA8D8472F48C8472F4AF4
S21400D1D02F4B20686168C04700222E4BB047D047CF
S21400D1E006220AA9B847012013B03CBC90469946CF
S21400D1F0A246AB46F0BDC046035001004D94000069
S21400D200C5290100253201003D4D01004D410100B8
S21400D2106666666666664A3FA8020020E14D010023
S21400D22089DB00009C7601002DD9000045DA00005D
S21400D230005CB24066660A404D460100E5380100D3
S21400D240BC7601000088B340C91101000000084008
S21400D250D9120100E9FCA92B7ED7303FC532010068
S21400D2605DE5F7A0E1796B3F57181A40B0FAC53E66
S21400D270CE9F7D3E6D22713E0000F03F66127140EB
S21400D280A0030020D8760100F4760100CDCCCCCCEB
S21400D290CCCCFC3F00004040F0B5CE46474680B5BB
S21400D2A08DB0384B98471E22002104A8364B98476D
S21400D2B0364B1B78D80036490918364A1468556824
S21400D2C00C604D60344A121834490868496810608A
S21400D2D051600133DBB21D2B50D82C4A13702C4CF6
S21400D2E02D4D2700F0370022002302920393009270
S21400D2F001932B4E0CCC00980199B04700900191F9
S21400D3000CCD02980399B04702900391BC42F1D12C
S21400D310244B99460022244BC84704000D00234B9B
S21400D3201C605D60224B984600221F4B00980199B6
S21400D330C8474346186059601E4F20002900B8476A
S21400D340062204A91C4EB0471C481D4CA04704A842
S21400D350A0471C481C4DA847434618685968B8475C
S21400D360062204A9B0471948A04704A8A0471848B1
S21400D370A8470DB00CBC90469946F0BD0022034B62
S21400D3801A70ACE765D00000035001008802002048
S21400D390B0020020A8020020A8030020A00300205E
S21400D3A0C5320100E538010000003E40380200208A
S21400D3B040020020E14D010089DB0000706801009A
S21400D3C02DD90000F476010045DA00008C680100D3
S21400D3D0A8680100F0B5CE46474680B583B038232E
S21400D3E08F4AD35C8F4C23608F48904B98472368B6
S21400D3F0042B5BD009D9202B4AD0402B10D0102B01
S21400D4004DD08B488B4B984710E0012B55D0022B04
S21400D410F7D18948854B98470220884B984705E006
S21400D4208748824B98474020844B9847854B9847BF
S21400D430854B9847854B9847002853D00124844B4A
S21400D4401C7084487B4DA847FA208000824B984782
S21400D450824B9847824E3000824B98478248734BE7
S21400D46098473000A847814B1C70814B984700288E
S21400D47031D0804B984780486E4B98477F4B9847F3
S21400D480002821D07E4B1C707E486A4B98472CE0C3
S21400D4907D48664B98472020684B9847C6E77B48F0
S21400D4A0624B98471020654B9847BFE778485F4B1C
S21400D4B098470420614B9847B8E776485B4B9847F7
S21400D4C001205E4B9847B1E700226D4B1A707248F8
S21400D4D0584B984709E00022644B1A706F48554B2A
S21400D4E0984702E06E48534B98476E4B9847002883
S21400D4F03DD06D484F4CA0476C4B984701226C4B73
S21400D5001A706C48A0476C4B98475A4B98476B4B21
S21400D510984700282FD00022694B1A706948454B5F
S21400D5209847544B9847684B9847684B1860684B29
S21400D5309847684C684DF0239946A144674B984637
S21400D540674F684EC0473A687B680CC43268736899
S21400D5500CC54C45F6D1644C1025A561FA20400058
S21400D5603D4B98476561434E604D3B4C2DE060480F
S21400D570304B9847C7E70122514B1A705D482D4B38
S21400D5809847CEE75C482B4B984701225B4B1A70B6
S21400D5904D4B98475A4B186023E00022574B1A70A1
S21400D5A0494B9847564B186010224F4B5A61554BC3
S21400D5B098470020544B984717E0434B9847434BF7
S21400D5C01B68C01A514B984228D8B047A847504805
S21400D5D0A0473D4B98474A4B1B68C01A4D4B984294
S21400D5E0D0D8464B1B78002BD7D1374B98474A4BA1
S21400D5F01B68C01A494B9842DFD9494B984701909F
S21400D6000700314B9847444B1860002FD5DD102299
S21400D610354B5A610198434B9847CEE7424B9847A3
S21400D6200004004080020020DC6B01002DD90000C1
S21400D630686C010045DA0000486C010029DA000039
S21400D640FC6B0100B9C1000049C2000055C00000D3
S21400D6506C020020706C0100B5FE0000FDCA0000E0
S21400D66048020020E9C50000986C01007402002002
S21400D670B1BB0000C5E50000106B01008DBC0000CA
S21400D68075020020B46C01000C6C0100246C0100D3
S21400D690406C0100506C0100606B0100846B01005F
S21400D6A0A86B01005DB90000DC6C0100E1B9000068
S21400D6B058020020046D0100F9BD000079C9000081
S21400D6C0760200204C6D010011F400007802002064
S21400D6D0DDC40000A8030020B002002065D00000D2
S21400D6E0A0030020A80200200044004199D20000B8
S21400D6F0286D01006C6D0100886D01006D02002030
S21400D7007002002029CA0000EDBA0000005C260561
S21400D71010270000A0BB0D007C020020C0D4010032
S21400D7209DA1000055CE00000DCE000010B51300E0
S21400D7300A001900044B98470400044B98476042BF
S21400D7406041C0B210BDC046410801007D06010020
S21400D75030B583B00D0002226946064B9847040098
S21400D7606846054B9847287060426041C0B203B0D7
S21400D77030BDC046CD050100314F010010B5130085
S21400D7800A001900024B984743425841C0B210BDE8
S21400D790CD050100F0B5C64600B582B004002022D3
S21400D7A001AB1A800E1E10DD00250B4B98460B4F62
S21400D7B001A8C04782B201A92000B847002809D1B5
S21400D7C00134A4B20135B542F2DB012002B004BC3C
S21400D7D09046F0BD0020F9E70D5201004108010017
S21400D7E000B583B000236A461370012269464A706A
S21400D7F004216846817003714371C270014B9847DB
S21400D800FEE7C046C5E4000030B585B004000D0054
S21400D81016491748174B9847002D16D113494B79D0
S21400D820CA88087803904878029088780190097929
S21400D830009111492000114DA8471148114B9847F7
S21400D8402000114B984705B030BD08494B79CA886F
S21400D85008780390487802908878019009790091BA
S21400D8600A492000054DA847E7E7C046480A0020B9
S21400D870280A0020D9DD00001C790100895101002A
S21400D8803C7901002DD9000045DA0000007901003E
S21400D89030B58DB08023DB05009300230193FF2273
S21400D8A069460A818B72CB729622920104920122FB
S21400D8B00A754A758B75CB7506930B774B77802365
S21400D8C05B030393124B0893124B099301235B42AD
S21400D8D00A930B93104D114C6A4611492800A04735
S21400D8E00028F9D10C4D2C6820000E4B98471F23BA
S21400D8F018401E3B83400C4A13602A68138A1BB2EA
S21400D900002BFBDB23680222134323600DB030BDDF
S21400D9100200080002000900E40B00206DDF000092
S21400D92000080042DDFD000000E100E010B5040044
S21400D930034B984782B221000248034B984710BD1C
S21400D9400D520100E40B002049E2000010B584B03F
S21400D9500400102200216846054B98470A226946B3
S21400D9602000044B98476846034B984704B010BD08
S21400D97003500100C14F01002DD9000010B584B03E
S21400D9800400102200216846054B984722000549EE
S21400D9906846054B98476846044B984704B010BD48
S21400D9A0035001001C680100895101002DD90000B8
S21400D9B010B5102910D0142909D00A2902D0094B15
S21400D9C0984710BD022AFCD8074B9847F9E7022A69
S21400D9D0F7D8044B9847F4E7022AF2D8034B984747
S21400D9E0EFE7C0462DD900004DD900007DD90000D4
S21400D9F070B51500034CA0472A0014210248A04722
S21400DA0070BDC046B1D900000C76010010B5034BBE
S21400DA1098470348034B984710BDC0467DD9000081
S21400DA200C7601002DD9000010B5034B984703482B
S21400DA30034B984710BDC0464DD900000C76010038
S21400DA402DD9000010B5024CA0470248A04710BDD3
S21400DA502DD900000C76010010B50400074B98473E
S21400DA600138002808D00023E25C215CE1542254EF
S21400DA70013301388342F7D310BDC0460D52010072
S21400DA80F0B5D6464F4680B583B0050001910C0030
S21400DA9001277F1A0D4B9A460D4B99463E190A21CF
S21400DAA02800D047303121700A212800C8470500D9
S21400DAB001340028F2D10023019A93551000054B3B
S21400DAC0984703B00CBC91469A46F0BDBD290100AC
S21400DAD0B128010059DA000010B50139002908DD27
S21400DAE00023C25C445CC4544254013301398B4267
S21400DAF0F7DB10BDF8B5DE4657464E464546E0B560
S21400DB00051E894692462CD00E0001277F1A164B1A
S21400DB109B46164B9846BC190A212800D847303138
S21400DB2031700A212800C047050001360028F2D1CE
S21400DB30544508DA4C444A46524430232370013494
S21400DB409442FBD1544621004846094B984700238F
S21400DB504A46135520003CBC90469946A246AB4622
S21400DB60F8BD0400E4E7C046912B0100C52901007A
S21400DB70D9DA000010B50400012903D00139FFF7F7
S21400DB80F9FF604310BD0000F0B585B002900D00AF
S21400DB901400144B9847019000222900124B984716
S21400DBA00600002C01D105B0F0BD2E232B54210019
S21400DBB00A200E4B984703900D4F0198B847011C5A
S21400DBC002980C4B98470190731CED180398B847C1
S21400DBD00199094B9847034B984722002900024BAE
S21400DBE09847E0E7E5310100F5DA000075DB000054
S21400DBF025320100AD2E01006D2C010070B500220B
S21400DC00104B1A70002310491F25104E0D4C0AE0C9
S21400DC100D4908E023780133DBB223700F2B10D8B0
S21400DC2000211F2BF4D928001840012282400869E1
S21400DC301042EFD00A619B009B59002BEAD0984710
S21400DC40E8E770BD080C0020001800400C0C00200F
S21400DC50044A137802210B43137053785BB2002BEF
S21400DC60FBDB70470018004000B583B0124A93698A
S21400DC7040210B43936101A900230B7003200F4B37
S21400DC80984703200E4B98470E4A137801210B4302
S21400DC90137053785BB2002BFBDB0B4B1900403143
S21400DCA0002204C39942FCD11022084B1A60084B8C
S21400DCB0984703B000BDC04600040040810F010035
S21400DCC0F50E0100001800400C0C002000E100E0FA
S21400DCD051DC000001680822054B1A600268937A3E
S21400DCE05BB2002BFBDB0B88022213430B807047D2
S21400DCF000E100E010B50268082480230749CC50F4
S21400DD0001688B7A5BB2002BFBDBC1239371137225
S21400DD10138802218B43138010BDC04600E100E04B
S21400DD2070B504000568074B98470023238263827A
S21400DD302268937A5BB2002BFBDB2B88012213430D
S21400DD402B8070BDF5DC000010B5CB88C2889A1A0F
S21400DD5092064B799B050C79640423438C78240344
S21400DD60234313430279002A05D1CA78002A02D039
S21400DD70802252021343487880010A7810431843E1
S21400DD8010BD10B58B0EC4881B19D3808B011B0FDA
S21400DD9053718B02DB0E13710379002B0CD10B042D
S21400DDA01B0F9370CB03DB0FD37088093F231840FB
S21400DDB050701940117010BDCB03DB0E9370F4E762
S21400DDC010B50468034B9847A37A5BB2002BFBDBC5
S21400DDD0206110BD49DD000010B50A0003684179D6
S21400DDE0002906D0598849040BD519690A4B98476B
S21400DDF010BD0A4959800468A17A49B20029FBDBA4
S21400DE00F3E75988C0242402214359800468A17A84
S21400DE1049B20029FBDBE8E783DD00000080FFFF56
S21400DE2070B50D0014001723012A01D9180070BD23
S21400DE300668064B9847B37A5BB2002BFBDBE40020
S21400DE403419A0612B7A23770023EFE749DD000021
S21400DE5030B583B00500140001601C4A9369202188
S21400DE600B43936101A902230B700220184B9847BD
S21400DE700220184B98472800174B984723792B7198
S21400DE80E3786B71E388EB80144B1D602A68238867
S21400DE902179002917D008210B43A178002901D049
S21400DEA080210B431380E378002B04D05388802115
S21400DEB0C9010B4353802100083100222800084B7B
S21400DEC0984703B030BD48210B43E6E70004004006
S21400DED0810F0100F50E010021DD00004C0C002032
S21400DEE021DE0000012A01D917207047931C9B00F1
S21400DEF01950038A012191400B439BB203820020F4
S21400DF00F3E710B5046801290BD001228A400123EB
S21400DF101340E371438A01228A4013439BB2438233
S21400DF2010BD8023E371F5E710B50F4B1A6814682F
S21400DF30518A138A1940207AE379034058B20028A0
S21400DF4006DBDB0703D5CB070AD40123237210BDFB
S21400DF508B0702D480232372F9E7D3689847F9E742
S21400DF6093689847F1E7C0464C0C0020F0B5DE46B3
S21400DF7057464E464546E0B58DB005000C001600E7
S21400DF8029600800804B9847020023680520DB07BD
S21400DF9006D50DB03CBC90469946A246AB46F0BDB1
S21400DFA0236817309B07F4D47849086A971C012326
S21400DFB0BB4003430B620BA9737F0B700D32D7B2C5
S21400DFC03800734B98473800724B9847707F002193
S21400DFD0714B9847F37A6B71337DAB71737DEB7140
S21400DFE02B6898461800684B98470D3000220E2381
S21400DFF002A98C4663441A8033680393F3689A46F2
S21400E000B37D9B4673689946002B14D080235B052E
S21400E010994530D1F37D002B31D133691F00C0B252
S21400E0205E4B984701000E2202AB9C4662443800C5
S21400E0305B4B984720E0F37D002B0BD0102300931A
S21400E04000230E2202A98C466244B1693069554FFE
S21400E050B84711E033691F00C0B2504B9847010023
S21400E0601023009300230E2202A884466244380040
S21400E0704C4FB84700E00020002800D089E72A6807
S21400E080039F138A1BB2002BFBDB0E2302AA9446C7
S21400E09063441B884246538153461F434B461F43E7
S21400E0A05B465B071F43F37D002B01D104331F4300
S21400E0B0317D4904737D1B040B43B17AF27A114318
S21400E0C019433389FF2B03D0802252041743194388
S21400E0D0337F002B03D1344B9B789B0701D58023DD
S21400E0E01F432A68138A1BB2002BFBDB434659608A
S21400E0F02A68138A1BB2002BFBDB43461F600AAB61
S21400E10080221A7000225A70DA709A70336A069368
S21400E110736A0793B36A0893F36A03930993002715
S21400E12006AE06E02000214B984707E00137042F93
S21400E1300DD0F9B2BB0098590028F3D0431CF5D097
S21400E1400AA90870000CC0B2194B9847EEE70023E6
S21400E150AB60EB602B61AB616B610022EB83AB8342
S21400E1602033EA540133EA540133EA540133EA54C3
S21400E1702868054B984704000E490F4B9847A400A3
S21400E1800E4BE550002004E7DDE8000000040040E8
S21400E190810F0100F50E010095E70000CD0F01008C
S21400E1A0D7E6000001E7000000200041E1E700009C
S21400E1B0A910010059E300009DFD0000540C00204A
S21400E1C0C2791C23002A01D118007047C28B92B274
S21400E1D0173B002AF8D10268138A1BB2002BFBDB20
S21400E1E011830221937B0B42FCD00023ECE782795B
S21400E1F01C23002A01D118007047828B92B2173B6D
S21400E200002AF8D10268917B4907F4D5138A1BB21D
S21400E210002BFBDB118AC9B200234807EBD08B0723
S21400E22003D5022313821833E5E74B0703D50423EF
S21400E23013821A33DFE7CB0703D501231382123389
S21400E240D9E70023D7E70000F0B5CE46474680B5AD
S21400E25083B0050001911720002A04D103B00CBC3E
S21400E26090469946F0BDEB790530002BF6D02C6829
S21400E270238A1BB2002BFBDB013A93B29946002699
S21400E2800127204B984611E0731C9BB2019A915DC2
S21400E2906A79012A17D089B21E0028001A4B9847BF
S21400E2A04B46013B9BB29946434513D0A37B3B426A
S21400E2B0EAD1144BA27B3A42E6D1012B19D0013B9E
S21400E2C0002BF7D1E0E70236B6B2019AD35C1B0208
S21400E2D01943E2E7A37B9B070DD40A4B0221A27BDE
S21400E2E00A420AD1012B0AD0013B002BF7D10020AD
S21400E2F0B4E71220B2E70020B0E70020AEE7122015
S21400E300ACE7C046FFFF0000C1E10000F8B506001C
S21400E3100C00150007680A4B9847B38B9BB2002B7E
S21400E32003D0084B98470520F8BDB583054B9847A2
S21400E330746105222223F2541E3B7B730020F3E710
S21400E340210901006109010010B50122014B98471F
S21400E35010BDC0460DE30000F8B58000464BC5581A
S21400E3602C68238A1BB2002BFBDBA37B667B1E403C
S21400E3702023EB5C2122AF5C1F40F30722D5EB8BFA
S21400E3809BB2002B1CD0AA691378DBB2511CA96182
S21400E390697901290ED09BB2DB05DB0D2383EB8B5D
S21400E3A0013B9BB2EB83002B0CD10133237301336B
S21400E3B0637307E0517809020B430232AA61EBE768
S21400E3C001232373B30706D50223237300222133C8
S21400E3D0EA54FB0716D473074DD5AB8B9BB2002BC4
S21400E3E047D0238ADBB25A0720D09A070ED51A22C6
S21400E3F02223EA54203B23827B073CD52B69280046
S21400E400984738E02800AB689847E4E75A0705D5F0
S21400E4101E222223EA541E3B2382EDE7DB07EBD5C0
S21400E42013222223EA54213B2382E5E7238BDB05D4
S21400E430DB0DDAB269690A706A69511C696169792B
S21400E440012910D0AB8B013B9BB2AB83002B12D1C2
S21400E4500433237300221E33EA54BB070BD5EB6844
S21400E4602800984707E01B0A53706B6901336B61FD
S21400E470E8E704232373F8BD540C002010B504000D
S21400E480044B98472000044B98470400034B9847DA
S21400E490200010BDE1F30000C94F01003DF500006B
S21400E4A010B5041E06D0044B98472000034B98472F
S21400E4B0034B984710BDC046E1F30000DD4F010056
S21400E4C03DF5000010B582B00400394A936910216A
S21400E4D00B439361374B1B785BB21020002B03DB9A
S21400E4E0E3780730002B01D102B010BD22799A42A2
S21400E4F0FAD862799A42F7D82E4A13780E398B43A7
S21400E5001370D3795BB2002BFBDB63780020002B03
S21400E510EAD001A9A3780B700130274B9847012059
S21400E520264B98472378002B27D1E378013B2279A6
S21400E530002A26D01F490A78042002430A7022794E
S21400E540013A824013431B49CA7952B2002AFBDBC8
S21400E550DBB2184A53706379002B18D12378002B4E
S21400E5601FD0144A137880210B431370114AD379B5
S21400E5705BB2002BFBDB0020B6E70120104B984770
S21400E580D3E70C490A78042082430A70DBE71100BF
S21400E590CA7952B2002AFBDB013BDBB2054A937014
S21400E5A0DCE7044A137802210B431370DEE7C0460B
S21400E5B00004004000100040810F0100F50E01002D
S21400E5C09D0F0100A522044B1A721A00D3795BB284
S21400E5D0002BFBDB7047C0460010004010B5012240
S21400E5E0034B9A71034B1B68002B00D0984710BD55
S21400E5F000100040500C002000B583B001AB802214
S21400E6001A700A785A704A789A708A78DA701900FE
S21400E610014B984703B000BDA9100100F0B5DE46D7
S21400E62057464E464546E0B587B0804604911600EC
S21400E6301F000022002300218B463F2401202100DA
S21400E640009601975C4603944446059413E0202404
S21400E650641A0500E540A84614E0009C019D121BC4
S21400E660AB415C464D462C43A346039C45462C4393
S21400E6700394013925D3202464420C19E7D40500FD
S21400E680A540A84604008C40A14692185B411400A1
S21400E6901D00059E4F463E40B446049E47463E40FB
S21400E6A0B246664657463E4303D00600264332002F
S21400E6B02B00009C019D9D42DBD8CED19442D8D839
S21400E6C0CBE7039B5846190007B03CBC90469946DA
S21400E6D0A246AB46F0BD10B549084023002481424F
S21400E6E002D2180010BD1C00091A631C9BB2884297
S21400E6F0F9D94023FF2CF4D814800023F1E700005A
S21400E700F0B583B00F00160008AA117804004C4339
S21400E7104022BC4202D9100003B0F0BD002B14D139
S21400E720020008000021194CA04701003A0000230F
S21400E7300020174CA04700220123121A8B41120C0E
S21400E7401B041A4332800022E5E70022012BF9D190
S21400E7500A00002300210D4CA04702000B00009287
S21400E7600193380000210A4CA047050080239B0136
S21400E77040229842CFD8790FF800009A019BA04714
S21400E780EA00821AD2B252032A43DBE7192C0100B0
S21400E7901DE6000010B582B004000E4B1B78002B5F
S21400E7A007D0002905D10B4B5B78834210D01D2083
S21400E7B00CE001A90C700C20074B98470C20074B67
S21400E7C09847044B5C7001221A70002002B010BDFE
S21400E7D00020FBE798040020810F0100F50E0100E1
S21400E7E02B4B984223D00FD92A4B98422FD02A4B36
S21400E7F0984242D101293AD0002946D0022938D081
S21400E800032938D0002039E0244B984235D101291D
S21400E81007D0002933D0022905D0032905D00020CF
S21400E8202CE01F482AE01F4828E01F4826E0012960
S21400E83007D0002925D0022905D0032905D00020BD
S21400E8401CE01A481AE01A4818E01A4816E001298F
S21400E85007D0002917D0022905D0032905D00020AB
S21400E8600CE015480AE0154808E0154806E015488B
S21400E87004E0154802E0154800E000207047144800
S21400E880FCE70320FAE71348F8E71348F6E7C04624
S21400E890000C004200100042001400420008004233
S21400E8A00300050003000600030007000300010044
S21400E8B003001E0003001F000300090003000A00F7
S21400E8C003000B00030011000300120003001300F6
S21400E8D003000400030008000300100030B585B0F4
S21400E8E06A460F4B32CB32C21B6813600300009A95
S21400E8F0824211D0019A82420AD0029A824209D0FC
S21400E9000020039A9A4201D005B030BD033004E0DF
S21400E910012002E0022000E00020C0B2F4E7C0467A
S21400E92048790100064A13681868203080F3098881
S21400E930022080F314883FBCAE4662B600BDC046D7
S21400E9409C04002010B5031F802464041C60043B54
S21400E9501960183B1A60403810BD0000084B196853
S21400E96008681030F0C8A046A946B246BB4680F3F9
S21400E97009882038F0C871460D2001430847C04674
S21400E9809C04002080225205034B1A60BFF34F8F71
S21400E990BFF36F8F7047C04604ED00E072B6044ABE
S21400E9A0136801331360BFF34F8FBFF36F8F704749
S21400E9B004000020034A1368013B1360002B00D1BB
S21400E9C062B6704704000020EFF309800E4B1A6809
S21400E9D020381060F0C044464D4656465F46F0C0AC
S21400E9E008B572B600F06CFE62B60CBC116808681A
S21400E9F01030F0C8A046A946B246BB4680F3098848
S21400EA002038F0C81847C0469C04002010B5802265
S21400EA105205034B1A6072B6024B984762B610BD99
S21400EA2004ED00E021F400000022044B1A60044AC2
S21400EA30044B1A600722044B1A60704718E000E087
S21400EA403F1F000014E000E010E000E010B50A4BA5
S21400EA501968FF2212040A431A601968FF22120678
S21400EA600A431A60054B98470022054B1A60054B6F
S21400EA709847002010BDC04620ED00E029EA0000BF
S21400EA800400002025E9000003000833436001224B
S21400EA9052428260C3600361002303607047002314
S21400EAA00361704743685A684A6042688A605A68D9
S21400EAB091605960416008610368013303607047E4
S21400EAC010B50C68631C14D003000833C2681268C3
S21400EAD0944204D35B685A6812689442FAD25A6821
S21400EAE04A6091608B605960086103680133036077
S21400EAF010BD0369F3E7436882689A6083684268DA
S21400EB005A6003695A68904206D0002202611A6869
S21400EB10013A1A601868704782685A60F5E7000084
S21400EB2010B504001300026C002A0BD10368002BFA
S21400EB3004D14068134B984700236360A36B0133EE
S21400EB40A36310BD002B0DD180680F4B9847A368B8
S21400EB50226C94466344A36062689342EED32368B3
S21400EB60A360EBE7C068084B9847236C5B42E268FB
S21400EB70D218E26021688A42E0D262689446634412
S21400EB80E360DBE7C9F90000F14F010010B582B081
S21400EB9001900A00C46C002C05D0A16BE36B99426F
S21400EBA003D372B6FEE772B6FEE7A16B00208B4277
S21400EBB001D802B010BD01A92000064B9847636A31
S21400EBC00020002BF5D020002430034B9847431E2E
S21400EBD09841EEE721EB000001F8000070B50C004C
S21400EBE0016800290BD0026CC3689B18C360456897
S21400EBF0AB4200D3C160C1682000014B984770BD8E
S21400EC00F14F0100F8B50400254B9847A36C002B84
S21400EC101EDD244D244E0DE0636A002B18D0200024
S21400EC202430B047002810D1A36C013BA364A36C2A
S21400EC30002B0DDDE36C002BEED000212000A84752
S21400EC400128F1D1194B9847EEE7184B9847EBE7A8
S21400EC5001235B42A364164B9847114B9847636C9D
S21400EC60002B16DD2369002B13D0250010350E4F20
S21400EC700E4E08E0636C013B6364636C002B08DD9A
S21400EC802369002B05D02800B8470028F2D0B047EB
S21400EC90F0E701235B426364054B9847F8BDC04626
S21400ECA09DE900008DEB000001F8000015F900005A
S21400ECB0B5E9000070B504000D00002820D0174B01
S21400ECC098472268216CE36B4B43D01860600020A5
S21400ECD0A063A2605B1AD318E36001235B426364FF
S21400ECE0A364002D11D12369002B05D0200010301D
S21400ECF00B4B9847012805D00A4B9847012070BD5A
S21400ED0072B6FEE7084B9847F6E720001030074D2E
S21400ED10A84720002430A847EEE7C0469DE900003B
S21400ED2001F80000B5E9000085E9000089EA000066
S21400ED3070B505000E00002819D050200D4B9847DE
S21400ED40041E14D03000684301300A4B98472060F8
S21400ED50002809D0E563266401212000064B984769
S21400ED600023E364200070BD2000044B984772B671
S21400ED70FEE7C0467DE40000B5EC0000A1E400001C
S21400ED80F0B5CE4600B584B004000F0001920093A3
S21400ED90002804D00025002903D0404E40E072B67B
S21400EDA0FEE7036C002B01D072B6FEE70025F4E701
S21400EDB0009D2A0039002000394B9847E36C002B51
S21400EDC00ED029002000374B9847012801D1364B3A
S21400EDD09847364B9847012004B004BC9146F0BDD6
S21400EDE0636A002BF5D020002430314B9847012869
S21400EDF0EFD12D4B9847ECE72C4B98470020EBE7DC
S21400EE0002A82C4B984715E0002363641BE0002300
S21400EE10A3641BE02000284B9847284B9847012501
S21400EE20B047A36BE26B9342C2D3019B002BE3D0A7
S21400EE30002DE5D01D4B9847214B9847174B984718
S21400EE40636C0133E0D0A36C0133E0D0174B9847D6
S21400EE5001A902A81B4B9847002817D10F4B9847CB
S21400EE60A36B9946E56B114B9847A945D2D1200074
S21400EE7010300199144B984720000F4B98470F4BC2
S21400EE8098470028CBD1084B9847C8E720000A4B84
S21400EE9098470A4B984700209EE7C0469DE9000029
S21400EEA021EB00008DEB000085E90000B5E90000CD
S21400EEB001F800007DF8000005EC00003DF50000BC
S21400EEC0E1F300009DF8000069F7000070B504004B
S21400EED015001E00002809D0002909D072B6A36BC1
S21400EEE00020E26B934208D362B670BD72B6FEE7AE
S21400EEF0036C002BF2D072B6FEE732002000164BF1
S21400EF009847A36C01331ED1E36C002B0AD0310066
S21400EF102000124B984701281AD1002DE4D0012377
S21400EF202B60E1E7636A0120002BDDD0200024304F
S21400EF300B4B984703000120002BD5D0002D09D09D
S21400EF4001232B60D0E7A36C0133A3640120CBE739
S21400EF500120C9E70120C7E721EB00008DEB000088
S21400EF6001F80000F0B5C64600B584B004000E00F7
S21400EF7001921F00002805D00025002904D04A4B26
S21400EF80984653E072B6FEE7036C002B01D072B6CB
S21400EF90FEE70025F3E7E56831002000434B98477D
S21400EFA0002F1AD1A36B013BA3632368002B02D169
S21400EFB03F4B984760602369002B07D02000103035
S21400EFC03C4B9847012801D13B4B98473B4B984711
S21400EFD0012004B004BC9046F0BDE560636A002BD7
S21400EFE0F4D020002430334B98470028EED0324B24
S21400EFF09847EBE7314B98470020EAE702A8304BEA
S21400F00098471CE00023636422E00023A36422E008
S21400F010254B984760682B4B9847284B98472CE021
S21400F0202000294B9847294B98470125C047A36BDA
S21400F030002BB0D1019B002BDCD0002DDED01F4B67
S21400F0409847234B9847184B9847636C0133D9D0A1
S21400F050A36C0133D9D0194B984701A902A81D4BC0
S21400F0609847002818D1104B9847A56B134B984724
S21400F070002DD5D12368002BCAD02000243001995A
S21400F080154B98472000104B9847104B9847002880
S21400F090CBD1094B9847C8E720000B4B98470B4B42
S21400F0A09847002095E7C0469DE90000DDEB00008C
S21400F0B021F9000001F8000085E90000B5E900002C
S21400F0C07DF800004DF9000005EC00003DF500005D
S21400F0D0E1F300009DF8000069F7000070B5040039
S21400F0E00D000E4B9847636C01330BD0A36C0133B5
S21400F0F00BD00B4B9847A36B002B09D02000094B75
S21400F100984770BD00236364F0E70023A364F0E72C
S21400F110200024302900044B9847EFE79DE90000C3
S21400F120B5E9000005EC0000C1F7000010B50400CA
S21400F1300E4B1B6858600E4B1B6898420DD30D4B48
S21400F14018680A4B196804310B4B98470B4B1B6821
S21400F1509C4209D2094B1C6006E0094B1868034B19
S21400F16019680431044B984710BDC0469C04002023
S21400F17098050020A0040020C1EA00000800002036
S21400F180A4040020F0B5D6464F4680B583B00500EF
S21400F1900091160001930A9B99460C9F002803D005
S21400F1A0042B03D972B6FEE772B6FEE740205A4B30
S21400F1B09847041E0CD0002F00D078E0B000564BC5
S21400F1C09847071E206300D072E02000534B9847F4
S21400F1D0012040425AE00B9B002B00D01C60504B95
S21400F1E09847504A1368013313604F4B1B68002B37
S21400F1F051D14D4B1C601368012B1FD14B4E300074
S21400F2004B4DA84730001430A84730002830A84798
S21400F21030003C30A84730005030A847454F3800F3
S21400F220A847454E3000A8474448A8474448A84742
S21400F2304448A847444B1F60444B1E60E36A444A58
S21400F2401268934201D9424A136042490A68013261
S21400F2500A60414A1268934201D93F4A13609A00F5
S21400F260D3189B003148C01800993C4B98473C4B3C
S21400F27098473C4B1B680120002B07D02A4B1B6885
S21400F280DB6A994502D9384B9847012003B00CBC7D
S21400F29091469A46F0BD334B1B68002BCED1224BCD
S21400F2A01B68DB6A9945C9D31F4B1C60C6E707631A
S21400F2B0B200A52138002D4B98472D4BF3189B0024
S21400F2C0226B944663440726B3439A4620003430A4
S21400F2D008220099274B984700223B23E2544B46CE
S21400F2E0E362E363231D00931800234FB847200012
S21400F2F01830B847246105234A469B1AA361646206
S21400F300019A290050461D4B98472060304200D194
S21400F31061E772B6FEE7C0467DE40000A1E40000A7
S21400F3209DE900000C0500209C040020A804002095
S21400F33089EA0000280500203C050020580500202A
S21400F3408405002070050020A0040020A4040020EE
S21400F350240500201805002020050020A5EA00004E
S21400F360B5E900006C05002085E9000003500100A7
S21400F370FFFFFF3F1B5201009FEA000045E9000027
S21400F38010B584B000230393029301930093642284
S21400F3900C490D480D4CA047012803D000280ED17B
S21400F3A072B6FEE70A4B98470128F7D172B60122DB
S21400F3B0084B1A600022084B1A60084B984704B0A6
S21400F3C010BDC0465879010031F6000085F10000F6
S21400F3D0C1FA00006C050020980500204DEA0000E8
S21400F3E0024A1368013313607047C04614050020B4
S21400F3F010B5044B9847044B1C68044B98472000F4
S21400F40010BDC0469DE9000098050020B5E9000043
S21400F41072B6024B186862B67047C0469805002060
S21400F420F8B53B4B1B68002B6DD13A4B1A6801327E
S21400F4301A601B68002B18D1374B1B681B68002B03
S21400F44001D072B6FEE7344B1968344A106818606B
S21400F450116033490A6801320A601B681B68002B7A
S21400F4601AD1012252422F4B1A602A4B1A682D4B92
S21400F4701B689A424BD3284B1B681B68002B13D083
S21400F480254B1B68DB68DC686368224A1268934277
S21400F4900FD8254F254E25E01F4B1B68DB68DB6821
S21400F4A05A68204B1A60E0E7012252421D4B1A6050
S21400F4B02DE01C4A13602AE09800C01880001C4B00
S21400F4C0181829001B4B9847134B1B681B68002B0A
S21400F4D0EAD0114B1B68DB68DC6863680D4A12686B
S21400F4E09342E6D8251D2800B847A36A002B03D010
S21400F4F0200018300C4B9847E36A32689342DBD9F9
S21400F5000A4A1360D8E70C4A136801331360F8BD43
S21400F5101405002098050020A0040020A404002064
S21400F5205405002008000020F7EA0000200500200F
S21400F530A8040020A5EA000010050020F8B52E4B10
S21400F5401B68002B01D172B6FEE72C4B98472A4B5E
S21400F5501A68013A1A601B680024002B03D1284B56
S21400F5601B68002B03D1274B98472000F8BD264D7B
S21400F5702B68002B21D0244BDB68DF68380018305E
S21400F580224B98473E1D3000204B9847FB6A204A86
S21400F5901268934201D91E4A13609800C018800072
S21400F5A01C4B181831001C4B98471C4B1B68FA6AFA
S21400F5B0DB6A9A42DCD30124DAE7194B1B68002B7E
S21400F5C013D0174B1B68002B08D0164D144CA847B9
S21400F5D02368013B23602368002BF8D10022124BDE
S21400F5E01A60124B98470124BDE7012CF6D00E4B4B
S21400F5F01B68012BB7D1F1E7140500209DE9000038
S21400F6000C050020B5E9000058050020F7EA0000C8
S21400F61020050020A8040020A5EA00009C04002085
S21400F6201005002021F400005005002085E90000A8
S21400F630F8B5CE46474680B5164B9846164F174E39
S21400F64026E0174B1B68012B20D82B68002BF8D020
S21400F650C0473C68B047002CF7D0124B98470E4B7B
S21400F660DB68DC68201D104B9847104A1368013B86
S21400F67013600F4A1368013B13600E4B9847206BCC
S21400F6800D4B994698472000C847DEE70B4B984736
S21400F690074DDAE7E1F30000840500203DF50000A1
S21400F6A0A80400209DE90000F7EA00000C050020F1
S21400F6B01C050020B5E90000A1E4000085E9000073
S21400F6C010B5244B1B68002B1ED1234B1A689300E1
S21400F6D09B189B00214A9B58002B19D11E4B1B6878
S21400F6E0002B0FD01C4A1D4C10001368013B136002
S21400F6F011688B005B189B001B59002B08D1036810
S21400F700002BF2D172B6FEE70122154B1A6010BD2F
S21400F710114B1A68114893009918890041184C68D3
S21400F72064684C609B189B000833C3189C4209D041
S21400F73093009A189200094B9A185368DA68094B96
S21400F7401A60E4E7606893009B189B000349CB1897
S21400F7505860EDE71405002020050020A8040020CE
S21400F760500500209C04002070B50C00002810D026
S21400F7700C4D296818310C4B9847286804300B4B01
S21400F7809847631C07D00A4B18682018094B9847FF
S21400F79070BD72B6FEE7034B196804310648074B86
S21400F7A09847F5E79C040020C1EA0000F7EA00004D
S21400F7B0980500202DF1000070050020A5EA000045
S21400F7C070B50D00002801D172B6FEE7074C21681F
S21400F7D01831074B984720680430064B9847064B6D
S21400F7E018684019054B984770BDC0469C04002019
S21400F7F0A5EA0000F7EA0000980500202DF10000B9
S21400F80070B5C368DC68002C23D0250018352800A6
S21400F810134B9847134B1B68002B1CD1251D280043
S21400F8200F4B9847E36A104A1268934201D90E4A72
S21400F83013609800C01880000C4B181829000C4B59
S21400F84098470C4B1B68E26ADB6A00209A424041EC
S21400F85070BD72B6FEE729000748054B9847F0E7EB
S21400F860F7EA00001405002020050020A804002068
S21400F870A5EA00009C04002058050020002806D0B9
S21400F880044B1B680360044B1B684360704772B6EA
S21400F890FEE7C046540500209805002070B5040019
S21400F8A00E0000281CD000291CD0154B9847336842
S21400F8B05A1C22D0134A12682168914205D0124A77
S21400F8C0126801256168914206D90F4A116860687E
S21400F8D0091A01258B4207D80C4B9847280070BDA3
S21400F8E072B6FEE772B6FEE71268121A9B1A33600B
S21400F8F02000074B98470025EEE70025ECE7C046BA
S21400F9009DE900005405002098050020B5E9000098
S21400F9107DF800000122014B1A6070475005002058
S21400F920014B18687047C0469C040020054B1B68B6
S21400F9300020002B04D0044B1868431E9841013069
S21400F9407047C0466C0500201405002070B5041EE4
S21400F95017D0C26A174B1B68DB6A9A4211D2154B46
S21400F9601B68D96A05235B1A836193009B189B006A
S21400F970114AD31842699A4204D00E4B1B68DB6AC0
S21400F980C36270BD051D28000C4B9847094B1B68C9
S21400F990DB6AE3620A4A1268934201D9084A136096
S21400F9A09800C0188000044B18182900054B98478B
S21400F9B0E7E7C0469C040020A8040020F7EA000001
S21400F9C020050020A5EA000070B5041E1AD0C36A00
S21400F9D0C26B934216D0051D28000B4B9847E06B70
S21400F9E0E06205231B1AA361084B1B68984201D9E5
S21400F9F0064B1860830018188000054B181829005D
S21400FA00044B984770BDC046F7EA0000200500206A
S21400FA10A8040020A5EA000010B5416000619142EC
S21400FA200BD8D21A012483699A4211D2011D094BC0
S21400FA301868094B984700240AE09A4202D201242B
S21400FA40994205D2011D054B1868034B98470024C0
S21400FA50200010BDA0050020C1EA00009C05002083
S21400FA6070B50E4B98470E4B1B68002B02D00D4B03
S21400FA70984770BD0C4D28000C4EB0470C4C20002B
S21400FA80B0470C4B1D600C4B1C6000220C21022062
S21400FA900A4B9847024B1860E9E7C0469DE900000C
S21400FAA0D0050020B5E90000A405002089EA000082
S21400FAB0B80500209C050020A005002031ED0000C0
S21400FAC010B584B00B4B98470B4B1B68002B0FD020
S21400FAD000230393029301930233009300235022E2
S21400FAE006490748074CA047002801D004B010BDBF
S21400FAF072B6FEE761FA0000D005002060790100CA
S21400FB0029FC000085F1000030B585B01D00134BC0
S21400FB101C68002C20D0019102920390002D07D083
S21400FB2000232A0001A920000D4CA04705B030BDD7
S21400FB300C4B9847012807D0084B18680023002272
S21400FB4001A9094CA047F1E7044B18680023089A5E
S21400FB5001A9054CA047E9E70020E7E7D00500200B
S21400FB60CDEE00002DF9000081ED0000F0B5D64680
S21400FB704F464646C0B582B08146244B98478046DD
S21400FB80234B1B68984217D300234A461360204B2A
S21400FB9042461A60404602B01CBC90469946A246B1
S21400FBA0F0BD00230093524600212000194CA047C8
S21400FBB0002803D172B6FEE7174E184F33681A684E
S21400FBC0002A19D0DA6812689246DB68DC68251DC0
S21400FBD02800B8472000636A9847E369012BEDD1F7
S21400FBE0A36953449A45DCD2636024610A4B1868C3
S21400FBF029000B4B9847E1E70A4A07491068086056
S21400FC00136001234A461360C1E7C046F1F30000C3
S21400FC10CC05002009FB00009C050020F7EA000048
S21400FC20C1EA0000A0050020F0B587B04E4F4F4B4C
S21400FC301B681A68002A00D187E0DB681C684C4BFA
S21400FC40984703A84B4B98470500039B002B00D012
S21400FC5086E0A0420CD2611B474B1868474B98477A
S21400FC60474B9847002801D1464B9847424E33E011
S21400FC70434B98473D4B1B68DB68DE68301D3A4BAC
S21400FC809847F369012B13D1B369E11823002A00C2
S21400FC9030003D4DA84701280AD1002300932200DA
S21400FCA000213000394CA047002801D172B6FEE78B
S21400FCB0736A30009847D9E70499A161002906D0F5
S21400FCC041180300020020002F4CA04704E072B643
S21400FCD0FEE720002E4B98472E4D0023002203A956
S21400FCE03068A8470028A2D0059C6369002B01D085
S21400FCF0201DB84702A81F4B9847039B022BDBD05A
S21400FD00032BE6D0002BE8D1049BA26994466344FB
S21400FD101900049B020020001B4DA8470128DBD1D8
S21400FD202000636A9847E369012BD5D1049BA1693B
S21400FD308C4663441A000023009300212000134CD5
S21400FD40A0470028C8D172B6FEE7094B984703A81B
S21400FD50084B984705000024039B002B00D17AE748
S21400FD60074B984782E7C046F7EA00009C0500204C
S21400FD70E1F300006DFB0000D0050020DDF0000080
S21400FD803DF5000085E9000019FA000009FB0000B7
S21400FD90A1E4000065EF00007047000030B50B4B93
S21400FDA01B78002B0ED10A4C0A4D25600A4B002208
S21400FDB01A6065605A60A5609A60E560DA60013294
S21400FDC0024B1A708000024BC15030BDD405002093
S21400FDD0D805002099FD0000540C002010B582B014
S21400FDE001AC07232370013363700133A370013322
S21400FDF0E370024B9847205602B010BDDDE80000C5
S21400FE0010B5024B1B680020984710BDD80500208F
S21400FE1010B5024B5B680120984710BDD80500203E
S21400FE2010B5024B9B680220984710BDD8050020ED
S21400FE3010B5024BDB680320984710BDD80500209C
S21400FE4010B51B4B5B6B9B0704D5194A536B0224FA
S21400FE50A34353634A880B880C79234313438024B7
S21400FE606400A2420DD08A79002A01D004221343EE
S21400FE70CA79002A01D040221343002805D0172053
S21400FE8010BD802292001343EDE74A7917303F2ACF
S21400FE90F6D81204FC2189030A401343044A53632C
S21400FEA0110080221201CB681342FCD00020E7E745
S21400FEB00008004030B5084B1C68084A0025802121
S21400FEC04902013807D3002CFBD0546095601368B4
S21400FED00B42FCD0F5E730BD0C00002010E000E03F
S21400FEE010B51E4AD36904210B43D3611C4B202254
S21400FEF0FF321A831A7D0523D20701D4180010BDDD
S21400FF0003781B02C022920013404178C901FF22E9
S21400FF100A401343817849001E220A401343C278E0
S21400FF2092048021C9020A40134302791204C021B8
S21400FF3089020A4013430A4A536093685B035B0FC7
S21400FF40084908249C400C8093684B8043780B71CA
S21400FF50138BDB05DB0F1B01D0E7C0460004004017
S21400FF6000400041E805002030B50400224A108811
S21400FF70538843438B4206D28022920118201F4B9F
S21400FF80CB1893420ED81E4B5D688022D2022A43BD
S21400FF905A602022FF321A831B7DDB0703D4184BDE
S21400FFA05D60052030BD452C22D8A300154AD358E5
S21400FFB09F46134B1B8BDB0503D5114B5D60102052
S21400FFC0F0E7890849000E4BD96103E0890849002B
S21400FFD00B4BD961A52000020443094B1C80190075
S21400FFE001220B7D1342FCD0054B5D600020D9E753
S21400FFF0034B5D601720D5E7E805002000C07FFFB3
S2140100000040004168790100F8B5254B1D885B88E2
S2140100106B431824834201D22000F8BD6B1E1842A0
S214010020FAD1013C9542F7D31E4B1B7D123CDB07F0
S214010030F2D51D4C1B4B1C801D0001242B7D234239
S214010040FCD02024FF34174B1C83002A22D0012326
S21401005005009D430023571E09E0CE187678360228
S21401006034432C8002339BB202359A4204D9CC5CCD
S214010070BB42F2DBA4B2F4E7094B1B790024002B48
S214010080CAD13F2AC8D8002201000420074B98474E
S2140100900400C1E7024B1B790024002BF3D0BBE719
S2140100A0E80500200040004144A5FFFF69FF00006D
S2140100B070B5184B1D885B886B431824834201D2A8
S2140100C0200070BD6B1E1842FAD1013C9542F7D351
S2140100D0114B1B7D123CDB07F2D52024FF340E4B5F
S2140100E01C83002A14D0012398430023561E04E0E3
S2140100F002339BB202309A4208D90488A4B2CC5487
S214010100B342F5DACD18240A6C70F1E70024D7E77C
S2140101100024D5E7E805002000400041134B1A886B
S2140101205B8853431821834201D20800704792002E
S214010130013A1042F9D10E4B1B7D1339DB07F4D57A
S2140101400B4B2022FF321A8380084000D861094AEF
S2140101501A80190001220B7D1342FCD0044B198B27
S2140101601C200140481E81418900DEE7E805002089
S2140101700040004102A5FFFF134B2022FF321A83E5
S21401018099684A03520F08239340037041800F4B2E
S2140101901B885B065B0F072B10D00622D21A04239E
S2140101A093404360094B1B8807221340072B08D056
S2140101B00722D21A042393408360704700234360CA
S2140101C0F0E700238360F8E700400041004080002C
S2140101D070B50402034E044D73681819A847052824
S2140101E0FAD070BDF00500201D010100F0B5DE4615
S2140101F057464E464546E0B583B04D4B1B89002B0E
S21401020000D18FE000254A4B9A461F0027E001984F
S214010210484B98470434A4B2454B1B89A34218D9CE
S214010220013B9C42F6D07A68A301D35CFF2BF1D048
S2140102309E42EFD14B46D35C4146515C9942E6D093
S2140102405946525C9A42E2D0A008C0B2394B984750
S214010250E0E70435ADB2364B1B899D4217D2AB01A0
S214010260984653465B6842469E5CFF2EF1D02C1D95
S214010270A4B22F4B1B899C4209D28022424491464C
S214010280402242449346AA08D2B20192C8E7002B04
S21401029043D0274A977A516800225E1E244D04E017
S2140102A00132403190B298420AD29642F8D008788C
S2140102B084B2FF2CF4D0BC42F2D22818C272EFE707
S2140102C03F2087221A4988549D081FD04C68042174
S2140102D00027013B13E0013292B2914207D09A42C5
S2140102E0F9D09001005DFF28F5D00026F3E7002E37
S2140102F009D10137BFB2043189B2BD4206D00A1F07
S21401030092B20126EBE78723094AD75403B03CBCD7
S21401031090469946A246AB46F0BD3F218723044A44
S214010320D154F3E73F218723014AD154EEE7C04673
S214010330F0050020D1010100F8B50D008401054F3C
S214010340054E7B68181940222900B0470528F8D0C9
S214010350F8BDC046F0050020B1000100F8B50D005B
S2140103608401054F054E7B68181940222900B047C5
S2140103700528F8D0F8BDC046F005002009000100A8
S21401038070B58401044E054D7368191900220420C6
S214010390A8470528F8D070BDF005002069FF0000C9
S2140103A010B598B016AB0021197001225A702E4A6A
S2140103B05268D206120F9A70D97019712B4C16A872
S2140103C0A0470528FBD013A8294B9847149B162055
S2140103D00B2B01D818B010BD264C23811A00083A01
S2140103E05208A2721B049B0A5B428022D2029446E8
S2140103F0634463600022C823E2541F4B9847872357
S214010400E35C1A203F2BE5D06A461C4B13CB13C284
S214010410184B1889013880B21100194B9847039B75
S214010420009A934219D1049B019A934217D1059BD6
S214010430029A934215D103ABDB7B1020012BC9D165
S21401044003AB1B7B012BC5D103AB5B7B002BC1D15F
S2140104500122084B1A700020BCE71A20BAE71A20BE
S214010460B8E71A20B6E7C04600400041E1FE0000AA
S21401047079010100F0050020ED010100807A0100FC
S2140104803903010070B594B02F4C00228723E25443
S21401049000202E4B98472589042D25D900260424B3
S2140104A019E0A008C0B2294B984704AD4022FF21AD
S2140104B02800274B98472E7029002000254B984787
S2140104C02000254B98470136B6B20134A4B21E4B24
S2140104D01D89A54208D9013DAC42F6D0032323402D
S2140104E0DFD0012BF1D8E0E701AE1C4B320013CB75
S2140104F013C204AC4022FF212000154B9847019BF4
S214010500049373686360B368A3600123E373237382
S21401051000236373A373013DEB17032018404519AD
S214010520AD10E8B2094B9847074D2889013880B2CB
S2140105302100084B98472889013880B2064B984716
S214010540074B984714B070BDF0050020D10101009B
S214010550035001005D03010081030100807A010060
S214010560ED01010010B590B00C00154B1A781F2351
S214010570002A02D1180010B010BD114B9A7A182328
S2140105808242F7D9B0330E4AD35C002B03D08823BE
S214010590D35C83420CD00A4B1818C07A6946094BC3
S2140105A098473C2201A92000074B98470023E1E722
S2140105B03C2203498C312000034B98470023D9E79E
S2140105C0F005002039030100F14F0100F0B5DE46C9
S2140105D057464E464546E0B593B005008946170096
S2140105E03C21234B9847C3B2009303A91800214B23
S2140105F098470190002832D13C2128001E4B98478D
S21401060089B22C00002905D103AB1B784A4613702A
S2140106106C1CA4B22600AB46B846A84444451EDA74
S214010620154B9A4603AF09E05B46F61A7B5D4A46D0
S21401063093550134A4B22600444510DA3C2120002B
S214010640D0478DB2002DEFD1009B0133DBB2009372
S21401065039001800074B98470028E5D0019001980B
S21401066013B03CBC90469946A246AB46F0BDC04688
S214010670B128010065050100BD29010010B5C82398
S214010680084AD35C002B01D1002010BD140088233A
S214010690D35CD318D87A044B98470022C823E25477
S2140106A0F2E7C046F005002081030100F0B5DE4602
S2140106B057464E464546E0B587B0040000915A4B72
S2140106C01B781F20002B06D107B03CBC90469946EC
S2140106D0A246AB46F0BD544B9B7A0738A342F3D9EA
S2140106E0C823514AD35C002B05D08823D35CA34290
S2140106F001D04E4B98474C4B1B19DE7A0323310031
S2140107009943494B5868B3011B5CFF2B47D0751CB6
S214010710EDB20431C9B2A94257D06B1CDBB2AA01B3
S214010720125CFF2A3CD01D00F5E705AAD2185670C8
S21401073069E005AFFF187D7063E0707802993C4B65
S2140107409847394C21008831A8B23A4B98474B4616
S2140107501B78E318DD720122C823E2540137023602
S214010760022F13D087235A46D55CAD00ED19D0472A
S214010770B146337801998B42DFD188232A4AD15476
S2140107803C22009903982C4B9847DAE744464046AA
S2140107902A4B98478723244AD454002094E73500EF
S2140107A0214E8823F45430008C303C220099224B91
S2140107B0984731008831A8B21E4B98473419E57224
S2140107C00122C823F25400207EE7B30898461B0294
S2140107D0154A5268D31805AA1978117003218E4359
S2140107E056703D31595C9170711CD1708022985CB5
S2140107F04032995C0023B51C033605AAD25C9042B0
S21401080097D08A4291D00233042BF6D105AE002749
S214010810054B9B46054B9A465B4688330293043349
S214010820039301949EE7C046F00500207D06010073
S214010830390301005D030100F14F0100D101010000
S214010840F0B5DE4657464E464546E0B591B0050042
S214010850894690463C212D4B9847C7B23C2128003B
S2140108602B4B984789B2002935D143463B2B3FD9BC
S2140108704B461A7801AB1A706C1CA4B22600AB4624
S214010880A844A04522DD224B9A460AE05B46F61AAA
S2140108904B469A5D01AB5A550134A4B22600444535
S2140108A014DA3C212000D0478DB2002DEED101A9EB
S2140108B03800184B9847002813D10137FFB201A919
S2140108C03800154B98470028E0D00AE001A9380007
S2140108D0104B984705E001A938000F4B98470028B0
S2140108E00DD011B03CBC90469946A246AB46F0BD31
S2140108F001A93800084B98470028B9D0F1E72E0027
S214010900AB46A844A845ECDD2C00BCE7B1280100A5
S214010910BD290100AD060100650501007047000014
S2140109200C4B1B68002B06D1EFF31083002B07D06E
S2140109300022094B1A70074A136801331360704787
S21401094072B6BFF35F8F0022044B1A700132024B5E
S2140109501A70F0E7BC060020C00600201000002038
S214010960084B1A68013A1A601B68002B09D1064B1E
S2140109701B78002B05D00122044B1A70BFF35F8F42
S21401098062B67047BC060020C0060020100000209A
S21401099010B5072803D88000164B1B589F46002029
S2140109A027E0154BD86824E0144B1B6A9B059B0F68
S2140109B01348D8401DE0104B18691AE00E4B1B680F
S2140109C000209B0715D50D491022CB681A42FCD092
S2140109D0094B1B685B0701D40A480AE000200A4B52
S2140109E09847054B9B681B041B0C584301E080206D
S2140109F0000210BD8C7A0100C406002000080040E9
S214010A0000127A00006CDC02CD0F010070B50C49B3
S214010A100B6A0478857840780122104080014026D0
S214010A20B34303432A40D201802083431343032266
S214010A30224012020348034013430B6270BDC046B6
S214010A4000080040FFFCFFFFF0B5CE46474680B5E4
S214010A50194B99469B6941788C4605780679C77883
S214010A60447980780121084080000422934303439F
S214010A7060460840C00004329343034338000840F0
S214010A8080014027BB43034330000840C001802655
S214010A90B3430343072005402D02084803402B4378
S214010AA021400903064803400B434A4693610CBCA8
S214010AB090469946F0BDC04600080040FFF8FFFF8B
S214010AC0FFEFFFFFF0B50100274B1B8A5D056D0F99
S214010AD042780F241440027857427A41D2B286787F
S214010AE0002E12D14068214FB8420DD9204FB8428E
S214010AF033D9204FB84232D91F4FB84231D91F4F90
S214010B00B84202D8042500E00025487A0F7ABC4690
S214010B104F681B49CF6001219700042293431A00B6
S214010B203A4363460B409B014027BA431A430840A9
S214010B30C00180239A43130003432D02114A134038
S214010B402B433140C902104A13400B4324031B05B3
S214010B501B0D2343044A1382F0BD0125D5E7022568
S214010B60D3E70325D1E7C0460008004080841E0075
S214010B7000093D0000127A000024F4000048E80154
S214010B80C4060020FFF8FFFFFFF7FFFF072803D882
S214010B9080001E4B1B589F46172036E01C4A136ADE
S214010BA002210B43136200202FE0194A93690221A8
S214010BB00B439361002028E0154A138A02210B4358
S214010BC01382002021E0124A938A02210B4393826A
S214010BD000201AE00F4B1A6802210A431A601B68AC
S214010BE00D4A13400A4A938411001022CB681A4218
S214010BF0FCD0084A9168064BD9625168996212681E
S214010C0092B29A84002000E000207047AC7A01007E
S214010C1000080040C40600207FFF0000F0B5C6466D
S214010C2000B58AB0C222D200394B9A60394A53685D
S214010C301E218B435360012201AB1A700024364DEE
S214010C40E0B201A9A84701341C2CF9D107A8002459
S214010C50047001268670047246720F2343702F4B70
S214010C6043602F4B984700202E4DA8472E4B1B68FC
S214010C70DB0427498A695B0E1B042C480240134398
S214010C808B6105A846708670C470067107230370D1
S214010C904471274B98470420A84704A844708670DF
S214010CA00470244B98470620A847234B984701AD6C
S214010CB06C702C726C7204232B701C336B602900D1
S214010CC002201E4B9846984702201D4FB8476C706D
S214010CD02C726C7203232B70FE33FF336B6029007A
S214010CE00420C0470420B847164B1C725C729C72E5
S214010CF0DC726E606C7006232B702C726C7229008D
S214010D000020C0470020B8470AB004BC9046F0BD9A
S214010D100008004000400041810F01000048E80142
S214010D20C50A01008D0B010024608000FFFF80FFD3
S214010D30490A01000D0A0100490D01006D0D01006F
S214010D40250E010000040040064A936908210B4362
S214010D5093610122044B1A7019000B781342FCD1DF
S214010D607047C04600040040000C004070B5060005
S214010D7004000D782D0205434B78002B02D080230A
S214010D80DB021D434B7A002B02D080231B031D433D
S214010D904868012810D9431E184234D1022830D998
S214010DA00223002201325B009842FBD81202324332
S214010DB0140080235B031D430B7A002B02D0802393
S214010DC09B031D43134A53785BB2002BFBDB124B8C
S214010DD09847124B1E700F4A53785BB2002BFBDB11
S214010DE00C4B9C601A0053785BB2002BFBDB094A64
S214010DF05368802149020B401D435560084B9847B4
S214010E0070BD0022D2E70402344380239B021D43B7
S214010E10D2E7C046000C004021090100080C004042
S214010E206109010010B504000B4A53785BB2002B30
S214010E30FBDB0A4B98470A4B1C70074A53785BB298
S214010E40002BFBDB044A516880235B020B43536093
S214010E50044B984710BDC046000C00402109010014
S214010E60040C00406109010070B504001A4A537869
S214010E705BB2002BFBDB194B9847194B1C70164ACB
S214010E8053785BB2002BFBDB134E7068C004C00EB8
S214010E90144B98470500124B1C707668F602F60F45
S214010EA0114B1C700C4A53785BB2002BFBDB0A4BD0
S214010EB09C682402240C0D4B9847002E07D1012C68
S214010EC007D9210028000A4B9847050001E00134A4
S214010ED0E540280070BDC046000C00402109010015
S214010EE0040C004091090100080C00406109010052
S214010EF0B128010010B50400064B9847064B1C703C
S214010F00064A53888021C9010B435380044B9847F6
S214010F1010BDC04621090100020C0040000C004033
S214010F206109010010B504000F4B98470F4B1C7068
S214010F300F4A53881B05180F53880E490B405380E0
S214010F4053880D490B40538011008022D2014B88F3
S214010F501342FCD106494A8803020648024013435D
S214010F604B80064B984710BD21090100020C00403A
S214010F70000C0040FFF0FFFFFFBFFFFF610901000B
S214010F8010B50C7824020443024B9847A4B2024BD6
S214010F905C8010BD250F0100000C004010B5040058
S214010FA0064B9847064B1C70064A5388C021090217
S214010FB00B435380044B984710BDC04621090100DE
S214010FC0020C0040000C00406109010010B504004D
S214010FD0064B9847064B1C70064B5C882405240F6D
S214010FE0054B98472000054B984710BD2109010085
S214010FF0020C0040000C004061090100690E01006E
S21401100030B5D378002B35D11378802B29D01B0629
S21401101080246402234354780225AC4306D1947895
S214011020002C20D18024A402234341605478013C43
S214011030012C1CD90D042D0CA024E4052C431C43C3
S21401104084620D0CD02424062C431C438462D4787D
S214011050002C22D15B031CD59378012B1ED0416155
S21401106017E00023D7E7C024E4022343DDE70D4C55
S2140110702340DFE741600C04240CA023DB05234357
S21401108083620C0CD0231B0623438362D378002B88
S21401109003D15378013B012B02D930BD8161F8E7BA
S2140110A08160FAE7FFFFFBFF10B50A00C1090023C4
S2140110B0002904D14309DB0105498C4663441F24FA
S2140110C02040012181401800024B984710BDC046C0
S2140110D000440041011001007047000010B5054BA7
S2140110E09847054B9847054B9847054B9847054B3E
S2140110F0984710BD1D0C01001D090100D910010003
S21401110069DC0000D9100100FEE7000010B51A4A9C
S2140111101A4B9A4211D01A00194B9A420DD2194A0B
S21401112003339B1A9B0801339B0000221348124984
S2140111308C58845004329A42FAD1134A134B9A427D
S2140111400AD2D34311495B1803218B4304339B18FE
S214011150002102C29342FCD10D4AFF210D4B8B4365
S21401116093600D4A53687F390B4353600B4B984786
S2140111700B4B9847FEE7C046907D0100000000201B
S214011180E401002004000020E8010020680C002093
S21401119000ED00E00090000000400041494F0100D2
S2140111A005B900000300064A1268002A04D0044A62
S2140111B01068C318136070470249014A1160F6E7C8
S2140111C0D8060020682C0020F0B5C64600B58CB0C5
S2140111D004000D0000F02CFA3A4B06001B780F00B5
S2140111E05BB2984601330FD022002B002000290065
S2140111F003F042FD002807D1002200232000290029
S21401120001F0F6FC002805D0300039000CB004BC13
S2140112109046F0BD2C4B0A900393434604940595E3
S21401122006940795002B1AD1E022284B1206089245
S2140112300993200000220023290001F0BFFC0028AA
S21401124038D00223029302A801F018FA002817D01A
S2140112500A9B0193002B18D1089E099FD4E7002210
S2140112601B4B20000892099329000022002301F05D
S214011270A5FC00280FD0022302934346022BE2D19D
S21401128003F05CFE22230360E2E703F057FE0A9BAD
S21401129001930360E0E7012302934346022B0BD13F
S2140112A003F04CFE212303600A4801F0E9F9089097
S2140112B00991CDE70123029302A801F0DFF9002886
S2140112C0F2D1EDE711000020CC7A0100FFFFEFC755
S2140112D00000F0FFF4620100F0B557464E46DE46C8
S2140112E04546E0B58FB01D0006000F00140000F063
S2140112F0A1FBC74B009001919A461B785BB29946B9
S21401130001333ED022002B002000290003F0B4FC5C
S2140113108346002835D132003B003000390003F007
S214011320ABFC00220390002800D0B6E0002330007A
S214011330390001F043FC00282CD0002200232000B5
S214011340290001F03BFC8346002800D177E004AB7E
S2140113509846012342460493AE4B53604346039A94
S2140113601C615D611A629E60DF60424600230024B4
S2140113709361D4614B46002B4DD00023A64C0093BD
S2140113800194009801990FB03CBC90469946A2463C
S214011390AB46F0BD0098019901F066F98146002838
S2140113A000D19BE0009801990022002301F006FC81
S2140113B00028E6D03000390001F056F90028E0D0C8
S2140113C02000290001F050F90028DAD004AB984635
S2140113D00423424604938F4B1461556153600023E6
S2140113E00024136200239361D46153461B789660F0
S2140113F0D7605BB2022B04D0404601F03FF90028CB
S2140114000ED103F09BFD2223036009E04246002330
S21401141000249361D461404601F030F9002837D0AA
S21401142043461B6A002B04D003F088FD43461B6A23
S21401143003604346DC699B6900930194A1E72000A1
S214011440290001F011F900289BD00022002320007A
S214011450290001F0B9FB002800D192E704AB9846B9
S2140114600123424604936B4B536043465A469E60A3
S214011470DF601A621C615D6153461B785BB2002B0C
S214011480C4D00020424665499061D161022BC2D189
S21401149003F054FD21230360C2E700232000290046
S2140114A001F08CFB002800D16BE704AB98460123C2
S2140114B042460493574B4146536043465A461A6286
S2140114C000229E60DF601C615D61534B8A61CB61C7
S2140114D0009201934B46022B9DD152E73000390012
S2140114E001F0C2F8002800D15CE72000290001F0D5
S2140114F0BBF8002800D155E7009801990B000200BF
S21401150003F0BAFB04AB9846002861D10323424698
S2140115100493404B1062536053461B789660D76025
S2140115205BB2146155619946002B2FD1E0224146EA
S2140115303B4B12068A61CB61300000220023390042
S21401154001F042FB002800D156E70022354B20006F
S214011550290002F0FBFD04000D0001F097F80200DF
S2140115600B002000290001F029FB002805D1E0220C
S2140115702D4B120641468A61CB6153461B785BB2FE
S21401158099464B46022B00D036E73AE70022414601
S214011590264B30008A61CB6100220023390001F01E
S2140115A013FB0028EDD000221E4B2000290002F07C
S2140115B0CDFD04000D0001F069F802000B002000CB
S2140115C0290001F0FBFA0028D7D10022134BD1E7FE
S2140115D00123424604930F4B536043464A461C611F
S2140115E05D611A629E60DF60002453461C57002C22
S2140115F000D10BE7002300221900100002F072F957
S21401160043469861D961022C00D141E703E7C04601
S21401161011000020D07A01000000F03F0000F0FF2A
S214011620FFFFEF470000E03FFFFFEFC70000F07F3E
S214011630F0B5D6464F464646C0B5DA4A88B00B00E6
S214011640914255DC4A005208024300D1EFE00029DE
S21401165000DA79E1D44B002202F078FD3625D34C2E
S2140116600B006D42A34247DC1A15D14C1B031B0B22
S2140116709846A4468024CF4B640343442340CE4C73
S214011680624452195C4045461B1599462543CA4B90
S21401169029009144002202F0D9FF434602331B037E
S2140116A006000F001B0B0022022B2FDC002301F08B
S2140116B085FA002800D1C1E04B46002B00D14CE151
S2140116C0484603F0F9FABD4ABD4B04000D0002F08E
S2140116D03DFDBC4A06000F00BB4B2000290002F06E
S2140116E035FD02000B003000390001F0EBFD07E08C
S2140116F0AE4C0025A342B7DD02000B0001F0E2FD6F
S21401170008B01CBC90469946A246F0BD8023DB0576
S21401171001F0D8FD02000B003000390002F0E2F8BB
S214011720040048460D0003F0C7FA22000290039118
S2140117302B00200029000494059502F007FD040003
S2140117400D00A24B020043449A460B0000940195FB
S21401175002F0FCFC04000D009D4A9E4B02F0F6FCD4
S2140117609D4A9E4B01F0AEFD22002B0002F0EEFCDE
S2140117709B4A9C4B01F0A6FD22002B0002F0E6FCE2
S214011780994A9A4B01F09EFD009A019B02F0DEFCFD
S214011790974A00900191974B2000290002F0D6FC51
S2140117A0954A964B01F08EFD22002B0002F0CEFCEE
S2140117B0934A944B01F086FD22002B0002F0C6FCF2
S2140117C00B0002000098019901F07CFD0D004146D6
S2140117D08D4B04005B1A51460B43002B54DD00224F
S2140117E08A4B3000390002F0B1FC32003B0002F0B7
S2140117F0ADFC4B460A00010000910192002B72D10C
S214011800130029000200200001F05CFD049A059BEC
S21401181002F09CFC02000B000098019902F016FFF2
S21401182002000B003000390002F010FF68E70022CA
S21401183000230020764902F055F861E7754A764B99
S2140118403000390002F082FC02000B0000206F49D4
S21401185002F0FCFE320004000D003B0030003900AF
S21401186002F074FC0B0002002900200002F06EFC5E
S2140118704B4604000D00002B72D102000B00300015
S214011880390002F0E3FE3BE74B46002B00D1C5E0F2
S21401189002980399494A4A4B02F058FC22000090EC
S2140118A001912B003000390002F0D0FE049A059B0E
S2140118B002F04CFC434A04000D0002980399424B87
S2140118C002F044FC02000B002000290002F0BEFEDC
S2140118D032003B0002F0BAFE02000B0000980199AC
S2140118E002F0B4FE0CE7354A354B0298039902F034
S2140118F02DFC009A019B069007912000290001F01B
S214011900E1FC049A059B02F021FC2E4A04000D001E
S214011910029803992C4B02F019FC02000B002000E0
S214011920290001F0CFFC02000B000098019902F09B
S2140119308DFE32003B0002F089FE02000B00069885
S214011940079902F083FEDBE602000B0002F07EFE42
S2140119500022002301F0C6FFD2E600200021CFE6D8
S214011960484603F0A9F9154A154B0090019102F07B
S214011970EDFB144A0290039100980199124B02F074
S214011980E5FB02000B002000290002F05FFE32009A
S2140119903B0002F05BFE02000B000298039902F086
S2140119A055FEADE6FFFF0F0000005043FFFFEF7F3F
S2140119B001FCFFFF645F09000000F03F0000E0FE4D
S2140119C0422EE63F763C7935EF39EA3D86EBF9FF64
S2140119D044523EDF12F1C23FDE03CB966446C73F58
S2140119E0599322942449D23F935555555555E53F71
S2140119F09FC678D0099AC33FAF788E1DC571CC3F7C
S214011A0004FA97999999D93F51B806000000E03F2A
S214011A10000050C3555555555555D53F22002B004E
S214011A203000390002F012FE049A059B02F08EFB8C
S214011A30F6E6C046F0B557464E464546DE461C001D
S214011A401300E0B5650091B06D080093019407009E
S214011A500E0080468946A2462B4331D0674B740060
S214011A6064089C4227DC24D09D4224DC634B9D42C3
S214011A7000D181E000239B464B46002B00DA7FE035
S214011A80002A2CD15D4B9D4200D197E05C4B9D42D4
S214011A9066D08023DB059A4500D1B9E3594B9A45B8
S214011AA01DD14B46002B1ADB3800310000F0F8FC44
S214011AB008E000280DD0544B9C46644427430AD1C5
S214011AC000204F4911B03CBC90469946A246AB4611
S214011AD0F0BDA542CADD4D4800F0D2FDF2E7380060
S214011AE0310000F0BDFD4346002B1DD1002C04D073
S214011AF0434AB3009B08934216D15346002B00DAA3
S214011B00C5E34B46002BDDDA3F4B9C465B466444FF
S214011B101C4301D100F053FC5B46012BD2D180243B
S214011B2024060B191900CDE7F30F013B98465B46D7
S214011B304246134357D0364B9D4277DD354B9D4287
S214011B4000DCB1E3344B9C4200DCA8E35346002B97
S214011B5043DD324A324B1000190002F0F7FAB1E7C2
S214011B60534638003100002BACDA3A00330000202F
S214011B70234901F0B7FEA5E7002A00D17AE79AE7E4
S214011B80284B9D422CDC244B9D4200DC78E72649FD
S214011B902B158C466344142B01DC00F0F3FB342137
S214011BA0CB1A0099D94008009840824200D067E7D6
S214011BB00123194001335B1A9B4661E7124BE31878
S214011BC01F4300D17CE7144B9C4200DC27E30098BE
S214011BD001995346002B00DB74E70020002171E7D2
S214011BE002239B464CE73A0033003800310002F0EE
S214011BF02DFD02000B0001F075FE63E70000F07F8B
S214011C000000F03F0000E03F000010C0F462010059
S214011C100000E0410000F043FFFFEF3F9C750088A5
S214011C203CE4377EFFFF3F4301FCFFFFE94B002208
S214011C309C4206DC0022E84B02F088FA35220C00B2
S214011C405242E64D2315AC46634499462403E44DBF
S214011C50E44B240B914425439C4209DDE24B9C4214
S214011C6000DCB6E301239C46E04BE1449C46654418
S214011C70002300240022089309940C930D94002459
S214011C80D74B06920793069A079B29000A900B9159
S214011C9002F0DCFC069A079B06000F000A980B99D7
S214011CA001F010FB02000B000020CD4901F01AFEE6
S214011CB00A00010013000E910F9202003900300055
S214011CC002F044FA0A0001008020049105921300F4
S214011CD000226910802500038446029203930022A5
S214011CE0AD050D4365442B190298039914001D0098
S214011CF002F02CFA02000B003000390002F0A6FCBC
S214011D00069A079B06000F002000290002F09EFCA1
S214011D1002000B000A980B9902F098FC029A039BAA
S214011D2002F014FA02000B003000390002F08EFCBB
S214011D300E9A0F9B02F00AFA049D059E06900791E3
S214011D402A0033002800310002F000FA06000F00D6
S214011D50A74AA84B02F0FAF9A74AA84B01F0B2FA33
S214011D6032003B0002F0F2F9A54AA64B01F0AAFAAE
S214011D7032003B0002F0EAF9A34AA44B01F0A2FAB2
S214011D8032003B0002F0E2F9A14AA24B01F09AFAB6
S214011D9032003B0002F0DAF99F4AA04B01F092FABA
S214011DA0320004000D003B003000390002F0CEF98D
S214011DB002000B002000290002F0C8F9029E039FD2
S214011DC004000D000498059932003B0001F07AFAF0
S214011DD0069A079B02F0BAF922002B0001F072FA6C
S214011DE032000A900B913B003000390002960397AF
S214011DF002F0ACF900228A4B04000D0001F062FAF1
S214011E000A9A0B9B01F05EFA00260F0032000B00C7
S214011E100298039902F09AF9002202900391804BEE
S214011E203000390002F012FC22002B0002F00EFCFA
S214011E3002000B000A980B9902F008FC049A059B15
S214011E4002F084F9320004000D00069807993B0061
S214011E5002F07CF902000B002000290001F032FAA2
S214011E6004000D0002000B000298039901F02AFA03
S214011E700026E0226B4B120630000F0002F066F9D6
S214011E80029A039B049005913000390002F0DEFBB4
S214011E9002000B002000290002F0D8FB624A614BC9
S214011EA002F054F9614A04000D00614B300039001C
S214011EB002F04CF902000B002000290001F002FAA2
S214011EC00C9A0D9B01F0FEF9060048460F0002F041
S214011ED0F3FE04000D000498059932003B0001F062
S214011EE0F1F9089A099B01F0EDF922002B0001F0A7
S214011EF0E9F9002022002B000290039102F0A6FBD4
S214011F00089A099B02F0A2FB049A059B02F09EFB2D
S214011F1002000B003000390002F098FB0490059196
S214011F205B464246013B134300D1ABE100232C4CF8
S214011F30069307940098019900260B0032000F00C3
S214011F4002F084FB029A039B02F000F9009A019BBF
S214011F5004000D000498059902F0F8F802000B0041
S214011F602000290001F0AEF904000D000298039943
S214011F7032003B000094019502F0E8F802000B00E5
S214011F8006000F002000290001F09CF9294B0400EF
S214011F900D0002008B46994200DC4FE1264BCB1820
S214011FA0034300D0E2E100980199244A244B01F052
S214011FB089F93200029003913B002000290002F0CB
S214011FC045FB02000B000298039900F011FEAA4699
S214011FD038E0C046FFFF0F000000404301FCFFFF52
S214011FE00000F03F8E98030079B60B000000F0FF6A
S214011FF0EF4E454A287ECA3F65DBC9934A86CD3FE8
S21401200001411DA96074D13F4D268F515555D53FCD
S214012010FFAB6FDBB66DDB3F033333333333E33F65
S2140120200000084009C7EE3FFD033ADCF5015B14EA
S214012030E02F3EBEFFFF8F40000070BFFE822B6583
S2140120404715973C002800D090E1EC4A5346944649
S2140120508022520311001B15634419410B00904660
S214012060E74A5B4494465C00640DE64D64442541B2
S2140120701A00AA43110042461B031B0B13431422EA
S214012080141B234199465B460020002B00DAB0E181
S21401209002000B003000390002F0D8FA0B000200F3
S2140120A006000F000098019901F00CF94B461B053C
S2140120B00D00984600240022D34B2000290002F090
S2140120C045F83200029003913B002000290002F0FF
S2140120D0BDFA02000B000098019902F0B7FACB4A4C
S2140120E0CB4B02F033F8CB4A06000F00CA4B200058
S2140120F0290002F02BF802000B003000390001F035
S214012100E1F804000D0002000B000298039901F0AB
S214012110D9F8029A039B06000F0002F097FA020014
S2140121200B002000290002F091FA32000090019184
S2140121303B003000390002F009F804000D00B74AF0
S214012140B74B02F003F8B74AB74B02F07FFA22000A
S2140121502B0001F0FBFFB54AB54B01F0B3F82200A6
S2140121602B0001F0F3FFB34AB34B02F06FFA2200E3
S2140121702B0001F0EBFFB14AB14B01F0A3F82200AE
S2140121802B0001F0E3FF02000B003000390002F0E3
S2140121905DFA04000D0002000B003000390001F06A
S2140121A0D5FF8023029003910022DB052000290041
S2140121B002F04CFA02000B000298039901F092FB20
S2140121C0009A019B04000D003000390001F0BEFFAB
S2140121D0009A019B01F076F802000B00200029000E
S2140121E002F034FA32003B0002F030FA02000B0033
S2140121F00020944902F02AFA43465B181A15002A71
S21401220000DC49E11900069A079B01F09FFF59E49B
S2140122103A0033003800310001F098FF52E453468B
S214012220002B00DBD9E4009C019D802212062B00C6
S2140122309446634420001900FFF744FC4B005B08FA
S2140122409A46814B9A4500DCB1E0804B5B441A43C9
S2140122500CD132003B0002F0F9F902000B000098A5
S214012260019900F0BBFC002800D1EEE6069807991C
S214012270774A784B01F06AFF754A764B01F066FFA4
S214012280FFF720FC0023744C0693079452E60200E5
S2140122900B0000206B4901F025FBFFF732FC53468B
S2140122A0002B00DB99E454E46C4B9C42F7DD654B54
S2140122B09C4200DD4AE40022624B02F0C7F9C022CC
S2140122C0674BD20504000D0001F040FF654A060089
S2140122D00F00654B2000290001F038FF0022029014
S2140122E00391624B2000290001F030FF02000B0031
S2140122F05F48604902F0AAF922002B0001F026FF90
S21401230002000B0000205C4902F0A0F922000490B4
S21401231005912B002000290001F018FF02000B0098
S2140123200498059901F012FF544A4D4B01F00EFF37
S21401233002000B000298039902F088F902000B00D4
S21401234004000D003000390000F0BCFF0020320010
S2140123503B000290039102F079F902000B00200085
S214012360290002F073F904900591D9E5444A454BDA
S2140123700698079901F0EAFE414A424B01F0E6FE53
S214012380FFF7A0FB002A01D0FFF7A9FB1432D31AEE
S2140123902A001A41110099408D4201D0FFF776FBC1
S2140123A001231A40DB189B1A9B46FFF76FFB00229E
S2140123B0314B904691469A4500DC7BE645E60200A5
S2140123C00B0002F043F902000B0001F08BFAFFF755
S2140123D079FB80232C4CDB05089309942B4B2C4C62
S2140123E000220C930D9480242A4BE4020692079354
S2140123F049E44B465B4299464AE6C04602FCFFFF6B
S21401240001FCFFFFFFFF0F00432EE63FEF39FAFE08
S214012410422EE63F396CA80C615C20BED0A4BE7289
S2140124206937663EF16BD2C541BDBB3E2CDE25AF9A
S2140124306A56113F93BDBE166CC1663F3E55555553
S2140124405555C53F0000F03FFFCB904000346F3F2D
S21401245059F3F8C21F6EA5010000F0BFFEFFEF3F63
S2140124604715F73F44DF5DF80BAE543E0000D03F02
S214012470555555555555D53F0000E03FFE822B6515
S2140124809C7500883CE4377E03B8E23F06D0CF4314
S214012490EBFD4C3E0000F83F4A4600F099F9B2E6E3
S2140124A06C4BF0B50A0046460D00D6464F4619005D
S2140124B0C0B5040006002940994200D1A7E0002DCE
S2140124C000DC81E02F1500D18EE0634B12039C46A1
S2140124D08023120B5B0367441A43FB0768D47B1007
S2140124E09C46E30F9B189B18802216210026002588
S2140124F064009203A818984202DC85181B1AB618C5
S214012500E00F5B0001391B18640052080029F1D165
S21401251000229246904680222020120609E0AB4215
S21401252038D0E10FC9180138CB18640052080028CA
S21401253018D041465118AB42F1DD8F18B846A9466E
S214012540002930DB5B1B8C42AD416D425B1B641A7C
S214012550E10FC918013892444D46CB186400520861
S2140125600028E6D1234328D153465B083B49721025
S21401257088464244F10702D5802109060B4361468D
S2140125801E000F05BD18300029001CBC9046994658
S214012590A246F0BDA142C4D88F18B846002942DB36
S2140125A099460023D3E7002F2FDB6F1CB946C9E7F6
S2140125B0E10F52008A18640091E75346013335D083
S2140125C0534601335B08D1E76B005B080343DAD05F
S2140125D00027002D32D1E20A153F6405002AFAD001
S2140125E080235B031A4224D180200023400300E0AD
S2140125F00B005200591C0242FAD02020401AFF1A42
S2140126002300C3408C401A435FE7A9469AE72B0094
S2140126100200290001F09AFD32002B0000F052FE64
S21401262006000D00AFE7002FBFDAB9E70136002339
S2140126309CE70123002120205B42E0E72B000200FB
S214012640290002F003F802000B0001F04BF9060026
S2140126500D0098E70000F07F01FCFFFF0000E03F5F
S21401266049004B0819007047034B48009C46400838
S2140126706044C00F7047C0460000108000207047BD
S214012680002001497047C0460000F87FF0B5C646F5
S21401269000B5CB0F98464A4C4B005B0D1E1982B015
S2140126A007000A00132E35DC002E57DB454B0400CD
S2140126B033411F000F4007430D00002F24D05B0855
S2140126C01C000C4020430027002807D0132E00D101
S2140126D073E08022D202324199430A434346DE0028
S2140126E0394B11009E1934687568380022002B009A
S2140126F000F0E8FD009001910098019922002B005E
S21401270001F0A4FF04000D002000290002B004BC63
S2140127109046F0BD332E0CDD80230400DB000D0057
S2140127209E42F1D102000B0000F0CCFD04000D002A
S214012730EAE7264C0D00A446012463446442DC40CB
S214012740A446614604000142DED049080142C5D0D4
S2140127508027FF051F4188430743BFE74B005B08FF
S214012760034304000D00002BCED00B031B0B0343C9
S2140127701A005B42134380221B0B120313404A0CC0
S2140127805204134319004346DA000F4B9B181C688A
S2140127905D6822002B0000F095FD009001910098E5
S2140127A0019922002B0001F051FF42464B005B08C5
S2140127B0D607334304001D00A6E780273F0688E7B7
S2140127C001FCFFFFFFFF0F00D87A0100EDFBFFFFC2
S2140127D04B0070B55B0D14000A00002B1AD14B009C
S2140127E05B08034315D00022224B01F0AFFC224BBD
S2140127F00A009C4222DB4B005B0D363B1F4DE31863
S214012800AB4220DC002B0DDD1D4C1B0522401A437C
S214012810110070BD1B4DAB42F0D102000B0000F061
S21401282051FDF6E71D00353518DA174B02009C42BC
S2140128300ADC0B001548164900F032F8134A144B0F
S21401284001F084FCE5E702000B001248124900F093
S21401285027F8104A104B01F079FCDAE7084C3633BA
S21401286022401B051343190000220C4B01F06EFC9D
S214012870CFE7C04600005043B03CFFFFFE07000014
S214012880FFFF0F80FF07000050C3000059F3F8C296
S2140128901F6EA5019C7500883CE4377E0000903CC5
S2140128A030B54A00DB0FDB0752081A43110030BD72
S2140128B0002243088B4274D303098B425FD3030A79
S2140128C08B4244D3030B8B4228D3030C8B420DD38C
S2140128D0FF22090212BA030C8B4202D3121209021A
S2140128E065D0030B8B4219D300E0090AC30B8B4258
S2140128F001D3CB03C01A5241830B8B4201D38B0306
S214012900C01A5241430B8B4201D34B03C01A5241AA
S214012910030B8B4201D30B03C01A5241C30A8B42ED
S21401292001D3CB02C01A5241830A8B4201D38B02D8
S214012930C01A5241430A8B4201D34B02C01A52417C
S214012940030A8B4201D30B02C01A5241CDD2C309EE
S2140129508B4201D3CB01C01A524183098B4201D36A
S2140129608B01C01A524143098B4201D34B01C01A55
S214012970524103098B4201D30B01C01A5241C308CD
S2140129808B4201D3CB00C01A524183088B4201D33C
S2140129908B00C01A524143088B4201D34B00C01A28
S2140129A05241411A00D20146524110467047FFE794
S2140129B001B5002000F0F0F802BDC0460029F7D0AE
S2140129C076E7704703460B437FD4002243088B42C9
S2140129D074D303098B425FD3030A8B4244D3030BA0
S2140129E08B4228D3030C8B420DD3FF22090212BA65
S2140129F0030C8B4202D31212090265D0030B8B42E1
S214012A0019D300E0090AC30B8B4201D3CB03C01ACA
S214012A105241830B8B4201D38B03C01A5241430BA5
S214012A208B4201D34B03C01A5241030B8B4201D395
S214012A300B03C01A5241C30A8B4201D3CB02C01A00
S214012A405241830A8B4201D38B02C01A5241430A78
S214012A508B4201D34B02C01A5241030A8B4201D367
S214012A600B02C01A5241CDD2C3098B4201D3CB010E
S214012A70C01A524183098B4201D38B01C01A5241BD
S214012A8043098B4201D34B01C01A524103098B42C1
S214012A9001D30B01C01A5241C3088B4201D3CB00AC
S214012AA0C01A524183088B4201D38B00C01A52418F
S214012AB043088B4201D34B00C01A5241411A00D23F
S214012AC001465241104670475DE0CA0F00D04942A8
S214012AD0031000D34042534000229C4603098B4218
S214012AE02DD3030A8B4212D3FC22890112BA030AA0
S214012AF08B420CD3890192118B4208D38901921122
S214012B008B4204D389013AD0921100E08909C309A6
S214012B108B4201D3CB01C01A524183098B4201D3A8
S214012B208B01C01A524143098B4201D34B01C01A93
S214012B30524103098B4201D30B01C01A5241C3080B
S214012B408B4201D3CB00C01A524183088B4201D37A
S214012B508B00C01A5241D9D243088B4201D34B0095
S214012B60C01A5241411A00D20146634652415B10D7
S214012B70104601D34042002B00D5494270476346B8
S214012B805B1000D3404201B5002000F005F802BDFD
S214012B900029F8D016E770477047C0468446101CD7
S214012BA062468C46191C634600E0C0461FB501F01C
S214012BB06BFA002801D40021C8421FBD10B501F0F0
S214012BC0C5F94042013010BD10B501F05DFA00288C
S214012BD001DB002010BD012010BDC04610B501F07C
S214012BE053FA002801DD002010BD012010BDC046AB
S214012BF010B501F0E5F9002801DC002010BD012028
S214012C0010BDC04610B501F0DBF9002801DA00203E
S214012C1010BD012010BDC046F0B5CE46474615048E
S214012C202D0C2E0080B50704140C3F0C9946030C9E
S214012C307E435D43674363437F19340CE4199C4626
S214012C40A54203D980235B029846C4444B465143B0
S214012C5043433604360C250C24046544A41959183C
S214012C60491920000CBC90469946F0BDF8B5574668
S214012C704E464546DE46E0B54702460088467F0A90
S214012C80360EC40F002E47D0FF2E24D0FB0080271F
S214012C90FF041F43002399469A467F3E43465D0242
S214012CA05800DB0F6D0A000E984643D0FF283BD034
S214012CB0EB0080250022ED041D437F383618731C77
S214012CC041469B464B46614013430F2B64D87548DB
S214012CD09B00C3589F46002F42D108239946063BC6
S214012CE0FF269A46DAE74146022A28D0032A00D16F
S214012CF0CEE0012A00D0ACE0114000200022CCB288
S214012D004002D205400AE407104320433CBC9046EB
S214012D109946A246AB46F8BD002F15D10423994625
S214012D20033B00269A46B9E7FF200222002DC5D0B4
S214012D300322C3E7002D19D100200122BEE701249A
S214012D40FF220C400020DBE7380002F0D3F876269D
S214012D50431F9F4000237642361A99469A469DE7BE
S214012D600C239946093BFF269A4697E7280002F06E
S214012D70C1F8431F9D4076235B42181A00229DE747
S214012D8080200024C003FF22BAE73D005246ABE78D
S214012D903D0021005246A7E73B0C9C462A04120C34
S214012DA02B0C1400604665463F043F0C7C434243AF
S214012DB05D437B43270C9B18FF18BA4203D9802337
S214012DC05B029C46654424043A04240C12199301C0
S214012DD05C1EA3413F0C920E7D191A43AD011543AB
S214012DE02B0104D501235E466A081D4015433200B7
S214012DF07F32002A25DD6B0704D00F232B40042BDE
S214012E0000D004352B0103D53200274B80321D40FC
S214012E10FE2A94DC0124A801400AD2B20C406FE7D6
S214012E208020C003074207D0054205D1284340024F
S214012E30400A4446FF2263E738434002400AFF2225
S214012E405EE70124A31A1B2B05DD0C40002200209F
S214012E5056E75E46CBE72A002020DA40C31A9D409B
S214012E602B005D1EAB4113435A0704D00F221A40B4
S214012E70042A00D004335A0104D5012401220C404F
S214012E8000203DE701249B01580A0C40002237E749
S214012E9080200124C00328434002400A0C40FF2240
S214012EA02EE7C046E87A0100FFFFFFF7F0B54F4670
S214012EB0D64646464400C0B5C20F47024802400AFD
S214012EC0844666467B0A4800C90F9A46240E1500BA
S214012ED0DB00000E8946F600FF2800D18FE00121B5
S214012EE04F464F403900914266D0221A002A00DC34
S214012EF09DE000283DD1002E00D18BE0511E002917
S214012F0000D0B5E001249B1B5A0144D59B019F09C3
S214012F10380001F0EFFF05388740844200DD96E077
S214012F20041B3A0020200134E240041BA7403B006A
S214012F305F1EBB41002413435A0704D00F221A40D8
S214012F40042A00D004335A0127D50134FF2C00D1BE
S214012F5079E001229B015B0AE4B22A405B02E405A8
S214012F60580AD207204310431CBC90469946A246F5
S214012F70F0BDFF2CE0D08021C9040E431B2A7BDC68
S214012F8031002020D140821A9640721E96410E438F
S214012F909B1B5A01BAD45A07D0D10122DF082A4016
S214012FA0FF2C33D1002F00D1A8E08023DB033B4365
S214012FB05B025B0AFF24D1E7211A00294CDD0028B9
S214012FC02AD0FF2CB8D08020C00406431B2900DD80
S214012FD0AFE030002027C840791A8E40711E8E411E
S214012FE006439B195901D6D50134FF2C00D185E043
S214012FF001227A491A405B080B4013439CE7002ED6
S21401300000D070E76BE73B1EC5D100227B025B0A4E
S214013010E4B2A3E714008FE7002E4DD0481E002827
S21401302057D19B1901245A01B5D50224E0E7002A9D
S21401303025D1621CD2B2012A72DD9F1B7A0135D5D9
S214013040F71A0D0064E7012200232A4086E73B00B9
S214013050634A241A13406FE700296CD1611CC8B279
S21401306001284EDDFF2949D09B195B080C0063E758
S214013070FF2A41D00A0081E701269B1B89E7002C25
S2140130801CD0FF2821D08024E404524223431B2A6B
S21401309000DD96E01C002025D440AA1A93405A1E53
S2140130A093412343F31A04000D002DE7002F00D0AF
S2140130B02EE700220024A9E70C003DE7002B58D09C
S2140130C0D243002AEED0FF28E1D13300FF240D00C1
S2140130D032E7FF2910D0010078E7002B6ED0FF24DD
S2140130E0002E00D128E780225146D203114203D098
S2140130F06146114200D13300FF241DE7FF2400235F
S2140131002CE7002CE9D1002B63D0002E00D113E769
S2140131109B195A0100D43EE7314A0C0013400BE7D5
S214013120002C1ED1002B2FD1002E4FD033000D00C6
S21401313002E7012655E7002C1FD1002B43D0C943D7
S21401314000290BD0FF2839D01B2944DC1C0020277E
S214013150CC40791A8B40591E8B4123439B1904009E
S21401316040E7002B1AD1002E24D180270022FF032E
S2140131701BE7330004000D00DEE6FF281ED0802486
S214013180E40449422343DFE7002E00D1D4E69F1B27
S2140131907A0100D437E7F31A0D00CDE6FF24002E9E
S2140131A000D1C9E680225046D2031042A4D0604620
S2140131B01042A1D133000D00FF24BDE63300FF24E9
S2140131C0BAE601236EE733000400B5E600270022C5
S2140131D01CE73300B0E60123C0E7C046FFFFFF7DD2
S2140131E0FFFFFFFB41024300C20F490A1B0E0020EE
S2140131F07E2B0DDD9D2B0CDC802000040143952BDE
S2140132000ADC9620C31AD9404842002A00D1080099
S2140132107047034BD018FBE7963B9940F4E7C0464E
S214013220FFFFFF7F70B5002830D0C317C4185C407D
S214013230C50F200001F05EFE9E231B1A962B0DDCA7
S2140132409622D21A94402A006402640ADBB264020F
S214013250DB05600AD2071843104370BD992B19DCB1
S2140132609922D21A002A29DD94402200144C1440D7
S214013270510704D00F210A40042A00D00434620109
S21401328013D4A401640ADBB22A00E0E7002200237B
S2140132900024DCE705222100121AD140B922D21AF5
S2140132A09440621E94410C43DAE7054B2A001C4009
S2140132B09F23A4011B1A640ADBB2C8E72200D5E7E4
S2140132C0FFFFFFFBF8B54546DE4657464E460C0364
S2140132D0E0B54E00C90F88460D00610A440F0C4345
S2140132E0C70019035800DB0F9B464B0A510F0B43CF
S2140132F0760D400D1900D200D84500D1AEE0351A42
S214013300002D00DCF6E000280FD1134300D1DBE0EE
S2140133106B1E002B00D037E1BA1A9742BF41641AE0
S2140133207F42E41B0126170024E0C64B9E424DD087
S21401333080231B041943382D00DD07E11F2D00DD16
S21401334038E12020431B9A460B005046834099469D
S21401335013004846EB401843030050468240501E77
S2140133608241E9401A43BA1A611A9742A4411700EA
S21401337064420C1B230262D56402650A002D00D14B
S214013380DFE0280001F0B6FD0300083B1F2B00DD3F
S214013390D2E020223C00D21A9D40D4409F402543D3
S2140133A09E4200DDC4E09E1B731C1F2B00DDF1E076
S2140133B0202238002900D21AD840914097402C008C
S2140133C00143781E8741DC4000260F437B0709D066
S2140133D00F233B40042B05D03B1DBB42BF417F4220
S2140133E0E4191F0023022CD5964B01369E4200D1CC
S2140133F09AE04546944BFF081C4060077605640238
S2140134000743240B760D00212403230B0C0D8F4A52
S21401341024051C431440330523435B00ED075B087A
S2140134202B43380019003CBC90469946A246AB4651
S214013430F8BD6446044300D111E2040067467B07E9
S214013440C6D145466007FF080743E4087D4B9E4208
S21401345030D024037605240B760DD4E7331A9A462A
S214013460002B78DD002831D076488642AED0802009
S214013470000401435346382B00DCE9E00A43511EA1
S2140134808A410021D219BA42BF4109197C4217006C
S2140134900C192302D3D56B4B01369E4200D13AE17B
S2140134A00120694B1C407B0807401F43E007074388
S2140134B064088BE723003B4300D1CBE18022120353
S2140134C014432403240B9EE72E007FE708001043D5
S2140134D000D1B4E0581E002800D0DEE0BA18BA4287
S2140134E09B4164185B42E418170001262302A6D507
S2140134F00226D5E7002D6ED1701C4005400D01282F
S21401350000DCF9E0B81A844687428041E51A404259
S2140135102D1A280200D489E0D71BBA4292411C1BFF
S2140135205242A51AD84629E74546002400276AE7ED
S214013530454CF61A2C4049E73D00283885400027BF
S2140135402EE7380001F0D6FC20301DE70A43511E55
S2140135508A41002107E7002B00D0F3E0701C4305E9
S2140135605B0D012B00DCADE0364B984200D1D1E07B
S214013570BA18BA42BF4164187F42E419E7075208F5
S21401358017436408060021E72E48854200D193E0E0
S2140135901D00D0E629001F3EF140202B00D18DE012
S2140135A04022D31A9D402F437D1EAF4100240F4376
S2140135B0002644E72B000800203BD8400300202DBE
S2140135C000D17DE04020451BA9400A43511E8A4197
S2140135D000211A43C7E6002E50D01A4EB04257D0EB
S2140135E080266B429946360434434B46382B00DD21
S2140135F0D6E01F2B00DD35E12026F51A2600AE4069
S214013600B2463E00DE40AC46350056462E43654681
S214013610AF407D1EAF41DC403743D71BBA429241D3
S2140136200C1B5242A41A0600D846A3E66446674617
S2140136302C4300D0A2E600250026002706E71E0040
S214013640C4E6C046FF070000FFFF7FFFFFFF0F80B5
S2140136501F2B63DC2020C31A080098409C46834633
S21401366053461000D84003005846184363469A4014
S214013670531E9A4153460243D94003E726003E4370
S21401368006D0EB439946002BC7D0944EB042ACD13E
S2140136900C0017000600D84698E6904B9A450BD0CA
S2140136A08246E7E6002800D09EE01800104300D1CD
S2140136B0E9E01C001700D846884E87E6002572E729
S2140136C0002182E723003B43002E00D0ABE0002B15
S2140136D000D1E7E00B00134300D177E6BA18BA42EF
S2140136E0BF4164187F42E419230200D4F2E07C4B08
S2140136F017001C40060069E620003843002ED1D191
S21401370000285BD11C00144300D1A8E01C00170060
S214013710D8465BE606000024002797E650460B00D5
S2140137202038C34099465346202B00D195E04023CC
S21401373050461B1A99400A43511E8A414B460021A6
S2140137401A439FE6002E30D126003E4367D0DB4366
S2140137509A46002B1CD0614EB04260D05346382B9F
S21401376000DD96E01F2B00DD9FE02026F31A2600E1
S2140137709E409C46B34653463E00DE4033005E46BE
S2140137801E4363469F407B1E9F415346DC403743A2
S214013790BF189742924164185242A418060078E670
S2140137A027437C1EA741002437E74C4EB04236D053
S2140137B080265B4236049A463443CFE7180010430E
S2140137C000D103E6B81A84466745AD41E01A6D425A
S2140137D0401B050200D42CE6D71BBA4292411C1BA3
S2140137E05242A41AD846F1E51800104300D163E707
S2140137F0F808670707438020E4080003044208D05E
S214013800DD08054205D1D208590711430F002C00E7
S214013810D8467B0FE4001C43FF00304ED6E50C0073
S21401382017000600D2E5002B38D00B00134300D159
S21401383042E7F808670707438020E40800030442CC
S214013840E7D0CB080342E4D1D208490711430F0061
S2140138501C00DEE700270024D5E500216BE70025E4
S2140138600027F3E54E462500203EF5404B462E0048
S214013870202B2DD04025ED1AAC4027437C1EA741B6
S21401388000243743C9E6802400252403134E00276D
S214013890DCE527437C1EA741002479E70C001700CE
S2140138A00E4E93E50C00170090E556462300203E89
S2140138B0F34099465346202B0ED0402356469B1B79
S2140138C09C4027437C1EA7414B4600241F435FE7CD
S2140138D00024D2E71700B2E50024F2E7FF07000054
S2140138E0FFFF7FFFF0B557464546DE464E46E0B53C
S2140138F04C000E0387B0834692461D008046360B69
S214013900640DCF0F002C4FD06F4B9C4235D08023D7
S214013910420F1B04F600134333439946C3009846EF
S2140139206A4B00269C460023644403932B031B0B1F
S2140139309B466B00ED0F50465B0D01955ED0624ACB
S214013940934253D05A46D1008022400F12040243BC
S2140139500A4393465246D1005C4A94460022634489
S2140139603800684084460290E41A16430F2E00D9A8
S214013970B4E0574BB6009B599F4603003343994624
S2140139806CD100239846023308260393CEE7CB4634
S2140139904146039A0197022A65D1019B4A4C9C46EF
S2140139A00023002298466BE00300334399464ED02D
S2140139B0002E00D1BCE1300001F09CFA03000B3B65
S2140139C01C2B00DDACE11D22D31A5A460100DA4059
S2140139D008398E401300334399465B468B40984620
S2140139E000233C4C0026241A03939FE751465A466F
S2140139F0114329D1002293460232B1E759460143C9
S214013A001ED05B46002B00D19EE1584601F072FAAB
S214013A1003000B3B1C2B00DD8FE102005946083AE0
S214013A2091408B461D21CB1A5146D9400B00594671
S214013A300B4351469B469140264B00221B1A8FE7AB
S214013A40002301229B468BE75146032288E7002389
S214013A509846013304260024039367E70323B146FF
S214013A6003930C2662E7032A00D15CE2019B012A3C
S214013A7000D0E4E113409C4600230024002298462F
S214013A8000211203130B0A0D12051A432305124CCB
S214013A9040462240134362465B00D2075B0813434D
S214013AA0190007B03CBC90469946A246AB46F0BD0D
S214013AB0002380229C4612039846034CE0E700232D
S214013AC0014C00229846DBE7FF07000001FCFFFFE0
S214013AD0287B01000DFCFFFFFFFF0F80D94500D9B1
S214013AE039E100D134E1002346464D469A46013C71
S214013AF05B460A0E1B021A430B02170C03931304B0
S214013B001B0C3900280090460193FEF7D1FE0200F7
S214013B10019B83465A43280039009146FEF74EFF23
S214013B20350C09040D43A9450DD95B464544013BB7
S214013B30A84500D93AE1A94500D837E102235B42FE
S214013B409C464544E3444B46EB1A3900180004935F
S214013B50FEF7AEFE019B05004343390004989946E3
S214013B60FEF72CFF330409041B0C0B43994509D9B6
S214013B7043446A1E984500D91AE1994500D817E1D1
S214013B80023D43444A469B1A5A4612042A43039965
S214013B909346100C0A0C914609045A46090C4E46E7
S214013BA00D001204120C45430591514372437043B4
S214013BB052190E0CB218954203D980256D02AC46F7
S214013BC06044150C09041204090C28185218834283
S214013BD000D2CEE000D1C8E01D1A53469E1AB24567
S214013BE092415242AB1A9A46984500D117E13900E4
S214013BF01800FEF75DFE019B050043433900504661
S214013C000493FEF7DBFE04980B04310C194388423B
S214013C1009D941446B1E884500D907E1884200D87E
S214013C2004E1023D4144049BCB1A18003900049379
S214013C30FEF73EFE019B82464343390004980193FA
S214013C40FEF7BCFE01980B043104090C19438842A7
S214013C500DD953464144013B884500D9E8E08842E6
S214013C6000D8E5E002235B429C464144E244019BC6
S214013C702D04CE1A51462943059D4F462A000B04B2
S214013C80080C1B0C5A4345437B4378435B19170CBE
S214013C90FB189D4203D980256D02AC4660441D0C7D
S214013CA012041B04120C28189B18864200D293E0BB
S214013CB000D18EE001231943A04BE318002B00DC52
S214013CC099E04A0700D09EE05A46D20106D55A46E8
S214013CD09B4B1A4080239346DB00E318994A934294
S214013CE068DD0123029A984C1A40002394469846B0
S214013CF00022C5E680224B46120313420AD05B46D9
S214013D00134206D11A431203120BAC4688468E4C58
S214013D10B6E64B461A431203120BBC468A4CAFE674
S214013D2003005A46283B9A4000239146984657E698
S214013D30584601F0DFF8203040E603005246283BA3
S214013D409A400021934677E601F0D4F820305FE6EA
S214013D50884500D2C7E64B46DE075D0843465B084A
S214013D601E434346DB079A46C2E60025924500D32A
S214013D7033E7039E5946B446E244B245AD416D422F
S214013D804544EB180139984507D2984200D97FE09F
S214013D9000D1BCE01D1A8B461FE79845FAD1039D5A
S214013DA05545F2D943468B461D1A16E79B46CAE689
S214013DB01500E7E65A46C90852070A435B059046CE
S214013DC05C0D5A460123029952021940120B8C4689
S214013DD056E6002B00D16FE746444A1EB04529D966
S214013DE01100864200D065E7039A934200D061E74E
S214013DF062E7012149420120C21A382A21DD029BCD
S214013E0003409C4638E60F220A40042A00D15BE7AD
S214013E100A00111D914292415242934454E7474B86
S214013E20E318002BE5DD01225242F2E71D00FAE617
S214013E309A461CE7B04239D86ED011003AE7029391
S214013E403AE71F2A3CDC20239B1A0C00584699406F
S214013E5098404B1E99415B46D440D34020430843CB
S214013E601A00430709D00F230340042B05D0010095
S214013E70081D88429B415B42D21813023AD50123A2
S214013E80029A01241A400023944698460022F7E538
S214013E90022149428C46039DE344AC46E244AA45CE
S214013EA0AD416D424544ED182D1A96E68A1E0399DA
S214013EB04D008D42894149424144761803958FE76A
S214013EC01F204042C31A5846D8400300202A28D053
S214013ED040205D46821A954029434A1E9141194366
S214013EE0072300220B4009D00F2300220B400800B5
S214013EF0042BBDD1010053075202120BC908194306
S214013F00012388460299002419408C46B8E552459B
S214013F10BED88B46002560E6039D9D42C6D31100A0
S214013F2062E70025D8E780225B4612031A43019B0D
S214013F301203120B9C468846034CA1E5FF030000C2
S214013F40FFFFFFFEFE070000FF070000F0B54F462B
S214013F504646D6465C00C0B51F03DB0F9A46174B94
S214013F600E034D0084468046360B6D0DC90F9146F3
S214013F703F0B640D01209D4208D09C4201D0A54212
S214013F800BD01CBC90469946A246F0BD634633430F
S214013F90F7D1AC42F5D13A43F3D10120BE42F0D17C
S214013FA0C845EED1514507D0002DEAD163461E43E0
S214013FB03000461EB041E4E70020E2E7FF070000BC
S214013FC0F0B54546DE4657464E46E0B51F033D0B67
S214013FD02C4F0E034C00AB465D008446360B640D39
S214013FE0C90F90466D0DDB0FBC422AD0254FBD424E
S214013FF02DD0002C0FD130430700814678427841FE
S214014000C0B2002D17D15F463A4314D14B4600206B
S214014010002B0AD006E0002D02D15846024301D0FB
S214014020994218D04842012108433CBC9046994623
S214014030A246AB46F0BD0028F2D00120013B184352
S214014040F3E737000743D1D002204042EDE75F4651
S2140140501743CED0F8E7AC42E4DC03DA481E012170
S2140140600843E2E75E45DDD806D000205E45DCD297
S2140140700123481E1843D8E7C445D3D80020C445B9
S214014080F6D3D2E7FF070000F0B54E464546DE46BA
S21401409057465C00E0B51F03DB0F99462A4B0E031B
S2140140A04D00C90F8446360B6D0D8B4690463F0B6F
S2140140B0640D9D4220D0244B9C4222D0002D12D16B
S2140140C0304343424341DBB2002C1FD0002B0CD0BF
S2140140D04B460120013B034318003CBC90469946E1
S2140140E0A246AB46F0BD002C16D0CB4517D05B469A
S2140140F0594201230B43EFE7310002230143EBD181
S214014100D9E7390002231143E6D1D7E73A43DDD197
S21401411000230028E0D0EAE73A43E6D1E7E7A542E4
S214014120E5DC05DBBE42E2D807D00023BE42D3D28F
S2140141305946012301390B43CEE7C445D7D800239E
S214014140C445F5D3C8E7C046FF070000F0B557469B
S2140141504546DE464E46E0B50C0398464E00230B18
S21401416087B0070092469B46760DCD0F002E6BD08A
S2140141706D4B9E4235D080245B46420F2404DB0003
S21401418014431C43C3009946684BA3469C46002330
S21401419000276644029343461C035A00DB0F504631
S2140141A0240B520D984600D176E05F4B9A426DD0B3
S2140141B08023410F1B040B435C49E4008C461C43DF
S2140141C0C300002062444146B6186940721C019142
S2140141D0944607430F2F00D9B0E0554ABF00D25985
S2140141E097465B460343994600D087E000239B46EB
S2140141F0023308270293CEE742460192022867D08F
S214014200032800D10EE2012800D062E10023002439
S2140142100022994601990140CDB2002112030B0DEF
S214014220120B1B051343434A240513401C43640029
S214014230ED0764082C434846210007B03CBC904675
S2140142409946A246AB46F0BD034399464FD05B461E
S214014250002B00D189E1584600F04CFE03000B3BD1
S2140142601C2B00DD7AE11D22D31A3A0001005C46C0
S214014270DA4008398C4013008F4023439B46B946E9
S21401428000232D4E0027361A029384E75346234314
S2140142902AD10024022096E75346234320D0002C3F
S2140142A000D157E1200000F025FE03000B3B1C2B3C
S2140142B000DD49E11D21CB1A51460200D940534683
S2140142C0083A944093400C431B4A121A00207AE79E
S2140142D00125019B144C1D400023002299469CE7B2
S2140142E00024002201206EE7534603206BE70023DB
S2140142F09B4601330427002602934CE7032381469D
S2140143000C27029347E780220023002512039946D3
S214014310054C82E75C464B4602986FE75C464B4687
S214014320019502986AE7C046FF07000001FCFFFFFF
S214014330687B0100FFFF0F800DFCFFFF4A464946E0
S214014340170C1A0C1B041B0C08041900000C414323
S2140143501500884619007D4379430395894629004F
S214014360150045434D44029545462D0CAA46029D2F
S2140143705544A94506D98A46802149028946CA4438
S21401438051460391290C0491414609042D04090C58
S21401439088462900250C24044144240C059121005B
S2140143A041438846210079438A4668434146504442
S2140143B08146080C48446F43824503D9802149024F
S2140143C089464F44010C89463900494402914146C9
S2140143D00F0404993F0C88460004C01980444146E6
S2140143E0049159460F0C0904090C884659438A461C
S2140143F039005143894641464A435146090C8B468A
S2140144007B43D2185A44934203D980235B029B46CE
S214014410D94451460904090C8A46414661437C4306
S214014420130C12044B445244A1468A463C004146B2
S2140144306C434D4351464D440F0C7D19A94503D994
S2140144408021490288464444049F0399B846414462
S2140144508B468345804141428846514608042F04D5
S214014460000C3F185846029910188946904292410E
S2140144704F44BA46524299469346C244D144CB442D
S2140144808F42BF41C245894199459B41934592411F
S2140144907F4249422D0C52420F435B4213437F1920
S2140144A0FF185B463C19DB0D059A64021C43430268
S2140144B013435D1EAB415A46C00D034352021343DC
S2140144C0E20156D501205A0803401343E20713437D
S2140144D064085A48604400284DDD5A0709D00F2267
S2140144E01A40042A05D01A1D9A429B415B42E418E1
S2140144F01300E20104D58020514AC00014406044F4
S214014500504A904200DDE3E60125DB0862071A43C4
S2140145106402019B9146220B4405640D1D407CE616
S214014520802259461203114208D0144206D1224372
S2140145301203120B45469946434C6EE65B461A43F8
S2140145401203120B404C68E603005446283B9C407D
S2140145500023B9E600F0CEFC2030A6E60300283B97
S2140145609F400023BB4699468AE600F0C3FC2030F4
S21401457074E6B446ADE701252A1A382A06DD019B02
S21401458000241D4000230022994646E61F2A21DC0E
S21401459020252000AD1A1E00AB40A840D6405D1E67
S2140145A0AB4130431843D440430709D00F2303409F
S2140145B0042B05D00300181D98429B415B42E4186A
S2140145C0230221D50125019B01241D400023002241
S2140145D0994622E61F2521006D42281AC14008008F
S2140145E0202A1DD05F35AA1A944023435C1EA3419E
S2140145F0072503431D400022002D09D00F22002469
S2140146001A401800042AD6D1030065076402220B5B
S214014610DB082B4301259946019B00241D40FCE540
S2140146200024E2E7802201251203224301991203A6
S214014630120B0D409946044CEFE5C046FF030000FF
S214014640FFFFFFFEFE070000FF070000F0B546462D
S214014650D6464F460C03C0B5CD0F4E00610A440F37
S2140146600C43C1005800400D84468A460F001903CA
S214014670500F490A0143C648760DA846DB0FD20003
S214014680844500D1D8E001204340AB4200D1A6E0EA
S2140146906046351A002D00DC05E1002810D10B001C
S2140146A0134300D1D7E06B1E002B00D04BE15346DD
S2140146B09F1ABA458041641A4042241A01261EE018
S2140146C0B34B9E4248D080231B041943382D00DD8E
S2140146D019E11F2D00DD4CE120230F005B1B1000AC
S2140146E09A409F40E840531E9A41E94007431743CA
S2140146F05346DF1B611ABA45A44164420C1B2302D0
S21401470000D4C5E06402650A002D00D1F6E0280059
S21401471000F0F0FB0300083B1F2B00DDE9E0202240
S2140147203C00D21A9D40D4409F4025439E4200DD66
S214014730DBE09E1B731C1F2B00DD0AE120223800E4
S214014740D21A290097402C009140D8407A1E9741F2
S214014750DC40002601430F437B0709D00F233B4073
S214014760042B05D03B1DBB42BF417F42E4191F000D
S214014770230225D5864B01369E4200D1AFE0854BFC
S21401478001251C4043466207FF086402760517436D
S214014790240B760D1D4000212403230B0C0D7E4AAD
S2140147A024051C431440330523435B00ED075B08D7
S2140147B02B43380019001CBC90469946A246F0BD12
S2140147C0012543466207FF081743E4081D40704B66
S2140147D09E4236D024037605240B760DDBE763462E
S2140147E0F31A002B00DC94E06046002835D06848B8
S2140147F08642B1D080273F043943382B00DCFDE0E8
S2140148000A43170000217A1E9741574457458041B5
S214014810091944420C1923023AD55D4B01369E42D2
S21401482000D14BE101225B4B1C407B0817401F4324
S214014830E207174364088FE70800104300D024E717
S21401484021E723003B4300D1B9E180221203144340
S2140148502403240B9FE72E007EE70800104300D1B7
S214014860CAE0581E8446002800D0E7E0524452456C
S214014870804164184042241817000126230207D5F8
S2140148800226CFE764462C4300D1B3E12C006746ED
S2140148907B0700D062E76307FF081F4301254346F5
S2140148A0E4081D4093E7002D78D1751C6D056D0D4C
S2140148B0012D00DCF2E05046801A8245BF41651AA0
S2140148C07F42ED1B8446280200D48CE05046171A1E
S2140148D0BA4292410C1B5542651B984614E70125C6
S2140148E0434600241D40002755E72A4CF61A2C4063
S2140148F032E73D0028388540002717E7380000F0EA
S214014900F9FA203006E70A43170000217A1E97417C
S214014910EEE6002B00D0E5E0731C9C465B055B0DC4
S214014920012B00DC9FE01A4B9C4500D1C5E05244A8
S21401493052458041641840422418E707520817433D
S2140149406408664608E71248854200D185E01D00E6
S214014950BCE629001F3EF140202B00D17FE040221B
S214014960D31A9D402F437D1EAF4100240F430026DE
S2140149708EE72B000F00203BDF40202D71D0402317
S2140149805D1BA9400A43511E8A4100211743AFE629
S214014990FF070000FFFF7FFFFFFF0F80002E3ED0C6
S2140149A0B34EB44545D0802636046D423443382D87
S2140149B000DDA8E01F2D00DD1FE120262700504660
S2140149C0761BB740E84007435046B040461EB0410C
S2140149D0EC403843171ABA4292410C1B5242A41AB1
S2140149E0664698468BE6644667462C4300D08BE6BF
S2140149F0002500260027EAE61E00ADE61F2B60DC38
S214014A002027F81A0F00844687401000D840074335
S214014A1060468240501E8241D9401743F5E6260083
S214014A205046064305D0ED43002DD3D0904EB445F5
S214014A30BDD10C001700664698468DE68C48834229
S214014A400BD06346D9E6002D00D096E0080010434F
S214014A5000D1E2E00C0017009846854E7CE6002562
S214014A6080E700218EE7230050460343002E00D046
S214014A70A8E0002B00D1DEE00B00134300D16BE66B
S214014A8052445245804164184042241817002302BC
S214014A9000D4FDE6774B66461C405DE62500504691
S214014AA00543002ECFD1002D4FD10C00144300D169
S214014AB0A0E00C00170098464EE666460024002744
S214014AC085E61F000800203FF8400700202B00D194
S214014AD08EE04020C31A99400A43511E8A410021A4
S214014AE0174392E6002E14D126005046064362D0A4
S214014AF0DB43002B5CD187189742924164185242DF
S214014B00A418664687E650462043441EA04100246A
S214014B1060E7574EB4454ED0802636045B42344398
S214014B20382B00DD7FE01F2B00DD8BE020262700E1
S214014B305046F61AB740D84007435046B040461E86
S214014B40B0410743DC40BF18D6E70D00154300D13E
S214014B5002E65046801A8245BF41651A7F42ED1B28
S214014B608446280200D48DE65046171ABA4292416E
S214014B700C1B5242A41A9846EEE50D00154300D1CF
S214014B806BE750466707C00807438020E408000328
S214014B90044207D0CD08054204D12C009846D70818
S214014BA049070F437B0FE4001C43FF00304ED3E55B
S214014BB02F4EB445B4D10C0017006646CCE500274D
S214014BC00024E8E5002B39D00B00134300D144E75D
S214014BD0C008670707438020E40800030442E1D0C9
S214014BE0CB080342DED1D70849070F431C00D9E79B
S214014BF0002171E700250027E9E52E002700203E69
S214014C00F740202D2FD04026751BAC405046204340
S214014C10441EA04100243843DCE6802400252403FA
S214014C20134E0027D3E5504620430700781E8741E0
S214014C300024BF1860E70C0017008DE50C00170074
S214014C400B4E89E51E002700203EF740202B0CD096
S214014C504026F31A9C4050462043441EA041074379
S214014C600024BF1848E70024D0E70024F3E7C04635
S214014C70FF070000FFFF7FFF70B50E4E0D031C03FC
S214014C8049005B002D0B490D240B5B0DB14204D08E
S214014C90084900208B4208D070BD05430120002D35
S214014CA0FAD1044900208B42F6D114432000441E59
S214014CB0A041F1E7FF07000070B5002830D0C31708
S214014CC0C4185C40C50F200000F014F9174B184AB1
S214014CD01B1AD21A1F2A18DD164AD21A944000222D
S214014CE024035B05240B5B0D0021100024030A0D31
S214014CF0240B12052243104C1B05224013435B0074
S214014D00ED075B082B43190070BD210091400A0096
S214014D100B21081AC4405B052403240B5B0DE3E753
S214014D200025002300240022DEE7C0461E04000002
S214014D303304000013040000FFFF0F804100090E3A
S214014D404B1C70B5DBB24602750AC40F012B14DD8D
S214014D50E0239B006D07360BCB1800210A0D2800B7
S214014D6012051C4D32435B052A405B0813435B006A
S214014D70E4075B082343190070BD002914D1002DF8
S214014D801ED0280000F0B6F80A281CDC0B232A00E7
S214014D901B1ADA40030015339D400F4B12031B1AF2
S214014DA05B05160B5B0DD8E7002D06D0320B80266F
S214014DB036036D071643094BCFE7084B0026CCE7B1
S214014DC000230026C9E703002A000B3B9A40002572
S214014DD0E3E7C046FFFF0F8089030000FF070000DE
S214014DE0F0B54C00640D0B03621C450F5B0A5205BF
S214014DF02B43C90FC500520D012A28DD3A4AA618D1
S214014E00FE2E1BDC002E3EDD80010200501E82417C
S214014E106D0F2A43DB0013435A0704D00F221A40B2
S214014E20042A00D004338022D2041A405AD0013614
S214014E30FF2E03D09B015B0AF4B201E0FF2400239E
S214014E405802E405400AC90720430843F0BD002C78
S214014E5007D01D43F2D08020DB0080040343FF26E9
S214014E60DAE72B4303D00523DB08FF2C03D05B02D4
S214014E705B0AE4B2E4E7002B32D08020C003034390
S214014E805B025B0ADCE73200173214DB80221E2746
S214014E9012041343BF1B1F2F0FDC144A94466444AD
S214014EA02A00A5402E00A340751EAE41FA403343AA
S214014EB013430026B0E70024D5E702225242961B90
S214014EC01A00F240202F09D0094884466444A340C2
S214014ED02B435D1EAB41002613439DE70023F7E7F6
S214014EE00023ADE73400BFE780FCFFFF82FCFFFF35
S214014EF0A2FCFFFF1C2101231B04984201D3000CD6
S214014F0010391B0A984201D3000A08391B09984236
S214014F1001D30009043902A2105C40187047C0464C
S214014F20040302020101010100000000000000006C
S214014F3010B50A22002100F079FA10BD014B18685D
S214014F407047C0461400002070B500260C4D0D4C6D
S214014F50641BA410A64209D1002602F009FF0A4DDF
S214014F600A4C641BA410A64205D170BDB300EB58D1
S214014F7098470136EEE7B300EB5898470136F2E75B
S214014F807C7D01007C7D01007C7D0100807D01002F
S214014F90931E10B50C00222B04D900231C000B70A5
S214014FA0200010BD0A2A09D1002807DA2D230B702C
S214014FB001214042611800F061FAF1E70021F9E7AA
S214014FC010B5FFF7E5FF10BD10B5034B01001868DB
S214014FD000F06AF810BDC0461400002010B5034B5F
S214014FE00100186800F016F810BDC0461400002035
S214014FF0002310B59A4200D110BDCC5CC4540133D5
S214015000F8E703008218934200D170471970013304
S214015010F9E7000070B50500002910D00C1F2368C1
S214015020002B00DAE418280000F086FA1D4A1368FF
S214015030002B05D163601460280000F07EFA70BD75
S214015040A34209D9216860188342F3D118685B68C6
S21401505041182160EEE713005A68002A01D0A242E7
S214015060F9D919685818A0420BD1206809185818A0
S21401507019608242E0D110685268411819605A607E
S214015080DAE7A04202D90C232B60D5E72168601825
S214015090824203D1106852684118216062605C60E8
S2140150A0CAE7C046DC060020032370B5CD1C9D432D
S2140150B0083506000C2D1ED20C25A9421DD830003D
S2140150C000F03AFA254A14682100002919D1244C27
S2140150D02368002B03D1300000F044F8206029003B
S2140150E0300000F03FF8431C2CD10C233000336015
S2140150F000F023FA03E0002DDFDA0C2333600020F2
S21401510070BD0B685B1B1AD40B2B03D90B60CC1834
S214015110256003E08C420ED163681360300000F016
S2140151200CFA200007220B30231D9043C31AE7D048
S2140151305A42E250E4E74B6863600C00EEE70C006D
S2140151404968C2E70323C41C9C43A042E0D0211A4D
S214015150300000F007F8431CDAD1C6E7DC06002071
S214015160E0060020002370B5064C05000800236009
S214015170FCF718F8431C03D12368002B00D02B60E2
S21401518070BDC046640C00200EB410B59DB002A9D7
S214015190029008610B4882248860486101204042E1
S2140151A01FABC881084804CBA400006801938C811A
S2140151B000F026FA0023029A13701DB010BC08BC3A
S2140151C003B01847FFFFFF7F14000020C9B2037821
S2140151D0002B04D0994200D170470130F7E74B42CB
S2140151E0594149420840F7E702780B78002A03D074
S2140151F0013001319A42F7D0D01A7047031C0A7861
S21401520001311A700133002AF9D170470023C25CBC
S2140152100133002AFBD1581E704770B50400002ADE
S21401522000D170BD0D78561E631C25700131002D0E
S21401523005D1A4189C42F4D01D700133FAE71C0076
S2140152403200ECE710B502000078002804D1097896
S21401525000290DD010BD013210780028FAD00023A5
S214015260C85C002804D0D45C8442F4D10133F7E74B
S2140152701000EFE7F8B5124B06001D680F00AC6D85
S214015280002C16D15020FFF79FFEA86504604460ED
S2140152908460C4600461446184618462C46204639E
S2140152A044638463C463046444648464C4640477A8
S2140152B04462AA6D39003000012300F003F8F8BDFE
S2140152C014000020F0B5002804D11068002801D190
S2140152D0F0BD20000E000578441C3778002F04D15D
S2140152E0002D10D115602800F2E70136BD42F4D139
S2140152F0002BEED114600370EAE733000EE00135AF
S2140153001C00002F02D10D002678631C2F78BE42A8
S214015310F5D1002EF1D00024591E0C701360D7E78A
S214015320F0B51F000E0087B00590039102920C980D
S214015330347800F0DDF8082200194378751C134014
S2140153400CD12D2C0CD101332C780193B51C002FD8
S2140153500CD0102F14D1302C0AD011E02E00E6E725
S21401536001932B2CF3D12C78B51CF0E7302C2FD1E0
S21401537020222B789343582B51D110276C78023575
S214015380019B294A39009E183000FDF717FB3000B3
S21401539004913900FDF78CFA0121002349420200ED
S2140153A08C46180021003039092913D80C00A74271
S2140153B01CDD591C09D06346824206D302D10499EA
S2140153C0A14202DB0123784320182C780135E9E756
S2140153D00A27D5E721004139192901D8373CE6E7E4
S2140153E021006139192901D8573CE0E75A1C08D138
S2140153F0059A23331360029B3000002B0BD107B0B4
S214015400F0BD019A002A00D04042029A002AF6D046
S214015410039A002B00D06A1E029B1A60EFE7302425
S214015420002FADD10837ABE7FFFFFF7F37B513007D
S214015430064A05001068046A002C00D1044C0A00D4
S21401544000942900FFF76CFF3EBDC0461400002003
S21401545078000020F8B50600050003272C78002CFC
S21401546001D13000F8BD00F047F8001943783B4001
S214015470022B00D1203C2C700135EFE7F0B5170068
S2140154808FB0252206000D0004A81849FFF7B0FDCD
S21401549004AABB1E00240392222B05D92C702500DA
S2140154A028000FB0F0BD019C631C0193EB1800931C
S2140154B03000013B39000293FDF780FA039B029A04
S2140154C05B5C300013703900FDF7F2F9061EEAD175
S2140154D0009B18702B005A1B9442E1DD1A78295D57
S2140154E019702A550133013CF5E7C046A87B010037
S2140154F0EC30006870470000044B1B681B6A002BE9
S21401550000D1034BEC3318687047C04614000020E6
S2140155107800002082B0002900D101A9101E06D013
S214015520002B06D013780B601078431E984102B00A
S214015530704702204042FAE770477047F0B58E6820
S21401554085B007000C00039201939E4239D8902340
S2140155508A89DB001A4234D00325096923685B1A5D
S2140155600293636902985D43EB0F5D19019B6D1011
S21401557001331B18AB4200D91D00530532D5290053
S2140155803800FFF791FD061E09D10C233B6040232E
S2140155900120A28940421343A38105B0F0BD029ABF
S2140155A02169FFF725FDA389144A1A408023134376
S2140155B0A381029B2661F61826606561019EED1A9D
S2140155C0A560019BB34200D21E00320003992068F9
S2140155D000F0B9FAA36800209B1BA36023689E19FC
S2140155E02660DAE72A00380000F0BFFA061EE0D18E
S2140155F021693800FFF70EFDC7E7C0467FFBFFFFB6
S214015600F0B59FB0029005938B890F0016001B061C
S21401561011D50B69002B0ED14021FFF745FD3860EF
S2140156203861002805D10C23029A013813601FB097
S214015630F0BD40237B61002306AD6B6120336B76A2
S2140156401033AB7634002378002B47D1A31B049389
S2140156500DD0A31B320039000298FFF76FFF431CE1
S21401566000D1B5E06A69049B944663446B61237874
S214015670002B00D1ACE00122002352426A6002A94D
S2140156805432521801342B60EB60AB601370AB657B
S214015690584E05222178300000F04AFA621C002894
S2140156A020D12968CB0604D5532302AE20309B199E
S2140156B018700B0704D553232B2002AE9B191870C4
S2140156C023782A2B16D000200A21099B2278303A0B
S2140156D0092A55D9002815D0099313E0252BB5D0F2
S2140156E00134B0E70123801B8340296814000B4373
S2140156F02B60CDE7059B181D1B680590002B39DB39
S2140157000993140023782E2B0BD16378621C2A2B65
S2140157103ED1059B02341A1D1B680592002B34DB13
S2140157200793354E21780322300000F001FA002855
S21401573006D04023801B83402A68013413432B6024
S214015740217806222D48661C297600F0F1F90028FA
S21401575046D02B4B002B2FD12968059B0722C90564
S21401576028D59B189343083305936B69039A9B18B6
S2140157706B6167E75B42EB6002230B432B60C0E77C
S2140157804B4301349B180120A0E701235B42C7E786
S214015790002314000A201A006B6021783039092989
S2140157A003D9002BBDD00792BBE742430134521800
S2140157B00123F2E70733D5E705AB00933A00114B17
S2140157C02900029800E000BF0390039B0133CCD16F
S2140157D0BB890B985B0600D429E70120404226E7E7
S2140157E005AB00933A00074B2900029800F07AF8BF
S2140157F0EAE7C0463A7C0100407C0100447C010097
S214015800000000003D550100F7B5150001938A68B8
S2140158100B6900900C00934200DA130022002B6003
S21401582043321278002A01D001332B6023689B068D
S21401583002D52B6802332B60062723681F4027D02A
S214015840230043331B785A1E93412268920630D4B4
S2140158502200019943320098089EB047431C25D088
S214015860062320682A68E16803400025042B03D13B
S2140158708D1AEB43DB171D40A3682269934201DDB5
S2140158809B1AED180027BD4220D1002010E00137F9
S214015890E3682A689B1A9F42D2DA22000123193252
S2140158A001990098089EB047431CF0D10120404260
S2140158B0FEBD3020E1184331087021005A1C4531E5
S2140158C00978A218433202331170C1E7220001237E
S2140158D01A3201990098089EB047431CE6D001375A
S2140158E0D1E70000F0B58BB006920A004332079369
S2140158F0059004920A7E0C00109B6E2A00D18FE060
S21401590017D8632A2CD008D8002A00D199E0582A43
S21401591054D026004236327029E0642A01D0692A22
S214015920F7D121681A68080623D5111D1960156874
S21401593025E0732A00D188E008D86F2A29D0702A7A
S214015940E7D1202209680A43226003E0752A20D0A5
S214015950782ADED122007821453211706C4A30E077
S2140159600E001A684236111D196013683370012340
S21401597079E04906D9D5111D19600023D55E002DA1
S21401598003DA2D23049A6D421370624B0A270393A0
S2140159902FE020681968050603D5081D18600D68F4
S2140159A005E04006F9D50D68081D1860ADB2594BE3
S2140159B0082703936F2A18D00A2716E045310A7084
S2140159C0544A03921A682168101D18601568080663
S2140159D022D5CB0702D52023194321601027002D9D
S2140159E003D1202322689A432260230000224333F6
S2140159F01A706368A360002B5CDB04222168914364
S214015A002160002D58D1049E002B64D02600039BF4
S214015A1042361B7833705EE04806DAD5ADB2D8E779
S214015A2009681A68080605D5111D196013686269A8
S214015A301A6006E04906F7D5111D19601368A28A97
S214015A401A800023049E236154E01A68111D196010
S214015A50166800216268300000F06AF8002801D05C
S214015A60801B6060636823610023049A137041E021
S214015A702369320006990598079DA847431C43D021
S214015A80236800259B070FD4099BE06898423DDAFE
S214015A9018003BE022000123193206990598079E5B
S214015AA0B047431C30D00135E368099A9B1A9D42E2
S214015AB0F0DBE9E7002DA9D0049E28003900FCF7A9
S214015AC07DFF039B013E5B5C280033703900FCF7C9
S214015AD0EFFE051EF1D1082F09D12368DB0706D595
S214015AE063682269934202DC3023013E3370049BD3
S214015AF09B1B2361079B09AA00932100069B05981F
S214015B00FFF782FE431CB3D1012040420BB0F0BD2B
S214015B105C7C01004B7C01000B1E04D0FF2A04D9DB
S214015B208A2303608B3B180070470A700123FAE74B
S214015B30C9B28218904201D10020704703788B4287
S214015B40FBD00130F6E710B5884202D98B1898428F
S214015B5008D300239A4207D0CC5CC4540133F9E73A
S214015B608B5C8354013AFBD210BDF8B507000D00DB
S214015B701600002905D11100FFF796FA040020004F
S214015B80F8BD002A03D1FFF745FA3400F7E700F025
S214015B9012F82C008642F2D931003800FFF784FA59
S214015BA0041EECD029003200FFF722FA2900380043
S214015BB0FFF730FAE3E70B1F1B68181F002B01DA0B
S214015BC00B58C01870470000149100005A9100004D
S214015BD0D8930000D8930000A8910000EE91000031
S214015BE0349200007A920000D8930000D893000007
S214015BF0D8930000D8930000D8930000D8930000F3
S214015C00D8930000D8930000C092000006930000CD
S214015C104C930000929300005C940000E494000012
S214015C2050980000509800007495000004960000FB
S214015C30949600005098000050980000509800007C
S214015C4050980000509800005098000050980000AE
S214015C50509800005098000050980000509800009E
S214015C603C970000C69700004E6F204164632043B6
S214015C7068616E6E656C20466F756E64210000006B
S214015C80A89A0000FA9C0000FA9C0000FA9C00000A
S214015C90FA9C0000FA9C0000FA9C0000FA9C0000A6
S214015CA0FA9C0000FA9C0000FA9C0000FA9C000096
S214015CB0FA9C0000FA9C0000FA9C0000FA9C000086
S214015CC0889A0000FA9C0000FA9C0000FA9C0000EA
S214015CD0FA9C0000FA9C0000FA9C0000FA9C000066
S214015CE0FA9C0000FA9C0000FA9C0000FA9C000056
S214015CF0FA9C0000FA9C0000FA9C0000FA9C000046
S214015D00A09A0000FA9C0000FA9C0000FA9C000091
S214015D10FA9C0000FA9C0000FA9C0000FA9C000025
S214015D20FA9C0000FA9C0000FA9C0000FA9C000015
S214015D30FA9C0000FA9C0000FA9C0000FA9C000005
S214015D40989A0000D89A0000689A0000789A000095
S214015D50709A00000200000003000000FFFF000030
S214015D60FFFF000004000000050000000600000020
S214015D7007000000FFFF0000FFFF0000FFFF00001C
S214015D80FFFF0000FFFF0000FFFF0000FFFF000015
S214015D90FFFF000008000000090000000A000000E4
S214015DA00B00000000000000963007772C610EEE15
S214015DB0BA51099919C46D078FF46A7035A563E95C
S214015DC0A395649E3288DB0EA4B8DC791EE9D5E083
S214015DD088D9D2972B4CB609BD7CB17E072DB8E782
S214015DE0911DBF906410B71DF220B06A4871B9F3D7
S214015DF0DE41BE847DD4DA1AEBE4DD6D51B5D4F410
S214015E00C785D38356986C13C0A86B647AF962FD74
S214015E10ECC9658A4F5C0114D96C0663633D0FFAC1
S214015E20F50D088DC8206E3B5E10694CE44160D5C7
S214015E30727167A2D1E4033C47D4044BFD850DD2B1
S214015E406BB50AA5FAA8B5356C98B242D6C9BBDBC4
S214015E5040F9BCACE36CD832755CDF45CF0DD6DCBF
S214015E60593DD1ABAC30D9263A00DE518051D7C866
S214015E701661D0BFB5F4B42123C4B3569995BACFF1
S214015E800FA5BDB89EB802280888055FB2D90CC612
S214015E9024E90BB1877C6F2F114C6858AB1D61C18B
S214015EA03D2D66B69041DC760671DB01BC20D298AA
S214015EB02A10D5EF8985B1711FB5B606A5E4BF9F37
S214015EC033D4B8E8A2C9077834F9000F8EA809962A
S214015ED018980EE1BB0D6A7F2D3D6D08976C649195
S214015EE0015C63E6F4516B6B62616C1CD8306585AE
S214015EF04E0062F2ED95066C7BA5011BC1F408828B
S214015F0057C40FF5C6D9B06550E9B712EAB8BE8BCB
S214015F107C88B9FCDF1DDD62492DDA15F37CD38C54
S214015F20654CD4FB5861B24DCE51B53A7400BCA352
S214015F30E230BBD441A5DF4AD795D83D6DC4D1A484
S214015F40FBF4D6D36AE96943FCD96E34468867AD5B
S214015F50D0B860DA732D0444E51D03335F4C0AAAFA
S214015F60C97C0DDD3C710550AA41022710100BBEFD
S214015F7086200CC925B56857B3856F2009D466B944
S214015F809FE461CE0EF9DE5E98C9D9292298D0B079
S214015F90B4A8D7C7173DB359810DB42E3B5CBDB726
S214015FA0AD6CBAC02083B8EDB6B3BF9A0CE2B603A7
S214015FB09AD2B1743947D5EAAF77D29D1526DB045C
S214015FC08316DC73120B63E3843B64943E6A6D0DA7
S214015FD0A85A6A7A0BCF0EE49DFF099327AE000AF2
S214015FE0B19E077D44930FF0D2A3088768F2011E85
S214015FF0FEC206695D5762F7CB67658071366C191C
S214016000E7066B6E761BD4FEE02BD3895A7ADA103C
S214016010CC4ADD676FDFB9F9F9EFBE8E43BEB7171D
S214016020D58EB060E8A3D6D67E93D1A1C4C2D838A7
S21401603052F2DF4FF167BBD16757BCA6DD06B53F0D
S2140160404B36B248DA2B0DD84C1B0AAFF64A03364C
S214016050607A0441C3EF60DF55DF67A8EF8E6E31CB
S21401606079BE69468CB361CB1A8366BCA0D26F2514
S21401607036E2685295770CCC03470BBBB916022261
S2140160802F260555BE3BBAC5280BBDB2925AB42B76
S214016090046AB35CA7FFD7C231CFD0B58B9ED92C8B
S2140160A01DAEDE5BB0C2649B26F263EC9CA36A75F0
S2140160B00A936D02A906099C3F360EEB85670772A7
S2140160C013570005824ABF95147AB8E2AE2BB17B0E
S2140160D0381BB60C9B8ED2920DBED5E5B7EFDC7C95
S2140160E021DFDB0BD4D2D38642E2D4F1F8B3DD68EC
S2140160F06E83DA1FCD16BE815B26B9F6E177B06FE7
S2140161007747B718E65A0888706A0FFFCA3B0666D3
S2140161105C0B0111FF9E658F69AE62F8D3FF6B6160
S21401612045CF6C1678E20AA0EED20DD75483044E02
S214016130C2B30339612667A7F71660D04D47694990
S214016140DB776E3E4A6AD1AEDC5AD6D9660BDF40A3
S214016150F03BD83753AEBCA9C59EBBDE7FCFB24756
S214016160E9FFB5301CF2BDBD8AC2BACA3093B3533B
S214016170A6A3B4240536D0BA9306D7CD2957DE5444
S214016180BF67D9232E7A66B3B84A61C4021B685D1D
S214016190942B6F2A37BE0BB4A18E0CC31BDF055A96
S2140161A08DEF022D4154206572726F72000000005F
S2140161B0415445300D0A00004154204543484F20C4
S2140161C06572726F7200000041542B4346554E3D76
S2140161D0310D0A0041542B4346554E206572726FAD
S2140161E07200000049532053494D2044455445430D
S2140161F0544544202020202020202020203A204ED4
S2140162004F00000049532053494D2044455445430F
S214016210544544202020202020202020203A2059A8
S2140162204553000041542B434950434C4F53450DB1
S2140162300A0000006572726F7221207265616469DE
S2140162406E672066726F6D20666C6173685F3100E1
S2140162506572726F72212072656164696E6720666D
S214016260726F6D20666C6173685F32004352433310
S214016270323A200041542B4350494E3F0D0A00004C
S2140162802B4350494E3A20524541445900000000E4
S214016290434C4F5345204F4B0D0A000041542B43AE
S2140162A04950434C4F53453D310D0A0041542B4351
S2140162B0495053544152543D22544350222C2200FB
S2140162C0222C000041542B43495053544152543D13
S2140162D022554450222C2200434F4E4E4543540033
S2140162E041542B434D4744413D2244454C20414CAB
S2140162F04C220D0A0000000064656C65746564201C
S214016300616C6C20534D530041542B434D47443D23
S2140163100000000041542B434950534855540D0A80
S21401632000000000737461727420616E6420656EF3
S2140163306420616472657373657320617265204EB3
S214016340554C4C0041542B43434C4B3F0D0A000027
S2140163502B43434C4B3A000041542B47534E0D0AF6
S214016360000000004F4B000041542B43494D490D9E
S2140163700A00000041542B53415042523D332C3108
S2140163802C22436F6E74797065222C22475052532B
S214016390220D000041542B53415042523D332C31C3
S2140163A02C2241504E222C220000000041542B5337
S2140163B0415042523D312C310D00000041542B43D7
S2140163C0495047534D4C4F433D312C310D00000091
S2140163D02B43495047534D4C4F433A0041542B43AE
S2140163E05245473D310D0A0041542B435245473F24
S2140163F00D0000002B435245473A000041542B4301
S21401640053510D0A000000002B4353513A0000007F
S21401641049532047534D20504F5745524544204F2E
S2140164204E20202020202020203A20004F4B0D0A0D
S2140164300000000041540D0A000000005945532099
S214016440000000004E4F200041542B485454505435
S21401645045524D0D0A00000041542B534150425203
S2140164603D302C310D0A000041542B53415042520D
S2140164703D332C312C22436F6E74797065222C22A9
S21401648047505253220D0A0041542B534150425259
S214016490203D312C310D0A0041542B5341504252BC
S2140164A03D322C310D0A00002B53415042523A0026
S2140164B041542B48545450494E49540D0A0000008B
S2140164C041542B48545450504152413D2243494473
S2140164D0222C310D0A00000041542B4854545050D0
S2140164E04152413D2255524C222C220041542B4808
S2140164F0545450504152413D22434F4E54454E5400
S214016500222C226170706C69636174696F6E2F6AE8
S214016510736F6E220000000041542B4854545044BF
S2140165204154413D000000002C0000003130303065
S21401653030000000444F574E4C4F41440D0A0000B6
S21401654041542B48545450414354494F4E3D310D0C
S2140165500A0000002B48545450414354494F4E3AC8
S2140165600000000041542B48545450414354494FB5
S2140165704E3D300D0A00000041542B434741545410
S2140165803F0D0A002B43474154543A2000000000B7
S21401659041542B434D474C3D2252454320554E52C4
S2140165A0454144222C310D0A000000002B434D4783
S2140165B04C3A000053494D20697320726567697330
S2140165C074657265640000004E4554574F524B2067
S2140165D074797065206973204C4F43414C202831F3
S2140165E0290000004E4554574F524B207479706570
S2140165F020697320524F414D494E472028352900C6
S21401660053494D206973206E6F74207265676973F4
S214016610746572656400000041542B435354543D25
S2140166202200000041542B43494943520D0A000001
S21401663041542B43494653520D0A0000646174616C
S214016640206C656E203C3D20300000006572726F44
S21401665072212077726974696E6720696E746F2083
S214016660666C6173685F31006572726F72212077A4
S214016670726974696E6720696E746F20666C6173E7
S214016680685F320041542B434D47523D00000000E5
S2140166902B434D47523A00002D2D70686F6E654EA4
S2140166A0756D6265725072696E74696E672D2D0024
S2140166B041542B43495053454E443D0053454E44A7
S2140166C0204F4B0D0A00000073656E7420646174E0
S2140166D061206275666665723A0000006669726DD1
S2140166E077617265223A0000636865636B73756D46
S2140166F0223A0000636865636B73756D223A206EFB
S2140167006F7420666F756E64000000006669726DB6
S21401671077617265206E6F7420666F756E64000017
S2140167204461746153656E64696E67204661696C85
S2140167306564212C726573706F6E73653A20000074
S214016740737769746368696E6720646F776E207407
S21401675068652067736D000041542B434D47463DE5
S214016760310D0A00494D45493A25730A2573000043
S21401677041542B434D47533D220000003E0000008C
S214016780222C2220222C22200000000041542B43E0
S214016790494943520000000041542B434946535295
S2140167A03A000000535441525420414444533A00A5
S2140167B041542B48545450524541443D25732C2591
S2140167C06C640D0A000000002B4854545052454199
S2140167D0443A20256C640D0A000000000D0A4F4B58
S2140167E00D0A000052656365697665642042595456
S2140167F045533A0041637475616C46696C6553692B
S2140168007A65203D000000005772697474656E4613
S214016810696C6553697A65203D0000002530386C47
S21401682078000000435243333242206F662062698B
S2140168306E2066696C653A200000000043524333BF
S2140168403242206F6620666C6173682020203A20F1
S21401685000000000322E3000696F742E7468696E75
S2140168606774726F6E6963732E636F6D000000004C
S21401687054454D504552415455524520494E2043AA
S214016880454C534955532041763A200054454D50C6
S2140168902041444320564F4C54414745204176679A
S2140168A020202020203A2000205600004750525336
S2140168B020636F6E6E656374696F6E204661696CE6
S2140168C0656400004750525320636F6E6E656374B3
S2140168D0696F6E2053756363657373210000000052
S2140168E054435020636F6E6E656374696F6E204605
S2140168F061696C656400000054435020636F6E6EDE
S214016900656374696F6E20737563636573730000E6
S2140169102573696D65693A25730A70726F6A3A253F
S214016920730A68775F763A25730A73775F763A2536
S214016930730A625F616464723A25640D0A0D0A0087
S2140169404E6F206669726D7761726520757064613D
S214016950746500006669726D776172652075706492
S21401696061746520617661696C61626C652075721F
S2140169706C3A0000636865636B73756D3A000000DE
S214016980320000004F544120555044415445205395
S21401699055434345535321005761697420666F720E
S2140169A020313073212121207265737461727469FC
S2140169B06E6721004F5441204641494C4544212CE5
S2140169C0454550524F4D20777269746520455252A5
S2140169D04F5200004F5441205550444154452046E3
S2140169E041494C4544212C454550524F4D20777224
S2140169F0697465204552524F520000004F544120A1
S214016A00555044415445204641494C4544212C4863
S214016A1054545020494E4954204552524F52210059
S214016A204F544120555044415445204641494C4518
S214016A3044212C434F44453A256400005468696E4E
S214016A406774726F6E69637320496E6E6F766174D8
S214016A50696F6E7320507674204C746400000000D9
S214016A6047534D20706F776572696E6720646F7744
S214016A706E2E2E2E00000000636F6E74726F6C20F7
S214016A80726573657474696E672E2E2E00000000A1
S214016A90474554202F6F74612F7365727665722F88
S214016AA07068702F7075626C69632F696E646578A3
S214016AB02E70687020485454502F312E300A000032
S214016AC054484E475452000034373434353235007A
S214016AD039363131353032313033000039383931D9
S214016AE0303234343737000047534D204841524442
S214016AF05741524520494E5449414C495A415449FF
S214016B004F4E203A205355434345535346554C0068
S214016B1053494D434152442053455455502020205B
S214016B202020202020202020203A20535543434572
S214016B30535346554C000000534D5320534552566F
S214016B4049434520534554555020202020202020DD
S214016B5020203A205355434345535346554C000095
S214016B60534D53205345525649434520534554559A
S214016B70502020202020202020203A204641494C29
S214016B804544000053494D43415244205345545512
S214016B90502020202020202020202020203A20467F
S214016BA041494C454400000047534D20484152445A
S214016BB05741524520494E5449414C495A4154493E
S214016BC04F4E203A204641494C454400332E320070
S214016BD04D61696E207461736B0000000D0A535994
S214016BE05354454D20524553455420524541534F29
S214016BF04E2020202020203A20000000534F4654EB
S214016C00574152452052455345540000574154437D
S214016C1048444F472054494D455220524553455408
S214016C200000000045585445524E414C2050494EF4
S214016C30205741532050554C4C4544204C4F57004B
S214016C40424F4433332C0000424F4431322C000073
S214016C50504F522028506F776572206F6E207265F4
S214016C607365742900000000554E4B4E4F574E0079
S214016C70484152445741524520494E5449414C4996
S214016C805A4154494F4E2020203A205355434345FC
S214016C90535346554C0D0A00444556494345204931
S214016CA04D4549204E4F2020202020202020202006
S214016CB0203A2000534D5320534552564943452010
S214016CC0534554555020202020202020203A205380
S214016CD055434345535346554C00000045455052D5
S214016CE04F4D20494E495449414C20534554555027
S214016CF020202020203A20535543434553534655E0
S214016D004C00000044455649434520434F4E4649F2
S214016D104755524154494F4E2053455455503A20F9
S214016D205355434345535300454550524F4D204913
S214016D304E495449414C205345545550202020205B
S214016D40203A204641494C4544000000426F6F748A
S214016D502075702044617461205375636365737395
S214016D6066756C6C792053656E7400004661696CBB
S214016D706564212073656E64696E6720426F6F7467
S214016D807570646174610000527463204261636BC4
S214016D902055502052756E6E696E670074656D7071
S214016DA02D73656E736F722D67736D006F74612E30
S214016DB07468696E6774726F6E6963732E6F72673B
S214016DC000000000474D522054454D504552415455
S214016DD0555245204D4F494E544F52494E47205328
S214016DE0595354454D0000007777772E7468696EC5
S214016DF06774726F6E6963732E6E657400000000AF
S214016E00312E3100307830303030393030300000BB
S214016E1050524F44554354204E414D45202020208A
S214016E202020202020202020203A2000434F4D50B3
S214016E30414E59204E414D45202020202020202023
S214016E4020202020203A2000534F465457415245D7
S214016E502056455253494F4E2020202020202020E6
S214016E60203A200048415244574152452056455247
S214016E7053494F4E2020202020202020203A200059
S214016E804150492056455253494F4E20202020203C
S214016E902020202020202020203A20005052455338
S214016EA0454E54204144445245535320202020202F
S214016EB020202020203A2000544F54414C2052419B
S214016EC04D2053495A4520202020202020202020D4
S214016ED0203A2000454550524F4D204D454D4F52CA
S214016EE0592020202020202020202020203A204E1B
S214016EF04F5420464F554E44000000004545505221
S214016F004F4D204D454D4F52592053455455502015
S214016F1020202020203A20444F4E450020202020CB
S214016F20202020202028747279696E6720746F20D3
S214016F30706F776572204F4E207468652047534DF9
S214016F402900000020202020206572726F723A20EE
S214016F5067736D20696E697469616C697A617469B9
S214016F606F6E206661696C65642E20526574727955
S214016F70696E67202E2E2E0047534D20494E4954E8
S214016F8049414C495A4154494F4E20202020202047
S214016F90203A204641494C454400000047534D20C5
S214016FA0494E495449414C495A4154494F4E202073
S214016FB020202020203A205355434345535346551D
S214016FC04C00000047534D2054494D4520202020B9
S214016FD0202020202020202020202020203A2000B1
S214016FE05072696E74696E6720534D5320636F6EDD
S214016FF074656E743A0000006D6F62696C654E755B
S2140170006D6265723A200000535441545553000096
S2140170105369676E616C20537472656E677468207D
S214017020697320004C41543A25730A4C4F4E473A37
S21401703025730A525353493A25640A41504E3A255C
S214017040730A55524C3A25730A0000004D736720A7
S214017050436F6E74656E74203A00000053656E646B
S214017060696E6720534D5320746F204761746577AE
S2140170706179000053656E64696E6720534D532035
S214017080746F204F74686572204E756D626572006C
S21401709053656E64696E67206465766963652073FF
S2140170A074617475730000005245424F4F540000DE
S2140170B05245424F4F5445442C4D4F423A25732C6E
S2140170C074733A25730000005265737461727469B3
S2140170D06E67205468652053797374656D000000EF
S2140170E0494E56414C494420434D442C4D4F423A5B
S2140170F025732C74733A257300000000496E76617F
S2140171006C696420436F6D6D616E6400534D53204E
S21401711068616E646C696E6720646F6E650000005E
S21401712057524954494E4720494E5449414C2043F1
S2140171304F4E464947202020203A20535543434589
S214017140535346554C0000003900000053494D206A
S2140171504552524F52204C4F4720434F4445202022
S21401716020202020203A200041444320434F4E4611
S214017170494755524154494F4E2020202020202077
S214017180203A205355434345535346554C0000007F
S214017190202020202020202020287475726E696E01
S2140171A067204F4646207468652047534D290000E6
S2140171B05254432043616C6C4261636B00000000D3
S2140171C04E45585420414C41524D2054494D45207E
S2140171D02020202020202020203A202564203A202C
S2140171E02564203A2564200A000000000D0A475055
S2140171F053204C4F434154494F4E20464554434833
S214017200494E47202020203A204641494C4544001B
S2140172100D0A475053204C4F434154494F4E2020AE
S2140172200000000020204C4154495455444520207C
S214017230202020202020202020202020203A20004E
S21401724020204C4F4E4749545544452020202020AD
S2140172502020202020202020203A2000426F6F741A
S21401726020757020446174612057617320537563E3
S2140172706365737366756C6C792073656E74000054
S2140172804572726F72203A2053656E64696E67208C
S214017290426F6F747570204661696C65640000000A
S2140172A04854545020696E6974206572726F72007A
S2140172B04854545020696E6974207375636365730E
S2140172C0730000004950204164647265737320693D
S2140172D073200000687474703A2F2F25732F73770C
S2140172E0616368686268617261742F73696D636156
S2140172F0757365007B2264617461223A7B22696D35
S2140173006569223A222573222C227263223A2225AB
S21401731064222C227365223A222564222C2274735D
S214017320223A222573227D7D0000000073656E647B
S214017330696E6720737563636573732100000000CF
S21401734073656E64696E67206661696C65642100A9
S214017350494D5349204E4F203A000000687474701E
S2140173603A2F2F25732F73656E736F722F626F6FAF
S214017370747570007B2264617461223A7B22696DA8
S2140173806569223A222573222C22696D7369223A95
S214017390222573222C226C6174223A222573222C18
S2140173A0226C6E67223A222573222C22747970652C
S2140173B0223A2274656D7065726174757265222C4D
S2140173C02268775F76223A222573222C2273775F12
S2140173D076223A222573222C227473223A222573AE
S2140173E0227D7D00706F7374207061796C6F6164AB
S2140173F03A00000073656E64696E67207375636397
S21401740065737300687474703A2F2F25732F736534
S2140174106E736F722F6C6976650000007B22646163
S2140174207461223A7B22696D6569223A22257322AC
S2140174302C2272737369223A222564222C227473D9
S214017440223A222573227D2C2273656E736F722277
S2140174503A5B7B2274797065223A2274656D706599
S214017460726174757265222C226164635F766F6C3B
S21401747074223A222573222C2276616C7565223A93
S214017480222573222C22756E697473223A224322B6
S2140174907D5D7D200000000073656E64696E672067
S2140174A074797065204E6F74206D617463686564CD
S2140174B021000000726567697374726174696F6E8A
S2140174C0204661696C6564210000000044617461B6
S2140174D02069732055706C6F616465642053756311
S2140174E06365737366756C6C790000004572726F24
S2140174F07220696E2053656E64696E6720646174DC
S2140175006120746F20436C6F756400000D0A534947
S2140175104D20434152442053455454494E470000A0
S21401752041542B435042533D224D45220D0A000043
S2140175305349474E414C20535452454E47544820D8
S2140175402020202020202020203A200064626D0088
S21401755049532053494D20524547495354524544B7
S2140175602020202020202020203A205945530000AA
S2140175704E4554574F524B205459504520202020F9
S2140175802020202020202020203A204C4F43414C10
S21401759020283129000000004E4554574F524B20F9
S2140175A05459504520202020202020202020202013
S2140175B0203A20524F414D494E4720283529000098
S2140175C049532053494D2052454749535452454447
S2140175D02020202020202020203A204E4F0000008E
S2140175E041542B434C54533D310D0A0041542B4317
S2140175F05343533D2247534D220D0A0041542B431A
S2140176004E4D493D322C312C302C300D0A000000F5
S21401761041542B43534D50203D31372C3235352CB8
S214017620302C300D0A00000041542B435341533D8A
S214017630300D0A00534D532044454C454354494EA2
S214017640472020202020202020202020203A2053C0
S21401765055434345535346554C0000004953204E6D
S214017660554D4245522056414C4944202020202069
S21401767020202020203A2059455300004953204E0F
S214017680554D4245522056414C4944202020202049
S21401769020202020203A204E4F0000000D0A54459D
S2140176A04D502041444320564F4C544147452020DD
S2140176B0202020202020203A200000005245534957
S2140176C05354414E434520202020202020202020B6
S2140176D020202020203A200054454D504552415448
S2140176E055524520494E2043454C53495553202079
S2140176F0203A2000204300002F0000005945415247
S2140177002020202020202020202020202020202073
S21401771020202020203A20004D4F4E544820202083
S2140177202020202020202020202020202020202053
S214017730203A2000444154452020202020202020AB
S214017740202020202020202020202020203A200039
S214017750434C4F434B2053594E4348524F4E495A80
S2140177604154494F4E202020203A2053554343454B
S214017770535346554C00000041542B434C54533F41
S2140177800D0A000041542B43434C4B3F00000000C0
S21401779041542B434C54533D313B26570D0A0000B0
S2140177A041542B434C54533F0000000041542B439B
S2140177B046554E3D312C310D0A00000041542B43F5
S2140177C046554E3D312C3100202020202028747251
S2140177D079696E6720746F20706F776572204F4EDF
S2140177E02047534D290000004D4F4E54482020207D
S2140177F02020202020202020202020202020202083
S214017800203A0000444154452020202020202020FA
S214017810202020202020202020202020203A000088
S214017820434C4F434B2053594E4348524F4E495AAF
S2140178304154494F4E202020203A204641494C458C
S2140178404400000074696D652053796E63204661BB
S214017850696C6564210000006874747020696E6943
S21401786074206572726F72006874747020696E6934
S21401787074204661696C6564000000006874747069
S21401788020696E6974207375636365737300000005
S214017890526563656976696E67204661696C6564E1
S2140178A02100000052656365697665207375636320
S2140178B06573730066696C652073697A653A0000C2
S2140178C052656365697665204661696C656400008A
S2140178D053554343455353212077726974696E6744
S2140178E02053756363657373000000004F54412095
S2140178F0757064617465206661696C656421000059
S21401790025642D253032642D253032642025303211
S214017910643A253032643A253032640025642D25D8
S2140179203032642D253032642525323025303264DC
S2140179303A253032643A25303264000054696D6568
S2140179407374616D70203A0000080042000C00421A
S214017950001000420014004249444C45000000005B
S214017960546D722053766300F0FF0000F0FF0000B4
S214017970CCFF0000F0FF0000CCFF0000B2FF0000CB
S214017980B2FF0000F0FF0000F0FF0000F0FF000073
S214017990F0FF0000F0FF0000F0FF0000F0FF000025
S2140179A0F0FF0000F0FF0000F0FF0000F0FF000015
S2140179B0F0FF0000F0FF0000F0FF0000F0FF000005
S2140179C0F0FF0000F0FF0000F0FF0000F0FF0000F5
S2140179D0F0FF0000F0FF0000F0FF0000F0FF0000E5
S2140179E0F0FF0000F0FF0000F0FF0000F0FF0000D5
S2140179F0F0FF0000F0FF0000F0FF0000F0FF0000C5
S214017A00F0FF0000F0FF0000F0FF0000F0FF0000B4
S214017A10F0FF0000F0FF0000F0FF0000F0FF0000A4
S214017A20F0FF0000F0FF0000F0FF0000F0FF000094
S214017A30F0FF0000F0FF0000F0FF0000F0FF000084
S214017A40F0FF0000F0FF0000F0FF0000F0FF000074
S214017A50F0FF0000F0FF0000F0FF0000F0FF000064
S214017A60F0FF0000F0FF0000CCFF0000CCFF00009C
S214017A70D4FF0000D4FF0000D4FF0000D4FF0000B4
S214017A80454574414D4F52502E756D45A209010072
S214017A909E0901009E090100EE090100EE090100A0
S214017AA0B6090100A8090100BC090100B80B0100D4
S214017AB0980B0100980B0100080C0100AA0B0100AD
S214017AC0C60B01009C0B0100D40B01006C6F670014
S214017AD0706F7700000000000000000000003043D7
S214017AE000000000000030C3982D0100E82C0100C2
S214017AF0E82C0100E62C01008A2D01008A2D0100E8
S214017B00802D0100E62C01008A2D0100802D010048
S214017B108A2D0100E62C0100902D0100902D010018
S214017B20902D0100202E0100DC3A0100BE3A010032
S214017B30783A010096390100783A0100B03A01001E
S214017B40783A010096390100BE3A0100BE3A0100BA
S214017B50B03A0100963901008E3901008E390100D4
S214017B608E390100F43C01003C430100FC41010058
S214017B70FC410100F84101001443010014430100D7
S214017B8006430100F84101001443010006430100C9
S214017B9014430100F84101001C4301001C4301008D
S214017BA01C4301002045010030313233343536376D
S214017BB038396162636465666768696A6B6C6D6EA5
S214017BC06F707172737475767778797A0000000039
S214017BD0000000000000000000000000000000009F
S214017BE0000000000000000000000000000000008F
S214017BF0000000000000000000000000000000007F
S214017C00000000000000000000000000000000006E
S214017C10000000000000000000000000000000005E
S214017C20000000000000000000000000000000004E
S214017C304300504F534958002E00232D302B20006F
S214017C40686C4C0065666745464700303132333410
S214017C5035363738394142434445460030313233B0
S214017C603435363738396162636465660000202032
S214017C7020202020202020282828282820202020D6
S214017C802020202020202020202020202020881096
S214017C9010101010101010101010101010100404F6
S214017CA004040404040404041010101010101041FD
S214017CB0414141414101010101010101010101016E
S214017CC00101010101010101011010101010104203
S214017CD0424242424202020202020202020202023E
S214017CE0020202020202020202101010102000001C
S214017CF0000000000000000000000000000000007E
S214017D00000000000000000000000000000000006D
S214017D10000000000000000000000000000000005D
S214017D20000000000000000000000000000000004D
S214017D30000000000000000000000000000000003D
S214017D40000000000000000000000000000000002D
S214017D50000000000000000000000000000000001D
S214017D60000000000000000000000000000000000D
S214017D70F8B5C046F8BC08BC9E467047CD900000DA
S214017D80F8B5C046F8BC08BC9E467047A5900000F2
S214017D90046E0100AAAAAAAAFFFFFFFF401F000067
S214017DA0010100001800002000000000F07B010027
S214017DB0107C0100D07B01000000000000000000E4
S214017DC000000000000000000000000000000000AD
S214017DD0000000000000000000000000000000009D
S214017DE0000000000000000000000000000000008D
S214017DF0000000000000000000000000000000007D
S214017E000000000000000000430000000000000029
S214017E10000000000000000000000000000000005C
S214017E200000000000000000430000000000000009
S214017E30000000000000000000000000000000003C
S214017E4000000000000000004300000000000000E9
S214017E50000000000000000000000000000000001C
S214017E6000000000000000004300000000000000C9
S214017E7000000000000000000000000000000000FC
S214017E8000000000000000004300000000000000A9
S214017E9000000000000000000000000000000000DC
S214017EA00000000000000000430000000000000089
S214017EB000000000000000000000000000000000BC
S214017EC00000000000000000430000000000000069
S214017ED0000000000000000000000000000000009C
S214017EE00000000000000000195B010015550100AC
S214017EF0000000006D7C0100387C01003F7C010021
S214017F003F7C01003F7C01003F7C01003F7C01007B
S214017F103F7C01003F7C01003F7C01003F7C01006B
S214017F20FFFFFFFFFFFFFFFFFFFFFFFFFFFF000059
S214017F3001004153434949000000000000000000D1
S214017F40000000000000000000000000000000002B
S214017F5000004153434949000000000000000000B2
S214017F60000000000000000000000000000000000B
S208017F700000000007
S80401110DDC
